{
	"data": {
		"bytecode": {
			"linkReferences": {},
			"object": "60a0604052306080526706f05b59d3b20000600955670de0b6b3a7640000600a5534801561002b575f80fd5b50610034610039565b6105fc565b7ff0c57e16840df040f15088dc2f81fe391c3923bec73e23a9662efc9c229c6a00805468010000000000000000810460ff1615906001600160401b03165f811580156100825750825b90505f826001600160401b0316600114801561009d5750303b155b9050811580156100ab575080155b156100c95760405163f92ee8a960e01b815260040160405180910390fd5b84546001600160401b031916600117855583156100f757845460ff60401b1916680100000000000000001785555b6101506040518060400160405280601181526020017011da534b4d0b8c97d0d85c989bdb939195607a1b8152506040518060400160405280600881526020016711da534b50d3919560c21b81525061022360201b60201c565b610158610239565b6101613361024b565b61016961025f565b6101735f33610267565b5061019e7f0ce23c3e399818cfee81a7ab0880f714e53d7672b08df0fa62f2843416e1ea0933610267565b505f60068190556402540be40060075580556040805160608101909152603580825261435960208301396008906101d5908261053d565b50831561021c57845460ff60401b19168555604051600181527fc7f505b2f371ae2175ee4913f4499e1f2633a7b5936321eed1cdaeb6115181d29060200160405180910390a15b5050505050565b61022b610335565b6102358282610383565b5050565b610241610335565b6102496103cc565b565b610253610335565b61025c816103ff565b50565b610249610335565b5f8281527f02dd7bc7dec4dceedda775e58dd541e08a116c6c53815c0bd028192f7b626800602081815260408084206001600160a01b038616855290915282205460ff1661032a575f848152602082815260408083206001600160a01b03871684529091529020805460ff191660011790556102e03390565b6001600160a01b0316836001600160a01b0316857f2f8788117e7eff1d82e926ec794901d17c78024a50270940304540a733656f0d60405160405180910390a4600191505061032f565b5f9150505b92915050565b7ff0c57e16840df040f15088dc2f81fe391c3923bec73e23a9662efc9c229c6a005468010000000000000000900460ff1661024957604051631afcd79f60e31b815260040160405180910390fd5b61038b610335565b7f80bb2b638cc20bc4d0a60d66940f3ab4a00c1d7b313497ca82fb0b4ab0079300806103b7848261053d565b50600181016103c6838261053d565b50505050565b6103d4610335565b7fcd5ed15c6e187e77e9aee88184c21f4f2182ab5827cb3b7e07fbedcd63f03300805460ff19169055565b610407610335565b6001600160a01b03811661043457604051631e4fbdf760e01b81525f600482015260240160405180910390fd5b61025c817f9016d09d72d40fdae2fd8ceac6b6234c7706214fd39c1cd1e609a0528c19930080546001600160a01b031981166001600160a01b03848116918217845560405192169182907f8be0079c531659141344cd1fd0a4f28419497f9722a3daafe3b4186f6b6457e0905f90a3505050565b634e487b7160e01b5f52604160045260245ffd5b600181811c908216806104d057607f821691505b6020821081036104ee57634e487b7160e01b5f52602260045260245ffd5b50919050565b601f82111561053857805f5260205f20601f840160051c810160208510156105195750805b601f840160051c820191505b8181101561021c575f8155600101610525565b505050565b81516001600160401b03811115610556576105566104a8565b61056a8161056484546104bc565b846104f4565b602080601f83116001811461059d575f84156105865750858301515b5f19600386901b1c1916600185901b1785556105f4565b5f85815260208120601f198616915b828110156105cb578886015182559484019460019091019084016105ac565b50858210156105e857878501515f19600388901b60f8161c191681555b505060018460011b0185555b505050505050565b608051613d376106225f395f81816126080152818161263101526127700152613d375ff3fe608060405260043610610387575f3560e01c80636ad2eadc116101d3578063944f28b8116100fd578063c0a33b8d1161009d578063e985e9c51161006d578063e985e9c514610a95578063ec9dd8e314610ab4578063f2fde38b14610ac8578063ffa1ad7414610ae7575f80fd5b8063c0a33b8d14610a23578063c87b56dd14610a37578063d547741f14610a56578063e7705db614610a75575f80fd5b8063a217fddf116100d8578063a217fddf146109a2578063a22cb465146109b5578063ad3cb1cc146109d4578063b88d4fde14610a04575f80fd5b8063944f28b81461095057806395d89b411461096f5780639c0ae0b414610983575f80fd5b80637a2c3048116101735780638456cb59116101435780638456cb59146108c25780638650d571146108d65780638da5cb5b146108f557806391d1485414610931575f80fd5b80637a2c30481461085157806380f446751461087057806380f556051461088f5780638129fc1c146108ae575f80fd5b806370a08231116101ae57806370a08231146107d6578063715018a6146107f557806374f5331714610809578063753e07471461083c575f80fd5b80636ad2eadc146107805780636ca0b0d7146107955780636fa9d5a7146107a9575f80fd5b80632fbc4436116102b457806344a0d68a11610254578063616edbc511610224578063616edbc5146107195780636352211e146107385780636866064f146107575780636a30ff351461076c575f80fd5b806344a0d68a146106b05780634f1ef286146106cf57806352d1902d146106e25780635c975abb146106f6575f80fd5b80633b05063e1161028f5780633b05063e1461062d5780633f4ba83a1461065e57806341c099a41461067257806342842e0e14610691575f80fd5b80632fbc4436146105b1578063302a5f18146105d057806336568abe1461060e575f80fd5b806320fba1621161032a5780632d8a5a49116102fa5780632d8a5a49146105225780632e2f164f146105415780632f0d8b43146105735780632f2ff15d14610592575f80fd5b806320fba162146104a6578063238d7fc4146104c557806323b872dd146104e4578063248a9ca314610503575f80fd5b806306fdde031161036557806306fdde0314610401578063081812fc14610422578063095ea7b31461045957806310590b741461047a575f80fd5b806301ffc9a71461038b578063025651cc146103bf57806306f856f7146103de575b5f80fd5b348015610396575f80fd5b506103aa6103a53660046130f6565b610b15565b60405190151581526020015b60405180910390f35b3480156103ca575f80fd5b506103aa6103d9366004613111565b610b3f565b3480156103e9575f80fd5b506103f3600a5481565b6040519081526020016103b6565b34801561040c575f80fd5b50610415610c9d565b6040516103b6919061315f565b34801561042d575f80fd5b5061044161043c366004613171565b610d3e565b6040516001600160a01b0390911681526020016103b6565b348015610464575f80fd5b506104786104733660046131a3565b610d52565b005b348015610485575f80fd5b50610499610494366004613171565b610d61565b6040516103b691906131ff565b3480156104b1575f80fd5b5060408051602081019091525f8152610415565b3480156104d0575f80fd5b506104786104df3660046132b4565b611018565b3480156104ef575f80fd5b506104786104fe3660046132cd565b611179565b34801561050e575f80fd5b506103f361051d366004613171565b611202565b34801561052d575f80fd5b5061047861053c366004613171565b611222565b34801561054c575f80fd5b5061056061055b366004613171565b611269565b6040516103b69796959493929190613306565b34801561057e575f80fd5b5061047861058d3660046133c6565b6114cb565b34801561059d575f80fd5b506104786105ac36600461341b565b61155b565b3480156105bc575f80fd5b506104786105cb3660046132b4565b611577565b3480156105db575f80fd5b506106016105ea366004613171565b5f9081526003602052604090206004015460ff1690565b6040516103b69190613445565b348015610619575f80fd5b5061047861062836600461341b565b6115a1565b348015610638575f80fd5b5061064c6106473660046134ef565b6115d9565b6040516103b696959493929190613520565b348015610669575f80fd5b5061047861169e565b34801561067d575f80fd5b506103f361068c3660046134ef565b6116b0565b34801561069c575f80fd5b506104786106ab3660046132cd565b6116da565b3480156106bb575f80fd5b506104786106ca366004613171565b6116f4565b6104786106dd36600461355b565b611701565b3480156106ed575f80fd5b506103f361171c565b348015610701575f80fd5b505f80516020613cc28339815191525460ff166103aa565b348015610724575f80fd5b50610478610733366004613171565b611737565b348015610743575f80fd5b50610441610752366004613171565b611744565b348015610762575f80fd5b506103f360095481565b348015610777575f80fd5b5061041561174e565b34801561078b575f80fd5b506103f360065481565b3480156107a0575f80fd5b506103f3600181565b3480156107b4575f80fd5b506107c86107c33660046132b4565b6117da565b6040516103b69291906135a5565b3480156107e1575f80fd5b506103f36107f03660046132b4565b611901565b348015610800575f80fd5b50610478611959565b348015610814575f80fd5b506103f37fd1f21ec03a6eb050fba156f5316dad461735df521fb446dd42c5a4728e9c70fe81565b348015610847575f80fd5b506103f360075481565b34801561085c575f80fd5b5061047861086b3660046135c9565b61196a565b34801561087b575f80fd5b50600254610441906001600160a01b031681565b34801561089a575f80fd5b50600154610441906001600160a01b031681565b3480156108b9575f80fd5b506104786119ce565b3480156108cd575f80fd5b50610478611b95565b3480156108e1575f80fd5b506104786108f03660046134ef565b611ba5565b348015610900575f80fd5b507f9016d09d72d40fdae2fd8ceac6b6234c7706214fd39c1cd1e609a0528c199300546001600160a01b0316610441565b34801561093c575f80fd5b506103aa61094b36600461341b565b611bb9565b34801561095b575f80fd5b5061047861096a3660046132b4565b611bef565b34801561097a575f80fd5b50610415611c19565b34801561098e575f80fd5b5061047861099d366004613643565b611c57565b3480156109ad575f80fd5b506103f35f81565b3480156109c0575f80fd5b506104786109cf36600461368e565b611cf7565b3480156109df575f80fd5b50610415604051806040016040528060058152602001640352e302e360dc1b81525081565b348015610a0f575f80fd5b50610478610a1e3660046136c7565b611d02565b348015610a2e575f80fd5b506007546103f3565b348015610a42575f80fd5b50610415610a51366004613171565b611d19565b348015610a61575f80fd5b50610478610a7036600461341b565b611e26565b348015610a80575f80fd5b506103f35f80516020613ce283398151915281565b348015610aa0575f80fd5b506103aa610aaf36600461372a565b611e42565b348015610abf575f80fd5b506103f35f5481565b348015610ad3575f80fd5b50610478610ae23660046132b4565b611e8e565b348015610af2575f80fd5b50610415604051806040016040528060038152602001620312e360ec1b81525081565b5f6001600160e01b03198216637965db0b60e01b1480610b395750610b3982611ec8565b92915050565b6001545f906001600160a01b0316610b915760405162461bcd60e51b815260206004820152601060248201526f115c9c9bdc8e88139bc81b585c9ad95d60821b60448201526064015b60405180910390fd5b60015f8481526003602081905260409091206004015460ff1690811115610bba57610bba6131cb565b14610bff5760405162461bcd60e51b81526020600482015260156024820152744572726f723a204e4654204e6f742056657269667960581b6044820152606401610b88565b6001546040805160208082018690528251808303909101815290820190915233916001600160a01b031690610c3683838884611d02565b816001600160a01b0316610c4987611744565b6001600160a01b031614610c915760405162461bcd60e51b815260206004820152600f60248201526e151c985b9cd9995c8819985a5b1959608a1b6044820152606401610b88565b50600195945050505050565b5f80516020613c2d8339815191528054606091908190610cbc90613752565b80601f0160208091040260200160405190810160405280929190818152602001828054610ce890613752565b8015610d335780601f10610d0a57610100808354040283529160200191610d33565b820191905f5260205f20905b815481529060010190602001808311610d1657829003601f168201915b505050505091505090565b5f610d4882611f17565b50610b3982611f4e565b610d5d828233611f87565b5050565b610d69613096565b5f8281526003602052604090819020815160e08101909252805482908290610d9090613752565b80601f0160208091040260200160405190810160405280929190818152602001828054610dbc90613752565b8015610e075780601f10610dde57610100808354040283529160200191610e07565b820191905f5260205f20905b815481529060010190602001808311610dea57829003601f168201915b50505050508152602001600182018054610e2090613752565b80601f0160208091040260200160405190810160405280929190818152602001828054610e4c90613752565b8015610e975780601f10610e6e57610100808354040283529160200191610e97565b820191905f5260205f20905b815481529060010190602001808311610e7a57829003601f168201915b50505050508152602001600282018054610eb090613752565b80601f0160208091040260200160405190810160405280929190818152602001828054610edc90613752565b8015610f275780601f10610efe57610100808354040283529160200191610f27565b820191905f5260205f20905b815481529060010190602001808311610f0a57829003601f168201915b50505091835250506003828101546020830152600483015460409092019160ff1690811115610f5857610f586131cb565b6003811115610f6957610f696131cb565b8152602001600582018054610f7d90613752565b80601f0160208091040260200160405190810160405280929190818152602001828054610fa990613752565b8015610ff45780601f10610fcb57610100808354040283529160200191610ff4565b820191905f5260205f20905b815481529060010190602001808311610fd757829003601f168201915b5050509183525050600691909101546001600160a01b031660209091015292915050565b611020611f94565b5f54600754811061106b5760405162461bcd60e51b81526020600482015260156024820152744572726f723a204e4654206e6f206c65667421212160581b6044820152606401610b88565b6001015f81905561107c8282611fc4565b600860405160200161108e91906137f9565b60408051601f198184030181529181525f838152600360205220600501906110b69082613889565b505f8181526003602081815260408084206004808201805460ff191690556001600160a01b0388168652835290842093859052919052600101906110fa9082613943565b506001600160a01b0382165f9081526004602090815260408083208484526003909252909120600201906111319060010182613943565b50604080516001600160a01b0384168152602081018390527f666f6f2826adf5a4604322c06f0b3a86afbe18f87a5050729492f0c0e6973fef91015b60405180910390a15050565b6001600160a01b0382166111a257604051633250574960e11b81525f6004820152602401610b88565b5f6111ae838333611fdd565b9050836001600160a01b0316816001600160a01b0316146111fc576040516364283d7b60e01b81526001600160a01b0380861660048301526024820184905282166044820152606401610b88565b50505050565b5f9081525f80516020613ca2833981519152602052604090206001015490565b6112395f80516020613ce283398151915233611bb9565b6112555760405162461bcd60e51b8152600401610b8890613a0c565b61125d611f94565b611266816120e1565b50565b60036020525f908152604090208054819061128390613752565b80601f01602080910402602001604051908101604052809291908181526020018280546112af90613752565b80156112fa5780601f106112d1576101008083540402835291602001916112fa565b820191905f5260205f20905b8154815290600101906020018083116112dd57829003601f168201915b50505050509080600101805461130f90613752565b80601f016020809104026020016040519081016040528092919081815260200182805461133b90613752565b80156113865780601f1061135d57610100808354040283529160200191611386565b820191905f5260205f20905b81548152906001019060200180831161136957829003601f168201915b50505050509080600201805461139b90613752565b80601f01602080910402602001604051908101604052809291908181526020018280546113c790613752565b80156114125780601f106113e957610100808354040283529160200191611412565b820191905f5260205f20905b8154815290600101906020018083116113f557829003601f168201915b50505050600383015460048401546005850180549495929460ff90921693509061143b90613752565b80601f016020809104026020016040519081016040528092919081815260200182805461146790613752565b80156114b25780601f10611489576101008083540402835291602001916114b2565b820191905f5260205f20905b81548152906001019060200180831161149557829003601f168201915b505050600690930154919250506001600160a01b031687565b6114e25f80516020613ce283398151915233611bb9565b6114fe5760405162461bcd60e51b8152600401610b8890613a0c565b611506611f94565b61150f84611018565b6115515f5484848080601f0160208091040260200160405190810160405280939291908181526020018383808284375f92019190915250869250612332915050565b6111fc5f546120e1565b61156482611202565b61156d8161241f565b6111fc8383612429565b61157f6124ca565b600280546001600160a01b0319166001600160a01b0392909216919091179055565b6001600160a01b03811633146115ca5760405163334bd91960e11b815260040160405180910390fd5b6115d48282612525565b505050565b80516020818301810180516005825292820191909301209152805481906115ff90613752565b80601f016020809104026020016040519081016040528092919081815260200182805461162b90613752565b80156116765780601f1061164d57610100808354040283529160200191611676565b820191905f5260205f20905b81548152906001019060200180831161165957829003601f168201915b5050505050908060010154908060020154908060030154908060040154908060050154905086565b6116a66124ca565b6116ae61259e565b565b5f6005826040516116c19190613a64565b9081526020016040518091039020600101549050919050565b6115d483838360405180602001604052805f815250611d02565b6116fc6124ca565b600655565b6117096125fd565b611712826126a1565b610d5d82826126a9565b5f611725612765565b505f80516020613c8283398151915290565b61173f6124ca565b600755565b5f610b3982611f17565b6008805461175b90613752565b80601f016020809104026020016040519081016040528092919081815260200182805461178790613752565b80156117d25780601f106117a9576101008083540402835291602001916117d2565b820191905f5260205f20905b8154815290600101906020018083116117b557829003601f168201915b505050505081565b60046020525f90815260409020805481906117f490613752565b80601f016020809104026020016040519081016040528092919081815260200182805461182090613752565b801561186b5780601f106118425761010080835404028352916020019161186b565b820191905f5260205f20905b81548152906001019060200180831161184e57829003601f168201915b50505050509080600101805461188090613752565b80601f01602080910402602001604051908101604052809291908181526020018280546118ac90613752565b80156118f75780601f106118ce576101008083540402835291602001916118f7565b820191905f5260205f20905b8154815290600101906020018083116118da57829003601f168201915b5050505050905082565b5f5f80516020613c2d8339815191526001600160a01b038316611939576040516322718ad960e21b81525f6004820152602401610b88565b6001600160a01b039092165f908152600390920160205250604090205490565b6119616124ca565b6116ae5f6127ae565b6119726124ca565b6001600160a01b0385165f908152600460205260409020611994848683613a6f565b506001600160a01b0385165f9081526004602052604090206001016119ba828483613a6f565b506119c78484848461281e565b5050505050565b7ff0c57e16840df040f15088dc2f81fe391c3923bec73e23a9662efc9c229c6a008054600160401b810460ff1615906001600160401b03165f81158015611a125750825b90505f826001600160401b03166001148015611a2d5750303b155b905081158015611a3b575080155b15611a595760405163f92ee8a960e01b815260040160405180910390fd5b845467ffffffffffffffff191660011785558315611a8357845460ff60401b1916600160401b1785555b611ad66040518060400160405280601181526020017011da534b4d0b8c97d0d85c989bdb939195607a1b8152506040518060400160405280600881526020016711da534b50d3919560c21b81525061284d565b611ade61285f565b611ae73361286f565b611aef612880565b611af95f33612429565b50611b115f80516020613ce283398151915233612429565b505f60068190556402540be400600755805560408051606081019091526035808252613c4d6020830139600890611b489082613889565b5083156119c757845460ff60401b19168555604051600181527fc7f505b2f371ae2175ee4913f4499e1f2633a7b5936321eed1cdaeb6115181d29060200160405180910390a15050505050565b611b9d6124ca565b6116ae612888565b611bad6124ca565b6008610d5d8282613889565b5f9182525f80516020613ca2833981519152602090815260408084206001600160a01b0393909316845291905290205460ff1690565b611bf76124ca565b600180546001600160a01b0319166001600160a01b0392909216919091179055565b7f80bb2b638cc20bc4d0a60d66940f3ab4a00c1d7b313497ca82fb0b4ab007930180546060915f80516020613c2d83398151915291610cbc90613752565b611c5f611f94565b33611c6984611744565b6001600160a01b03161480611c905750611c905f80516020613ce283398151915233611bb9565b611cec5760405162461bcd60e51b815260206004820152602760248201527f4572726f723a20757064617465206f6e6c79206279206f776e6572206f72207660448201526632b934b334b2b960c91b6064820152608401610b88565b6115d4838383612332565b610d5d3383836128d0565b611d0d848484611179565b6111fc8484848461297f565b6060611d2482612a9e565b611d885760405162461bcd60e51b815260206004820152602f60248201527f4552433732314d657461646174613a2055524920717565727920666f72206e6f60448201526e3732bc34b9ba32b73a103a37b5b2b760891b6064820152608401610b88565b5f8281526003602052604090206005018054611da390613752565b80601f0160208091040260200160405190810160405280929190818152602001828054611dcf90613752565b8015611e1a5780601f10611df157610100808354040283529160200191611e1a565b820191905f5260205f20905b815481529060010190602001808311611dfd57829003601f168201915b50505050509050919050565b611e2f82611202565b611e388161241f565b6111fc8383612525565b6001600160a01b039182165f9081527f80bb2b638cc20bc4d0a60d66940f3ab4a00c1d7b313497ca82fb0b4ab00793056020908152604080832093909416825291909152205460ff1690565b611e966124ca565b6001600160a01b038116611ebf57604051631e4fbdf760e01b81525f6004820152602401610b88565b611266816127ae565b5f6001600160e01b031982166380ac58cd60e01b1480611ef857506001600160e01b03198216635b5e139f60e01b145b80610b3957506301ffc9a760e01b6001600160e01b0319831614610b39565b5f80611f2283612aba565b90506001600160a01b038116610b3957604051637e27328960e01b815260048101849052602401610b88565b5f9081527f80bb2b638cc20bc4d0a60d66940f3ab4a00c1d7b313497ca82fb0b4ab007930460205260409020546001600160a01b031690565b6115d48383836001612af3565b5f80516020613cc28339815191525460ff16156116ae5760405163d93c066560e01b815260040160405180910390fd5b610d5d828260405180602001604052805f815250612c06565b5f5f80516020613c2d83398151915281611ff685612aba565b90506001600160a01b0384161561201257612012818587612c1c565b6001600160a01b0381161561204e5761202d5f865f80612af3565b6001600160a01b0381165f908152600383016020526040902080545f190190555b6001600160a01b0386161561207e576001600160a01b0386165f9081526003830160205260409020805460010190555b5f85815260028301602052604080822080546001600160a01b0319166001600160a01b038a811691821790925591518893918516917fddf252ad1be2c89b69c2b068fc378daa952ba7f163c4a11628f55a4df523b3ef91a49150505b9392505050565b5f818152600360208190526040822001546120fa911090565b6121505760405162461bcd60e51b815260206004820152602160248201527f4572726f723a20636172626f6e20616d6f756e74206d757374207570706572206044820152600360fc1b6064820152608401610b88565b5f8181526003602052604081206004015460ff1690816003811115612177576121776131cb565b146121d05760405162461bcd60e51b815260206004820152602360248201527f4572726f723a2074686973206e667420697320616c72656164792076657269666044820152621a595960ea1b6064820152608401610b88565b60086040516020016121e29190613b23565b60408051601f198184030181529181525f8481526003602052206005019061220a9082613889565b50612216826001612c80565b5f8281526003602052604081206006810180546001600160a01b03191633179055600101805461224590613752565b80601f016020809104026020016040519081016040528092919081815260200182805461227190613752565b80156122bc5780601f10612293576101008083540402835291602001916122bc565b820191905f5260205f20905b81548152906001019060200180831161229f57829003601f168201915b505050505090505f6005826040516122d49190613a64565b90815260200160405180910390206001015490506123068160035f8781526020019081526020015f2060030154612ce8565b9050806005836040516123199190613a64565b9081526040519081900360200190206001015550505050565b5f8381526003602052604081206004015460ff1690816003811115612359576123596131cb565b146123b25760405162461bcd60e51b815260206004820152602360248201527f4572726f723a2074686973204e465420697320616c72656164792076657269666044820152621a595960ea1b6064820152608401610b88565b5f8481526003602052604090206123c98482613889565b505f8481526003602081905260409182902001839055517fd709640c99e64fb441c88579b8b36681c3341af28e4e1ff0c759c7ef6f1e69549061241190869086908690613b54565b60405180910390a150505050565b6112668133612cf9565b5f5f80516020613ca28339815191526124428484611bb9565b6124c1575f848152602082815260408083206001600160a01b03871684529091529020805460ff191660011790556124773390565b6001600160a01b0316836001600160a01b0316857f2f8788117e7eff1d82e926ec794901d17c78024a50270940304540a733656f0d60405160405180910390a46001915050610b39565b5f915050610b39565b336124fc7f9016d09d72d40fdae2fd8ceac6b6234c7706214fd39c1cd1e609a0528c199300546001600160a01b031690565b6001600160a01b0316146116ae5760405163118cdaa760e01b8152336004820152602401610b88565b5f5f80516020613ca283398151915261253e8484611bb9565b156124c1575f848152602082815260408083206001600160a01b0387168085529252808320805460ff1916905551339287917ff6391f5c32d9c69d2a47ea670b442974b53935d1edc7fd64eb21e047a839171b9190a46001915050610b39565b6125a6612d32565b5f80516020613cc2833981519152805460ff191681557f5db9ee0a495bf2e6ff9c91a7834c1ba4fdd244a5e8aa4e537bd38aeae4b073aa335b6040516001600160a01b03909116815260200160405180910390a150565b306001600160a01b037f000000000000000000000000000000000000000000000000000000000000000016148061268357507f00000000000000000000000000000000000000000000000000000000000000006001600160a01b03166126775f80516020613c82833981519152546001600160a01b031690565b6001600160a01b031614155b156116ae5760405163703e46dd60e11b815260040160405180910390fd5b6112666124ca565b816001600160a01b03166352d1902d6040518163ffffffff1660e01b8152600401602060405180830381865afa925050508015612703575060408051601f3d908101601f1916820190925261270091810190613b7c565b60015b61272b57604051634c9c8ce360e01b81526001600160a01b0383166004820152602401610b88565b5f80516020613c82833981519152811461275b57604051632a87526960e21b815260048101829052602401610b88565b6115d48383612d61565b306001600160a01b037f000000000000000000000000000000000000000000000000000000000000000016146116ae5760405163703e46dd60e11b815260040160405180910390fd5b7f9016d09d72d40fdae2fd8ceac6b6234c7706214fd39c1cd1e609a0528c19930080546001600160a01b031981166001600160a01b03848116918217845560405192169182907f8be0079c531659141344cd1fd0a4f28419497f9722a3daafe3b4186f6b6457e0905f90a3505050565b818160058686604051612832929190613b93565b908152604051908190036020019020916119c7919083613a6f565b612855612db6565b610d5d8282612dff565b612867612db6565b6116ae612e2f565b612877612db6565b61126681612e4f565b6116ae612db6565b612890611f94565b5f80516020613cc2833981519152805460ff191660011781557f62e78cea01bee320cd4e420270b5ea74000d11b0c9f74754ebdbfc544b05a258336125df565b5f80516020613c2d8339815191526001600160a01b03831661291057604051630b61174360e31b81526001600160a01b0384166004820152602401610b88565b6001600160a01b038481165f818152600584016020908152604080832094881680845294825291829020805460ff191687151590811790915591519182527f17307eab39ab6107e8899845ad3d59bd9653f200f220920489ca2b5937696c31910160405180910390a350505050565b6001600160a01b0383163b156111fc57604051630a85bd0160e11b81526001600160a01b0384169063150b7a02906129c1903390889087908790600401613ba2565b6020604051808303815f875af19250505080156129fb575060408051601f3d908101601f191682019092526129f891810190613bde565b60015b612a62573d808015612a28576040519150601f19603f3d011682016040523d82523d5f602084013e612a2d565b606091505b5080515f03612a5a57604051633250574960e11b81526001600160a01b0385166004820152602401610b88565b805181602001fd5b6001600160e01b03198116630a85bd0160e11b146119c757604051633250574960e11b81526001600160a01b0385166004820152602401610b88565b5f80612aa983612aba565b6001600160a01b0316141592915050565b5f9081527f80bb2b638cc20bc4d0a60d66940f3ab4a00c1d7b313497ca82fb0b4ab007930260205260409020546001600160a01b031690565b5f80516020613c2d8339815191528180612b1557506001600160a01b03831615155b15612bd6575f612b2485611f17565b90506001600160a01b03841615801590612b505750836001600160a01b0316816001600160a01b031614155b8015612b635750612b618185611e42565b155b15612b8c5760405163a9fbf51f60e01b81526001600160a01b0385166004820152602401610b88565b8215612bd45784866001600160a01b0316826001600160a01b03167f8c5be1e5ebec7d5bd14f71427d1e84f3dd0314c0f7b2291e5b200ac8c7c3b92560405160405180910390a45b505b5f93845260040160205250506040902080546001600160a01b0319166001600160a01b0392909216919091179055565b612c108383612e57565b6115d45f84848461297f565b612c27838383612eb8565b6115d4576001600160a01b038316612c5557604051637e27328960e01b815260048101829052602401610b88565b60405163177e802f60e01b81526001600160a01b038316600482015260248101829052604401610b88565b5f8281526003602081905260409091206004018054839260ff19909116906001908490811115612cb257612cb26131cb565b02179055507fbd17d2fb28a1298057a4e6f1d8aca7877bfb8dfd4ecc8e67492ccc5584455cc3828260405161116d929190613bf9565b5f6120da612cf68385613c0d565b90565b612d038282611bb9565b610d5d5760405163e2517d3f60e01b81526001600160a01b038216600482015260248101839052604401610b88565b5f80516020613cc28339815191525460ff166116ae57604051638dfc202b60e01b815260040160405180910390fd5b612d6a82612f1d565b6040516001600160a01b038316907fbc7cd75a20ee27fd9adebab32041f755214dbc6bffa90cc0225b39da2e5c2d3b905f90a2805115612dae576115d48282612f80565b610d5d612ff2565b7ff0c57e16840df040f15088dc2f81fe391c3923bec73e23a9662efc9c229c6a0054600160401b900460ff166116ae57604051631afcd79f60e31b815260040160405180910390fd5b612e07612db6565b5f80516020613c2d83398151915280612e208482613889565b50600181016111fc8382613889565b612e37612db6565b5f80516020613cc2833981519152805460ff19169055565b611e96612db6565b6001600160a01b038216612e8057604051633250574960e11b81525f6004820152602401610b88565b5f612e8c83835f611fdd565b90506001600160a01b038116156115d4576040516339e3563760e11b81525f6004820152602401610b88565b5f6001600160a01b03831615801590612f155750826001600160a01b0316846001600160a01b03161480612ef15750612ef18484611e42565b80612f155750826001600160a01b0316612f0a83611f4e565b6001600160a01b0316145b949350505050565b806001600160a01b03163b5f03612f5257604051634c9c8ce360e01b81526001600160a01b0382166004820152602401610b88565b5f80516020613c8283398151915280546001600160a01b0319166001600160a01b0392909216919091179055565b60605f80846001600160a01b031684604051612f9c9190613a64565b5f60405180830381855af49150503d805f8114612fd4576040519150601f19603f3d011682016040523d82523d5f602084013e612fd9565b606091505b5091509150612fe9858383613011565b95945050505050565b34156116ae5760405163b398979f60e01b815260040160405180910390fd5b606082613026576130218261306d565b6120da565b815115801561303d57506001600160a01b0384163b155b1561306657604051639996b31560e01b81526001600160a01b0385166004820152602401610b88565b50806120da565b80511561307d5780518082602001fd5b604051630a12f52160e11b815260040160405180910390fd5b6040518060e001604052806060815260200160608152602001606081526020015f81526020015f60038111156130ce576130ce6131cb565b8152606060208201525f60409091015290565b6001600160e01b031981168114611266575f80fd5b5f60208284031215613106575f80fd5b81356120da816130e1565b5f8060408385031215613122575f80fd5b50508035926020909101359150565b5f81518084528060208401602086015e5f602082860101526020601f19601f83011685010191505092915050565b602081525f6120da6020830184613131565b5f60208284031215613181575f80fd5b5035919050565b80356001600160a01b038116811461319e575f80fd5b919050565b5f80604083850312156131b4575f80fd5b6131bd83613188565b946020939093013593505050565b634e487b7160e01b5f52602160045260245ffd5b600481106131fb57634e487b7160e01b5f52602160045260245ffd5b9052565b602081525f825160e0602084015261321b610100840182613131565b90506020840151601f19808584030160408601526132398383613131565b925060408601519150808584030160608601526132568383613131565b9250606086015160808601526080860151915061327660a08601836131df565b60a08601519150808584030160c0860152506132928282613131565b60c095909501516001600160a01b031660e09490940193909352509192915050565b5f602082840312156132c4575f80fd5b6120da82613188565b5f805f606084860312156132df575f80fd5b6132e884613188565b92506132f660208501613188565b9150604084013590509250925092565b60e081525f61331860e083018a613131565b828103602084015261332a818a613131565b9050828103604084015261333e8189613131565b905086606084015261335360808401876131df565b82810360a08401526133658186613131565b91505060018060a01b03831660c083015298975050505050505050565b5f8083601f840112613392575f80fd5b5081356001600160401b038111156133a8575f80fd5b6020830191508360208285010111156133bf575f80fd5b9250929050565b5f805f80606085870312156133d9575f80fd5b6133e285613188565b935060208501356001600160401b038111156133fc575f80fd5b61340887828801613382565b9598909750949560400135949350505050565b5f806040838503121561342c575f80fd5b8235915061343c60208401613188565b90509250929050565b60208101610b3982846131df565b634e487b7160e01b5f52604160045260245ffd5b5f82601f830112613476575f80fd5b81356001600160401b038082111561349057613490613453565b604051601f8301601f19908116603f011681019082821181831017156134b8576134b8613453565b816040528381528660208588010111156134d0575f80fd5b836020870160208301375f602085830101528094505050505092915050565b5f602082840312156134ff575f80fd5b81356001600160401b03811115613514575f80fd5b612f1584828501613467565b60c081525f61353260c0830189613131565b60208301979097525060408101949094526060840192909252608083015260a090910152919050565b5f806040838503121561356c575f80fd5b61357583613188565b915060208301356001600160401b0381111561358f575f80fd5b61359b85828601613467565b9150509250929050565b604081525f6135b76040830185613131565b8281036020840152612fe98185613131565b5f805f805f606086880312156135dd575f80fd5b6135e686613188565b945060208601356001600160401b0380821115613601575f80fd5b61360d89838a01613382565b90965094506040880135915080821115613625575f80fd5b5061363288828901613382565b969995985093965092949392505050565b5f805f60608486031215613655575f80fd5b8335925060208401356001600160401b03811115613671575f80fd5b61367d86828701613467565b925050604084013590509250925092565b5f806040838503121561369f575f80fd5b6136a883613188565b9150602083013580151581146136bc575f80fd5b809150509250929050565b5f805f80608085870312156136da575f80fd5b6136e385613188565b93506136f160208601613188565b92506040850135915060608501356001600160401b03811115613712575f80fd5b61371e87828801613467565b91505092959194509250565b5f806040838503121561373b575f80fd5b61374483613188565b915061343c60208401613188565b600181811c9082168061376657607f821691505b60208210810361378457634e487b7160e01b5f52602260045260245ffd5b50919050565b5f815461379681613752565b600182811680156137ae57600181146137c3576137ef565b60ff19841687528215158302870194506137ef565b855f526020805f205f5b858110156137e65781548a8201529084019082016137cd565b50505082870194505b5050505092915050565b5f613804828461378a565b7f2f636172626f6e4e46545f6e6f745665726966792e6a736f6e0000000000000081526019019392505050565b601f8211156115d457805f5260205f20601f840160051c810160208510156138565750805b601f840160051c820191505b818110156119c7575f8155600101613862565b5f19600383901b1c191660019190911b1790565b81516001600160401b038111156138a2576138a2613453565b6138b6816138b08454613752565b84613831565b602080601f8311600181146138e4575f84156138d25750858301515b6138dc8582613875565b86555061393b565b5f85815260208120601f198616915b82811015613912578886015182559484019460019091019084016138f3565b508582101561392f57878501515f19600388901b60f8161c191681555b505060018460011b0185555b505050505050565b81810361394e575050565b6139588254613752565b6001600160401b0381111561396f5761396f613453565b61397d816138b08454613752565b5f601f8211600181146139a9575f83156139975750848201545b6139a18482613875565b8555506119c7565b5f8581526020808220868352908220601f198616925b838110156139df57828601548255600195860195909101906020016139bf565b50858310156139fc57818501545f19600388901b60f8161c191681555b5050505050600190811b01905550565b60208082526021908201527f4572726f723a2063616c6c6572206973206e6f742074686520766572696669656040820152603960f91b606082015260800190565b5f81518060208401855e5f93019283525090919050565b5f6120da8284613a4d565b6001600160401b03831115613a8657613a86613453565b613a9a83613a948354613752565b83613831565b5f601f841160018114613ac6575f8515613ab45750838201355b613abe8682613875565b8455506119c7565b5f83815260208120601f198716915b82811015613af55786850135825560209485019460019092019101613ad5565b5086821015613b11575f1960f88860031b161c19848701351681555b505060018560011b0183555050505050565b5f613b2e828461378a565b7517b1b0b93137b727232a2fab32b934b33c973539b7b760511b81526016019392505050565b838152606060208201525f613b6c6060830185613131565b9050826040830152949350505050565b5f60208284031215613b8c575f80fd5b5051919050565b818382375f9101908152919050565b6001600160a01b03858116825284166020820152604081018390526080606082018190525f90613bd490830184613131565b9695505050505050565b5f60208284031215613bee575f80fd5b81516120da816130e1565b828152604081016120da60208301846131df565b80820180821115610b3957634e487b7160e01b5f52601160045260245ffdfe80bb2b638cc20bc4d0a60d66940f3ab4a00c1d7b313497ca82fb0b4ab0079300697066733a2f2f516d546b724c414848555678346b5853737a7743724850634b554275736a4279567662736e596e37683164334837360894a13ba1a3210667c828492db98dca3e2076cc3735a920a3ca505d382bbc02dd7bc7dec4dceedda775e58dd541e08a116c6c53815c0bd028192f7b626800cd5ed15c6e187e77e9aee88184c21f4f2182ab5827cb3b7e07fbedcd63f033000ce23c3e399818cfee81a7ab0880f714e53d7672b08df0fa62f2843416e1ea09a2646970667358221220538723e2a81580ff43e579ddaa9fbdeb51fa808084d5d6a6ee91169fd1b7745564736f6c63430008190033697066733a2f2f516d546b724c414848555678346b5853737a7743724850634b554275736a4279567662736e596e37683164334837",
			"opcodes": "PUSH1 0xA0 PUSH1 0x40 MSTORE ADDRESS PUSH1 0x80 MSTORE PUSH8 0x6F05B59D3B20000 PUSH1 0x9 SSTORE PUSH8 0xDE0B6B3A7640000 PUSH1 0xA SSTORE CALLVALUE DUP1 ISZERO PUSH2 0x2B JUMPI PUSH0 DUP1 REVERT JUMPDEST POP PUSH2 0x34 PUSH2 0x39 JUMP JUMPDEST PUSH2 0x5FC JUMP JUMPDEST PUSH32 0xF0C57E16840DF040F15088DC2F81FE391C3923BEC73E23A9662EFC9C229C6A00 DUP1 SLOAD PUSH9 0x10000000000000000 DUP2 DIV PUSH1 0xFF AND ISZERO SWAP1 PUSH1 0x1 PUSH1 0x1 PUSH1 0x40 SHL SUB AND PUSH0 DUP2 ISZERO DUP1 ISZERO PUSH2 0x82 JUMPI POP DUP3 JUMPDEST SWAP1 POP PUSH0 DUP3 PUSH1 0x1 PUSH1 0x1 PUSH1 0x40 SHL SUB AND PUSH1 0x1 EQ DUP1 ISZERO PUSH2 0x9D JUMPI POP ADDRESS EXTCODESIZE ISZERO JUMPDEST SWAP1 POP DUP2 ISZERO DUP1 ISZERO PUSH2 0xAB JUMPI POP DUP1 ISZERO JUMPDEST ISZERO PUSH2 0xC9 JUMPI PUSH1 0x40 MLOAD PUSH4 0xF92EE8A9 PUSH1 0xE0 SHL DUP2 MSTORE PUSH1 0x4 ADD PUSH1 0x40 MLOAD DUP1 SWAP2 SUB SWAP1 REVERT JUMPDEST DUP5 SLOAD PUSH1 0x1 PUSH1 0x1 PUSH1 0x40 SHL SUB NOT AND PUSH1 0x1 OR DUP6 SSTORE DUP4 ISZERO PUSH2 0xF7 JUMPI DUP5 SLOAD PUSH1 0xFF PUSH1 0x40 SHL NOT AND PUSH9 0x10000000000000000 OR DUP6 SSTORE JUMPDEST PUSH2 0x150 PUSH1 0x40 MLOAD DUP1 PUSH1 0x40 ADD PUSH1 0x40 MSTORE DUP1 PUSH1 0x11 DUP2 MSTORE PUSH1 0x20 ADD PUSH17 0x11DA534B4D0B8C97D0D85C989BDB939195 PUSH1 0x7A SHL DUP2 MSTORE POP PUSH1 0x40 MLOAD DUP1 PUSH1 0x40 ADD PUSH1 0x40 MSTORE DUP1 PUSH1 0x8 DUP2 MSTORE PUSH1 0x20 ADD PUSH8 0x11DA534B50D39195 PUSH1 0xC2 SHL DUP2 MSTORE POP PUSH2 0x223 PUSH1 0x20 SHL PUSH1 0x20 SHR JUMP JUMPDEST PUSH2 0x158 PUSH2 0x239 JUMP JUMPDEST PUSH2 0x161 CALLER PUSH2 0x24B JUMP JUMPDEST PUSH2 0x169 PUSH2 0x25F JUMP JUMPDEST PUSH2 0x173 PUSH0 CALLER PUSH2 0x267 JUMP JUMPDEST POP PUSH2 0x19E PUSH32 0xCE23C3E399818CFEE81A7AB0880F714E53D7672B08DF0FA62F2843416E1EA09 CALLER PUSH2 0x267 JUMP JUMPDEST POP PUSH0 PUSH1 0x6 DUP2 SWAP1 SSTORE PUSH5 0x2540BE400 PUSH1 0x7 SSTORE DUP1 SSTORE PUSH1 0x40 DUP1 MLOAD PUSH1 0x60 DUP2 ADD SWAP1 SWAP2 MSTORE PUSH1 0x35 DUP1 DUP3 MSTORE PUSH2 0x4359 PUSH1 0x20 DUP4 ADD CODECOPY PUSH1 0x8 SWAP1 PUSH2 0x1D5 SWAP1 DUP3 PUSH2 0x53D JUMP JUMPDEST POP DUP4 ISZERO PUSH2 0x21C JUMPI DUP5 SLOAD PUSH1 0xFF PUSH1 0x40 SHL NOT AND DUP6 SSTORE PUSH1 0x40 MLOAD PUSH1 0x1 DUP2 MSTORE PUSH32 0xC7F505B2F371AE2175EE4913F4499E1F2633A7B5936321EED1CDAEB6115181D2 SWAP1 PUSH1 0x20 ADD PUSH1 0x40 MLOAD DUP1 SWAP2 SUB SWAP1 LOG1 JUMPDEST POP POP POP POP POP JUMP JUMPDEST PUSH2 0x22B PUSH2 0x335 JUMP JUMPDEST PUSH2 0x235 DUP3 DUP3 PUSH2 0x383 JUMP JUMPDEST POP POP JUMP JUMPDEST PUSH2 0x241 PUSH2 0x335 JUMP JUMPDEST PUSH2 0x249 PUSH2 0x3CC JUMP JUMPDEST JUMP JUMPDEST PUSH2 0x253 PUSH2 0x335 JUMP JUMPDEST PUSH2 0x25C DUP2 PUSH2 0x3FF JUMP JUMPDEST POP JUMP JUMPDEST PUSH2 0x249 PUSH2 0x335 JUMP JUMPDEST PUSH0 DUP3 DUP2 MSTORE PUSH32 0x2DD7BC7DEC4DCEEDDA775E58DD541E08A116C6C53815C0BD028192F7B626800 PUSH1 0x20 DUP2 DUP2 MSTORE PUSH1 0x40 DUP1 DUP5 KECCAK256 PUSH1 0x1 PUSH1 0x1 PUSH1 0xA0 SHL SUB DUP7 AND DUP6 MSTORE SWAP1 SWAP2 MSTORE DUP3 KECCAK256 SLOAD PUSH1 0xFF AND PUSH2 0x32A JUMPI PUSH0 DUP5 DUP2 MSTORE PUSH1 0x20 DUP3 DUP2 MSTORE PUSH1 0x40 DUP1 DUP4 KECCAK256 PUSH1 0x1 PUSH1 0x1 PUSH1 0xA0 SHL SUB DUP8 AND DUP5 MSTORE SWAP1 SWAP2 MSTORE SWAP1 KECCAK256 DUP1 SLOAD PUSH1 0xFF NOT AND PUSH1 0x1 OR SWAP1 SSTORE PUSH2 0x2E0 CALLER SWAP1 JUMP JUMPDEST PUSH1 0x1 PUSH1 0x1 PUSH1 0xA0 SHL SUB AND DUP4 PUSH1 0x1 PUSH1 0x1 PUSH1 0xA0 SHL SUB AND DUP6 PUSH32 0x2F8788117E7EFF1D82E926EC794901D17C78024A50270940304540A733656F0D PUSH1 0x40 MLOAD PUSH1 0x40 MLOAD DUP1 SWAP2 SUB SWAP1 LOG4 PUSH1 0x1 SWAP2 POP POP PUSH2 0x32F JUMP JUMPDEST PUSH0 SWAP2 POP POP JUMPDEST SWAP3 SWAP2 POP POP JUMP JUMPDEST PUSH32 0xF0C57E16840DF040F15088DC2F81FE391C3923BEC73E23A9662EFC9C229C6A00 SLOAD PUSH9 0x10000000000000000 SWAP1 DIV PUSH1 0xFF AND PUSH2 0x249 JUMPI PUSH1 0x40 MLOAD PUSH4 0x1AFCD79F PUSH1 0xE3 SHL DUP2 MSTORE PUSH1 0x4 ADD PUSH1 0x40 MLOAD DUP1 SWAP2 SUB SWAP1 REVERT JUMPDEST PUSH2 0x38B PUSH2 0x335 JUMP JUMPDEST PUSH32 0x80BB2B638CC20BC4D0A60D66940F3AB4A00C1D7B313497CA82FB0B4AB0079300 DUP1 PUSH2 0x3B7 DUP5 DUP3 PUSH2 0x53D JUMP JUMPDEST POP PUSH1 0x1 DUP2 ADD PUSH2 0x3C6 DUP4 DUP3 PUSH2 0x53D JUMP JUMPDEST POP POP POP POP JUMP JUMPDEST PUSH2 0x3D4 PUSH2 0x335 JUMP JUMPDEST PUSH32 0xCD5ED15C6E187E77E9AEE88184C21F4F2182AB5827CB3B7E07FBEDCD63F03300 DUP1 SLOAD PUSH1 0xFF NOT AND SWAP1 SSTORE JUMP JUMPDEST PUSH2 0x407 PUSH2 0x335 JUMP JUMPDEST PUSH1 0x1 PUSH1 0x1 PUSH1 0xA0 SHL SUB DUP2 AND PUSH2 0x434 JUMPI PUSH1 0x40 MLOAD PUSH4 0x1E4FBDF7 PUSH1 0xE0 SHL DUP2 MSTORE PUSH0 PUSH1 0x4 DUP3 ADD MSTORE PUSH1 0x24 ADD PUSH1 0x40 MLOAD DUP1 SWAP2 SUB SWAP1 REVERT JUMPDEST PUSH2 0x25C DUP2 PUSH32 0x9016D09D72D40FDAE2FD8CEAC6B6234C7706214FD39C1CD1E609A0528C199300 DUP1 SLOAD PUSH1 0x1 PUSH1 0x1 PUSH1 0xA0 SHL SUB NOT DUP2 AND PUSH1 0x1 PUSH1 0x1 PUSH1 0xA0 SHL SUB DUP5 DUP2 AND SWAP2 DUP3 OR DUP5 SSTORE PUSH1 0x40 MLOAD SWAP3 AND SWAP2 DUP3 SWAP1 PUSH32 0x8BE0079C531659141344CD1FD0A4F28419497F9722A3DAAFE3B4186F6B6457E0 SWAP1 PUSH0 SWAP1 LOG3 POP POP POP JUMP JUMPDEST PUSH4 0x4E487B71 PUSH1 0xE0 SHL PUSH0 MSTORE PUSH1 0x41 PUSH1 0x4 MSTORE PUSH1 0x24 PUSH0 REVERT JUMPDEST PUSH1 0x1 DUP2 DUP2 SHR SWAP1 DUP3 AND DUP1 PUSH2 0x4D0 JUMPI PUSH1 0x7F DUP3 AND SWAP2 POP JUMPDEST PUSH1 0x20 DUP3 LT DUP2 SUB PUSH2 0x4EE JUMPI PUSH4 0x4E487B71 PUSH1 0xE0 SHL PUSH0 MSTORE PUSH1 0x22 PUSH1 0x4 MSTORE PUSH1 0x24 PUSH0 REVERT JUMPDEST POP SWAP2 SWAP1 POP JUMP JUMPDEST PUSH1 0x1F DUP3 GT ISZERO PUSH2 0x538 JUMPI DUP1 PUSH0 MSTORE PUSH1 0x20 PUSH0 KECCAK256 PUSH1 0x1F DUP5 ADD PUSH1 0x5 SHR DUP2 ADD PUSH1 0x20 DUP6 LT ISZERO PUSH2 0x519 JUMPI POP DUP1 JUMPDEST PUSH1 0x1F DUP5 ADD PUSH1 0x5 SHR DUP3 ADD SWAP2 POP JUMPDEST DUP2 DUP2 LT ISZERO PUSH2 0x21C JUMPI PUSH0 DUP2 SSTORE PUSH1 0x1 ADD PUSH2 0x525 JUMP JUMPDEST POP POP POP JUMP JUMPDEST DUP2 MLOAD PUSH1 0x1 PUSH1 0x1 PUSH1 0x40 SHL SUB DUP2 GT ISZERO PUSH2 0x556 JUMPI PUSH2 0x556 PUSH2 0x4A8 JUMP JUMPDEST PUSH2 0x56A DUP2 PUSH2 0x564 DUP5 SLOAD PUSH2 0x4BC JUMP JUMPDEST DUP5 PUSH2 0x4F4 JUMP JUMPDEST PUSH1 0x20 DUP1 PUSH1 0x1F DUP4 GT PUSH1 0x1 DUP2 EQ PUSH2 0x59D JUMPI PUSH0 DUP5 ISZERO PUSH2 0x586 JUMPI POP DUP6 DUP4 ADD MLOAD JUMPDEST PUSH0 NOT PUSH1 0x3 DUP7 SWAP1 SHL SHR NOT AND PUSH1 0x1 DUP6 SWAP1 SHL OR DUP6 SSTORE PUSH2 0x5F4 JUMP JUMPDEST PUSH0 DUP6 DUP2 MSTORE PUSH1 0x20 DUP2 KECCAK256 PUSH1 0x1F NOT DUP7 AND SWAP2 JUMPDEST DUP3 DUP2 LT ISZERO PUSH2 0x5CB JUMPI DUP9 DUP7 ADD MLOAD DUP3 SSTORE SWAP5 DUP5 ADD SWAP5 PUSH1 0x1 SWAP1 SWAP2 ADD SWAP1 DUP5 ADD PUSH2 0x5AC JUMP JUMPDEST POP DUP6 DUP3 LT ISZERO PUSH2 0x5E8 JUMPI DUP8 DUP6 ADD MLOAD PUSH0 NOT PUSH1 0x3 DUP9 SWAP1 SHL PUSH1 0xF8 AND SHR NOT AND DUP2 SSTORE JUMPDEST POP POP PUSH1 0x1 DUP5 PUSH1 0x1 SHL ADD DUP6 SSTORE JUMPDEST POP POP POP POP POP POP JUMP JUMPDEST PUSH1 0x80 MLOAD PUSH2 0x3D37 PUSH2 0x622 PUSH0 CODECOPY PUSH0 DUP2 DUP2 PUSH2 0x2608 ADD MSTORE DUP2 DUP2 PUSH2 0x2631 ADD MSTORE PUSH2 0x2770 ADD MSTORE PUSH2 0x3D37 PUSH0 RETURN INVALID PUSH1 0x80 PUSH1 0x40 MSTORE PUSH1 0x4 CALLDATASIZE LT PUSH2 0x387 JUMPI PUSH0 CALLDATALOAD PUSH1 0xE0 SHR DUP1 PUSH4 0x6AD2EADC GT PUSH2 0x1D3 JUMPI DUP1 PUSH4 0x944F28B8 GT PUSH2 0xFD JUMPI DUP1 PUSH4 0xC0A33B8D GT PUSH2 0x9D JUMPI DUP1 PUSH4 0xE985E9C5 GT PUSH2 0x6D JUMPI DUP1 PUSH4 0xE985E9C5 EQ PUSH2 0xA95 JUMPI DUP1 PUSH4 0xEC9DD8E3 EQ PUSH2 0xAB4 JUMPI DUP1 PUSH4 0xF2FDE38B EQ PUSH2 0xAC8 JUMPI DUP1 PUSH4 0xFFA1AD74 EQ PUSH2 0xAE7 JUMPI PUSH0 DUP1 REVERT JUMPDEST DUP1 PUSH4 0xC0A33B8D EQ PUSH2 0xA23 JUMPI DUP1 PUSH4 0xC87B56DD EQ PUSH2 0xA37 JUMPI DUP1 PUSH4 0xD547741F EQ PUSH2 0xA56 JUMPI DUP1 PUSH4 0xE7705DB6 EQ PUSH2 0xA75 JUMPI PUSH0 DUP1 REVERT JUMPDEST DUP1 PUSH4 0xA217FDDF GT PUSH2 0xD8 JUMPI DUP1 PUSH4 0xA217FDDF EQ PUSH2 0x9A2 JUMPI DUP1 PUSH4 0xA22CB465 EQ PUSH2 0x9B5 JUMPI DUP1 PUSH4 0xAD3CB1CC EQ PUSH2 0x9D4 JUMPI DUP1 PUSH4 0xB88D4FDE EQ PUSH2 0xA04 JUMPI PUSH0 DUP1 REVERT JUMPDEST DUP1 PUSH4 0x944F28B8 EQ PUSH2 0x950 JUMPI DUP1 PUSH4 0x95D89B41 EQ PUSH2 0x96F JUMPI DUP1 PUSH4 0x9C0AE0B4 EQ PUSH2 0x983 JUMPI PUSH0 DUP1 REVERT JUMPDEST DUP1 PUSH4 0x7A2C3048 GT PUSH2 0x173 JUMPI DUP1 PUSH4 0x8456CB59 GT PUSH2 0x143 JUMPI DUP1 PUSH4 0x8456CB59 EQ PUSH2 0x8C2 JUMPI DUP1 PUSH4 0x8650D571 EQ PUSH2 0x8D6 JUMPI DUP1 PUSH4 0x8DA5CB5B EQ PUSH2 0x8F5 JUMPI DUP1 PUSH4 0x91D14854 EQ PUSH2 0x931 JUMPI PUSH0 DUP1 REVERT JUMPDEST DUP1 PUSH4 0x7A2C3048 EQ PUSH2 0x851 JUMPI DUP1 PUSH4 0x80F44675 EQ PUSH2 0x870 JUMPI DUP1 PUSH4 0x80F55605 EQ PUSH2 0x88F JUMPI DUP1 PUSH4 0x8129FC1C EQ PUSH2 0x8AE JUMPI PUSH0 DUP1 REVERT JUMPDEST DUP1 PUSH4 0x70A08231 GT PUSH2 0x1AE JUMPI DUP1 PUSH4 0x70A08231 EQ PUSH2 0x7D6 JUMPI DUP1 PUSH4 0x715018A6 EQ PUSH2 0x7F5 JUMPI DUP1 PUSH4 0x74F53317 EQ PUSH2 0x809 JUMPI DUP1 PUSH4 0x753E0747 EQ PUSH2 0x83C JUMPI PUSH0 DUP1 REVERT JUMPDEST DUP1 PUSH4 0x6AD2EADC EQ PUSH2 0x780 JUMPI DUP1 PUSH4 0x6CA0B0D7 EQ PUSH2 0x795 JUMPI DUP1 PUSH4 0x6FA9D5A7 EQ PUSH2 0x7A9 JUMPI PUSH0 DUP1 REVERT JUMPDEST DUP1 PUSH4 0x2FBC4436 GT PUSH2 0x2B4 JUMPI DUP1 PUSH4 0x44A0D68A GT PUSH2 0x254 JUMPI DUP1 PUSH4 0x616EDBC5 GT PUSH2 0x224 JUMPI DUP1 PUSH4 0x616EDBC5 EQ PUSH2 0x719 JUMPI DUP1 PUSH4 0x6352211E EQ PUSH2 0x738 JUMPI DUP1 PUSH4 0x6866064F EQ PUSH2 0x757 JUMPI DUP1 PUSH4 0x6A30FF35 EQ PUSH2 0x76C JUMPI PUSH0 DUP1 REVERT JUMPDEST DUP1 PUSH4 0x44A0D68A EQ PUSH2 0x6B0 JUMPI DUP1 PUSH4 0x4F1EF286 EQ PUSH2 0x6CF JUMPI DUP1 PUSH4 0x52D1902D EQ PUSH2 0x6E2 JUMPI DUP1 PUSH4 0x5C975ABB EQ PUSH2 0x6F6 JUMPI PUSH0 DUP1 REVERT JUMPDEST DUP1 PUSH4 0x3B05063E GT PUSH2 0x28F JUMPI DUP1 PUSH4 0x3B05063E EQ PUSH2 0x62D JUMPI DUP1 PUSH4 0x3F4BA83A EQ PUSH2 0x65E JUMPI DUP1 PUSH4 0x41C099A4 EQ PUSH2 0x672 JUMPI DUP1 PUSH4 0x42842E0E EQ PUSH2 0x691 JUMPI PUSH0 DUP1 REVERT JUMPDEST DUP1 PUSH4 0x2FBC4436 EQ PUSH2 0x5B1 JUMPI DUP1 PUSH4 0x302A5F18 EQ PUSH2 0x5D0 JUMPI DUP1 PUSH4 0x36568ABE EQ PUSH2 0x60E JUMPI PUSH0 DUP1 REVERT JUMPDEST DUP1 PUSH4 0x20FBA162 GT PUSH2 0x32A JUMPI DUP1 PUSH4 0x2D8A5A49 GT PUSH2 0x2FA JUMPI DUP1 PUSH4 0x2D8A5A49 EQ PUSH2 0x522 JUMPI DUP1 PUSH4 0x2E2F164F EQ PUSH2 0x541 JUMPI DUP1 PUSH4 0x2F0D8B43 EQ PUSH2 0x573 JUMPI DUP1 PUSH4 0x2F2FF15D EQ PUSH2 0x592 JUMPI PUSH0 DUP1 REVERT JUMPDEST DUP1 PUSH4 0x20FBA162 EQ PUSH2 0x4A6 JUMPI DUP1 PUSH4 0x238D7FC4 EQ PUSH2 0x4C5 JUMPI DUP1 PUSH4 0x23B872DD EQ PUSH2 0x4E4 JUMPI DUP1 PUSH4 0x248A9CA3 EQ PUSH2 0x503 JUMPI PUSH0 DUP1 REVERT JUMPDEST DUP1 PUSH4 0x6FDDE03 GT PUSH2 0x365 JUMPI DUP1 PUSH4 0x6FDDE03 EQ PUSH2 0x401 JUMPI DUP1 PUSH4 0x81812FC EQ PUSH2 0x422 JUMPI DUP1 PUSH4 0x95EA7B3 EQ PUSH2 0x459 JUMPI DUP1 PUSH4 0x10590B74 EQ PUSH2 0x47A JUMPI PUSH0 DUP1 REVERT JUMPDEST DUP1 PUSH4 0x1FFC9A7 EQ PUSH2 0x38B JUMPI DUP1 PUSH4 0x25651CC EQ PUSH2 0x3BF JUMPI DUP1 PUSH4 0x6F856F7 EQ PUSH2 0x3DE JUMPI JUMPDEST PUSH0 DUP1 REVERT JUMPDEST CALLVALUE DUP1 ISZERO PUSH2 0x396 JUMPI PUSH0 DUP1 REVERT JUMPDEST POP PUSH2 0x3AA PUSH2 0x3A5 CALLDATASIZE PUSH1 0x4 PUSH2 0x30F6 JUMP JUMPDEST PUSH2 0xB15 JUMP JUMPDEST PUSH1 0x40 MLOAD SWAP1 ISZERO ISZERO DUP2 MSTORE PUSH1 0x20 ADD JUMPDEST PUSH1 0x40 MLOAD DUP1 SWAP2 SUB SWAP1 RETURN JUMPDEST CALLVALUE DUP1 ISZERO PUSH2 0x3CA JUMPI PUSH0 DUP1 REVERT JUMPDEST POP PUSH2 0x3AA PUSH2 0x3D9 CALLDATASIZE PUSH1 0x4 PUSH2 0x3111 JUMP JUMPDEST PUSH2 0xB3F JUMP JUMPDEST CALLVALUE DUP1 ISZERO PUSH2 0x3E9 JUMPI PUSH0 DUP1 REVERT JUMPDEST POP PUSH2 0x3F3 PUSH1 0xA SLOAD DUP2 JUMP JUMPDEST PUSH1 0x40 MLOAD SWAP1 DUP2 MSTORE PUSH1 0x20 ADD PUSH2 0x3B6 JUMP JUMPDEST CALLVALUE DUP1 ISZERO PUSH2 0x40C JUMPI PUSH0 DUP1 REVERT JUMPDEST POP PUSH2 0x415 PUSH2 0xC9D JUMP JUMPDEST PUSH1 0x40 MLOAD PUSH2 0x3B6 SWAP2 SWAP1 PUSH2 0x315F JUMP JUMPDEST CALLVALUE DUP1 ISZERO PUSH2 0x42D JUMPI PUSH0 DUP1 REVERT JUMPDEST POP PUSH2 0x441 PUSH2 0x43C CALLDATASIZE PUSH1 0x4 PUSH2 0x3171 JUMP JUMPDEST PUSH2 0xD3E JUMP JUMPDEST PUSH1 0x40 MLOAD PUSH1 0x1 PUSH1 0x1 PUSH1 0xA0 SHL SUB SWAP1 SWAP2 AND DUP2 MSTORE PUSH1 0x20 ADD PUSH2 0x3B6 JUMP JUMPDEST CALLVALUE DUP1 ISZERO PUSH2 0x464 JUMPI PUSH0 DUP1 REVERT JUMPDEST POP PUSH2 0x478 PUSH2 0x473 CALLDATASIZE PUSH1 0x4 PUSH2 0x31A3 JUMP JUMPDEST PUSH2 0xD52 JUMP JUMPDEST STOP JUMPDEST CALLVALUE DUP1 ISZERO PUSH2 0x485 JUMPI PUSH0 DUP1 REVERT JUMPDEST POP PUSH2 0x499 PUSH2 0x494 CALLDATASIZE PUSH1 0x4 PUSH2 0x3171 JUMP JUMPDEST PUSH2 0xD61 JUMP JUMPDEST PUSH1 0x40 MLOAD PUSH2 0x3B6 SWAP2 SWAP1 PUSH2 0x31FF JUMP JUMPDEST CALLVALUE DUP1 ISZERO PUSH2 0x4B1 JUMPI PUSH0 DUP1 REVERT JUMPDEST POP PUSH1 0x40 DUP1 MLOAD PUSH1 0x20 DUP2 ADD SWAP1 SWAP2 MSTORE PUSH0 DUP2 MSTORE PUSH2 0x415 JUMP JUMPDEST CALLVALUE DUP1 ISZERO PUSH2 0x4D0 JUMPI PUSH0 DUP1 REVERT JUMPDEST POP PUSH2 0x478 PUSH2 0x4DF CALLDATASIZE PUSH1 0x4 PUSH2 0x32B4 JUMP JUMPDEST PUSH2 0x1018 JUMP JUMPDEST CALLVALUE DUP1 ISZERO PUSH2 0x4EF JUMPI PUSH0 DUP1 REVERT JUMPDEST POP PUSH2 0x478 PUSH2 0x4FE CALLDATASIZE PUSH1 0x4 PUSH2 0x32CD JUMP JUMPDEST PUSH2 0x1179 JUMP JUMPDEST CALLVALUE DUP1 ISZERO PUSH2 0x50E JUMPI PUSH0 DUP1 REVERT JUMPDEST POP PUSH2 0x3F3 PUSH2 0x51D CALLDATASIZE PUSH1 0x4 PUSH2 0x3171 JUMP JUMPDEST PUSH2 0x1202 JUMP JUMPDEST CALLVALUE DUP1 ISZERO PUSH2 0x52D JUMPI PUSH0 DUP1 REVERT JUMPDEST POP PUSH2 0x478 PUSH2 0x53C CALLDATASIZE PUSH1 0x4 PUSH2 0x3171 JUMP JUMPDEST PUSH2 0x1222 JUMP JUMPDEST CALLVALUE DUP1 ISZERO PUSH2 0x54C JUMPI PUSH0 DUP1 REVERT JUMPDEST POP PUSH2 0x560 PUSH2 0x55B CALLDATASIZE PUSH1 0x4 PUSH2 0x3171 JUMP JUMPDEST PUSH2 0x1269 JUMP JUMPDEST PUSH1 0x40 MLOAD PUSH2 0x3B6 SWAP8 SWAP7 SWAP6 SWAP5 SWAP4 SWAP3 SWAP2 SWAP1 PUSH2 0x3306 JUMP JUMPDEST CALLVALUE DUP1 ISZERO PUSH2 0x57E JUMPI PUSH0 DUP1 REVERT JUMPDEST POP PUSH2 0x478 PUSH2 0x58D CALLDATASIZE PUSH1 0x4 PUSH2 0x33C6 JUMP JUMPDEST PUSH2 0x14CB JUMP JUMPDEST CALLVALUE DUP1 ISZERO PUSH2 0x59D JUMPI PUSH0 DUP1 REVERT JUMPDEST POP PUSH2 0x478 PUSH2 0x5AC CALLDATASIZE PUSH1 0x4 PUSH2 0x341B JUMP JUMPDEST PUSH2 0x155B JUMP JUMPDEST CALLVALUE DUP1 ISZERO PUSH2 0x5BC JUMPI PUSH0 DUP1 REVERT JUMPDEST POP PUSH2 0x478 PUSH2 0x5CB CALLDATASIZE PUSH1 0x4 PUSH2 0x32B4 JUMP JUMPDEST PUSH2 0x1577 JUMP JUMPDEST CALLVALUE DUP1 ISZERO PUSH2 0x5DB JUMPI PUSH0 DUP1 REVERT JUMPDEST POP PUSH2 0x601 PUSH2 0x5EA CALLDATASIZE PUSH1 0x4 PUSH2 0x3171 JUMP JUMPDEST PUSH0 SWAP1 DUP2 MSTORE PUSH1 0x3 PUSH1 0x20 MSTORE PUSH1 0x40 SWAP1 KECCAK256 PUSH1 0x4 ADD SLOAD PUSH1 0xFF AND SWAP1 JUMP JUMPDEST PUSH1 0x40 MLOAD PUSH2 0x3B6 SWAP2 SWAP1 PUSH2 0x3445 JUMP JUMPDEST CALLVALUE DUP1 ISZERO PUSH2 0x619 JUMPI PUSH0 DUP1 REVERT JUMPDEST POP PUSH2 0x478 PUSH2 0x628 CALLDATASIZE PUSH1 0x4 PUSH2 0x341B JUMP JUMPDEST PUSH2 0x15A1 JUMP JUMPDEST CALLVALUE DUP1 ISZERO PUSH2 0x638 JUMPI PUSH0 DUP1 REVERT JUMPDEST POP PUSH2 0x64C PUSH2 0x647 CALLDATASIZE PUSH1 0x4 PUSH2 0x34EF JUMP JUMPDEST PUSH2 0x15D9 JUMP JUMPDEST PUSH1 0x40 MLOAD PUSH2 0x3B6 SWAP7 SWAP6 SWAP5 SWAP4 SWAP3 SWAP2 SWAP1 PUSH2 0x3520 JUMP JUMPDEST CALLVALUE DUP1 ISZERO PUSH2 0x669 JUMPI PUSH0 DUP1 REVERT JUMPDEST POP PUSH2 0x478 PUSH2 0x169E JUMP JUMPDEST CALLVALUE DUP1 ISZERO PUSH2 0x67D JUMPI PUSH0 DUP1 REVERT JUMPDEST POP PUSH2 0x3F3 PUSH2 0x68C CALLDATASIZE PUSH1 0x4 PUSH2 0x34EF JUMP JUMPDEST PUSH2 0x16B0 JUMP JUMPDEST CALLVALUE DUP1 ISZERO PUSH2 0x69C JUMPI PUSH0 DUP1 REVERT JUMPDEST POP PUSH2 0x478 PUSH2 0x6AB CALLDATASIZE PUSH1 0x4 PUSH2 0x32CD JUMP JUMPDEST PUSH2 0x16DA JUMP JUMPDEST CALLVALUE DUP1 ISZERO PUSH2 0x6BB JUMPI PUSH0 DUP1 REVERT JUMPDEST POP PUSH2 0x478 PUSH2 0x6CA CALLDATASIZE PUSH1 0x4 PUSH2 0x3171 JUMP JUMPDEST PUSH2 0x16F4 JUMP JUMPDEST PUSH2 0x478 PUSH2 0x6DD CALLDATASIZE PUSH1 0x4 PUSH2 0x355B JUMP JUMPDEST PUSH2 0x1701 JUMP JUMPDEST CALLVALUE DUP1 ISZERO PUSH2 0x6ED JUMPI PUSH0 DUP1 REVERT JUMPDEST POP PUSH2 0x3F3 PUSH2 0x171C JUMP JUMPDEST CALLVALUE DUP1 ISZERO PUSH2 0x701 JUMPI PUSH0 DUP1 REVERT JUMPDEST POP PUSH0 DUP1 MLOAD PUSH1 0x20 PUSH2 0x3CC2 DUP4 CODECOPY DUP2 MLOAD SWAP2 MSTORE SLOAD PUSH1 0xFF AND PUSH2 0x3AA JUMP JUMPDEST CALLVALUE DUP1 ISZERO PUSH2 0x724 JUMPI PUSH0 DUP1 REVERT JUMPDEST POP PUSH2 0x478 PUSH2 0x733 CALLDATASIZE PUSH1 0x4 PUSH2 0x3171 JUMP JUMPDEST PUSH2 0x1737 JUMP JUMPDEST CALLVALUE DUP1 ISZERO PUSH2 0x743 JUMPI PUSH0 DUP1 REVERT JUMPDEST POP PUSH2 0x441 PUSH2 0x752 CALLDATASIZE PUSH1 0x4 PUSH2 0x3171 JUMP JUMPDEST PUSH2 0x1744 JUMP JUMPDEST CALLVALUE DUP1 ISZERO PUSH2 0x762 JUMPI PUSH0 DUP1 REVERT JUMPDEST POP PUSH2 0x3F3 PUSH1 0x9 SLOAD DUP2 JUMP JUMPDEST CALLVALUE DUP1 ISZERO PUSH2 0x777 JUMPI PUSH0 DUP1 REVERT JUMPDEST POP PUSH2 0x415 PUSH2 0x174E JUMP JUMPDEST CALLVALUE DUP1 ISZERO PUSH2 0x78B JUMPI PUSH0 DUP1 REVERT JUMPDEST POP PUSH2 0x3F3 PUSH1 0x6 SLOAD DUP2 JUMP JUMPDEST CALLVALUE DUP1 ISZERO PUSH2 0x7A0 JUMPI PUSH0 DUP1 REVERT JUMPDEST POP PUSH2 0x3F3 PUSH1 0x1 DUP2 JUMP JUMPDEST CALLVALUE DUP1 ISZERO PUSH2 0x7B4 JUMPI PUSH0 DUP1 REVERT JUMPDEST POP PUSH2 0x7C8 PUSH2 0x7C3 CALLDATASIZE PUSH1 0x4 PUSH2 0x32B4 JUMP JUMPDEST PUSH2 0x17DA JUMP JUMPDEST PUSH1 0x40 MLOAD PUSH2 0x3B6 SWAP3 SWAP2 SWAP1 PUSH2 0x35A5 JUMP JUMPDEST CALLVALUE DUP1 ISZERO PUSH2 0x7E1 JUMPI PUSH0 DUP1 REVERT JUMPDEST POP PUSH2 0x3F3 PUSH2 0x7F0 CALLDATASIZE PUSH1 0x4 PUSH2 0x32B4 JUMP JUMPDEST PUSH2 0x1901 JUMP JUMPDEST CALLVALUE DUP1 ISZERO PUSH2 0x800 JUMPI PUSH0 DUP1 REVERT JUMPDEST POP PUSH2 0x478 PUSH2 0x1959 JUMP JUMPDEST CALLVALUE DUP1 ISZERO PUSH2 0x814 JUMPI PUSH0 DUP1 REVERT JUMPDEST POP PUSH2 0x3F3 PUSH32 0xD1F21EC03A6EB050FBA156F5316DAD461735DF521FB446DD42C5A4728E9C70FE DUP2 JUMP JUMPDEST CALLVALUE DUP1 ISZERO PUSH2 0x847 JUMPI PUSH0 DUP1 REVERT JUMPDEST POP PUSH2 0x3F3 PUSH1 0x7 SLOAD DUP2 JUMP JUMPDEST CALLVALUE DUP1 ISZERO PUSH2 0x85C JUMPI PUSH0 DUP1 REVERT JUMPDEST POP PUSH2 0x478 PUSH2 0x86B CALLDATASIZE PUSH1 0x4 PUSH2 0x35C9 JUMP JUMPDEST PUSH2 0x196A JUMP JUMPDEST CALLVALUE DUP1 ISZERO PUSH2 0x87B JUMPI PUSH0 DUP1 REVERT JUMPDEST POP PUSH1 0x2 SLOAD PUSH2 0x441 SWAP1 PUSH1 0x1 PUSH1 0x1 PUSH1 0xA0 SHL SUB AND DUP2 JUMP JUMPDEST CALLVALUE DUP1 ISZERO PUSH2 0x89A JUMPI PUSH0 DUP1 REVERT JUMPDEST POP PUSH1 0x1 SLOAD PUSH2 0x441 SWAP1 PUSH1 0x1 PUSH1 0x1 PUSH1 0xA0 SHL SUB AND DUP2 JUMP JUMPDEST CALLVALUE DUP1 ISZERO PUSH2 0x8B9 JUMPI PUSH0 DUP1 REVERT JUMPDEST POP PUSH2 0x478 PUSH2 0x19CE JUMP JUMPDEST CALLVALUE DUP1 ISZERO PUSH2 0x8CD JUMPI PUSH0 DUP1 REVERT JUMPDEST POP PUSH2 0x478 PUSH2 0x1B95 JUMP JUMPDEST CALLVALUE DUP1 ISZERO PUSH2 0x8E1 JUMPI PUSH0 DUP1 REVERT JUMPDEST POP PUSH2 0x478 PUSH2 0x8F0 CALLDATASIZE PUSH1 0x4 PUSH2 0x34EF JUMP JUMPDEST PUSH2 0x1BA5 JUMP JUMPDEST CALLVALUE DUP1 ISZERO PUSH2 0x900 JUMPI PUSH0 DUP1 REVERT JUMPDEST POP PUSH32 0x9016D09D72D40FDAE2FD8CEAC6B6234C7706214FD39C1CD1E609A0528C199300 SLOAD PUSH1 0x1 PUSH1 0x1 PUSH1 0xA0 SHL SUB AND PUSH2 0x441 JUMP JUMPDEST CALLVALUE DUP1 ISZERO PUSH2 0x93C JUMPI PUSH0 DUP1 REVERT JUMPDEST POP PUSH2 0x3AA PUSH2 0x94B CALLDATASIZE PUSH1 0x4 PUSH2 0x341B JUMP JUMPDEST PUSH2 0x1BB9 JUMP JUMPDEST CALLVALUE DUP1 ISZERO PUSH2 0x95B JUMPI PUSH0 DUP1 REVERT JUMPDEST POP PUSH2 0x478 PUSH2 0x96A CALLDATASIZE PUSH1 0x4 PUSH2 0x32B4 JUMP JUMPDEST PUSH2 0x1BEF JUMP JUMPDEST CALLVALUE DUP1 ISZERO PUSH2 0x97A JUMPI PUSH0 DUP1 REVERT JUMPDEST POP PUSH2 0x415 PUSH2 0x1C19 JUMP JUMPDEST CALLVALUE DUP1 ISZERO PUSH2 0x98E JUMPI PUSH0 DUP1 REVERT JUMPDEST POP PUSH2 0x478 PUSH2 0x99D CALLDATASIZE PUSH1 0x4 PUSH2 0x3643 JUMP JUMPDEST PUSH2 0x1C57 JUMP JUMPDEST CALLVALUE DUP1 ISZERO PUSH2 0x9AD JUMPI PUSH0 DUP1 REVERT JUMPDEST POP PUSH2 0x3F3 PUSH0 DUP2 JUMP JUMPDEST CALLVALUE DUP1 ISZERO PUSH2 0x9C0 JUMPI PUSH0 DUP1 REVERT JUMPDEST POP PUSH2 0x478 PUSH2 0x9CF CALLDATASIZE PUSH1 0x4 PUSH2 0x368E JUMP JUMPDEST PUSH2 0x1CF7 JUMP JUMPDEST CALLVALUE DUP1 ISZERO PUSH2 0x9DF JUMPI PUSH0 DUP1 REVERT JUMPDEST POP PUSH2 0x415 PUSH1 0x40 MLOAD DUP1 PUSH1 0x40 ADD PUSH1 0x40 MSTORE DUP1 PUSH1 0x5 DUP2 MSTORE PUSH1 0x20 ADD PUSH5 0x352E302E3 PUSH1 0xDC SHL DUP2 MSTORE POP DUP2 JUMP JUMPDEST CALLVALUE DUP1 ISZERO PUSH2 0xA0F JUMPI PUSH0 DUP1 REVERT JUMPDEST POP PUSH2 0x478 PUSH2 0xA1E CALLDATASIZE PUSH1 0x4 PUSH2 0x36C7 JUMP JUMPDEST PUSH2 0x1D02 JUMP JUMPDEST CALLVALUE DUP1 ISZERO PUSH2 0xA2E JUMPI PUSH0 DUP1 REVERT JUMPDEST POP PUSH1 0x7 SLOAD PUSH2 0x3F3 JUMP JUMPDEST CALLVALUE DUP1 ISZERO PUSH2 0xA42 JUMPI PUSH0 DUP1 REVERT JUMPDEST POP PUSH2 0x415 PUSH2 0xA51 CALLDATASIZE PUSH1 0x4 PUSH2 0x3171 JUMP JUMPDEST PUSH2 0x1D19 JUMP JUMPDEST CALLVALUE DUP1 ISZERO PUSH2 0xA61 JUMPI PUSH0 DUP1 REVERT JUMPDEST POP PUSH2 0x478 PUSH2 0xA70 CALLDATASIZE PUSH1 0x4 PUSH2 0x341B JUMP JUMPDEST PUSH2 0x1E26 JUMP JUMPDEST CALLVALUE DUP1 ISZERO PUSH2 0xA80 JUMPI PUSH0 DUP1 REVERT JUMPDEST POP PUSH2 0x3F3 PUSH0 DUP1 MLOAD PUSH1 0x20 PUSH2 0x3CE2 DUP4 CODECOPY DUP2 MLOAD SWAP2 MSTORE DUP2 JUMP JUMPDEST CALLVALUE DUP1 ISZERO PUSH2 0xAA0 JUMPI PUSH0 DUP1 REVERT JUMPDEST POP PUSH2 0x3AA PUSH2 0xAAF CALLDATASIZE PUSH1 0x4 PUSH2 0x372A JUMP JUMPDEST PUSH2 0x1E42 JUMP JUMPDEST CALLVALUE DUP1 ISZERO PUSH2 0xABF JUMPI PUSH0 DUP1 REVERT JUMPDEST POP PUSH2 0x3F3 PUSH0 SLOAD DUP2 JUMP JUMPDEST CALLVALUE DUP1 ISZERO PUSH2 0xAD3 JUMPI PUSH0 DUP1 REVERT JUMPDEST POP PUSH2 0x478 PUSH2 0xAE2 CALLDATASIZE PUSH1 0x4 PUSH2 0x32B4 JUMP JUMPDEST PUSH2 0x1E8E JUMP JUMPDEST CALLVALUE DUP1 ISZERO PUSH2 0xAF2 JUMPI PUSH0 DUP1 REVERT JUMPDEST POP PUSH2 0x415 PUSH1 0x40 MLOAD DUP1 PUSH1 0x40 ADD PUSH1 0x40 MSTORE DUP1 PUSH1 0x3 DUP2 MSTORE PUSH1 0x20 ADD PUSH3 0x312E3 PUSH1 0xEC SHL DUP2 MSTORE POP DUP2 JUMP JUMPDEST PUSH0 PUSH1 0x1 PUSH1 0x1 PUSH1 0xE0 SHL SUB NOT DUP3 AND PUSH4 0x7965DB0B PUSH1 0xE0 SHL EQ DUP1 PUSH2 0xB39 JUMPI POP PUSH2 0xB39 DUP3 PUSH2 0x1EC8 JUMP JUMPDEST SWAP3 SWAP2 POP POP JUMP JUMPDEST PUSH1 0x1 SLOAD PUSH0 SWAP1 PUSH1 0x1 PUSH1 0x1 PUSH1 0xA0 SHL SUB AND PUSH2 0xB91 JUMPI PUSH1 0x40 MLOAD PUSH3 0x461BCD PUSH1 0xE5 SHL DUP2 MSTORE PUSH1 0x20 PUSH1 0x4 DUP3 ADD MSTORE PUSH1 0x10 PUSH1 0x24 DUP3 ADD MSTORE PUSH16 0x115C9C9BDC8E88139BC81B585C9AD95D PUSH1 0x82 SHL PUSH1 0x44 DUP3 ADD MSTORE PUSH1 0x64 ADD JUMPDEST PUSH1 0x40 MLOAD DUP1 SWAP2 SUB SWAP1 REVERT JUMPDEST PUSH1 0x1 PUSH0 DUP5 DUP2 MSTORE PUSH1 0x3 PUSH1 0x20 DUP2 SWAP1 MSTORE PUSH1 0x40 SWAP1 SWAP2 KECCAK256 PUSH1 0x4 ADD SLOAD PUSH1 0xFF AND SWAP1 DUP2 GT ISZERO PUSH2 0xBBA JUMPI PUSH2 0xBBA PUSH2 0x31CB JUMP JUMPDEST EQ PUSH2 0xBFF JUMPI PUSH1 0x40 MLOAD PUSH3 0x461BCD PUSH1 0xE5 SHL DUP2 MSTORE PUSH1 0x20 PUSH1 0x4 DUP3 ADD MSTORE PUSH1 0x15 PUSH1 0x24 DUP3 ADD MSTORE PUSH21 0x4572726F723A204E4654204E6F7420566572696679 PUSH1 0x58 SHL PUSH1 0x44 DUP3 ADD MSTORE PUSH1 0x64 ADD PUSH2 0xB88 JUMP JUMPDEST PUSH1 0x1 SLOAD PUSH1 0x40 DUP1 MLOAD PUSH1 0x20 DUP1 DUP3 ADD DUP7 SWAP1 MSTORE DUP3 MLOAD DUP1 DUP4 SUB SWAP1 SWAP2 ADD DUP2 MSTORE SWAP1 DUP3 ADD SWAP1 SWAP2 MSTORE CALLER SWAP2 PUSH1 0x1 PUSH1 0x1 PUSH1 0xA0 SHL SUB AND SWAP1 PUSH2 0xC36 DUP4 DUP4 DUP9 DUP5 PUSH2 0x1D02 JUMP JUMPDEST DUP2 PUSH1 0x1 PUSH1 0x1 PUSH1 0xA0 SHL SUB AND PUSH2 0xC49 DUP8 PUSH2 0x1744 JUMP JUMPDEST PUSH1 0x1 PUSH1 0x1 PUSH1 0xA0 SHL SUB AND EQ PUSH2 0xC91 JUMPI PUSH1 0x40 MLOAD PUSH3 0x461BCD PUSH1 0xE5 SHL DUP2 MSTORE PUSH1 0x20 PUSH1 0x4 DUP3 ADD MSTORE PUSH1 0xF PUSH1 0x24 DUP3 ADD MSTORE PUSH15 0x151C985B9CD9995C8819985A5B1959 PUSH1 0x8A SHL PUSH1 0x44 DUP3 ADD MSTORE PUSH1 0x64 ADD PUSH2 0xB88 JUMP JUMPDEST POP PUSH1 0x1 SWAP6 SWAP5 POP POP POP POP POP JUMP JUMPDEST PUSH0 DUP1 MLOAD PUSH1 0x20 PUSH2 0x3C2D DUP4 CODECOPY DUP2 MLOAD SWAP2 MSTORE DUP1 SLOAD PUSH1 0x60 SWAP2 SWAP1 DUP2 SWAP1 PUSH2 0xCBC SWAP1 PUSH2 0x3752 JUMP JUMPDEST DUP1 PUSH1 0x1F ADD PUSH1 0x20 DUP1 SWAP2 DIV MUL PUSH1 0x20 ADD PUSH1 0x40 MLOAD SWAP1 DUP2 ADD PUSH1 0x40 MSTORE DUP1 SWAP3 SWAP2 SWAP1 DUP2 DUP2 MSTORE PUSH1 0x20 ADD DUP3 DUP1 SLOAD PUSH2 0xCE8 SWAP1 PUSH2 0x3752 JUMP JUMPDEST DUP1 ISZERO PUSH2 0xD33 JUMPI DUP1 PUSH1 0x1F LT PUSH2 0xD0A JUMPI PUSH2 0x100 DUP1 DUP4 SLOAD DIV MUL DUP4 MSTORE SWAP2 PUSH1 0x20 ADD SWAP2 PUSH2 0xD33 JUMP JUMPDEST DUP3 ADD SWAP2 SWAP1 PUSH0 MSTORE PUSH1 0x20 PUSH0 KECCAK256 SWAP1 JUMPDEST DUP2 SLOAD DUP2 MSTORE SWAP1 PUSH1 0x1 ADD SWAP1 PUSH1 0x20 ADD DUP1 DUP4 GT PUSH2 0xD16 JUMPI DUP3 SWAP1 SUB PUSH1 0x1F AND DUP3 ADD SWAP2 JUMPDEST POP POP POP POP POP SWAP2 POP POP SWAP1 JUMP JUMPDEST PUSH0 PUSH2 0xD48 DUP3 PUSH2 0x1F17 JUMP JUMPDEST POP PUSH2 0xB39 DUP3 PUSH2 0x1F4E JUMP JUMPDEST PUSH2 0xD5D DUP3 DUP3 CALLER PUSH2 0x1F87 JUMP JUMPDEST POP POP JUMP JUMPDEST PUSH2 0xD69 PUSH2 0x3096 JUMP JUMPDEST PUSH0 DUP3 DUP2 MSTORE PUSH1 0x3 PUSH1 0x20 MSTORE PUSH1 0x40 SWAP1 DUP2 SWAP1 KECCAK256 DUP2 MLOAD PUSH1 0xE0 DUP2 ADD SWAP1 SWAP3 MSTORE DUP1 SLOAD DUP3 SWAP1 DUP3 SWAP1 PUSH2 0xD90 SWAP1 PUSH2 0x3752 JUMP JUMPDEST DUP1 PUSH1 0x1F ADD PUSH1 0x20 DUP1 SWAP2 DIV MUL PUSH1 0x20 ADD PUSH1 0x40 MLOAD SWAP1 DUP2 ADD PUSH1 0x40 MSTORE DUP1 SWAP3 SWAP2 SWAP1 DUP2 DUP2 MSTORE PUSH1 0x20 ADD DUP3 DUP1 SLOAD PUSH2 0xDBC SWAP1 PUSH2 0x3752 JUMP JUMPDEST DUP1 ISZERO PUSH2 0xE07 JUMPI DUP1 PUSH1 0x1F LT PUSH2 0xDDE JUMPI PUSH2 0x100 DUP1 DUP4 SLOAD DIV MUL DUP4 MSTORE SWAP2 PUSH1 0x20 ADD SWAP2 PUSH2 0xE07 JUMP JUMPDEST DUP3 ADD SWAP2 SWAP1 PUSH0 MSTORE PUSH1 0x20 PUSH0 KECCAK256 SWAP1 JUMPDEST DUP2 SLOAD DUP2 MSTORE SWAP1 PUSH1 0x1 ADD SWAP1 PUSH1 0x20 ADD DUP1 DUP4 GT PUSH2 0xDEA JUMPI DUP3 SWAP1 SUB PUSH1 0x1F AND DUP3 ADD SWAP2 JUMPDEST POP POP POP POP POP DUP2 MSTORE PUSH1 0x20 ADD PUSH1 0x1 DUP3 ADD DUP1 SLOAD PUSH2 0xE20 SWAP1 PUSH2 0x3752 JUMP JUMPDEST DUP1 PUSH1 0x1F ADD PUSH1 0x20 DUP1 SWAP2 DIV MUL PUSH1 0x20 ADD PUSH1 0x40 MLOAD SWAP1 DUP2 ADD PUSH1 0x40 MSTORE DUP1 SWAP3 SWAP2 SWAP1 DUP2 DUP2 MSTORE PUSH1 0x20 ADD DUP3 DUP1 SLOAD PUSH2 0xE4C SWAP1 PUSH2 0x3752 JUMP JUMPDEST DUP1 ISZERO PUSH2 0xE97 JUMPI DUP1 PUSH1 0x1F LT PUSH2 0xE6E JUMPI PUSH2 0x100 DUP1 DUP4 SLOAD DIV MUL DUP4 MSTORE SWAP2 PUSH1 0x20 ADD SWAP2 PUSH2 0xE97 JUMP JUMPDEST DUP3 ADD SWAP2 SWAP1 PUSH0 MSTORE PUSH1 0x20 PUSH0 KECCAK256 SWAP1 JUMPDEST DUP2 SLOAD DUP2 MSTORE SWAP1 PUSH1 0x1 ADD SWAP1 PUSH1 0x20 ADD DUP1 DUP4 GT PUSH2 0xE7A JUMPI DUP3 SWAP1 SUB PUSH1 0x1F AND DUP3 ADD SWAP2 JUMPDEST POP POP POP POP POP DUP2 MSTORE PUSH1 0x20 ADD PUSH1 0x2 DUP3 ADD DUP1 SLOAD PUSH2 0xEB0 SWAP1 PUSH2 0x3752 JUMP JUMPDEST DUP1 PUSH1 0x1F ADD PUSH1 0x20 DUP1 SWAP2 DIV MUL PUSH1 0x20 ADD PUSH1 0x40 MLOAD SWAP1 DUP2 ADD PUSH1 0x40 MSTORE DUP1 SWAP3 SWAP2 SWAP1 DUP2 DUP2 MSTORE PUSH1 0x20 ADD DUP3 DUP1 SLOAD PUSH2 0xEDC SWAP1 PUSH2 0x3752 JUMP JUMPDEST DUP1 ISZERO PUSH2 0xF27 JUMPI DUP1 PUSH1 0x1F LT PUSH2 0xEFE JUMPI PUSH2 0x100 DUP1 DUP4 SLOAD DIV MUL DUP4 MSTORE SWAP2 PUSH1 0x20 ADD SWAP2 PUSH2 0xF27 JUMP JUMPDEST DUP3 ADD SWAP2 SWAP1 PUSH0 MSTORE PUSH1 0x20 PUSH0 KECCAK256 SWAP1 JUMPDEST DUP2 SLOAD DUP2 MSTORE SWAP1 PUSH1 0x1 ADD SWAP1 PUSH1 0x20 ADD DUP1 DUP4 GT PUSH2 0xF0A JUMPI DUP3 SWAP1 SUB PUSH1 0x1F AND DUP3 ADD SWAP2 JUMPDEST POP POP POP SWAP2 DUP4 MSTORE POP POP PUSH1 0x3 DUP3 DUP2 ADD SLOAD PUSH1 0x20 DUP4 ADD MSTORE PUSH1 0x4 DUP4 ADD SLOAD PUSH1 0x40 SWAP1 SWAP3 ADD SWAP2 PUSH1 0xFF AND SWAP1 DUP2 GT ISZERO PUSH2 0xF58 JUMPI PUSH2 0xF58 PUSH2 0x31CB JUMP JUMPDEST PUSH1 0x3 DUP2 GT ISZERO PUSH2 0xF69 JUMPI PUSH2 0xF69 PUSH2 0x31CB JUMP JUMPDEST DUP2 MSTORE PUSH1 0x20 ADD PUSH1 0x5 DUP3 ADD DUP1 SLOAD PUSH2 0xF7D SWAP1 PUSH2 0x3752 JUMP JUMPDEST DUP1 PUSH1 0x1F ADD PUSH1 0x20 DUP1 SWAP2 DIV MUL PUSH1 0x20 ADD PUSH1 0x40 MLOAD SWAP1 DUP2 ADD PUSH1 0x40 MSTORE DUP1 SWAP3 SWAP2 SWAP1 DUP2 DUP2 MSTORE PUSH1 0x20 ADD DUP3 DUP1 SLOAD PUSH2 0xFA9 SWAP1 PUSH2 0x3752 JUMP JUMPDEST DUP1 ISZERO PUSH2 0xFF4 JUMPI DUP1 PUSH1 0x1F LT PUSH2 0xFCB JUMPI PUSH2 0x100 DUP1 DUP4 SLOAD DIV MUL DUP4 MSTORE SWAP2 PUSH1 0x20 ADD SWAP2 PUSH2 0xFF4 JUMP JUMPDEST DUP3 ADD SWAP2 SWAP1 PUSH0 MSTORE PUSH1 0x20 PUSH0 KECCAK256 SWAP1 JUMPDEST DUP2 SLOAD DUP2 MSTORE SWAP1 PUSH1 0x1 ADD SWAP1 PUSH1 0x20 ADD DUP1 DUP4 GT PUSH2 0xFD7 JUMPI DUP3 SWAP1 SUB PUSH1 0x1F AND DUP3 ADD SWAP2 JUMPDEST POP POP POP SWAP2 DUP4 MSTORE POP POP PUSH1 0x6 SWAP2 SWAP1 SWAP2 ADD SLOAD PUSH1 0x1 PUSH1 0x1 PUSH1 0xA0 SHL SUB AND PUSH1 0x20 SWAP1 SWAP2 ADD MSTORE SWAP3 SWAP2 POP POP JUMP JUMPDEST PUSH2 0x1020 PUSH2 0x1F94 JUMP JUMPDEST PUSH0 SLOAD PUSH1 0x7 SLOAD DUP2 LT PUSH2 0x106B JUMPI PUSH1 0x40 MLOAD PUSH3 0x461BCD PUSH1 0xE5 SHL DUP2 MSTORE PUSH1 0x20 PUSH1 0x4 DUP3 ADD MSTORE PUSH1 0x15 PUSH1 0x24 DUP3 ADD MSTORE PUSH21 0x4572726F723A204E4654206E6F206C656674212121 PUSH1 0x58 SHL PUSH1 0x44 DUP3 ADD MSTORE PUSH1 0x64 ADD PUSH2 0xB88 JUMP JUMPDEST PUSH1 0x1 ADD PUSH0 DUP2 SWAP1 SSTORE PUSH2 0x107C DUP3 DUP3 PUSH2 0x1FC4 JUMP JUMPDEST PUSH1 0x8 PUSH1 0x40 MLOAD PUSH1 0x20 ADD PUSH2 0x108E SWAP2 SWAP1 PUSH2 0x37F9 JUMP JUMPDEST PUSH1 0x40 DUP1 MLOAD PUSH1 0x1F NOT DUP2 DUP5 SUB ADD DUP2 MSTORE SWAP2 DUP2 MSTORE PUSH0 DUP4 DUP2 MSTORE PUSH1 0x3 PUSH1 0x20 MSTORE KECCAK256 PUSH1 0x5 ADD SWAP1 PUSH2 0x10B6 SWAP1 DUP3 PUSH2 0x3889 JUMP JUMPDEST POP PUSH0 DUP2 DUP2 MSTORE PUSH1 0x3 PUSH1 0x20 DUP2 DUP2 MSTORE PUSH1 0x40 DUP1 DUP5 KECCAK256 PUSH1 0x4 DUP1 DUP3 ADD DUP1 SLOAD PUSH1 0xFF NOT AND SWAP1 SSTORE PUSH1 0x1 PUSH1 0x1 PUSH1 0xA0 SHL SUB DUP9 AND DUP7 MSTORE DUP4 MSTORE SWAP1 DUP5 KECCAK256 SWAP4 DUP6 SWAP1 MSTORE SWAP2 SWAP1 MSTORE PUSH1 0x1 ADD SWAP1 PUSH2 0x10FA SWAP1 DUP3 PUSH2 0x3943 JUMP JUMPDEST POP PUSH1 0x1 PUSH1 0x1 PUSH1 0xA0 SHL SUB DUP3 AND PUSH0 SWAP1 DUP2 MSTORE PUSH1 0x4 PUSH1 0x20 SWAP1 DUP2 MSTORE PUSH1 0x40 DUP1 DUP4 KECCAK256 DUP5 DUP5 MSTORE PUSH1 0x3 SWAP1 SWAP3 MSTORE SWAP1 SWAP2 KECCAK256 PUSH1 0x2 ADD SWAP1 PUSH2 0x1131 SWAP1 PUSH1 0x1 ADD DUP3 PUSH2 0x3943 JUMP JUMPDEST POP PUSH1 0x40 DUP1 MLOAD PUSH1 0x1 PUSH1 0x1 PUSH1 0xA0 SHL SUB DUP5 AND DUP2 MSTORE PUSH1 0x20 DUP2 ADD DUP4 SWAP1 MSTORE PUSH32 0x666F6F2826ADF5A4604322C06F0B3A86AFBE18F87A5050729492F0C0E6973FEF SWAP2 ADD JUMPDEST PUSH1 0x40 MLOAD DUP1 SWAP2 SUB SWAP1 LOG1 POP POP JUMP JUMPDEST PUSH1 0x1 PUSH1 0x1 PUSH1 0xA0 SHL SUB DUP3 AND PUSH2 0x11A2 JUMPI PUSH1 0x40 MLOAD PUSH4 0x32505749 PUSH1 0xE1 SHL DUP2 MSTORE PUSH0 PUSH1 0x4 DUP3 ADD MSTORE PUSH1 0x24 ADD PUSH2 0xB88 JUMP JUMPDEST PUSH0 PUSH2 0x11AE DUP4 DUP4 CALLER PUSH2 0x1FDD JUMP JUMPDEST SWAP1 POP DUP4 PUSH1 0x1 PUSH1 0x1 PUSH1 0xA0 SHL SUB AND DUP2 PUSH1 0x1 PUSH1 0x1 PUSH1 0xA0 SHL SUB AND EQ PUSH2 0x11FC JUMPI PUSH1 0x40 MLOAD PUSH4 0x64283D7B PUSH1 0xE0 SHL DUP2 MSTORE PUSH1 0x1 PUSH1 0x1 PUSH1 0xA0 SHL SUB DUP1 DUP7 AND PUSH1 0x4 DUP4 ADD MSTORE PUSH1 0x24 DUP3 ADD DUP5 SWAP1 MSTORE DUP3 AND PUSH1 0x44 DUP3 ADD MSTORE PUSH1 0x64 ADD PUSH2 0xB88 JUMP JUMPDEST POP POP POP POP JUMP JUMPDEST PUSH0 SWAP1 DUP2 MSTORE PUSH0 DUP1 MLOAD PUSH1 0x20 PUSH2 0x3CA2 DUP4 CODECOPY DUP2 MLOAD SWAP2 MSTORE PUSH1 0x20 MSTORE PUSH1 0x40 SWAP1 KECCAK256 PUSH1 0x1 ADD SLOAD SWAP1 JUMP JUMPDEST PUSH2 0x1239 PUSH0 DUP1 MLOAD PUSH1 0x20 PUSH2 0x3CE2 DUP4 CODECOPY DUP2 MLOAD SWAP2 MSTORE CALLER PUSH2 0x1BB9 JUMP JUMPDEST PUSH2 0x1255 JUMPI PUSH1 0x40 MLOAD PUSH3 0x461BCD PUSH1 0xE5 SHL DUP2 MSTORE PUSH1 0x4 ADD PUSH2 0xB88 SWAP1 PUSH2 0x3A0C JUMP JUMPDEST PUSH2 0x125D PUSH2 0x1F94 JUMP JUMPDEST PUSH2 0x1266 DUP2 PUSH2 0x20E1 JUMP JUMPDEST POP JUMP JUMPDEST PUSH1 0x3 PUSH1 0x20 MSTORE PUSH0 SWAP1 DUP2 MSTORE PUSH1 0x40 SWAP1 KECCAK256 DUP1 SLOAD DUP2 SWAP1 PUSH2 0x1283 SWAP1 PUSH2 0x3752 JUMP JUMPDEST DUP1 PUSH1 0x1F ADD PUSH1 0x20 DUP1 SWAP2 DIV MUL PUSH1 0x20 ADD PUSH1 0x40 MLOAD SWAP1 DUP2 ADD PUSH1 0x40 MSTORE DUP1 SWAP3 SWAP2 SWAP1 DUP2 DUP2 MSTORE PUSH1 0x20 ADD DUP3 DUP1 SLOAD PUSH2 0x12AF SWAP1 PUSH2 0x3752 JUMP JUMPDEST DUP1 ISZERO PUSH2 0x12FA JUMPI DUP1 PUSH1 0x1F LT PUSH2 0x12D1 JUMPI PUSH2 0x100 DUP1 DUP4 SLOAD DIV MUL DUP4 MSTORE SWAP2 PUSH1 0x20 ADD SWAP2 PUSH2 0x12FA JUMP JUMPDEST DUP3 ADD SWAP2 SWAP1 PUSH0 MSTORE PUSH1 0x20 PUSH0 KECCAK256 SWAP1 JUMPDEST DUP2 SLOAD DUP2 MSTORE SWAP1 PUSH1 0x1 ADD SWAP1 PUSH1 0x20 ADD DUP1 DUP4 GT PUSH2 0x12DD JUMPI DUP3 SWAP1 SUB PUSH1 0x1F AND DUP3 ADD SWAP2 JUMPDEST POP POP POP POP POP SWAP1 DUP1 PUSH1 0x1 ADD DUP1 SLOAD PUSH2 0x130F SWAP1 PUSH2 0x3752 JUMP JUMPDEST DUP1 PUSH1 0x1F ADD PUSH1 0x20 DUP1 SWAP2 DIV MUL PUSH1 0x20 ADD PUSH1 0x40 MLOAD SWAP1 DUP2 ADD PUSH1 0x40 MSTORE DUP1 SWAP3 SWAP2 SWAP1 DUP2 DUP2 MSTORE PUSH1 0x20 ADD DUP3 DUP1 SLOAD PUSH2 0x133B SWAP1 PUSH2 0x3752 JUMP JUMPDEST DUP1 ISZERO PUSH2 0x1386 JUMPI DUP1 PUSH1 0x1F LT PUSH2 0x135D JUMPI PUSH2 0x100 DUP1 DUP4 SLOAD DIV MUL DUP4 MSTORE SWAP2 PUSH1 0x20 ADD SWAP2 PUSH2 0x1386 JUMP JUMPDEST DUP3 ADD SWAP2 SWAP1 PUSH0 MSTORE PUSH1 0x20 PUSH0 KECCAK256 SWAP1 JUMPDEST DUP2 SLOAD DUP2 MSTORE SWAP1 PUSH1 0x1 ADD SWAP1 PUSH1 0x20 ADD DUP1 DUP4 GT PUSH2 0x1369 JUMPI DUP3 SWAP1 SUB PUSH1 0x1F AND DUP3 ADD SWAP2 JUMPDEST POP POP POP POP POP SWAP1 DUP1 PUSH1 0x2 ADD DUP1 SLOAD PUSH2 0x139B SWAP1 PUSH2 0x3752 JUMP JUMPDEST DUP1 PUSH1 0x1F ADD PUSH1 0x20 DUP1 SWAP2 DIV MUL PUSH1 0x20 ADD PUSH1 0x40 MLOAD SWAP1 DUP2 ADD PUSH1 0x40 MSTORE DUP1 SWAP3 SWAP2 SWAP1 DUP2 DUP2 MSTORE PUSH1 0x20 ADD DUP3 DUP1 SLOAD PUSH2 0x13C7 SWAP1 PUSH2 0x3752 JUMP JUMPDEST DUP1 ISZERO PUSH2 0x1412 JUMPI DUP1 PUSH1 0x1F LT PUSH2 0x13E9 JUMPI PUSH2 0x100 DUP1 DUP4 SLOAD DIV MUL DUP4 MSTORE SWAP2 PUSH1 0x20 ADD SWAP2 PUSH2 0x1412 JUMP JUMPDEST DUP3 ADD SWAP2 SWAP1 PUSH0 MSTORE PUSH1 0x20 PUSH0 KECCAK256 SWAP1 JUMPDEST DUP2 SLOAD DUP2 MSTORE SWAP1 PUSH1 0x1 ADD SWAP1 PUSH1 0x20 ADD DUP1 DUP4 GT PUSH2 0x13F5 JUMPI DUP3 SWAP1 SUB PUSH1 0x1F AND DUP3 ADD SWAP2 JUMPDEST POP POP POP POP PUSH1 0x3 DUP4 ADD SLOAD PUSH1 0x4 DUP5 ADD SLOAD PUSH1 0x5 DUP6 ADD DUP1 SLOAD SWAP5 SWAP6 SWAP3 SWAP5 PUSH1 0xFF SWAP1 SWAP3 AND SWAP4 POP SWAP1 PUSH2 0x143B SWAP1 PUSH2 0x3752 JUMP JUMPDEST DUP1 PUSH1 0x1F ADD PUSH1 0x20 DUP1 SWAP2 DIV MUL PUSH1 0x20 ADD PUSH1 0x40 MLOAD SWAP1 DUP2 ADD PUSH1 0x40 MSTORE DUP1 SWAP3 SWAP2 SWAP1 DUP2 DUP2 MSTORE PUSH1 0x20 ADD DUP3 DUP1 SLOAD PUSH2 0x1467 SWAP1 PUSH2 0x3752 JUMP JUMPDEST DUP1 ISZERO PUSH2 0x14B2 JUMPI DUP1 PUSH1 0x1F LT PUSH2 0x1489 JUMPI PUSH2 0x100 DUP1 DUP4 SLOAD DIV MUL DUP4 MSTORE SWAP2 PUSH1 0x20 ADD SWAP2 PUSH2 0x14B2 JUMP JUMPDEST DUP3 ADD SWAP2 SWAP1 PUSH0 MSTORE PUSH1 0x20 PUSH0 KECCAK256 SWAP1 JUMPDEST DUP2 SLOAD DUP2 MSTORE SWAP1 PUSH1 0x1 ADD SWAP1 PUSH1 0x20 ADD DUP1 DUP4 GT PUSH2 0x1495 JUMPI DUP3 SWAP1 SUB PUSH1 0x1F AND DUP3 ADD SWAP2 JUMPDEST POP POP POP PUSH1 0x6 SWAP1 SWAP4 ADD SLOAD SWAP2 SWAP3 POP POP PUSH1 0x1 PUSH1 0x1 PUSH1 0xA0 SHL SUB AND DUP8 JUMP JUMPDEST PUSH2 0x14E2 PUSH0 DUP1 MLOAD PUSH1 0x20 PUSH2 0x3CE2 DUP4 CODECOPY DUP2 MLOAD SWAP2 MSTORE CALLER PUSH2 0x1BB9 JUMP JUMPDEST PUSH2 0x14FE JUMPI PUSH1 0x40 MLOAD PUSH3 0x461BCD PUSH1 0xE5 SHL DUP2 MSTORE PUSH1 0x4 ADD PUSH2 0xB88 SWAP1 PUSH2 0x3A0C JUMP JUMPDEST PUSH2 0x1506 PUSH2 0x1F94 JUMP JUMPDEST PUSH2 0x150F DUP5 PUSH2 0x1018 JUMP JUMPDEST PUSH2 0x1551 PUSH0 SLOAD DUP5 DUP5 DUP1 DUP1 PUSH1 0x1F ADD PUSH1 0x20 DUP1 SWAP2 DIV MUL PUSH1 0x20 ADD PUSH1 0x40 MLOAD SWAP1 DUP2 ADD PUSH1 0x40 MSTORE DUP1 SWAP4 SWAP3 SWAP2 SWAP1 DUP2 DUP2 MSTORE PUSH1 0x20 ADD DUP4 DUP4 DUP1 DUP3 DUP5 CALLDATACOPY PUSH0 SWAP3 ADD SWAP2 SWAP1 SWAP2 MSTORE POP DUP7 SWAP3 POP PUSH2 0x2332 SWAP2 POP POP JUMP JUMPDEST PUSH2 0x11FC PUSH0 SLOAD PUSH2 0x20E1 JUMP JUMPDEST PUSH2 0x1564 DUP3 PUSH2 0x1202 JUMP JUMPDEST PUSH2 0x156D DUP2 PUSH2 0x241F JUMP JUMPDEST PUSH2 0x11FC DUP4 DUP4 PUSH2 0x2429 JUMP JUMPDEST PUSH2 0x157F PUSH2 0x24CA JUMP JUMPDEST PUSH1 0x2 DUP1 SLOAD PUSH1 0x1 PUSH1 0x1 PUSH1 0xA0 SHL SUB NOT AND PUSH1 0x1 PUSH1 0x1 PUSH1 0xA0 SHL SUB SWAP3 SWAP1 SWAP3 AND SWAP2 SWAP1 SWAP2 OR SWAP1 SSTORE JUMP JUMPDEST PUSH1 0x1 PUSH1 0x1 PUSH1 0xA0 SHL SUB DUP2 AND CALLER EQ PUSH2 0x15CA JUMPI PUSH1 0x40 MLOAD PUSH4 0x334BD919 PUSH1 0xE1 SHL DUP2 MSTORE PUSH1 0x4 ADD PUSH1 0x40 MLOAD DUP1 SWAP2 SUB SWAP1 REVERT JUMPDEST PUSH2 0x15D4 DUP3 DUP3 PUSH2 0x2525 JUMP JUMPDEST POP POP POP JUMP JUMPDEST DUP1 MLOAD PUSH1 0x20 DUP2 DUP4 ADD DUP2 ADD DUP1 MLOAD PUSH1 0x5 DUP3 MSTORE SWAP3 DUP3 ADD SWAP2 SWAP1 SWAP4 ADD KECCAK256 SWAP2 MSTORE DUP1 SLOAD DUP2 SWAP1 PUSH2 0x15FF SWAP1 PUSH2 0x3752 JUMP JUMPDEST DUP1 PUSH1 0x1F ADD PUSH1 0x20 DUP1 SWAP2 DIV MUL PUSH1 0x20 ADD PUSH1 0x40 MLOAD SWAP1 DUP2 ADD PUSH1 0x40 MSTORE DUP1 SWAP3 SWAP2 SWAP1 DUP2 DUP2 MSTORE PUSH1 0x20 ADD DUP3 DUP1 SLOAD PUSH2 0x162B SWAP1 PUSH2 0x3752 JUMP JUMPDEST DUP1 ISZERO PUSH2 0x1676 JUMPI DUP1 PUSH1 0x1F LT PUSH2 0x164D JUMPI PUSH2 0x100 DUP1 DUP4 SLOAD DIV MUL DUP4 MSTORE SWAP2 PUSH1 0x20 ADD SWAP2 PUSH2 0x1676 JUMP JUMPDEST DUP3 ADD SWAP2 SWAP1 PUSH0 MSTORE PUSH1 0x20 PUSH0 KECCAK256 SWAP1 JUMPDEST DUP2 SLOAD DUP2 MSTORE SWAP1 PUSH1 0x1 ADD SWAP1 PUSH1 0x20 ADD DUP1 DUP4 GT PUSH2 0x1659 JUMPI DUP3 SWAP1 SUB PUSH1 0x1F AND DUP3 ADD SWAP2 JUMPDEST POP POP POP POP POP SWAP1 DUP1 PUSH1 0x1 ADD SLOAD SWAP1 DUP1 PUSH1 0x2 ADD SLOAD SWAP1 DUP1 PUSH1 0x3 ADD SLOAD SWAP1 DUP1 PUSH1 0x4 ADD SLOAD SWAP1 DUP1 PUSH1 0x5 ADD SLOAD SWAP1 POP DUP7 JUMP JUMPDEST PUSH2 0x16A6 PUSH2 0x24CA JUMP JUMPDEST PUSH2 0x16AE PUSH2 0x259E JUMP JUMPDEST JUMP JUMPDEST PUSH0 PUSH1 0x5 DUP3 PUSH1 0x40 MLOAD PUSH2 0x16C1 SWAP2 SWAP1 PUSH2 0x3A64 JUMP JUMPDEST SWAP1 DUP2 MSTORE PUSH1 0x20 ADD PUSH1 0x40 MLOAD DUP1 SWAP2 SUB SWAP1 KECCAK256 PUSH1 0x1 ADD SLOAD SWAP1 POP SWAP2 SWAP1 POP JUMP JUMPDEST PUSH2 0x15D4 DUP4 DUP4 DUP4 PUSH1 0x40 MLOAD DUP1 PUSH1 0x20 ADD PUSH1 0x40 MSTORE DUP1 PUSH0 DUP2 MSTORE POP PUSH2 0x1D02 JUMP JUMPDEST PUSH2 0x16FC PUSH2 0x24CA JUMP JUMPDEST PUSH1 0x6 SSTORE JUMP JUMPDEST PUSH2 0x1709 PUSH2 0x25FD JUMP JUMPDEST PUSH2 0x1712 DUP3 PUSH2 0x26A1 JUMP JUMPDEST PUSH2 0xD5D DUP3 DUP3 PUSH2 0x26A9 JUMP JUMPDEST PUSH0 PUSH2 0x1725 PUSH2 0x2765 JUMP JUMPDEST POP PUSH0 DUP1 MLOAD PUSH1 0x20 PUSH2 0x3C82 DUP4 CODECOPY DUP2 MLOAD SWAP2 MSTORE SWAP1 JUMP JUMPDEST PUSH2 0x173F PUSH2 0x24CA JUMP JUMPDEST PUSH1 0x7 SSTORE JUMP JUMPDEST PUSH0 PUSH2 0xB39 DUP3 PUSH2 0x1F17 JUMP JUMPDEST PUSH1 0x8 DUP1 SLOAD PUSH2 0x175B SWAP1 PUSH2 0x3752 JUMP JUMPDEST DUP1 PUSH1 0x1F ADD PUSH1 0x20 DUP1 SWAP2 DIV MUL PUSH1 0x20 ADD PUSH1 0x40 MLOAD SWAP1 DUP2 ADD PUSH1 0x40 MSTORE DUP1 SWAP3 SWAP2 SWAP1 DUP2 DUP2 MSTORE PUSH1 0x20 ADD DUP3 DUP1 SLOAD PUSH2 0x1787 SWAP1 PUSH2 0x3752 JUMP JUMPDEST DUP1 ISZERO PUSH2 0x17D2 JUMPI DUP1 PUSH1 0x1F LT PUSH2 0x17A9 JUMPI PUSH2 0x100 DUP1 DUP4 SLOAD DIV MUL DUP4 MSTORE SWAP2 PUSH1 0x20 ADD SWAP2 PUSH2 0x17D2 JUMP JUMPDEST DUP3 ADD SWAP2 SWAP1 PUSH0 MSTORE PUSH1 0x20 PUSH0 KECCAK256 SWAP1 JUMPDEST DUP2 SLOAD DUP2 MSTORE SWAP1 PUSH1 0x1 ADD SWAP1 PUSH1 0x20 ADD DUP1 DUP4 GT PUSH2 0x17B5 JUMPI DUP3 SWAP1 SUB PUSH1 0x1F AND DUP3 ADD SWAP2 JUMPDEST POP POP POP POP POP DUP2 JUMP JUMPDEST PUSH1 0x4 PUSH1 0x20 MSTORE PUSH0 SWAP1 DUP2 MSTORE PUSH1 0x40 SWAP1 KECCAK256 DUP1 SLOAD DUP2 SWAP1 PUSH2 0x17F4 SWAP1 PUSH2 0x3752 JUMP JUMPDEST DUP1 PUSH1 0x1F ADD PUSH1 0x20 DUP1 SWAP2 DIV MUL PUSH1 0x20 ADD PUSH1 0x40 MLOAD SWAP1 DUP2 ADD PUSH1 0x40 MSTORE DUP1 SWAP3 SWAP2 SWAP1 DUP2 DUP2 MSTORE PUSH1 0x20 ADD DUP3 DUP1 SLOAD PUSH2 0x1820 SWAP1 PUSH2 0x3752 JUMP JUMPDEST DUP1 ISZERO PUSH2 0x186B JUMPI DUP1 PUSH1 0x1F LT PUSH2 0x1842 JUMPI PUSH2 0x100 DUP1 DUP4 SLOAD DIV MUL DUP4 MSTORE SWAP2 PUSH1 0x20 ADD SWAP2 PUSH2 0x186B JUMP JUMPDEST DUP3 ADD SWAP2 SWAP1 PUSH0 MSTORE PUSH1 0x20 PUSH0 KECCAK256 SWAP1 JUMPDEST DUP2 SLOAD DUP2 MSTORE SWAP1 PUSH1 0x1 ADD SWAP1 PUSH1 0x20 ADD DUP1 DUP4 GT PUSH2 0x184E JUMPI DUP3 SWAP1 SUB PUSH1 0x1F AND DUP3 ADD SWAP2 JUMPDEST POP POP POP POP POP SWAP1 DUP1 PUSH1 0x1 ADD DUP1 SLOAD PUSH2 0x1880 SWAP1 PUSH2 0x3752 JUMP JUMPDEST DUP1 PUSH1 0x1F ADD PUSH1 0x20 DUP1 SWAP2 DIV MUL PUSH1 0x20 ADD PUSH1 0x40 MLOAD SWAP1 DUP2 ADD PUSH1 0x40 MSTORE DUP1 SWAP3 SWAP2 SWAP1 DUP2 DUP2 MSTORE PUSH1 0x20 ADD DUP3 DUP1 SLOAD PUSH2 0x18AC SWAP1 PUSH2 0x3752 JUMP JUMPDEST DUP1 ISZERO PUSH2 0x18F7 JUMPI DUP1 PUSH1 0x1F LT PUSH2 0x18CE JUMPI PUSH2 0x100 DUP1 DUP4 SLOAD DIV MUL DUP4 MSTORE SWAP2 PUSH1 0x20 ADD SWAP2 PUSH2 0x18F7 JUMP JUMPDEST DUP3 ADD SWAP2 SWAP1 PUSH0 MSTORE PUSH1 0x20 PUSH0 KECCAK256 SWAP1 JUMPDEST DUP2 SLOAD DUP2 MSTORE SWAP1 PUSH1 0x1 ADD SWAP1 PUSH1 0x20 ADD DUP1 DUP4 GT PUSH2 0x18DA JUMPI DUP3 SWAP1 SUB PUSH1 0x1F AND DUP3 ADD SWAP2 JUMPDEST POP POP POP POP POP SWAP1 POP DUP3 JUMP JUMPDEST PUSH0 PUSH0 DUP1 MLOAD PUSH1 0x20 PUSH2 0x3C2D DUP4 CODECOPY DUP2 MLOAD SWAP2 MSTORE PUSH1 0x1 PUSH1 0x1 PUSH1 0xA0 SHL SUB DUP4 AND PUSH2 0x1939 JUMPI PUSH1 0x40 MLOAD PUSH4 0x22718AD9 PUSH1 0xE2 SHL DUP2 MSTORE PUSH0 PUSH1 0x4 DUP3 ADD MSTORE PUSH1 0x24 ADD PUSH2 0xB88 JUMP JUMPDEST PUSH1 0x1 PUSH1 0x1 PUSH1 0xA0 SHL SUB SWAP1 SWAP3 AND PUSH0 SWAP1 DUP2 MSTORE PUSH1 0x3 SWAP1 SWAP3 ADD PUSH1 0x20 MSTORE POP PUSH1 0x40 SWAP1 KECCAK256 SLOAD SWAP1 JUMP JUMPDEST PUSH2 0x1961 PUSH2 0x24CA JUMP JUMPDEST PUSH2 0x16AE PUSH0 PUSH2 0x27AE JUMP JUMPDEST PUSH2 0x1972 PUSH2 0x24CA JUMP JUMPDEST PUSH1 0x1 PUSH1 0x1 PUSH1 0xA0 SHL SUB DUP6 AND PUSH0 SWAP1 DUP2 MSTORE PUSH1 0x4 PUSH1 0x20 MSTORE PUSH1 0x40 SWAP1 KECCAK256 PUSH2 0x1994 DUP5 DUP7 DUP4 PUSH2 0x3A6F JUMP JUMPDEST POP PUSH1 0x1 PUSH1 0x1 PUSH1 0xA0 SHL SUB DUP6 AND PUSH0 SWAP1 DUP2 MSTORE PUSH1 0x4 PUSH1 0x20 MSTORE PUSH1 0x40 SWAP1 KECCAK256 PUSH1 0x1 ADD PUSH2 0x19BA DUP3 DUP5 DUP4 PUSH2 0x3A6F JUMP JUMPDEST POP PUSH2 0x19C7 DUP5 DUP5 DUP5 DUP5 PUSH2 0x281E JUMP JUMPDEST POP POP POP POP POP JUMP JUMPDEST PUSH32 0xF0C57E16840DF040F15088DC2F81FE391C3923BEC73E23A9662EFC9C229C6A00 DUP1 SLOAD PUSH1 0x1 PUSH1 0x40 SHL DUP2 DIV PUSH1 0xFF AND ISZERO SWAP1 PUSH1 0x1 PUSH1 0x1 PUSH1 0x40 SHL SUB AND PUSH0 DUP2 ISZERO DUP1 ISZERO PUSH2 0x1A12 JUMPI POP DUP3 JUMPDEST SWAP1 POP PUSH0 DUP3 PUSH1 0x1 PUSH1 0x1 PUSH1 0x40 SHL SUB AND PUSH1 0x1 EQ DUP1 ISZERO PUSH2 0x1A2D JUMPI POP ADDRESS EXTCODESIZE ISZERO JUMPDEST SWAP1 POP DUP2 ISZERO DUP1 ISZERO PUSH2 0x1A3B JUMPI POP DUP1 ISZERO JUMPDEST ISZERO PUSH2 0x1A59 JUMPI PUSH1 0x40 MLOAD PUSH4 0xF92EE8A9 PUSH1 0xE0 SHL DUP2 MSTORE PUSH1 0x4 ADD PUSH1 0x40 MLOAD DUP1 SWAP2 SUB SWAP1 REVERT JUMPDEST DUP5 SLOAD PUSH8 0xFFFFFFFFFFFFFFFF NOT AND PUSH1 0x1 OR DUP6 SSTORE DUP4 ISZERO PUSH2 0x1A83 JUMPI DUP5 SLOAD PUSH1 0xFF PUSH1 0x40 SHL NOT AND PUSH1 0x1 PUSH1 0x40 SHL OR DUP6 SSTORE JUMPDEST PUSH2 0x1AD6 PUSH1 0x40 MLOAD DUP1 PUSH1 0x40 ADD PUSH1 0x40 MSTORE DUP1 PUSH1 0x11 DUP2 MSTORE PUSH1 0x20 ADD PUSH17 0x11DA534B4D0B8C97D0D85C989BDB939195 PUSH1 0x7A SHL DUP2 MSTORE POP PUSH1 0x40 MLOAD DUP1 PUSH1 0x40 ADD PUSH1 0x40 MSTORE DUP1 PUSH1 0x8 DUP2 MSTORE PUSH1 0x20 ADD PUSH8 0x11DA534B50D39195 PUSH1 0xC2 SHL DUP2 MSTORE POP PUSH2 0x284D JUMP JUMPDEST PUSH2 0x1ADE PUSH2 0x285F JUMP JUMPDEST PUSH2 0x1AE7 CALLER PUSH2 0x286F JUMP JUMPDEST PUSH2 0x1AEF PUSH2 0x2880 JUMP JUMPDEST PUSH2 0x1AF9 PUSH0 CALLER PUSH2 0x2429 JUMP JUMPDEST POP PUSH2 0x1B11 PUSH0 DUP1 MLOAD PUSH1 0x20 PUSH2 0x3CE2 DUP4 CODECOPY DUP2 MLOAD SWAP2 MSTORE CALLER PUSH2 0x2429 JUMP JUMPDEST POP PUSH0 PUSH1 0x6 DUP2 SWAP1 SSTORE PUSH5 0x2540BE400 PUSH1 0x7 SSTORE DUP1 SSTORE PUSH1 0x40 DUP1 MLOAD PUSH1 0x60 DUP2 ADD SWAP1 SWAP2 MSTORE PUSH1 0x35 DUP1 DUP3 MSTORE PUSH2 0x3C4D PUSH1 0x20 DUP4 ADD CODECOPY PUSH1 0x8 SWAP1 PUSH2 0x1B48 SWAP1 DUP3 PUSH2 0x3889 JUMP JUMPDEST POP DUP4 ISZERO PUSH2 0x19C7 JUMPI DUP5 SLOAD PUSH1 0xFF PUSH1 0x40 SHL NOT AND DUP6 SSTORE PUSH1 0x40 MLOAD PUSH1 0x1 DUP2 MSTORE PUSH32 0xC7F505B2F371AE2175EE4913F4499E1F2633A7B5936321EED1CDAEB6115181D2 SWAP1 PUSH1 0x20 ADD PUSH1 0x40 MLOAD DUP1 SWAP2 SUB SWAP1 LOG1 POP POP POP POP POP JUMP JUMPDEST PUSH2 0x1B9D PUSH2 0x24CA JUMP JUMPDEST PUSH2 0x16AE PUSH2 0x2888 JUMP JUMPDEST PUSH2 0x1BAD PUSH2 0x24CA JUMP JUMPDEST PUSH1 0x8 PUSH2 0xD5D DUP3 DUP3 PUSH2 0x3889 JUMP JUMPDEST PUSH0 SWAP2 DUP3 MSTORE PUSH0 DUP1 MLOAD PUSH1 0x20 PUSH2 0x3CA2 DUP4 CODECOPY DUP2 MLOAD SWAP2 MSTORE PUSH1 0x20 SWAP1 DUP2 MSTORE PUSH1 0x40 DUP1 DUP5 KECCAK256 PUSH1 0x1 PUSH1 0x1 PUSH1 0xA0 SHL SUB SWAP4 SWAP1 SWAP4 AND DUP5 MSTORE SWAP2 SWAP1 MSTORE SWAP1 KECCAK256 SLOAD PUSH1 0xFF AND SWAP1 JUMP JUMPDEST PUSH2 0x1BF7 PUSH2 0x24CA JUMP JUMPDEST PUSH1 0x1 DUP1 SLOAD PUSH1 0x1 PUSH1 0x1 PUSH1 0xA0 SHL SUB NOT AND PUSH1 0x1 PUSH1 0x1 PUSH1 0xA0 SHL SUB SWAP3 SWAP1 SWAP3 AND SWAP2 SWAP1 SWAP2 OR SWAP1 SSTORE JUMP JUMPDEST PUSH32 0x80BB2B638CC20BC4D0A60D66940F3AB4A00C1D7B313497CA82FB0B4AB0079301 DUP1 SLOAD PUSH1 0x60 SWAP2 PUSH0 DUP1 MLOAD PUSH1 0x20 PUSH2 0x3C2D DUP4 CODECOPY DUP2 MLOAD SWAP2 MSTORE SWAP2 PUSH2 0xCBC SWAP1 PUSH2 0x3752 JUMP JUMPDEST PUSH2 0x1C5F PUSH2 0x1F94 JUMP JUMPDEST CALLER PUSH2 0x1C69 DUP5 PUSH2 0x1744 JUMP JUMPDEST PUSH1 0x1 PUSH1 0x1 PUSH1 0xA0 SHL SUB AND EQ DUP1 PUSH2 0x1C90 JUMPI POP PUSH2 0x1C90 PUSH0 DUP1 MLOAD PUSH1 0x20 PUSH2 0x3CE2 DUP4 CODECOPY DUP2 MLOAD SWAP2 MSTORE CALLER PUSH2 0x1BB9 JUMP JUMPDEST PUSH2 0x1CEC JUMPI PUSH1 0x40 MLOAD PUSH3 0x461BCD PUSH1 0xE5 SHL DUP2 MSTORE PUSH1 0x20 PUSH1 0x4 DUP3 ADD MSTORE PUSH1 0x27 PUSH1 0x24 DUP3 ADD MSTORE PUSH32 0x4572726F723A20757064617465206F6E6C79206279206F776E6572206F722076 PUSH1 0x44 DUP3 ADD MSTORE PUSH7 0x32B934B334B2B9 PUSH1 0xC9 SHL PUSH1 0x64 DUP3 ADD MSTORE PUSH1 0x84 ADD PUSH2 0xB88 JUMP JUMPDEST PUSH2 0x15D4 DUP4 DUP4 DUP4 PUSH2 0x2332 JUMP JUMPDEST PUSH2 0xD5D CALLER DUP4 DUP4 PUSH2 0x28D0 JUMP JUMPDEST PUSH2 0x1D0D DUP5 DUP5 DUP5 PUSH2 0x1179 JUMP JUMPDEST PUSH2 0x11FC DUP5 DUP5 DUP5 DUP5 PUSH2 0x297F JUMP JUMPDEST PUSH1 0x60 PUSH2 0x1D24 DUP3 PUSH2 0x2A9E JUMP JUMPDEST PUSH2 0x1D88 JUMPI PUSH1 0x40 MLOAD PUSH3 0x461BCD PUSH1 0xE5 SHL DUP2 MSTORE PUSH1 0x20 PUSH1 0x4 DUP3 ADD MSTORE PUSH1 0x2F PUSH1 0x24 DUP3 ADD MSTORE PUSH32 0x4552433732314D657461646174613A2055524920717565727920666F72206E6F PUSH1 0x44 DUP3 ADD MSTORE PUSH15 0x3732BC34B9BA32B73A103A37B5B2B7 PUSH1 0x89 SHL PUSH1 0x64 DUP3 ADD MSTORE PUSH1 0x84 ADD PUSH2 0xB88 JUMP JUMPDEST PUSH0 DUP3 DUP2 MSTORE PUSH1 0x3 PUSH1 0x20 MSTORE PUSH1 0x40 SWAP1 KECCAK256 PUSH1 0x5 ADD DUP1 SLOAD PUSH2 0x1DA3 SWAP1 PUSH2 0x3752 JUMP JUMPDEST DUP1 PUSH1 0x1F ADD PUSH1 0x20 DUP1 SWAP2 DIV MUL PUSH1 0x20 ADD PUSH1 0x40 MLOAD SWAP1 DUP2 ADD PUSH1 0x40 MSTORE DUP1 SWAP3 SWAP2 SWAP1 DUP2 DUP2 MSTORE PUSH1 0x20 ADD DUP3 DUP1 SLOAD PUSH2 0x1DCF SWAP1 PUSH2 0x3752 JUMP JUMPDEST DUP1 ISZERO PUSH2 0x1E1A JUMPI DUP1 PUSH1 0x1F LT PUSH2 0x1DF1 JUMPI PUSH2 0x100 DUP1 DUP4 SLOAD DIV MUL DUP4 MSTORE SWAP2 PUSH1 0x20 ADD SWAP2 PUSH2 0x1E1A JUMP JUMPDEST DUP3 ADD SWAP2 SWAP1 PUSH0 MSTORE PUSH1 0x20 PUSH0 KECCAK256 SWAP1 JUMPDEST DUP2 SLOAD DUP2 MSTORE SWAP1 PUSH1 0x1 ADD SWAP1 PUSH1 0x20 ADD DUP1 DUP4 GT PUSH2 0x1DFD JUMPI DUP3 SWAP1 SUB PUSH1 0x1F AND DUP3 ADD SWAP2 JUMPDEST POP POP POP POP POP SWAP1 POP SWAP2 SWAP1 POP JUMP JUMPDEST PUSH2 0x1E2F DUP3 PUSH2 0x1202 JUMP JUMPDEST PUSH2 0x1E38 DUP2 PUSH2 0x241F JUMP JUMPDEST PUSH2 0x11FC DUP4 DUP4 PUSH2 0x2525 JUMP JUMPDEST PUSH1 0x1 PUSH1 0x1 PUSH1 0xA0 SHL SUB SWAP2 DUP3 AND PUSH0 SWAP1 DUP2 MSTORE PUSH32 0x80BB2B638CC20BC4D0A60D66940F3AB4A00C1D7B313497CA82FB0B4AB0079305 PUSH1 0x20 SWAP1 DUP2 MSTORE PUSH1 0x40 DUP1 DUP4 KECCAK256 SWAP4 SWAP1 SWAP5 AND DUP3 MSTORE SWAP2 SWAP1 SWAP2 MSTORE KECCAK256 SLOAD PUSH1 0xFF AND SWAP1 JUMP JUMPDEST PUSH2 0x1E96 PUSH2 0x24CA JUMP JUMPDEST PUSH1 0x1 PUSH1 0x1 PUSH1 0xA0 SHL SUB DUP2 AND PUSH2 0x1EBF JUMPI PUSH1 0x40 MLOAD PUSH4 0x1E4FBDF7 PUSH1 0xE0 SHL DUP2 MSTORE PUSH0 PUSH1 0x4 DUP3 ADD MSTORE PUSH1 0x24 ADD PUSH2 0xB88 JUMP JUMPDEST PUSH2 0x1266 DUP2 PUSH2 0x27AE JUMP JUMPDEST PUSH0 PUSH1 0x1 PUSH1 0x1 PUSH1 0xE0 SHL SUB NOT DUP3 AND PUSH4 0x80AC58CD PUSH1 0xE0 SHL EQ DUP1 PUSH2 0x1EF8 JUMPI POP PUSH1 0x1 PUSH1 0x1 PUSH1 0xE0 SHL SUB NOT DUP3 AND PUSH4 0x5B5E139F PUSH1 0xE0 SHL EQ JUMPDEST DUP1 PUSH2 0xB39 JUMPI POP PUSH4 0x1FFC9A7 PUSH1 0xE0 SHL PUSH1 0x1 PUSH1 0x1 PUSH1 0xE0 SHL SUB NOT DUP4 AND EQ PUSH2 0xB39 JUMP JUMPDEST PUSH0 DUP1 PUSH2 0x1F22 DUP4 PUSH2 0x2ABA JUMP JUMPDEST SWAP1 POP PUSH1 0x1 PUSH1 0x1 PUSH1 0xA0 SHL SUB DUP2 AND PUSH2 0xB39 JUMPI PUSH1 0x40 MLOAD PUSH4 0x7E273289 PUSH1 0xE0 SHL DUP2 MSTORE PUSH1 0x4 DUP2 ADD DUP5 SWAP1 MSTORE PUSH1 0x24 ADD PUSH2 0xB88 JUMP JUMPDEST PUSH0 SWAP1 DUP2 MSTORE PUSH32 0x80BB2B638CC20BC4D0A60D66940F3AB4A00C1D7B313497CA82FB0B4AB0079304 PUSH1 0x20 MSTORE PUSH1 0x40 SWAP1 KECCAK256 SLOAD PUSH1 0x1 PUSH1 0x1 PUSH1 0xA0 SHL SUB AND SWAP1 JUMP JUMPDEST PUSH2 0x15D4 DUP4 DUP4 DUP4 PUSH1 0x1 PUSH2 0x2AF3 JUMP JUMPDEST PUSH0 DUP1 MLOAD PUSH1 0x20 PUSH2 0x3CC2 DUP4 CODECOPY DUP2 MLOAD SWAP2 MSTORE SLOAD PUSH1 0xFF AND ISZERO PUSH2 0x16AE JUMPI PUSH1 0x40 MLOAD PUSH4 0xD93C0665 PUSH1 0xE0 SHL DUP2 MSTORE PUSH1 0x4 ADD PUSH1 0x40 MLOAD DUP1 SWAP2 SUB SWAP1 REVERT JUMPDEST PUSH2 0xD5D DUP3 DUP3 PUSH1 0x40 MLOAD DUP1 PUSH1 0x20 ADD PUSH1 0x40 MSTORE DUP1 PUSH0 DUP2 MSTORE POP PUSH2 0x2C06 JUMP JUMPDEST PUSH0 PUSH0 DUP1 MLOAD PUSH1 0x20 PUSH2 0x3C2D DUP4 CODECOPY DUP2 MLOAD SWAP2 MSTORE DUP2 PUSH2 0x1FF6 DUP6 PUSH2 0x2ABA JUMP JUMPDEST SWAP1 POP PUSH1 0x1 PUSH1 0x1 PUSH1 0xA0 SHL SUB DUP5 AND ISZERO PUSH2 0x2012 JUMPI PUSH2 0x2012 DUP2 DUP6 DUP8 PUSH2 0x2C1C JUMP JUMPDEST PUSH1 0x1 PUSH1 0x1 PUSH1 0xA0 SHL SUB DUP2 AND ISZERO PUSH2 0x204E JUMPI PUSH2 0x202D PUSH0 DUP7 PUSH0 DUP1 PUSH2 0x2AF3 JUMP JUMPDEST PUSH1 0x1 PUSH1 0x1 PUSH1 0xA0 SHL SUB DUP2 AND PUSH0 SWAP1 DUP2 MSTORE PUSH1 0x3 DUP4 ADD PUSH1 0x20 MSTORE PUSH1 0x40 SWAP1 KECCAK256 DUP1 SLOAD PUSH0 NOT ADD SWAP1 SSTORE JUMPDEST PUSH1 0x1 PUSH1 0x1 PUSH1 0xA0 SHL SUB DUP7 AND ISZERO PUSH2 0x207E JUMPI PUSH1 0x1 PUSH1 0x1 PUSH1 0xA0 SHL SUB DUP7 AND PUSH0 SWAP1 DUP2 MSTORE PUSH1 0x3 DUP4 ADD PUSH1 0x20 MSTORE PUSH1 0x40 SWAP1 KECCAK256 DUP1 SLOAD PUSH1 0x1 ADD SWAP1 SSTORE JUMPDEST PUSH0 DUP6 DUP2 MSTORE PUSH1 0x2 DUP4 ADD PUSH1 0x20 MSTORE PUSH1 0x40 DUP1 DUP3 KECCAK256 DUP1 SLOAD PUSH1 0x1 PUSH1 0x1 PUSH1 0xA0 SHL SUB NOT AND PUSH1 0x1 PUSH1 0x1 PUSH1 0xA0 SHL SUB DUP11 DUP2 AND SWAP2 DUP3 OR SWAP1 SWAP3 SSTORE SWAP2 MLOAD DUP9 SWAP4 SWAP2 DUP6 AND SWAP2 PUSH32 0xDDF252AD1BE2C89B69C2B068FC378DAA952BA7F163C4A11628F55A4DF523B3EF SWAP2 LOG4 SWAP2 POP POP JUMPDEST SWAP4 SWAP3 POP POP POP JUMP JUMPDEST PUSH0 DUP2 DUP2 MSTORE PUSH1 0x3 PUSH1 0x20 DUP2 SWAP1 MSTORE PUSH1 0x40 DUP3 KECCAK256 ADD SLOAD PUSH2 0x20FA SWAP2 LT SWAP1 JUMP JUMPDEST PUSH2 0x2150 JUMPI PUSH1 0x40 MLOAD PUSH3 0x461BCD PUSH1 0xE5 SHL DUP2 MSTORE PUSH1 0x20 PUSH1 0x4 DUP3 ADD MSTORE PUSH1 0x21 PUSH1 0x24 DUP3 ADD MSTORE PUSH32 0x4572726F723A20636172626F6E20616D6F756E74206D75737420757070657220 PUSH1 0x44 DUP3 ADD MSTORE PUSH1 0x3 PUSH1 0xFC SHL PUSH1 0x64 DUP3 ADD MSTORE PUSH1 0x84 ADD PUSH2 0xB88 JUMP JUMPDEST PUSH0 DUP2 DUP2 MSTORE PUSH1 0x3 PUSH1 0x20 MSTORE PUSH1 0x40 DUP2 KECCAK256 PUSH1 0x4 ADD SLOAD PUSH1 0xFF AND SWAP1 DUP2 PUSH1 0x3 DUP2 GT ISZERO PUSH2 0x2177 JUMPI PUSH2 0x2177 PUSH2 0x31CB JUMP JUMPDEST EQ PUSH2 0x21D0 JUMPI PUSH1 0x40 MLOAD PUSH3 0x461BCD PUSH1 0xE5 SHL DUP2 MSTORE PUSH1 0x20 PUSH1 0x4 DUP3 ADD MSTORE PUSH1 0x23 PUSH1 0x24 DUP3 ADD MSTORE PUSH32 0x4572726F723A2074686973206E667420697320616C7265616479207665726966 PUSH1 0x44 DUP3 ADD MSTORE PUSH3 0x1A5959 PUSH1 0xEA SHL PUSH1 0x64 DUP3 ADD MSTORE PUSH1 0x84 ADD PUSH2 0xB88 JUMP JUMPDEST PUSH1 0x8 PUSH1 0x40 MLOAD PUSH1 0x20 ADD PUSH2 0x21E2 SWAP2 SWAP1 PUSH2 0x3B23 JUMP JUMPDEST PUSH1 0x40 DUP1 MLOAD PUSH1 0x1F NOT DUP2 DUP5 SUB ADD DUP2 MSTORE SWAP2 DUP2 MSTORE PUSH0 DUP5 DUP2 MSTORE PUSH1 0x3 PUSH1 0x20 MSTORE KECCAK256 PUSH1 0x5 ADD SWAP1 PUSH2 0x220A SWAP1 DUP3 PUSH2 0x3889 JUMP JUMPDEST POP PUSH2 0x2216 DUP3 PUSH1 0x1 PUSH2 0x2C80 JUMP JUMPDEST PUSH0 DUP3 DUP2 MSTORE PUSH1 0x3 PUSH1 0x20 MSTORE PUSH1 0x40 DUP2 KECCAK256 PUSH1 0x6 DUP2 ADD DUP1 SLOAD PUSH1 0x1 PUSH1 0x1 PUSH1 0xA0 SHL SUB NOT AND CALLER OR SWAP1 SSTORE PUSH1 0x1 ADD DUP1 SLOAD PUSH2 0x2245 SWAP1 PUSH2 0x3752 JUMP JUMPDEST DUP1 PUSH1 0x1F ADD PUSH1 0x20 DUP1 SWAP2 DIV MUL PUSH1 0x20 ADD PUSH1 0x40 MLOAD SWAP1 DUP2 ADD PUSH1 0x40 MSTORE DUP1 SWAP3 SWAP2 SWAP1 DUP2 DUP2 MSTORE PUSH1 0x20 ADD DUP3 DUP1 SLOAD PUSH2 0x2271 SWAP1 PUSH2 0x3752 JUMP JUMPDEST DUP1 ISZERO PUSH2 0x22BC JUMPI DUP1 PUSH1 0x1F LT PUSH2 0x2293 JUMPI PUSH2 0x100 DUP1 DUP4 SLOAD DIV MUL DUP4 MSTORE SWAP2 PUSH1 0x20 ADD SWAP2 PUSH2 0x22BC JUMP JUMPDEST DUP3 ADD SWAP2 SWAP1 PUSH0 MSTORE PUSH1 0x20 PUSH0 KECCAK256 SWAP1 JUMPDEST DUP2 SLOAD DUP2 MSTORE SWAP1 PUSH1 0x1 ADD SWAP1 PUSH1 0x20 ADD DUP1 DUP4 GT PUSH2 0x229F JUMPI DUP3 SWAP1 SUB PUSH1 0x1F AND DUP3 ADD SWAP2 JUMPDEST POP POP POP POP POP SWAP1 POP PUSH0 PUSH1 0x5 DUP3 PUSH1 0x40 MLOAD PUSH2 0x22D4 SWAP2 SWAP1 PUSH2 0x3A64 JUMP JUMPDEST SWAP1 DUP2 MSTORE PUSH1 0x20 ADD PUSH1 0x40 MLOAD DUP1 SWAP2 SUB SWAP1 KECCAK256 PUSH1 0x1 ADD SLOAD SWAP1 POP PUSH2 0x2306 DUP2 PUSH1 0x3 PUSH0 DUP8 DUP2 MSTORE PUSH1 0x20 ADD SWAP1 DUP2 MSTORE PUSH1 0x20 ADD PUSH0 KECCAK256 PUSH1 0x3 ADD SLOAD PUSH2 0x2CE8 JUMP JUMPDEST SWAP1 POP DUP1 PUSH1 0x5 DUP4 PUSH1 0x40 MLOAD PUSH2 0x2319 SWAP2 SWAP1 PUSH2 0x3A64 JUMP JUMPDEST SWAP1 DUP2 MSTORE PUSH1 0x40 MLOAD SWAP1 DUP2 SWAP1 SUB PUSH1 0x20 ADD SWAP1 KECCAK256 PUSH1 0x1 ADD SSTORE POP POP POP POP JUMP JUMPDEST PUSH0 DUP4 DUP2 MSTORE PUSH1 0x3 PUSH1 0x20 MSTORE PUSH1 0x40 DUP2 KECCAK256 PUSH1 0x4 ADD SLOAD PUSH1 0xFF AND SWAP1 DUP2 PUSH1 0x3 DUP2 GT ISZERO PUSH2 0x2359 JUMPI PUSH2 0x2359 PUSH2 0x31CB JUMP JUMPDEST EQ PUSH2 0x23B2 JUMPI PUSH1 0x40 MLOAD PUSH3 0x461BCD PUSH1 0xE5 SHL DUP2 MSTORE PUSH1 0x20 PUSH1 0x4 DUP3 ADD MSTORE PUSH1 0x23 PUSH1 0x24 DUP3 ADD MSTORE PUSH32 0x4572726F723A2074686973204E465420697320616C7265616479207665726966 PUSH1 0x44 DUP3 ADD MSTORE PUSH3 0x1A5959 PUSH1 0xEA SHL PUSH1 0x64 DUP3 ADD MSTORE PUSH1 0x84 ADD PUSH2 0xB88 JUMP JUMPDEST PUSH0 DUP5 DUP2 MSTORE PUSH1 0x3 PUSH1 0x20 MSTORE PUSH1 0x40 SWAP1 KECCAK256 PUSH2 0x23C9 DUP5 DUP3 PUSH2 0x3889 JUMP JUMPDEST POP PUSH0 DUP5 DUP2 MSTORE PUSH1 0x3 PUSH1 0x20 DUP2 SWAP1 MSTORE PUSH1 0x40 SWAP2 DUP3 SWAP1 KECCAK256 ADD DUP4 SWAP1 SSTORE MLOAD PUSH32 0xD709640C99E64FB441C88579B8B36681C3341AF28E4E1FF0C759C7EF6F1E6954 SWAP1 PUSH2 0x2411 SWAP1 DUP7 SWAP1 DUP7 SWAP1 DUP7 SWAP1 PUSH2 0x3B54 JUMP JUMPDEST PUSH1 0x40 MLOAD DUP1 SWAP2 SUB SWAP1 LOG1 POP POP POP POP JUMP JUMPDEST PUSH2 0x1266 DUP2 CALLER PUSH2 0x2CF9 JUMP JUMPDEST PUSH0 PUSH0 DUP1 MLOAD PUSH1 0x20 PUSH2 0x3CA2 DUP4 CODECOPY DUP2 MLOAD SWAP2 MSTORE PUSH2 0x2442 DUP5 DUP5 PUSH2 0x1BB9 JUMP JUMPDEST PUSH2 0x24C1 JUMPI PUSH0 DUP5 DUP2 MSTORE PUSH1 0x20 DUP3 DUP2 MSTORE PUSH1 0x40 DUP1 DUP4 KECCAK256 PUSH1 0x1 PUSH1 0x1 PUSH1 0xA0 SHL SUB DUP8 AND DUP5 MSTORE SWAP1 SWAP2 MSTORE SWAP1 KECCAK256 DUP1 SLOAD PUSH1 0xFF NOT AND PUSH1 0x1 OR SWAP1 SSTORE PUSH2 0x2477 CALLER SWAP1 JUMP JUMPDEST PUSH1 0x1 PUSH1 0x1 PUSH1 0xA0 SHL SUB AND DUP4 PUSH1 0x1 PUSH1 0x1 PUSH1 0xA0 SHL SUB AND DUP6 PUSH32 0x2F8788117E7EFF1D82E926EC794901D17C78024A50270940304540A733656F0D PUSH1 0x40 MLOAD PUSH1 0x40 MLOAD DUP1 SWAP2 SUB SWAP1 LOG4 PUSH1 0x1 SWAP2 POP POP PUSH2 0xB39 JUMP JUMPDEST PUSH0 SWAP2 POP POP PUSH2 0xB39 JUMP JUMPDEST CALLER PUSH2 0x24FC PUSH32 0x9016D09D72D40FDAE2FD8CEAC6B6234C7706214FD39C1CD1E609A0528C199300 SLOAD PUSH1 0x1 PUSH1 0x1 PUSH1 0xA0 SHL SUB AND SWAP1 JUMP JUMPDEST PUSH1 0x1 PUSH1 0x1 PUSH1 0xA0 SHL SUB AND EQ PUSH2 0x16AE JUMPI PUSH1 0x40 MLOAD PUSH4 0x118CDAA7 PUSH1 0xE0 SHL DUP2 MSTORE CALLER PUSH1 0x4 DUP3 ADD MSTORE PUSH1 0x24 ADD PUSH2 0xB88 JUMP JUMPDEST PUSH0 PUSH0 DUP1 MLOAD PUSH1 0x20 PUSH2 0x3CA2 DUP4 CODECOPY DUP2 MLOAD SWAP2 MSTORE PUSH2 0x253E DUP5 DUP5 PUSH2 0x1BB9 JUMP JUMPDEST ISZERO PUSH2 0x24C1 JUMPI PUSH0 DUP5 DUP2 MSTORE PUSH1 0x20 DUP3 DUP2 MSTORE PUSH1 0x40 DUP1 DUP4 KECCAK256 PUSH1 0x1 PUSH1 0x1 PUSH1 0xA0 SHL SUB DUP8 AND DUP1 DUP6 MSTORE SWAP3 MSTORE DUP1 DUP4 KECCAK256 DUP1 SLOAD PUSH1 0xFF NOT AND SWAP1 SSTORE MLOAD CALLER SWAP3 DUP8 SWAP2 PUSH32 0xF6391F5C32D9C69D2A47EA670B442974B53935D1EDC7FD64EB21E047A839171B SWAP2 SWAP1 LOG4 PUSH1 0x1 SWAP2 POP POP PUSH2 0xB39 JUMP JUMPDEST PUSH2 0x25A6 PUSH2 0x2D32 JUMP JUMPDEST PUSH0 DUP1 MLOAD PUSH1 0x20 PUSH2 0x3CC2 DUP4 CODECOPY DUP2 MLOAD SWAP2 MSTORE DUP1 SLOAD PUSH1 0xFF NOT AND DUP2 SSTORE PUSH32 0x5DB9EE0A495BF2E6FF9C91A7834C1BA4FDD244A5E8AA4E537BD38AEAE4B073AA CALLER JUMPDEST PUSH1 0x40 MLOAD PUSH1 0x1 PUSH1 0x1 PUSH1 0xA0 SHL SUB SWAP1 SWAP2 AND DUP2 MSTORE PUSH1 0x20 ADD PUSH1 0x40 MLOAD DUP1 SWAP2 SUB SWAP1 LOG1 POP JUMP JUMPDEST ADDRESS PUSH1 0x1 PUSH1 0x1 PUSH1 0xA0 SHL SUB PUSH32 0x0 AND EQ DUP1 PUSH2 0x2683 JUMPI POP PUSH32 0x0 PUSH1 0x1 PUSH1 0x1 PUSH1 0xA0 SHL SUB AND PUSH2 0x2677 PUSH0 DUP1 MLOAD PUSH1 0x20 PUSH2 0x3C82 DUP4 CODECOPY DUP2 MLOAD SWAP2 MSTORE SLOAD PUSH1 0x1 PUSH1 0x1 PUSH1 0xA0 SHL SUB AND SWAP1 JUMP JUMPDEST PUSH1 0x1 PUSH1 0x1 PUSH1 0xA0 SHL SUB AND EQ ISZERO JUMPDEST ISZERO PUSH2 0x16AE JUMPI PUSH1 0x40 MLOAD PUSH4 0x703E46DD PUSH1 0xE1 SHL DUP2 MSTORE PUSH1 0x4 ADD PUSH1 0x40 MLOAD DUP1 SWAP2 SUB SWAP1 REVERT JUMPDEST PUSH2 0x1266 PUSH2 0x24CA JUMP JUMPDEST DUP2 PUSH1 0x1 PUSH1 0x1 PUSH1 0xA0 SHL SUB AND PUSH4 0x52D1902D PUSH1 0x40 MLOAD DUP2 PUSH4 0xFFFFFFFF AND PUSH1 0xE0 SHL DUP2 MSTORE PUSH1 0x4 ADD PUSH1 0x20 PUSH1 0x40 MLOAD DUP1 DUP4 SUB DUP2 DUP7 GAS STATICCALL SWAP3 POP POP POP DUP1 ISZERO PUSH2 0x2703 JUMPI POP PUSH1 0x40 DUP1 MLOAD PUSH1 0x1F RETURNDATASIZE SWAP1 DUP2 ADD PUSH1 0x1F NOT AND DUP3 ADD SWAP1 SWAP3 MSTORE PUSH2 0x2700 SWAP2 DUP2 ADD SWAP1 PUSH2 0x3B7C JUMP JUMPDEST PUSH1 0x1 JUMPDEST PUSH2 0x272B JUMPI PUSH1 0x40 MLOAD PUSH4 0x4C9C8CE3 PUSH1 0xE0 SHL DUP2 MSTORE PUSH1 0x1 PUSH1 0x1 PUSH1 0xA0 SHL SUB DUP4 AND PUSH1 0x4 DUP3 ADD MSTORE PUSH1 0x24 ADD PUSH2 0xB88 JUMP JUMPDEST PUSH0 DUP1 MLOAD PUSH1 0x20 PUSH2 0x3C82 DUP4 CODECOPY DUP2 MLOAD SWAP2 MSTORE DUP2 EQ PUSH2 0x275B JUMPI PUSH1 0x40 MLOAD PUSH4 0x2A875269 PUSH1 0xE2 SHL DUP2 MSTORE PUSH1 0x4 DUP2 ADD DUP3 SWAP1 MSTORE PUSH1 0x24 ADD PUSH2 0xB88 JUMP JUMPDEST PUSH2 0x15D4 DUP4 DUP4 PUSH2 0x2D61 JUMP JUMPDEST ADDRESS PUSH1 0x1 PUSH1 0x1 PUSH1 0xA0 SHL SUB PUSH32 0x0 AND EQ PUSH2 0x16AE JUMPI PUSH1 0x40 MLOAD PUSH4 0x703E46DD PUSH1 0xE1 SHL DUP2 MSTORE PUSH1 0x4 ADD PUSH1 0x40 MLOAD DUP1 SWAP2 SUB SWAP1 REVERT JUMPDEST PUSH32 0x9016D09D72D40FDAE2FD8CEAC6B6234C7706214FD39C1CD1E609A0528C199300 DUP1 SLOAD PUSH1 0x1 PUSH1 0x1 PUSH1 0xA0 SHL SUB NOT DUP2 AND PUSH1 0x1 PUSH1 0x1 PUSH1 0xA0 SHL SUB DUP5 DUP2 AND SWAP2 DUP3 OR DUP5 SSTORE PUSH1 0x40 MLOAD SWAP3 AND SWAP2 DUP3 SWAP1 PUSH32 0x8BE0079C531659141344CD1FD0A4F28419497F9722A3DAAFE3B4186F6B6457E0 SWAP1 PUSH0 SWAP1 LOG3 POP POP POP JUMP JUMPDEST DUP2 DUP2 PUSH1 0x5 DUP7 DUP7 PUSH1 0x40 MLOAD PUSH2 0x2832 SWAP3 SWAP2 SWAP1 PUSH2 0x3B93 JUMP JUMPDEST SWAP1 DUP2 MSTORE PUSH1 0x40 MLOAD SWAP1 DUP2 SWAP1 SUB PUSH1 0x20 ADD SWAP1 KECCAK256 SWAP2 PUSH2 0x19C7 SWAP2 SWAP1 DUP4 PUSH2 0x3A6F JUMP JUMPDEST PUSH2 0x2855 PUSH2 0x2DB6 JUMP JUMPDEST PUSH2 0xD5D DUP3 DUP3 PUSH2 0x2DFF JUMP JUMPDEST PUSH2 0x2867 PUSH2 0x2DB6 JUMP JUMPDEST PUSH2 0x16AE PUSH2 0x2E2F JUMP JUMPDEST PUSH2 0x2877 PUSH2 0x2DB6 JUMP JUMPDEST PUSH2 0x1266 DUP2 PUSH2 0x2E4F JUMP JUMPDEST PUSH2 0x16AE PUSH2 0x2DB6 JUMP JUMPDEST PUSH2 0x2890 PUSH2 0x1F94 JUMP JUMPDEST PUSH0 DUP1 MLOAD PUSH1 0x20 PUSH2 0x3CC2 DUP4 CODECOPY DUP2 MLOAD SWAP2 MSTORE DUP1 SLOAD PUSH1 0xFF NOT AND PUSH1 0x1 OR DUP2 SSTORE PUSH32 0x62E78CEA01BEE320CD4E420270B5EA74000D11B0C9F74754EBDBFC544B05A258 CALLER PUSH2 0x25DF JUMP JUMPDEST PUSH0 DUP1 MLOAD PUSH1 0x20 PUSH2 0x3C2D DUP4 CODECOPY DUP2 MLOAD SWAP2 MSTORE PUSH1 0x1 PUSH1 0x1 PUSH1 0xA0 SHL SUB DUP4 AND PUSH2 0x2910 JUMPI PUSH1 0x40 MLOAD PUSH4 0xB611743 PUSH1 0xE3 SHL DUP2 MSTORE PUSH1 0x1 PUSH1 0x1 PUSH1 0xA0 SHL SUB DUP5 AND PUSH1 0x4 DUP3 ADD MSTORE PUSH1 0x24 ADD PUSH2 0xB88 JUMP JUMPDEST PUSH1 0x1 PUSH1 0x1 PUSH1 0xA0 SHL SUB DUP5 DUP2 AND PUSH0 DUP2 DUP2 MSTORE PUSH1 0x5 DUP5 ADD PUSH1 0x20 SWAP1 DUP2 MSTORE PUSH1 0x40 DUP1 DUP4 KECCAK256 SWAP5 DUP9 AND DUP1 DUP5 MSTORE SWAP5 DUP3 MSTORE SWAP2 DUP3 SWAP1 KECCAK256 DUP1 SLOAD PUSH1 0xFF NOT AND DUP8 ISZERO ISZERO SWAP1 DUP2 OR SWAP1 SWAP2 SSTORE SWAP2 MLOAD SWAP2 DUP3 MSTORE PUSH32 0x17307EAB39AB6107E8899845AD3D59BD9653F200F220920489CA2B5937696C31 SWAP2 ADD PUSH1 0x40 MLOAD DUP1 SWAP2 SUB SWAP1 LOG3 POP POP POP POP JUMP JUMPDEST PUSH1 0x1 PUSH1 0x1 PUSH1 0xA0 SHL SUB DUP4 AND EXTCODESIZE ISZERO PUSH2 0x11FC JUMPI PUSH1 0x40 MLOAD PUSH4 0xA85BD01 PUSH1 0xE1 SHL DUP2 MSTORE PUSH1 0x1 PUSH1 0x1 PUSH1 0xA0 SHL SUB DUP5 AND SWAP1 PUSH4 0x150B7A02 SWAP1 PUSH2 0x29C1 SWAP1 CALLER SWAP1 DUP9 SWAP1 DUP8 SWAP1 DUP8 SWAP1 PUSH1 0x4 ADD PUSH2 0x3BA2 JUMP JUMPDEST PUSH1 0x20 PUSH1 0x40 MLOAD DUP1 DUP4 SUB DUP2 PUSH0 DUP8 GAS CALL SWAP3 POP POP POP DUP1 ISZERO PUSH2 0x29FB JUMPI POP PUSH1 0x40 DUP1 MLOAD PUSH1 0x1F RETURNDATASIZE SWAP1 DUP2 ADD PUSH1 0x1F NOT AND DUP3 ADD SWAP1 SWAP3 MSTORE PUSH2 0x29F8 SWAP2 DUP2 ADD SWAP1 PUSH2 0x3BDE JUMP JUMPDEST PUSH1 0x1 JUMPDEST PUSH2 0x2A62 JUMPI RETURNDATASIZE DUP1 DUP1 ISZERO PUSH2 0x2A28 JUMPI PUSH1 0x40 MLOAD SWAP2 POP PUSH1 0x1F NOT PUSH1 0x3F RETURNDATASIZE ADD AND DUP3 ADD PUSH1 0x40 MSTORE RETURNDATASIZE DUP3 MSTORE RETURNDATASIZE PUSH0 PUSH1 0x20 DUP5 ADD RETURNDATACOPY PUSH2 0x2A2D JUMP JUMPDEST PUSH1 0x60 SWAP2 POP JUMPDEST POP DUP1 MLOAD PUSH0 SUB PUSH2 0x2A5A JUMPI PUSH1 0x40 MLOAD PUSH4 0x32505749 PUSH1 0xE1 SHL DUP2 MSTORE PUSH1 0x1 PUSH1 0x1 PUSH1 0xA0 SHL SUB DUP6 AND PUSH1 0x4 DUP3 ADD MSTORE PUSH1 0x24 ADD PUSH2 0xB88 JUMP JUMPDEST DUP1 MLOAD DUP2 PUSH1 0x20 ADD REVERT JUMPDEST PUSH1 0x1 PUSH1 0x1 PUSH1 0xE0 SHL SUB NOT DUP2 AND PUSH4 0xA85BD01 PUSH1 0xE1 SHL EQ PUSH2 0x19C7 JUMPI PUSH1 0x40 MLOAD PUSH4 0x32505749 PUSH1 0xE1 SHL DUP2 MSTORE PUSH1 0x1 PUSH1 0x1 PUSH1 0xA0 SHL SUB DUP6 AND PUSH1 0x4 DUP3 ADD MSTORE PUSH1 0x24 ADD PUSH2 0xB88 JUMP JUMPDEST PUSH0 DUP1 PUSH2 0x2AA9 DUP4 PUSH2 0x2ABA JUMP JUMPDEST PUSH1 0x1 PUSH1 0x1 PUSH1 0xA0 SHL SUB AND EQ ISZERO SWAP3 SWAP2 POP POP JUMP JUMPDEST PUSH0 SWAP1 DUP2 MSTORE PUSH32 0x80BB2B638CC20BC4D0A60D66940F3AB4A00C1D7B313497CA82FB0B4AB0079302 PUSH1 0x20 MSTORE PUSH1 0x40 SWAP1 KECCAK256 SLOAD PUSH1 0x1 PUSH1 0x1 PUSH1 0xA0 SHL SUB AND SWAP1 JUMP JUMPDEST PUSH0 DUP1 MLOAD PUSH1 0x20 PUSH2 0x3C2D DUP4 CODECOPY DUP2 MLOAD SWAP2 MSTORE DUP2 DUP1 PUSH2 0x2B15 JUMPI POP PUSH1 0x1 PUSH1 0x1 PUSH1 0xA0 SHL SUB DUP4 AND ISZERO ISZERO JUMPDEST ISZERO PUSH2 0x2BD6 JUMPI PUSH0 PUSH2 0x2B24 DUP6 PUSH2 0x1F17 JUMP JUMPDEST SWAP1 POP PUSH1 0x1 PUSH1 0x1 PUSH1 0xA0 SHL SUB DUP5 AND ISZERO DUP1 ISZERO SWAP1 PUSH2 0x2B50 JUMPI POP DUP4 PUSH1 0x1 PUSH1 0x1 PUSH1 0xA0 SHL SUB AND DUP2 PUSH1 0x1 PUSH1 0x1 PUSH1 0xA0 SHL SUB AND EQ ISZERO JUMPDEST DUP1 ISZERO PUSH2 0x2B63 JUMPI POP PUSH2 0x2B61 DUP2 DUP6 PUSH2 0x1E42 JUMP JUMPDEST ISZERO JUMPDEST ISZERO PUSH2 0x2B8C JUMPI PUSH1 0x40 MLOAD PUSH4 0xA9FBF51F PUSH1 0xE0 SHL DUP2 MSTORE PUSH1 0x1 PUSH1 0x1 PUSH1 0xA0 SHL SUB DUP6 AND PUSH1 0x4 DUP3 ADD MSTORE PUSH1 0x24 ADD PUSH2 0xB88 JUMP JUMPDEST DUP3 ISZERO PUSH2 0x2BD4 JUMPI DUP5 DUP7 PUSH1 0x1 PUSH1 0x1 PUSH1 0xA0 SHL SUB AND DUP3 PUSH1 0x1 PUSH1 0x1 PUSH1 0xA0 SHL SUB AND PUSH32 0x8C5BE1E5EBEC7D5BD14F71427D1E84F3DD0314C0F7B2291E5B200AC8C7C3B925 PUSH1 0x40 MLOAD PUSH1 0x40 MLOAD DUP1 SWAP2 SUB SWAP1 LOG4 JUMPDEST POP JUMPDEST PUSH0 SWAP4 DUP5 MSTORE PUSH1 0x4 ADD PUSH1 0x20 MSTORE POP POP PUSH1 0x40 SWAP1 KECCAK256 DUP1 SLOAD PUSH1 0x1 PUSH1 0x1 PUSH1 0xA0 SHL SUB NOT AND PUSH1 0x1 PUSH1 0x1 PUSH1 0xA0 SHL SUB SWAP3 SWAP1 SWAP3 AND SWAP2 SWAP1 SWAP2 OR SWAP1 SSTORE JUMP JUMPDEST PUSH2 0x2C10 DUP4 DUP4 PUSH2 0x2E57 JUMP JUMPDEST PUSH2 0x15D4 PUSH0 DUP5 DUP5 DUP5 PUSH2 0x297F JUMP JUMPDEST PUSH2 0x2C27 DUP4 DUP4 DUP4 PUSH2 0x2EB8 JUMP JUMPDEST PUSH2 0x15D4 JUMPI PUSH1 0x1 PUSH1 0x1 PUSH1 0xA0 SHL SUB DUP4 AND PUSH2 0x2C55 JUMPI PUSH1 0x40 MLOAD PUSH4 0x7E273289 PUSH1 0xE0 SHL DUP2 MSTORE PUSH1 0x4 DUP2 ADD DUP3 SWAP1 MSTORE PUSH1 0x24 ADD PUSH2 0xB88 JUMP JUMPDEST PUSH1 0x40 MLOAD PUSH4 0x177E802F PUSH1 0xE0 SHL DUP2 MSTORE PUSH1 0x1 PUSH1 0x1 PUSH1 0xA0 SHL SUB DUP4 AND PUSH1 0x4 DUP3 ADD MSTORE PUSH1 0x24 DUP2 ADD DUP3 SWAP1 MSTORE PUSH1 0x44 ADD PUSH2 0xB88 JUMP JUMPDEST PUSH0 DUP3 DUP2 MSTORE PUSH1 0x3 PUSH1 0x20 DUP2 SWAP1 MSTORE PUSH1 0x40 SWAP1 SWAP2 KECCAK256 PUSH1 0x4 ADD DUP1 SLOAD DUP4 SWAP3 PUSH1 0xFF NOT SWAP1 SWAP2 AND SWAP1 PUSH1 0x1 SWAP1 DUP5 SWAP1 DUP2 GT ISZERO PUSH2 0x2CB2 JUMPI PUSH2 0x2CB2 PUSH2 0x31CB JUMP JUMPDEST MUL OR SWAP1 SSTORE POP PUSH32 0xBD17D2FB28A1298057A4E6F1D8ACA7877BFB8DFD4ECC8E67492CCC5584455CC3 DUP3 DUP3 PUSH1 0x40 MLOAD PUSH2 0x116D SWAP3 SWAP2 SWAP1 PUSH2 0x3BF9 JUMP JUMPDEST PUSH0 PUSH2 0x20DA PUSH2 0x2CF6 DUP4 DUP6 PUSH2 0x3C0D JUMP JUMPDEST SWAP1 JUMP JUMPDEST PUSH2 0x2D03 DUP3 DUP3 PUSH2 0x1BB9 JUMP JUMPDEST PUSH2 0xD5D JUMPI PUSH1 0x40 MLOAD PUSH4 0xE2517D3F PUSH1 0xE0 SHL DUP2 MSTORE PUSH1 0x1 PUSH1 0x1 PUSH1 0xA0 SHL SUB DUP3 AND PUSH1 0x4 DUP3 ADD MSTORE PUSH1 0x24 DUP2 ADD DUP4 SWAP1 MSTORE PUSH1 0x44 ADD PUSH2 0xB88 JUMP JUMPDEST PUSH0 DUP1 MLOAD PUSH1 0x20 PUSH2 0x3CC2 DUP4 CODECOPY DUP2 MLOAD SWAP2 MSTORE SLOAD PUSH1 0xFF AND PUSH2 0x16AE JUMPI PUSH1 0x40 MLOAD PUSH4 0x8DFC202B PUSH1 0xE0 SHL DUP2 MSTORE PUSH1 0x4 ADD PUSH1 0x40 MLOAD DUP1 SWAP2 SUB SWAP1 REVERT JUMPDEST PUSH2 0x2D6A DUP3 PUSH2 0x2F1D JUMP JUMPDEST PUSH1 0x40 MLOAD PUSH1 0x1 PUSH1 0x1 PUSH1 0xA0 SHL SUB DUP4 AND SWAP1 PUSH32 0xBC7CD75A20EE27FD9ADEBAB32041F755214DBC6BFFA90CC0225B39DA2E5C2D3B SWAP1 PUSH0 SWAP1 LOG2 DUP1 MLOAD ISZERO PUSH2 0x2DAE JUMPI PUSH2 0x15D4 DUP3 DUP3 PUSH2 0x2F80 JUMP JUMPDEST PUSH2 0xD5D PUSH2 0x2FF2 JUMP JUMPDEST PUSH32 0xF0C57E16840DF040F15088DC2F81FE391C3923BEC73E23A9662EFC9C229C6A00 SLOAD PUSH1 0x1 PUSH1 0x40 SHL SWAP1 DIV PUSH1 0xFF AND PUSH2 0x16AE JUMPI PUSH1 0x40 MLOAD PUSH4 0x1AFCD79F PUSH1 0xE3 SHL DUP2 MSTORE PUSH1 0x4 ADD PUSH1 0x40 MLOAD DUP1 SWAP2 SUB SWAP1 REVERT JUMPDEST PUSH2 0x2E07 PUSH2 0x2DB6 JUMP JUMPDEST PUSH0 DUP1 MLOAD PUSH1 0x20 PUSH2 0x3C2D DUP4 CODECOPY DUP2 MLOAD SWAP2 MSTORE DUP1 PUSH2 0x2E20 DUP5 DUP3 PUSH2 0x3889 JUMP JUMPDEST POP PUSH1 0x1 DUP2 ADD PUSH2 0x11FC DUP4 DUP3 PUSH2 0x3889 JUMP JUMPDEST PUSH2 0x2E37 PUSH2 0x2DB6 JUMP JUMPDEST PUSH0 DUP1 MLOAD PUSH1 0x20 PUSH2 0x3CC2 DUP4 CODECOPY DUP2 MLOAD SWAP2 MSTORE DUP1 SLOAD PUSH1 0xFF NOT AND SWAP1 SSTORE JUMP JUMPDEST PUSH2 0x1E96 PUSH2 0x2DB6 JUMP JUMPDEST PUSH1 0x1 PUSH1 0x1 PUSH1 0xA0 SHL SUB DUP3 AND PUSH2 0x2E80 JUMPI PUSH1 0x40 MLOAD PUSH4 0x32505749 PUSH1 0xE1 SHL DUP2 MSTORE PUSH0 PUSH1 0x4 DUP3 ADD MSTORE PUSH1 0x24 ADD PUSH2 0xB88 JUMP JUMPDEST PUSH0 PUSH2 0x2E8C DUP4 DUP4 PUSH0 PUSH2 0x1FDD JUMP JUMPDEST SWAP1 POP PUSH1 0x1 PUSH1 0x1 PUSH1 0xA0 SHL SUB DUP2 AND ISZERO PUSH2 0x15D4 JUMPI PUSH1 0x40 MLOAD PUSH4 0x39E35637 PUSH1 0xE1 SHL DUP2 MSTORE PUSH0 PUSH1 0x4 DUP3 ADD MSTORE PUSH1 0x24 ADD PUSH2 0xB88 JUMP JUMPDEST PUSH0 PUSH1 0x1 PUSH1 0x1 PUSH1 0xA0 SHL SUB DUP4 AND ISZERO DUP1 ISZERO SWAP1 PUSH2 0x2F15 JUMPI POP DUP3 PUSH1 0x1 PUSH1 0x1 PUSH1 0xA0 SHL SUB AND DUP5 PUSH1 0x1 PUSH1 0x1 PUSH1 0xA0 SHL SUB AND EQ DUP1 PUSH2 0x2EF1 JUMPI POP PUSH2 0x2EF1 DUP5 DUP5 PUSH2 0x1E42 JUMP JUMPDEST DUP1 PUSH2 0x2F15 JUMPI POP DUP3 PUSH1 0x1 PUSH1 0x1 PUSH1 0xA0 SHL SUB AND PUSH2 0x2F0A DUP4 PUSH2 0x1F4E JUMP JUMPDEST PUSH1 0x1 PUSH1 0x1 PUSH1 0xA0 SHL SUB AND EQ JUMPDEST SWAP5 SWAP4 POP POP POP POP JUMP JUMPDEST DUP1 PUSH1 0x1 PUSH1 0x1 PUSH1 0xA0 SHL SUB AND EXTCODESIZE PUSH0 SUB PUSH2 0x2F52 JUMPI PUSH1 0x40 MLOAD PUSH4 0x4C9C8CE3 PUSH1 0xE0 SHL DUP2 MSTORE PUSH1 0x1 PUSH1 0x1 PUSH1 0xA0 SHL SUB DUP3 AND PUSH1 0x4 DUP3 ADD MSTORE PUSH1 0x24 ADD PUSH2 0xB88 JUMP JUMPDEST PUSH0 DUP1 MLOAD PUSH1 0x20 PUSH2 0x3C82 DUP4 CODECOPY DUP2 MLOAD SWAP2 MSTORE DUP1 SLOAD PUSH1 0x1 PUSH1 0x1 PUSH1 0xA0 SHL SUB NOT AND PUSH1 0x1 PUSH1 0x1 PUSH1 0xA0 SHL SUB SWAP3 SWAP1 SWAP3 AND SWAP2 SWAP1 SWAP2 OR SWAP1 SSTORE JUMP JUMPDEST PUSH1 0x60 PUSH0 DUP1 DUP5 PUSH1 0x1 PUSH1 0x1 PUSH1 0xA0 SHL SUB AND DUP5 PUSH1 0x40 MLOAD PUSH2 0x2F9C SWAP2 SWAP1 PUSH2 0x3A64 JUMP JUMPDEST PUSH0 PUSH1 0x40 MLOAD DUP1 DUP4 SUB DUP2 DUP6 GAS DELEGATECALL SWAP2 POP POP RETURNDATASIZE DUP1 PUSH0 DUP2 EQ PUSH2 0x2FD4 JUMPI PUSH1 0x40 MLOAD SWAP2 POP PUSH1 0x1F NOT PUSH1 0x3F RETURNDATASIZE ADD AND DUP3 ADD PUSH1 0x40 MSTORE RETURNDATASIZE DUP3 MSTORE RETURNDATASIZE PUSH0 PUSH1 0x20 DUP5 ADD RETURNDATACOPY PUSH2 0x2FD9 JUMP JUMPDEST PUSH1 0x60 SWAP2 POP JUMPDEST POP SWAP2 POP SWAP2 POP PUSH2 0x2FE9 DUP6 DUP4 DUP4 PUSH2 0x3011 JUMP JUMPDEST SWAP6 SWAP5 POP POP POP POP POP JUMP JUMPDEST CALLVALUE ISZERO PUSH2 0x16AE JUMPI PUSH1 0x40 MLOAD PUSH4 0xB398979F PUSH1 0xE0 SHL DUP2 MSTORE PUSH1 0x4 ADD PUSH1 0x40 MLOAD DUP1 SWAP2 SUB SWAP1 REVERT JUMPDEST PUSH1 0x60 DUP3 PUSH2 0x3026 JUMPI PUSH2 0x3021 DUP3 PUSH2 0x306D JUMP JUMPDEST PUSH2 0x20DA JUMP JUMPDEST DUP2 MLOAD ISZERO DUP1 ISZERO PUSH2 0x303D JUMPI POP PUSH1 0x1 PUSH1 0x1 PUSH1 0xA0 SHL SUB DUP5 AND EXTCODESIZE ISZERO JUMPDEST ISZERO PUSH2 0x3066 JUMPI PUSH1 0x40 MLOAD PUSH4 0x9996B315 PUSH1 0xE0 SHL DUP2 MSTORE PUSH1 0x1 PUSH1 0x1 PUSH1 0xA0 SHL SUB DUP6 AND PUSH1 0x4 DUP3 ADD MSTORE PUSH1 0x24 ADD PUSH2 0xB88 JUMP JUMPDEST POP DUP1 PUSH2 0x20DA JUMP JUMPDEST DUP1 MLOAD ISZERO PUSH2 0x307D JUMPI DUP1 MLOAD DUP1 DUP3 PUSH1 0x20 ADD REVERT JUMPDEST PUSH1 0x40 MLOAD PUSH4 0xA12F521 PUSH1 0xE1 SHL DUP2 MSTORE PUSH1 0x4 ADD PUSH1 0x40 MLOAD DUP1 SWAP2 SUB SWAP1 REVERT JUMPDEST PUSH1 0x40 MLOAD DUP1 PUSH1 0xE0 ADD PUSH1 0x40 MSTORE DUP1 PUSH1 0x60 DUP2 MSTORE PUSH1 0x20 ADD PUSH1 0x60 DUP2 MSTORE PUSH1 0x20 ADD PUSH1 0x60 DUP2 MSTORE PUSH1 0x20 ADD PUSH0 DUP2 MSTORE PUSH1 0x20 ADD PUSH0 PUSH1 0x3 DUP2 GT ISZERO PUSH2 0x30CE JUMPI PUSH2 0x30CE PUSH2 0x31CB JUMP JUMPDEST DUP2 MSTORE PUSH1 0x60 PUSH1 0x20 DUP3 ADD MSTORE PUSH0 PUSH1 0x40 SWAP1 SWAP2 ADD MSTORE SWAP1 JUMP JUMPDEST PUSH1 0x1 PUSH1 0x1 PUSH1 0xE0 SHL SUB NOT DUP2 AND DUP2 EQ PUSH2 0x1266 JUMPI PUSH0 DUP1 REVERT JUMPDEST PUSH0 PUSH1 0x20 DUP3 DUP5 SUB SLT ISZERO PUSH2 0x3106 JUMPI PUSH0 DUP1 REVERT JUMPDEST DUP2 CALLDATALOAD PUSH2 0x20DA DUP2 PUSH2 0x30E1 JUMP JUMPDEST PUSH0 DUP1 PUSH1 0x40 DUP4 DUP6 SUB SLT ISZERO PUSH2 0x3122 JUMPI PUSH0 DUP1 REVERT JUMPDEST POP POP DUP1 CALLDATALOAD SWAP3 PUSH1 0x20 SWAP1 SWAP2 ADD CALLDATALOAD SWAP2 POP JUMP JUMPDEST PUSH0 DUP2 MLOAD DUP1 DUP5 MSTORE DUP1 PUSH1 0x20 DUP5 ADD PUSH1 0x20 DUP7 ADD MCOPY PUSH0 PUSH1 0x20 DUP3 DUP7 ADD ADD MSTORE PUSH1 0x20 PUSH1 0x1F NOT PUSH1 0x1F DUP4 ADD AND DUP6 ADD ADD SWAP2 POP POP SWAP3 SWAP2 POP POP JUMP JUMPDEST PUSH1 0x20 DUP2 MSTORE PUSH0 PUSH2 0x20DA PUSH1 0x20 DUP4 ADD DUP5 PUSH2 0x3131 JUMP JUMPDEST PUSH0 PUSH1 0x20 DUP3 DUP5 SUB SLT ISZERO PUSH2 0x3181 JUMPI PUSH0 DUP1 REVERT JUMPDEST POP CALLDATALOAD SWAP2 SWAP1 POP JUMP JUMPDEST DUP1 CALLDATALOAD PUSH1 0x1 PUSH1 0x1 PUSH1 0xA0 SHL SUB DUP2 AND DUP2 EQ PUSH2 0x319E JUMPI PUSH0 DUP1 REVERT JUMPDEST SWAP2 SWAP1 POP JUMP JUMPDEST PUSH0 DUP1 PUSH1 0x40 DUP4 DUP6 SUB SLT ISZERO PUSH2 0x31B4 JUMPI PUSH0 DUP1 REVERT JUMPDEST PUSH2 0x31BD DUP4 PUSH2 0x3188 JUMP JUMPDEST SWAP5 PUSH1 0x20 SWAP4 SWAP1 SWAP4 ADD CALLDATALOAD SWAP4 POP POP POP JUMP JUMPDEST PUSH4 0x4E487B71 PUSH1 0xE0 SHL PUSH0 MSTORE PUSH1 0x21 PUSH1 0x4 MSTORE PUSH1 0x24 PUSH0 REVERT JUMPDEST PUSH1 0x4 DUP2 LT PUSH2 0x31FB JUMPI PUSH4 0x4E487B71 PUSH1 0xE0 SHL PUSH0 MSTORE PUSH1 0x21 PUSH1 0x4 MSTORE PUSH1 0x24 PUSH0 REVERT JUMPDEST SWAP1 MSTORE JUMP JUMPDEST PUSH1 0x20 DUP2 MSTORE PUSH0 DUP3 MLOAD PUSH1 0xE0 PUSH1 0x20 DUP5 ADD MSTORE PUSH2 0x321B PUSH2 0x100 DUP5 ADD DUP3 PUSH2 0x3131 JUMP JUMPDEST SWAP1 POP PUSH1 0x20 DUP5 ADD MLOAD PUSH1 0x1F NOT DUP1 DUP6 DUP5 SUB ADD PUSH1 0x40 DUP7 ADD MSTORE PUSH2 0x3239 DUP4 DUP4 PUSH2 0x3131 JUMP JUMPDEST SWAP3 POP PUSH1 0x40 DUP7 ADD MLOAD SWAP2 POP DUP1 DUP6 DUP5 SUB ADD PUSH1 0x60 DUP7 ADD MSTORE PUSH2 0x3256 DUP4 DUP4 PUSH2 0x3131 JUMP JUMPDEST SWAP3 POP PUSH1 0x60 DUP7 ADD MLOAD PUSH1 0x80 DUP7 ADD MSTORE PUSH1 0x80 DUP7 ADD MLOAD SWAP2 POP PUSH2 0x3276 PUSH1 0xA0 DUP7 ADD DUP4 PUSH2 0x31DF JUMP JUMPDEST PUSH1 0xA0 DUP7 ADD MLOAD SWAP2 POP DUP1 DUP6 DUP5 SUB ADD PUSH1 0xC0 DUP7 ADD MSTORE POP PUSH2 0x3292 DUP3 DUP3 PUSH2 0x3131 JUMP JUMPDEST PUSH1 0xC0 SWAP6 SWAP1 SWAP6 ADD MLOAD PUSH1 0x1 PUSH1 0x1 PUSH1 0xA0 SHL SUB AND PUSH1 0xE0 SWAP5 SWAP1 SWAP5 ADD SWAP4 SWAP1 SWAP4 MSTORE POP SWAP2 SWAP3 SWAP2 POP POP JUMP JUMPDEST PUSH0 PUSH1 0x20 DUP3 DUP5 SUB SLT ISZERO PUSH2 0x32C4 JUMPI PUSH0 DUP1 REVERT JUMPDEST PUSH2 0x20DA DUP3 PUSH2 0x3188 JUMP JUMPDEST PUSH0 DUP1 PUSH0 PUSH1 0x60 DUP5 DUP7 SUB SLT ISZERO PUSH2 0x32DF JUMPI PUSH0 DUP1 REVERT JUMPDEST PUSH2 0x32E8 DUP5 PUSH2 0x3188 JUMP JUMPDEST SWAP3 POP PUSH2 0x32F6 PUSH1 0x20 DUP6 ADD PUSH2 0x3188 JUMP JUMPDEST SWAP2 POP PUSH1 0x40 DUP5 ADD CALLDATALOAD SWAP1 POP SWAP3 POP SWAP3 POP SWAP3 JUMP JUMPDEST PUSH1 0xE0 DUP2 MSTORE PUSH0 PUSH2 0x3318 PUSH1 0xE0 DUP4 ADD DUP11 PUSH2 0x3131 JUMP JUMPDEST DUP3 DUP2 SUB PUSH1 0x20 DUP5 ADD MSTORE PUSH2 0x332A DUP2 DUP11 PUSH2 0x3131 JUMP JUMPDEST SWAP1 POP DUP3 DUP2 SUB PUSH1 0x40 DUP5 ADD MSTORE PUSH2 0x333E DUP2 DUP10 PUSH2 0x3131 JUMP JUMPDEST SWAP1 POP DUP7 PUSH1 0x60 DUP5 ADD MSTORE PUSH2 0x3353 PUSH1 0x80 DUP5 ADD DUP8 PUSH2 0x31DF JUMP JUMPDEST DUP3 DUP2 SUB PUSH1 0xA0 DUP5 ADD MSTORE PUSH2 0x3365 DUP2 DUP7 PUSH2 0x3131 JUMP JUMPDEST SWAP2 POP POP PUSH1 0x1 DUP1 PUSH1 0xA0 SHL SUB DUP4 AND PUSH1 0xC0 DUP4 ADD MSTORE SWAP9 SWAP8 POP POP POP POP POP POP POP POP JUMP JUMPDEST PUSH0 DUP1 DUP4 PUSH1 0x1F DUP5 ADD SLT PUSH2 0x3392 JUMPI PUSH0 DUP1 REVERT JUMPDEST POP DUP2 CALLDATALOAD PUSH1 0x1 PUSH1 0x1 PUSH1 0x40 SHL SUB DUP2 GT ISZERO PUSH2 0x33A8 JUMPI PUSH0 DUP1 REVERT JUMPDEST PUSH1 0x20 DUP4 ADD SWAP2 POP DUP4 PUSH1 0x20 DUP3 DUP6 ADD ADD GT ISZERO PUSH2 0x33BF JUMPI PUSH0 DUP1 REVERT JUMPDEST SWAP3 POP SWAP3 SWAP1 POP JUMP JUMPDEST PUSH0 DUP1 PUSH0 DUP1 PUSH1 0x60 DUP6 DUP8 SUB SLT ISZERO PUSH2 0x33D9 JUMPI PUSH0 DUP1 REVERT JUMPDEST PUSH2 0x33E2 DUP6 PUSH2 0x3188 JUMP JUMPDEST SWAP4 POP PUSH1 0x20 DUP6 ADD CALLDATALOAD PUSH1 0x1 PUSH1 0x1 PUSH1 0x40 SHL SUB DUP2 GT ISZERO PUSH2 0x33FC JUMPI PUSH0 DUP1 REVERT JUMPDEST PUSH2 0x3408 DUP8 DUP3 DUP9 ADD PUSH2 0x3382 JUMP JUMPDEST SWAP6 SWAP9 SWAP1 SWAP8 POP SWAP5 SWAP6 PUSH1 0x40 ADD CALLDATALOAD SWAP5 SWAP4 POP POP POP POP JUMP JUMPDEST PUSH0 DUP1 PUSH1 0x40 DUP4 DUP6 SUB SLT ISZERO PUSH2 0x342C JUMPI PUSH0 DUP1 REVERT JUMPDEST DUP3 CALLDATALOAD SWAP2 POP PUSH2 0x343C PUSH1 0x20 DUP5 ADD PUSH2 0x3188 JUMP JUMPDEST SWAP1 POP SWAP3 POP SWAP3 SWAP1 POP JUMP JUMPDEST PUSH1 0x20 DUP2 ADD PUSH2 0xB39 DUP3 DUP5 PUSH2 0x31DF JUMP JUMPDEST PUSH4 0x4E487B71 PUSH1 0xE0 SHL PUSH0 MSTORE PUSH1 0x41 PUSH1 0x4 MSTORE PUSH1 0x24 PUSH0 REVERT JUMPDEST PUSH0 DUP3 PUSH1 0x1F DUP4 ADD SLT PUSH2 0x3476 JUMPI PUSH0 DUP1 REVERT JUMPDEST DUP2 CALLDATALOAD PUSH1 0x1 PUSH1 0x1 PUSH1 0x40 SHL SUB DUP1 DUP3 GT ISZERO PUSH2 0x3490 JUMPI PUSH2 0x3490 PUSH2 0x3453 JUMP JUMPDEST PUSH1 0x40 MLOAD PUSH1 0x1F DUP4 ADD PUSH1 0x1F NOT SWAP1 DUP2 AND PUSH1 0x3F ADD AND DUP2 ADD SWAP1 DUP3 DUP3 GT DUP2 DUP4 LT OR ISZERO PUSH2 0x34B8 JUMPI PUSH2 0x34B8 PUSH2 0x3453 JUMP JUMPDEST DUP2 PUSH1 0x40 MSTORE DUP4 DUP2 MSTORE DUP7 PUSH1 0x20 DUP6 DUP9 ADD ADD GT ISZERO PUSH2 0x34D0 JUMPI PUSH0 DUP1 REVERT JUMPDEST DUP4 PUSH1 0x20 DUP8 ADD PUSH1 0x20 DUP4 ADD CALLDATACOPY PUSH0 PUSH1 0x20 DUP6 DUP4 ADD ADD MSTORE DUP1 SWAP5 POP POP POP POP POP SWAP3 SWAP2 POP POP JUMP JUMPDEST PUSH0 PUSH1 0x20 DUP3 DUP5 SUB SLT ISZERO PUSH2 0x34FF JUMPI PUSH0 DUP1 REVERT JUMPDEST DUP2 CALLDATALOAD PUSH1 0x1 PUSH1 0x1 PUSH1 0x40 SHL SUB DUP2 GT ISZERO PUSH2 0x3514 JUMPI PUSH0 DUP1 REVERT JUMPDEST PUSH2 0x2F15 DUP5 DUP3 DUP6 ADD PUSH2 0x3467 JUMP JUMPDEST PUSH1 0xC0 DUP2 MSTORE PUSH0 PUSH2 0x3532 PUSH1 0xC0 DUP4 ADD DUP10 PUSH2 0x3131 JUMP JUMPDEST PUSH1 0x20 DUP4 ADD SWAP8 SWAP1 SWAP8 MSTORE POP PUSH1 0x40 DUP2 ADD SWAP5 SWAP1 SWAP5 MSTORE PUSH1 0x60 DUP5 ADD SWAP3 SWAP1 SWAP3 MSTORE PUSH1 0x80 DUP4 ADD MSTORE PUSH1 0xA0 SWAP1 SWAP2 ADD MSTORE SWAP2 SWAP1 POP JUMP JUMPDEST PUSH0 DUP1 PUSH1 0x40 DUP4 DUP6 SUB SLT ISZERO PUSH2 0x356C JUMPI PUSH0 DUP1 REVERT JUMPDEST PUSH2 0x3575 DUP4 PUSH2 0x3188 JUMP JUMPDEST SWAP2 POP PUSH1 0x20 DUP4 ADD CALLDATALOAD PUSH1 0x1 PUSH1 0x1 PUSH1 0x40 SHL SUB DUP2 GT ISZERO PUSH2 0x358F JUMPI PUSH0 DUP1 REVERT JUMPDEST PUSH2 0x359B DUP6 DUP3 DUP7 ADD PUSH2 0x3467 JUMP JUMPDEST SWAP2 POP POP SWAP3 POP SWAP3 SWAP1 POP JUMP JUMPDEST PUSH1 0x40 DUP2 MSTORE PUSH0 PUSH2 0x35B7 PUSH1 0x40 DUP4 ADD DUP6 PUSH2 0x3131 JUMP JUMPDEST DUP3 DUP2 SUB PUSH1 0x20 DUP5 ADD MSTORE PUSH2 0x2FE9 DUP2 DUP6 PUSH2 0x3131 JUMP JUMPDEST PUSH0 DUP1 PUSH0 DUP1 PUSH0 PUSH1 0x60 DUP7 DUP9 SUB SLT ISZERO PUSH2 0x35DD JUMPI PUSH0 DUP1 REVERT JUMPDEST PUSH2 0x35E6 DUP7 PUSH2 0x3188 JUMP JUMPDEST SWAP5 POP PUSH1 0x20 DUP7 ADD CALLDATALOAD PUSH1 0x1 PUSH1 0x1 PUSH1 0x40 SHL SUB DUP1 DUP3 GT ISZERO PUSH2 0x3601 JUMPI PUSH0 DUP1 REVERT JUMPDEST PUSH2 0x360D DUP10 DUP4 DUP11 ADD PUSH2 0x3382 JUMP JUMPDEST SWAP1 SWAP7 POP SWAP5 POP PUSH1 0x40 DUP9 ADD CALLDATALOAD SWAP2 POP DUP1 DUP3 GT ISZERO PUSH2 0x3625 JUMPI PUSH0 DUP1 REVERT JUMPDEST POP PUSH2 0x3632 DUP9 DUP3 DUP10 ADD PUSH2 0x3382 JUMP JUMPDEST SWAP7 SWAP10 SWAP6 SWAP9 POP SWAP4 SWAP7 POP SWAP3 SWAP5 SWAP4 SWAP3 POP POP POP JUMP JUMPDEST PUSH0 DUP1 PUSH0 PUSH1 0x60 DUP5 DUP7 SUB SLT ISZERO PUSH2 0x3655 JUMPI PUSH0 DUP1 REVERT JUMPDEST DUP4 CALLDATALOAD SWAP3 POP PUSH1 0x20 DUP5 ADD CALLDATALOAD PUSH1 0x1 PUSH1 0x1 PUSH1 0x40 SHL SUB DUP2 GT ISZERO PUSH2 0x3671 JUMPI PUSH0 DUP1 REVERT JUMPDEST PUSH2 0x367D DUP7 DUP3 DUP8 ADD PUSH2 0x3467 JUMP JUMPDEST SWAP3 POP POP PUSH1 0x40 DUP5 ADD CALLDATALOAD SWAP1 POP SWAP3 POP SWAP3 POP SWAP3 JUMP JUMPDEST PUSH0 DUP1 PUSH1 0x40 DUP4 DUP6 SUB SLT ISZERO PUSH2 0x369F JUMPI PUSH0 DUP1 REVERT JUMPDEST PUSH2 0x36A8 DUP4 PUSH2 0x3188 JUMP JUMPDEST SWAP2 POP PUSH1 0x20 DUP4 ADD CALLDATALOAD DUP1 ISZERO ISZERO DUP2 EQ PUSH2 0x36BC JUMPI PUSH0 DUP1 REVERT JUMPDEST DUP1 SWAP2 POP POP SWAP3 POP SWAP3 SWAP1 POP JUMP JUMPDEST PUSH0 DUP1 PUSH0 DUP1 PUSH1 0x80 DUP6 DUP8 SUB SLT ISZERO PUSH2 0x36DA JUMPI PUSH0 DUP1 REVERT JUMPDEST PUSH2 0x36E3 DUP6 PUSH2 0x3188 JUMP JUMPDEST SWAP4 POP PUSH2 0x36F1 PUSH1 0x20 DUP7 ADD PUSH2 0x3188 JUMP JUMPDEST SWAP3 POP PUSH1 0x40 DUP6 ADD CALLDATALOAD SWAP2 POP PUSH1 0x60 DUP6 ADD CALLDATALOAD PUSH1 0x1 PUSH1 0x1 PUSH1 0x40 SHL SUB DUP2 GT ISZERO PUSH2 0x3712 JUMPI PUSH0 DUP1 REVERT JUMPDEST PUSH2 0x371E DUP8 DUP3 DUP9 ADD PUSH2 0x3467 JUMP JUMPDEST SWAP2 POP POP SWAP3 SWAP6 SWAP2 SWAP5 POP SWAP3 POP JUMP JUMPDEST PUSH0 DUP1 PUSH1 0x40 DUP4 DUP6 SUB SLT ISZERO PUSH2 0x373B JUMPI PUSH0 DUP1 REVERT JUMPDEST PUSH2 0x3744 DUP4 PUSH2 0x3188 JUMP JUMPDEST SWAP2 POP PUSH2 0x343C PUSH1 0x20 DUP5 ADD PUSH2 0x3188 JUMP JUMPDEST PUSH1 0x1 DUP2 DUP2 SHR SWAP1 DUP3 AND DUP1 PUSH2 0x3766 JUMPI PUSH1 0x7F DUP3 AND SWAP2 POP JUMPDEST PUSH1 0x20 DUP3 LT DUP2 SUB PUSH2 0x3784 JUMPI PUSH4 0x4E487B71 PUSH1 0xE0 SHL PUSH0 MSTORE PUSH1 0x22 PUSH1 0x4 MSTORE PUSH1 0x24 PUSH0 REVERT JUMPDEST POP SWAP2 SWAP1 POP JUMP JUMPDEST PUSH0 DUP2 SLOAD PUSH2 0x3796 DUP2 PUSH2 0x3752 JUMP JUMPDEST PUSH1 0x1 DUP3 DUP2 AND DUP1 ISZERO PUSH2 0x37AE JUMPI PUSH1 0x1 DUP2 EQ PUSH2 0x37C3 JUMPI PUSH2 0x37EF JUMP JUMPDEST PUSH1 0xFF NOT DUP5 AND DUP8 MSTORE DUP3 ISZERO ISZERO DUP4 MUL DUP8 ADD SWAP5 POP PUSH2 0x37EF JUMP JUMPDEST DUP6 PUSH0 MSTORE PUSH1 0x20 DUP1 PUSH0 KECCAK256 PUSH0 JUMPDEST DUP6 DUP2 LT ISZERO PUSH2 0x37E6 JUMPI DUP2 SLOAD DUP11 DUP3 ADD MSTORE SWAP1 DUP5 ADD SWAP1 DUP3 ADD PUSH2 0x37CD JUMP JUMPDEST POP POP POP DUP3 DUP8 ADD SWAP5 POP JUMPDEST POP POP POP POP SWAP3 SWAP2 POP POP JUMP JUMPDEST PUSH0 PUSH2 0x3804 DUP3 DUP5 PUSH2 0x378A JUMP JUMPDEST PUSH32 0x2F636172626F6E4E46545F6E6F745665726966792E6A736F6E00000000000000 DUP2 MSTORE PUSH1 0x19 ADD SWAP4 SWAP3 POP POP POP JUMP JUMPDEST PUSH1 0x1F DUP3 GT ISZERO PUSH2 0x15D4 JUMPI DUP1 PUSH0 MSTORE PUSH1 0x20 PUSH0 KECCAK256 PUSH1 0x1F DUP5 ADD PUSH1 0x5 SHR DUP2 ADD PUSH1 0x20 DUP6 LT ISZERO PUSH2 0x3856 JUMPI POP DUP1 JUMPDEST PUSH1 0x1F DUP5 ADD PUSH1 0x5 SHR DUP3 ADD SWAP2 POP JUMPDEST DUP2 DUP2 LT ISZERO PUSH2 0x19C7 JUMPI PUSH0 DUP2 SSTORE PUSH1 0x1 ADD PUSH2 0x3862 JUMP JUMPDEST PUSH0 NOT PUSH1 0x3 DUP4 SWAP1 SHL SHR NOT AND PUSH1 0x1 SWAP2 SWAP1 SWAP2 SHL OR SWAP1 JUMP JUMPDEST DUP2 MLOAD PUSH1 0x1 PUSH1 0x1 PUSH1 0x40 SHL SUB DUP2 GT ISZERO PUSH2 0x38A2 JUMPI PUSH2 0x38A2 PUSH2 0x3453 JUMP JUMPDEST PUSH2 0x38B6 DUP2 PUSH2 0x38B0 DUP5 SLOAD PUSH2 0x3752 JUMP JUMPDEST DUP5 PUSH2 0x3831 JUMP JUMPDEST PUSH1 0x20 DUP1 PUSH1 0x1F DUP4 GT PUSH1 0x1 DUP2 EQ PUSH2 0x38E4 JUMPI PUSH0 DUP5 ISZERO PUSH2 0x38D2 JUMPI POP DUP6 DUP4 ADD MLOAD JUMPDEST PUSH2 0x38DC DUP6 DUP3 PUSH2 0x3875 JUMP JUMPDEST DUP7 SSTORE POP PUSH2 0x393B JUMP JUMPDEST PUSH0 DUP6 DUP2 MSTORE PUSH1 0x20 DUP2 KECCAK256 PUSH1 0x1F NOT DUP7 AND SWAP2 JUMPDEST DUP3 DUP2 LT ISZERO PUSH2 0x3912 JUMPI DUP9 DUP7 ADD MLOAD DUP3 SSTORE SWAP5 DUP5 ADD SWAP5 PUSH1 0x1 SWAP1 SWAP2 ADD SWAP1 DUP5 ADD PUSH2 0x38F3 JUMP JUMPDEST POP DUP6 DUP3 LT ISZERO PUSH2 0x392F JUMPI DUP8 DUP6 ADD MLOAD PUSH0 NOT PUSH1 0x3 DUP9 SWAP1 SHL PUSH1 0xF8 AND SHR NOT AND DUP2 SSTORE JUMPDEST POP POP PUSH1 0x1 DUP5 PUSH1 0x1 SHL ADD DUP6 SSTORE JUMPDEST POP POP POP POP POP POP JUMP JUMPDEST DUP2 DUP2 SUB PUSH2 0x394E JUMPI POP POP JUMP JUMPDEST PUSH2 0x3958 DUP3 SLOAD PUSH2 0x3752 JUMP JUMPDEST PUSH1 0x1 PUSH1 0x1 PUSH1 0x40 SHL SUB DUP2 GT ISZERO PUSH2 0x396F JUMPI PUSH2 0x396F PUSH2 0x3453 JUMP JUMPDEST PUSH2 0x397D DUP2 PUSH2 0x38B0 DUP5 SLOAD PUSH2 0x3752 JUMP JUMPDEST PUSH0 PUSH1 0x1F DUP3 GT PUSH1 0x1 DUP2 EQ PUSH2 0x39A9 JUMPI PUSH0 DUP4 ISZERO PUSH2 0x3997 JUMPI POP DUP5 DUP3 ADD SLOAD JUMPDEST PUSH2 0x39A1 DUP5 DUP3 PUSH2 0x3875 JUMP JUMPDEST DUP6 SSTORE POP PUSH2 0x19C7 JUMP JUMPDEST PUSH0 DUP6 DUP2 MSTORE PUSH1 0x20 DUP1 DUP3 KECCAK256 DUP7 DUP4 MSTORE SWAP1 DUP3 KECCAK256 PUSH1 0x1F NOT DUP7 AND SWAP3 JUMPDEST DUP4 DUP2 LT ISZERO PUSH2 0x39DF JUMPI DUP3 DUP7 ADD SLOAD DUP3 SSTORE PUSH1 0x1 SWAP6 DUP7 ADD SWAP6 SWAP1 SWAP2 ADD SWAP1 PUSH1 0x20 ADD PUSH2 0x39BF JUMP JUMPDEST POP DUP6 DUP4 LT ISZERO PUSH2 0x39FC JUMPI DUP2 DUP6 ADD SLOAD PUSH0 NOT PUSH1 0x3 DUP9 SWAP1 SHL PUSH1 0xF8 AND SHR NOT AND DUP2 SSTORE JUMPDEST POP POP POP POP POP PUSH1 0x1 SWAP1 DUP2 SHL ADD SWAP1 SSTORE POP JUMP JUMPDEST PUSH1 0x20 DUP1 DUP3 MSTORE PUSH1 0x21 SWAP1 DUP3 ADD MSTORE PUSH32 0x4572726F723A2063616C6C6572206973206E6F74207468652076657269666965 PUSH1 0x40 DUP3 ADD MSTORE PUSH1 0x39 PUSH1 0xF9 SHL PUSH1 0x60 DUP3 ADD MSTORE PUSH1 0x80 ADD SWAP1 JUMP JUMPDEST PUSH0 DUP2 MLOAD DUP1 PUSH1 0x20 DUP5 ADD DUP6 MCOPY PUSH0 SWAP4 ADD SWAP3 DUP4 MSTORE POP SWAP1 SWAP2 SWAP1 POP JUMP JUMPDEST PUSH0 PUSH2 0x20DA DUP3 DUP5 PUSH2 0x3A4D JUMP JUMPDEST PUSH1 0x1 PUSH1 0x1 PUSH1 0x40 SHL SUB DUP4 GT ISZERO PUSH2 0x3A86 JUMPI PUSH2 0x3A86 PUSH2 0x3453 JUMP JUMPDEST PUSH2 0x3A9A DUP4 PUSH2 0x3A94 DUP4 SLOAD PUSH2 0x3752 JUMP JUMPDEST DUP4 PUSH2 0x3831 JUMP JUMPDEST PUSH0 PUSH1 0x1F DUP5 GT PUSH1 0x1 DUP2 EQ PUSH2 0x3AC6 JUMPI PUSH0 DUP6 ISZERO PUSH2 0x3AB4 JUMPI POP DUP4 DUP3 ADD CALLDATALOAD JUMPDEST PUSH2 0x3ABE DUP7 DUP3 PUSH2 0x3875 JUMP JUMPDEST DUP5 SSTORE POP PUSH2 0x19C7 JUMP JUMPDEST PUSH0 DUP4 DUP2 MSTORE PUSH1 0x20 DUP2 KECCAK256 PUSH1 0x1F NOT DUP8 AND SWAP2 JUMPDEST DUP3 DUP2 LT ISZERO PUSH2 0x3AF5 JUMPI DUP7 DUP6 ADD CALLDATALOAD DUP3 SSTORE PUSH1 0x20 SWAP5 DUP6 ADD SWAP5 PUSH1 0x1 SWAP1 SWAP3 ADD SWAP2 ADD PUSH2 0x3AD5 JUMP JUMPDEST POP DUP7 DUP3 LT ISZERO PUSH2 0x3B11 JUMPI PUSH0 NOT PUSH1 0xF8 DUP9 PUSH1 0x3 SHL AND SHR NOT DUP5 DUP8 ADD CALLDATALOAD AND DUP2 SSTORE JUMPDEST POP POP PUSH1 0x1 DUP6 PUSH1 0x1 SHL ADD DUP4 SSTORE POP POP POP POP POP JUMP JUMPDEST PUSH0 PUSH2 0x3B2E DUP3 DUP5 PUSH2 0x378A JUMP JUMPDEST PUSH22 0x17B1B0B93137B727232A2FAB32B934B33C973539B7B7 PUSH1 0x51 SHL DUP2 MSTORE PUSH1 0x16 ADD SWAP4 SWAP3 POP POP POP JUMP JUMPDEST DUP4 DUP2 MSTORE PUSH1 0x60 PUSH1 0x20 DUP3 ADD MSTORE PUSH0 PUSH2 0x3B6C PUSH1 0x60 DUP4 ADD DUP6 PUSH2 0x3131 JUMP JUMPDEST SWAP1 POP DUP3 PUSH1 0x40 DUP4 ADD MSTORE SWAP5 SWAP4 POP POP POP POP JUMP JUMPDEST PUSH0 PUSH1 0x20 DUP3 DUP5 SUB SLT ISZERO PUSH2 0x3B8C JUMPI PUSH0 DUP1 REVERT JUMPDEST POP MLOAD SWAP2 SWAP1 POP JUMP JUMPDEST DUP2 DUP4 DUP3 CALLDATACOPY PUSH0 SWAP2 ADD SWAP1 DUP2 MSTORE SWAP2 SWAP1 POP JUMP JUMPDEST PUSH1 0x1 PUSH1 0x1 PUSH1 0xA0 SHL SUB DUP6 DUP2 AND DUP3 MSTORE DUP5 AND PUSH1 0x20 DUP3 ADD MSTORE PUSH1 0x40 DUP2 ADD DUP4 SWAP1 MSTORE PUSH1 0x80 PUSH1 0x60 DUP3 ADD DUP2 SWAP1 MSTORE PUSH0 SWAP1 PUSH2 0x3BD4 SWAP1 DUP4 ADD DUP5 PUSH2 0x3131 JUMP JUMPDEST SWAP7 SWAP6 POP POP POP POP POP POP JUMP JUMPDEST PUSH0 PUSH1 0x20 DUP3 DUP5 SUB SLT ISZERO PUSH2 0x3BEE JUMPI PUSH0 DUP1 REVERT JUMPDEST DUP2 MLOAD PUSH2 0x20DA DUP2 PUSH2 0x30E1 JUMP JUMPDEST DUP3 DUP2 MSTORE PUSH1 0x40 DUP2 ADD PUSH2 0x20DA PUSH1 0x20 DUP4 ADD DUP5 PUSH2 0x31DF JUMP JUMPDEST DUP1 DUP3 ADD DUP1 DUP3 GT ISZERO PUSH2 0xB39 JUMPI PUSH4 0x4E487B71 PUSH1 0xE0 SHL PUSH0 MSTORE PUSH1 0x11 PUSH1 0x4 MSTORE PUSH1 0x24 PUSH0 REVERT INVALID DUP1 0xBB 0x2B PUSH4 0x8CC20BC4 0xD0 0xA6 0xD PUSH7 0x940F3AB4A00C1D PUSH28 0x313497CA82FB0B4AB0079300697066733A2F2F516D546B724C414848 SSTORE JUMP PUSH25 0x346B5853737A7743724850634B554275736A4279567662736E MSIZE PUSH15 0x37683164334837360894A13BA1A321 MOD PUSH8 0xC828492DB98DCA3E KECCAK256 PUSH23 0xCC3735A920A3CA505D382BBC02DD7BC7DEC4DCEEDDA775 0xE5 DUP14 0xD5 COINBASE 0xE0 DUP11 GT PUSH13 0x6C53815C0BD028192F7B626800 0xCD MCOPY 0xD1 TLOAD PUSH15 0x187E77E9AEE88184C21F4F2182AB58 0x27 0xCB EXTCODESIZE PUSH31 0x7FBEDCD63F033000CE23C3E399818CFEE81A7AB0880F714E53D7672B08DF0 STATICCALL PUSH3 0xF28434 AND 0xE1 0xEA MULMOD LOG2 PUSH5 0x6970667358 0x22 SLT KECCAK256 MSTORE8 DUP8 0x23 0xE2 0xA8 ISZERO DUP1 SELFDESTRUCT NUMBER 0xE5 PUSH26 0xDDAA9FBDEB51FA808084D5D6A6EE91169FD1B7745564736F6C63 NUMBER STOP ADDMOD NOT STOP CALLER PUSH10 0x7066733A2F2F516D546B PUSH19 0x4C414848555678346B5853737A774372485063 0x4B SSTORE TIMESTAMP PUSH22 0x736A4279567662736E596E3768316433483700000000 "
		},
		"gasEstimates": {
			"creation": {
				"codeDepositCost": "3134200",
				"executionCost": "infinite",
				"totalCost": "infinite"
			},
			"external": {
				"CompanyDataList(string)": "infinite",
				"CreditFactor()": "2405",
				"DEFAULT_ADMIN_ROLE()": "260",
				"EnrollmentList(address)": "infinite",
				"ErrorFactor()": "2408",
				"Market(uint256,uint256)": "infinite",
				"NFTMintCost()": "2363",
				"REGISTER_ROLE()": "306",
				"SellerCounter()": "2381",
				"SellerMint(address)": "infinite",
				"SellerNFTList(uint256)": "infinite",
				"SellerNFTSupply()": "2428",
				"SellerNFTtotalSupply()": "2358",
				"SellerURI()": "infinite",
				"UPGRADE_INTERFACE_VERSION()": "infinite",
				"VERIFIER_ROLE()": "infinite",
				"VERSION()": "infinite",
				"VERSION_RELEASE_CANDIDATE()": "285",
				"VerifierMintSellerNFT(address,string,uint256)": "infinite",
				"approve(address,uint256)": "infinite",
				"balanceOf(address)": "infinite",
				"changeMarketContract(address)": "26834",
				"getApproved(uint256)": "infinite",
				"getCompanyCarbonUsed(string)": "infinite",
				"getRoleAdmin(bytes32)": "infinite",
				"getSellerNFTData(uint256)": "infinite",
				"getSellerNFTStatus(uint256)": "2619",
				"grantRole(bytes32,address)": "infinite",
				"hasRole(bytes32,address)": "infinite",
				"help()": "infinite",
				"iMRCRetirementAddress()": "2426",
				"initialize()": "infinite",
				"isApprovedForAll(address,address)": "infinite",
				"market()": "2448",
				"name()": "infinite",
				"owner()": "2441",
				"ownerOf(uint256)": "infinite",
				"pause()": "infinite",
				"paused()": "infinite",
				"proxiableUUID()": "infinite",
				"renounceOwnership()": "infinite",
				"renounceRole(bytes32,address)": "29206",
				"revokeRole(bytes32,address)": "infinite",
				"safeTransferFrom(address,address,uint256)": "infinite",
				"safeTransferFrom(address,address,uint256,bytes)": "infinite",
				"setApprovalForAll(address,bool)": "infinite",
				"setCompanyEnrollment(address,string,string)": "infinite",
				"setCost(uint256)": "24587",
				"setRetirementContract(address)": "26835",
				"setSellerNFTSupply(uint256)": "24586",
				"setSellerURI(string)": "infinite",
				"supportsInterface(bytes4)": "infinite",
				"symbol()": "infinite",
				"tokenURI(uint256)": "infinite",
				"transferFrom(address,address,uint256)": "infinite",
				"transferOwnership(address)": "28475",
				"unpause()": "infinite",
				"updateSellerNFT(uint256,string,uint256)": "infinite",
				"upgradeToAndCall(address,bytes)": "infinite",
				"verifySellerNFT(uint256)": "infinite"
			},
			"internal": {
				"_authorizeUpgrade(address)": "infinite",
				"_exists(uint256)": "2270",
				"_updateSellerNFT(uint256,string memory,UD60x18)": "infinite",
				"_verifySellerNFT(uint256)": "infinite",
				"memcmp(bytes memory,bytes memory)": "infinite",
				"setCompanyDataName(string calldata,string calldata)": "infinite",
				"strcmp(string memory,string memory)": "infinite",
				"updateStatus(uint256,enum NftStatus)": "infinite"
			}
		},
		"methodIdentifiers": {
			"CompanyDataList(string)": "3b05063e",
			"CreditFactor()": "6866064f",
			"DEFAULT_ADMIN_ROLE()": "a217fddf",
			"EnrollmentList(address)": "6fa9d5a7",
			"ErrorFactor()": "06f856f7",
			"Market(uint256,uint256)": "025651cc",
			"NFTMintCost()": "6ad2eadc",
			"REGISTER_ROLE()": "74f53317",
			"SellerCounter()": "ec9dd8e3",
			"SellerMint(address)": "238d7fc4",
			"SellerNFTList(uint256)": "2e2f164f",
			"SellerNFTSupply()": "753e0747",
			"SellerNFTtotalSupply()": "c0a33b8d",
			"SellerURI()": "6a30ff35",
			"UPGRADE_INTERFACE_VERSION()": "ad3cb1cc",
			"VERIFIER_ROLE()": "e7705db6",
			"VERSION()": "ffa1ad74",
			"VERSION_RELEASE_CANDIDATE()": "6ca0b0d7",
			"VerifierMintSellerNFT(address,string,uint256)": "2f0d8b43",
			"approve(address,uint256)": "095ea7b3",
			"balanceOf(address)": "70a08231",
			"changeMarketContract(address)": "944f28b8",
			"getApproved(uint256)": "081812fc",
			"getCompanyCarbonUsed(string)": "41c099a4",
			"getRoleAdmin(bytes32)": "248a9ca3",
			"getSellerNFTData(uint256)": "10590b74",
			"getSellerNFTStatus(uint256)": "302a5f18",
			"grantRole(bytes32,address)": "2f2ff15d",
			"hasRole(bytes32,address)": "91d14854",
			"help()": "20fba162",
			"iMRCRetirementAddress()": "80f44675",
			"initialize()": "8129fc1c",
			"isApprovedForAll(address,address)": "e985e9c5",
			"market()": "80f55605",
			"name()": "06fdde03",
			"owner()": "8da5cb5b",
			"ownerOf(uint256)": "6352211e",
			"pause()": "8456cb59",
			"paused()": "5c975abb",
			"proxiableUUID()": "52d1902d",
			"renounceOwnership()": "715018a6",
			"renounceRole(bytes32,address)": "36568abe",
			"revokeRole(bytes32,address)": "d547741f",
			"safeTransferFrom(address,address,uint256)": "42842e0e",
			"safeTransferFrom(address,address,uint256,bytes)": "b88d4fde",
			"setApprovalForAll(address,bool)": "a22cb465",
			"setCompanyEnrollment(address,string,string)": "7a2c3048",
			"setCost(uint256)": "44a0d68a",
			"setRetirementContract(address)": "2fbc4436",
			"setSellerNFTSupply(uint256)": "616edbc5",
			"setSellerURI(string)": "8650d571",
			"supportsInterface(bytes4)": "01ffc9a7",
			"symbol()": "95d89b41",
			"tokenURI(uint256)": "c87b56dd",
			"transferFrom(address,address,uint256)": "23b872dd",
			"transferOwnership(address)": "f2fde38b",
			"unpause()": "3f4ba83a",
			"updateSellerNFT(uint256,string,uint256)": "9c0ae0b4",
			"upgradeToAndCall(address,bytes)": "4f1ef286",
			"verifySellerNFT(uint256)": "2d8a5a49"
		}
	},
	"abi": [
		{
			"inputs": [],
			"stateMutability": "nonpayable",
			"type": "constructor"
		},
		{
			"inputs": [],
			"name": "AccessControlBadConfirmation",
			"type": "error"
		},
		{
			"inputs": [
				{
					"internalType": "address",
					"name": "account",
					"type": "address"
				},
				{
					"internalType": "bytes32",
					"name": "neededRole",
					"type": "bytes32"
				}
			],
			"name": "AccessControlUnauthorizedAccount",
			"type": "error"
		},
		{
			"inputs": [
				{
					"internalType": "address",
					"name": "target",
					"type": "address"
				}
			],
			"name": "AddressEmptyCode",
			"type": "error"
		},
		{
			"inputs": [
				{
					"internalType": "address",
					"name": "implementation",
					"type": "address"
				}
			],
			"name": "ERC1967InvalidImplementation",
			"type": "error"
		},
		{
			"inputs": [],
			"name": "ERC1967NonPayable",
			"type": "error"
		},
		{
			"inputs": [
				{
					"internalType": "address",
					"name": "sender",
					"type": "address"
				},
				{
					"internalType": "uint256",
					"name": "tokenId",
					"type": "uint256"
				},
				{
					"internalType": "address",
					"name": "owner",
					"type": "address"
				}
			],
			"name": "ERC721IncorrectOwner",
			"type": "error"
		},
		{
			"inputs": [
				{
					"internalType": "address",
					"name": "operator",
					"type": "address"
				},
				{
					"internalType": "uint256",
					"name": "tokenId",
					"type": "uint256"
				}
			],
			"name": "ERC721InsufficientApproval",
			"type": "error"
		},
		{
			"inputs": [
				{
					"internalType": "address",
					"name": "approver",
					"type": "address"
				}
			],
			"name": "ERC721InvalidApprover",
			"type": "error"
		},
		{
			"inputs": [
				{
					"internalType": "address",
					"name": "operator",
					"type": "address"
				}
			],
			"name": "ERC721InvalidOperator",
			"type": "error"
		},
		{
			"inputs": [
				{
					"internalType": "address",
					"name": "owner",
					"type": "address"
				}
			],
			"name": "ERC721InvalidOwner",
			"type": "error"
		},
		{
			"inputs": [
				{
					"internalType": "address",
					"name": "receiver",
					"type": "address"
				}
			],
			"name": "ERC721InvalidReceiver",
			"type": "error"
		},
		{
			"inputs": [
				{
					"internalType": "address",
					"name": "sender",
					"type": "address"
				}
			],
			"name": "ERC721InvalidSender",
			"type": "error"
		},
		{
			"inputs": [
				{
					"internalType": "uint256",
					"name": "tokenId",
					"type": "uint256"
				}
			],
			"name": "ERC721NonexistentToken",
			"type": "error"
		},
		{
			"inputs": [],
			"name": "EnforcedPause",
			"type": "error"
		},
		{
			"inputs": [],
			"name": "ExpectedPause",
			"type": "error"
		},
		{
			"inputs": [],
			"name": "FailedInnerCall",
			"type": "error"
		},
		{
			"inputs": [],
			"name": "InvalidInitialization",
			"type": "error"
		},
		{
			"inputs": [],
			"name": "NotInitializing",
			"type": "error"
		},
		{
			"inputs": [
				{
					"internalType": "address",
					"name": "owner",
					"type": "address"
				}
			],
			"name": "OwnableInvalidOwner",
			"type": "error"
		},
		{
			"inputs": [
				{
					"internalType": "address",
					"name": "account",
					"type": "address"
				}
			],
			"name": "OwnableUnauthorizedAccount",
			"type": "error"
		},
		{
			"inputs": [],
			"name": "UUPSUnauthorizedCallContext",
			"type": "error"
		},
		{
			"inputs": [
				{
					"internalType": "bytes32",
					"name": "slot",
					"type": "bytes32"
				}
			],
			"name": "UUPSUnsupportedProxiableUUID",
			"type": "error"
		},
		{
			"anonymous": false,
			"inputs": [
				{
					"indexed": true,
					"internalType": "address",
					"name": "owner",
					"type": "address"
				},
				{
					"indexed": true,
					"internalType": "address",
					"name": "approved",
					"type": "address"
				},
				{
					"indexed": true,
					"internalType": "uint256",
					"name": "tokenId",
					"type": "uint256"
				}
			],
			"name": "Approval",
			"type": "event"
		},
		{
			"anonymous": false,
			"inputs": [
				{
					"indexed": true,
					"internalType": "address",
					"name": "owner",
					"type": "address"
				},
				{
					"indexed": true,
					"internalType": "address",
					"name": "operator",
					"type": "address"
				},
				{
					"indexed": false,
					"internalType": "bool",
					"name": "approved",
					"type": "bool"
				}
			],
			"name": "ApprovalForAll",
			"type": "event"
		},
		{
			"anonymous": false,
			"inputs": [
				{
					"indexed": false,
					"internalType": "uint64",
					"name": "version",
					"type": "uint64"
				}
			],
			"name": "Initialized",
			"type": "event"
		},
		{
			"anonymous": false,
			"inputs": [
				{
					"indexed": true,
					"internalType": "address",
					"name": "previousOwner",
					"type": "address"
				},
				{
					"indexed": true,
					"internalType": "address",
					"name": "newOwner",
					"type": "address"
				}
			],
			"name": "OwnershipTransferred",
			"type": "event"
		},
		{
			"anonymous": false,
			"inputs": [
				{
					"indexed": false,
					"internalType": "address",
					"name": "account",
					"type": "address"
				}
			],
			"name": "Paused",
			"type": "event"
		},
		{
			"anonymous": false,
			"inputs": [
				{
					"indexed": true,
					"internalType": "bytes32",
					"name": "role",
					"type": "bytes32"
				},
				{
					"indexed": true,
					"internalType": "bytes32",
					"name": "previousAdminRole",
					"type": "bytes32"
				},
				{
					"indexed": true,
					"internalType": "bytes32",
					"name": "newAdminRole",
					"type": "bytes32"
				}
			],
			"name": "RoleAdminChanged",
			"type": "event"
		},
		{
			"anonymous": false,
			"inputs": [
				{
					"indexed": true,
					"internalType": "bytes32",
					"name": "role",
					"type": "bytes32"
				},
				{
					"indexed": true,
					"internalType": "address",
					"name": "account",
					"type": "address"
				},
				{
					"indexed": true,
					"internalType": "address",
					"name": "sender",
					"type": "address"
				}
			],
			"name": "RoleGranted",
			"type": "event"
		},
		{
			"anonymous": false,
			"inputs": [
				{
					"indexed": true,
					"internalType": "bytes32",
					"name": "role",
					"type": "bytes32"
				},
				{
					"indexed": true,
					"internalType": "address",
					"name": "account",
					"type": "address"
				},
				{
					"indexed": true,
					"internalType": "address",
					"name": "sender",
					"type": "address"
				}
			],
			"name": "RoleRevoked",
			"type": "event"
		},
		{
			"anonymous": false,
			"inputs": [
				{
					"indexed": false,
					"internalType": "address",
					"name": "sender",
					"type": "address"
				},
				{
					"indexed": false,
					"internalType": "uint256",
					"name": "tokenId",
					"type": "uint256"
				}
			],
			"name": "SellerNFTMint",
			"type": "event"
		},
		{
			"anonymous": false,
			"inputs": [
				{
					"indexed": false,
					"internalType": "uint256",
					"name": "tokenId",
					"type": "uint256"
				},
				{
					"indexed": false,
					"internalType": "enum NftStatus",
					"name": "status",
					"type": "uint8"
				}
			],
			"name": "SellerNFTStatus",
			"type": "event"
		},
		{
			"anonymous": false,
			"inputs": [
				{
					"indexed": false,
					"internalType": "uint256",
					"name": "tokenId",
					"type": "uint256"
				},
				{
					"indexed": false,
					"internalType": "string",
					"name": "serialNumber",
					"type": "string"
				},
				{
					"indexed": false,
					"internalType": "UD60x18",
					"name": "carbonAmount",
					"type": "uint256"
				}
			],
			"name": "SellerNFTUpdated",
			"type": "event"
		},
		{
			"anonymous": false,
			"inputs": [
				{
					"indexed": true,
					"internalType": "address",
					"name": "from",
					"type": "address"
				},
				{
					"indexed": true,
					"internalType": "address",
					"name": "to",
					"type": "address"
				},
				{
					"indexed": true,
					"internalType": "uint256",
					"name": "tokenId",
					"type": "uint256"
				}
			],
			"name": "Transfer",
			"type": "event"
		},
		{
			"anonymous": false,
			"inputs": [
				{
					"indexed": false,
					"internalType": "address",
					"name": "account",
					"type": "address"
				}
			],
			"name": "Unpaused",
			"type": "event"
		},
		{
			"anonymous": false,
			"inputs": [
				{
					"indexed": true,
					"internalType": "address",
					"name": "implementation",
					"type": "address"
				}
			],
			"name": "Upgraded",
			"type": "event"
		},
		{
			"inputs": [
				{
					"internalType": "string",
					"name": "",
					"type": "string"
				}
			],
			"name": "CompanyDataList",
			"outputs": [
				{
					"internalType": "string",
					"name": "CompanyNameEnrollment",
					"type": "string"
				},
				{
					"internalType": "UD60x18",
					"name": "registryAmount",
					"type": "uint256"
				},
				{
					"internalType": "UD60x18",
					"name": "successAmount",
					"type": "uint256"
				},
				{
					"internalType": "UD60x18",
					"name": "failAmount",
					"type": "uint256"
				},
				{
					"internalType": "UD60x18",
					"name": "lastFailTimestamp",
					"type": "uint256"
				},
				{
					"internalType": "UD60x18",
					"name": "tradingCredit",
					"type": "uint256"
				}
			],
			"stateMutability": "view",
			"type": "function"
		},
		{
			"inputs": [],
			"name": "CreditFactor",
			"outputs": [
				{
					"internalType": "UD60x18",
					"name": "",
					"type": "uint256"
				}
			],
			"stateMutability": "view",
			"type": "function"
		},
		{
			"inputs": [],
			"name": "DEFAULT_ADMIN_ROLE",
			"outputs": [
				{
					"internalType": "bytes32",
					"name": "",
					"type": "bytes32"
				}
			],
			"stateMutability": "view",
			"type": "function"
		},
		{
			"inputs": [
				{
					"internalType": "address",
					"name": "",
					"type": "address"
				}
			],
			"name": "EnrollmentList",
			"outputs": [
				{
					"internalType": "string",
					"name": "CompanyIdEnrollment",
					"type": "string"
				},
				{
					"internalType": "string",
					"name": "CompanyNameEnrollment",
					"type": "string"
				}
			],
			"stateMutability": "view",
			"type": "function"
		},
		{
			"inputs": [],
			"name": "ErrorFactor",
			"outputs": [
				{
					"internalType": "UD60x18",
					"name": "",
					"type": "uint256"
				}
			],
			"stateMutability": "view",
			"type": "function"
		},
		{
			"inputs": [
				{
					"internalType": "uint256",
					"name": "tokenId",
					"type": "uint256"
				},
				{
					"internalType": "uint256",
					"name": "price",
					"type": "uint256"
				}
			],
			"name": "Market",
			"outputs": [
				{
					"internalType": "bool",
					"name": "",
					"type": "bool"
				}
			],
			"stateMutability": "nonpayable",
			"type": "function"
		},
		{
			"inputs": [],
			"name": "NFTMintCost",
			"outputs": [
				{
					"internalType": "uint256",
					"name": "",
					"type": "uint256"
				}
			],
			"stateMutability": "view",
			"type": "function"
		},
		{
			"inputs": [],
			"name": "REGISTER_ROLE",
			"outputs": [
				{
					"internalType": "bytes32",
					"name": "",
					"type": "bytes32"
				}
			],
			"stateMutability": "view",
			"type": "function"
		},
		{
			"inputs": [],
			"name": "SellerCounter",
			"outputs": [
				{
					"internalType": "uint256",
					"name": "",
					"type": "uint256"
				}
			],
			"stateMutability": "view",
			"type": "function"
		},
		{
			"inputs": [
				{
					"internalType": "address",
					"name": "to",
					"type": "address"
				}
			],
			"name": "SellerMint",
			"outputs": [],
			"stateMutability": "nonpayable",
			"type": "function"
		},
		{
			"inputs": [
				{
					"internalType": "uint256",
					"name": "",
					"type": "uint256"
				}
			],
			"name": "SellerNFTList",
			"outputs": [
				{
					"internalType": "string",
					"name": "serialNumber",
					"type": "string"
				},
				{
					"internalType": "string",
					"name": "CompanyId",
					"type": "string"
				},
				{
					"internalType": "string",
					"name": "CompanyName",
					"type": "string"
				},
				{
					"internalType": "UD60x18",
					"name": "carbonAmount",
					"type": "uint256"
				},
				{
					"internalType": "enum NftStatus",
					"name": "status",
					"type": "uint8"
				},
				{
					"internalType": "string",
					"name": "uri",
					"type": "string"
				},
				{
					"internalType": "address",
					"name": "verifier",
					"type": "address"
				}
			],
			"stateMutability": "view",
			"type": "function"
		},
		{
			"inputs": [],
			"name": "SellerNFTSupply",
			"outputs": [
				{
					"internalType": "uint256",
					"name": "",
					"type": "uint256"
				}
			],
			"stateMutability": "view",
			"type": "function"
		},
		{
			"inputs": [],
			"name": "SellerNFTtotalSupply",
			"outputs": [
				{
					"internalType": "uint256",
					"name": "",
					"type": "uint256"
				}
			],
			"stateMutability": "view",
			"type": "function"
		},
		{
			"inputs": [],
			"name": "SellerURI",
			"outputs": [
				{
					"internalType": "string",
					"name": "",
					"type": "string"
				}
			],
			"stateMutability": "view",
			"type": "function"
		},
		{
			"inputs": [],
			"name": "UPGRADE_INTERFACE_VERSION",
			"outputs": [
				{
					"internalType": "string",
					"name": "",
					"type": "string"
				}
			],
			"stateMutability": "view",
			"type": "function"
		},
		{
			"inputs": [],
			"name": "VERIFIER_ROLE",
			"outputs": [
				{
					"internalType": "bytes32",
					"name": "",
					"type": "bytes32"
				}
			],
			"stateMutability": "view",
			"type": "function"
		},
		{
			"inputs": [],
			"name": "VERSION",
			"outputs": [
				{
					"internalType": "string",
					"name": "",
					"type": "string"
				}
			],
			"stateMutability": "view",
			"type": "function"
		},
		{
			"inputs": [],
			"name": "VERSION_RELEASE_CANDIDATE",
			"outputs": [
				{
					"internalType": "uint256",
					"name": "",
					"type": "uint256"
				}
			],
			"stateMutability": "view",
			"type": "function"
		},
		{
			"inputs": [
				{
					"internalType": "address",
					"name": "to",
					"type": "address"
				},
				{
					"internalType": "string",
					"name": "serialNumber",
					"type": "string"
				},
				{
					"internalType": "UD60x18",
					"name": "carbonAmount",
					"type": "uint256"
				}
			],
			"name": "VerifierMintSellerNFT",
			"outputs": [],
			"stateMutability": "nonpayable",
			"type": "function"
		},
		{
			"inputs": [
				{
					"internalType": "address",
					"name": "to",
					"type": "address"
				},
				{
					"internalType": "uint256",
					"name": "tokenId",
					"type": "uint256"
				}
			],
			"name": "approve",
			"outputs": [],
			"stateMutability": "nonpayable",
			"type": "function"
		},
		{
			"inputs": [
				{
					"internalType": "address",
					"name": "owner",
					"type": "address"
				}
			],
			"name": "balanceOf",
			"outputs": [
				{
					"internalType": "uint256",
					"name": "",
					"type": "uint256"
				}
			],
			"stateMutability": "view",
			"type": "function"
		},
		{
			"inputs": [
				{
					"internalType": "address",
					"name": "newMarket",
					"type": "address"
				}
			],
			"name": "changeMarketContract",
			"outputs": [],
			"stateMutability": "nonpayable",
			"type": "function"
		},
		{
			"inputs": [
				{
					"internalType": "uint256",
					"name": "tokenId",
					"type": "uint256"
				}
			],
			"name": "getApproved",
			"outputs": [
				{
					"internalType": "address",
					"name": "",
					"type": "address"
				}
			],
			"stateMutability": "view",
			"type": "function"
		},
		{
			"inputs": [
				{
					"internalType": "string",
					"name": "CompanyId",
					"type": "string"
				}
			],
			"name": "getCompanyCarbonUsed",
			"outputs": [
				{
					"internalType": "UD60x18",
					"name": "registryAmount",
					"type": "uint256"
				}
			],
			"stateMutability": "view",
			"type": "function"
		},
		{
			"inputs": [
				{
					"internalType": "bytes32",
					"name": "role",
					"type": "bytes32"
				}
			],
			"name": "getRoleAdmin",
			"outputs": [
				{
					"internalType": "bytes32",
					"name": "",
					"type": "bytes32"
				}
			],
			"stateMutability": "view",
			"type": "function"
		},
		{
			"inputs": [
				{
					"internalType": "uint256",
					"name": "tokenId",
					"type": "uint256"
				}
			],
			"name": "getSellerNFTData",
			"outputs": [
				{
					"components": [
						{
							"internalType": "string",
							"name": "serialNumber",
							"type": "string"
						},
						{
							"internalType": "string",
							"name": "CompanyId",
							"type": "string"
						},
						{
							"internalType": "string",
							"name": "CompanyName",
							"type": "string"
						},
						{
							"internalType": "UD60x18",
							"name": "carbonAmount",
							"type": "uint256"
						},
						{
							"internalType": "enum NftStatus",
							"name": "status",
							"type": "uint8"
						},
						{
							"internalType": "string",
							"name": "uri",
							"type": "string"
						},
						{
							"internalType": "address",
							"name": "verifier",
							"type": "address"
						}
					],
					"internalType": "struct CarbonNFTRequirementV1.SellerNFT",
					"name": "",
					"type": "tuple"
				}
			],
			"stateMutability": "view",
			"type": "function"
		},
		{
			"inputs": [
				{
					"internalType": "uint256",
					"name": "tokenId",
					"type": "uint256"
				}
			],
			"name": "getSellerNFTStatus",
			"outputs": [
				{
					"internalType": "enum NftStatus",
					"name": "",
					"type": "uint8"
				}
			],
			"stateMutability": "view",
			"type": "function"
		},
		{
			"inputs": [
				{
					"internalType": "bytes32",
					"name": "role",
					"type": "bytes32"
				},
				{
					"internalType": "address",
					"name": "account",
					"type": "address"
				}
			],
			"name": "grantRole",
			"outputs": [],
			"stateMutability": "nonpayable",
			"type": "function"
		},
		{
			"inputs": [
				{
					"internalType": "bytes32",
					"name": "role",
					"type": "bytes32"
				},
				{
					"internalType": "address",
					"name": "account",
					"type": "address"
				}
			],
			"name": "hasRole",
			"outputs": [
				{
					"internalType": "bool",
					"name": "",
					"type": "bool"
				}
			],
			"stateMutability": "view",
			"type": "function"
		},
		{
			"inputs": [],
			"name": "help",
			"outputs": [
				{
					"internalType": "string",
					"name": "",
					"type": "string"
				}
			],
			"stateMutability": "view",
			"type": "function"
		},
		{
			"inputs": [],
			"name": "iMRCRetirementAddress",
			"outputs": [
				{
					"internalType": "address",
					"name": "",
					"type": "address"
				}
			],
			"stateMutability": "view",
			"type": "function"
		},
		{
			"inputs": [],
			"name": "initialize",
			"outputs": [],
			"stateMutability": "nonpayable",
			"type": "function"
		},
		{
			"inputs": [
				{
					"internalType": "address",
					"name": "owner",
					"type": "address"
				},
				{
					"internalType": "address",
					"name": "operator",
					"type": "address"
				}
			],
			"name": "isApprovedForAll",
			"outputs": [
				{
					"internalType": "bool",
					"name": "",
					"type": "bool"
				}
			],
			"stateMutability": "view",
			"type": "function"
		},
		{
			"inputs": [],
			"name": "market",
			"outputs": [
				{
					"internalType": "address",
					"name": "",
					"type": "address"
				}
			],
			"stateMutability": "view",
			"type": "function"
		},
		{
			"inputs": [],
			"name": "name",
			"outputs": [
				{
					"internalType": "string",
					"name": "",
					"type": "string"
				}
			],
			"stateMutability": "view",
			"type": "function"
		},
		{
			"inputs": [],
			"name": "owner",
			"outputs": [
				{
					"internalType": "address",
					"name": "",
					"type": "address"
				}
			],
			"stateMutability": "view",
			"type": "function"
		},
		{
			"inputs": [
				{
					"internalType": "uint256",
					"name": "tokenId",
					"type": "uint256"
				}
			],
			"name": "ownerOf",
			"outputs": [
				{
					"internalType": "address",
					"name": "",
					"type": "address"
				}
			],
			"stateMutability": "view",
			"type": "function"
		},
		{
			"inputs": [],
			"name": "pause",
			"outputs": [],
			"stateMutability": "nonpayable",
			"type": "function"
		},
		{
			"inputs": [],
			"name": "paused",
			"outputs": [
				{
					"internalType": "bool",
					"name": "",
					"type": "bool"
				}
			],
			"stateMutability": "view",
			"type": "function"
		},
		{
			"inputs": [],
			"name": "proxiableUUID",
			"outputs": [
				{
					"internalType": "bytes32",
					"name": "",
					"type": "bytes32"
				}
			],
			"stateMutability": "view",
			"type": "function"
		},
		{
			"inputs": [],
			"name": "renounceOwnership",
			"outputs": [],
			"stateMutability": "nonpayable",
			"type": "function"
		},
		{
			"inputs": [
				{
					"internalType": "bytes32",
					"name": "role",
					"type": "bytes32"
				},
				{
					"internalType": "address",
					"name": "callerConfirmation",
					"type": "address"
				}
			],
			"name": "renounceRole",
			"outputs": [],
			"stateMutability": "nonpayable",
			"type": "function"
		},
		{
			"inputs": [
				{
					"internalType": "bytes32",
					"name": "role",
					"type": "bytes32"
				},
				{
					"internalType": "address",
					"name": "account",
					"type": "address"
				}
			],
			"name": "revokeRole",
			"outputs": [],
			"stateMutability": "nonpayable",
			"type": "function"
		},
		{
			"inputs": [
				{
					"internalType": "address",
					"name": "from",
					"type": "address"
				},
				{
					"internalType": "address",
					"name": "to",
					"type": "address"
				},
				{
					"internalType": "uint256",
					"name": "tokenId",
					"type": "uint256"
				}
			],
			"name": "safeTransferFrom",
			"outputs": [],
			"stateMutability": "nonpayable",
			"type": "function"
		},
		{
			"inputs": [
				{
					"internalType": "address",
					"name": "from",
					"type": "address"
				},
				{
					"internalType": "address",
					"name": "to",
					"type": "address"
				},
				{
					"internalType": "uint256",
					"name": "tokenId",
					"type": "uint256"
				},
				{
					"internalType": "bytes",
					"name": "data",
					"type": "bytes"
				}
			],
			"name": "safeTransferFrom",
			"outputs": [],
			"stateMutability": "nonpayable",
			"type": "function"
		},
		{
			"inputs": [
				{
					"internalType": "address",
					"name": "operator",
					"type": "address"
				},
				{
					"internalType": "bool",
					"name": "approved",
					"type": "bool"
				}
			],
			"name": "setApprovalForAll",
			"outputs": [],
			"stateMutability": "nonpayable",
			"type": "function"
		},
		{
			"inputs": [
				{
					"internalType": "address",
					"name": "_setaddress",
					"type": "address"
				},
				{
					"internalType": "string",
					"name": "_CompanyIdEnrollment",
					"type": "string"
				},
				{
					"internalType": "string",
					"name": "_CompanyNameEnrollment",
					"type": "string"
				}
			],
			"name": "setCompanyEnrollment",
			"outputs": [],
			"stateMutability": "nonpayable",
			"type": "function"
		},
		{
			"inputs": [
				{
					"internalType": "uint256",
					"name": "_newCost",
					"type": "uint256"
				}
			],
			"name": "setCost",
			"outputs": [],
			"stateMutability": "nonpayable",
			"type": "function"
		},
		{
			"inputs": [
				{
					"internalType": "address",
					"name": "_iMRCRetirementAddress",
					"type": "address"
				}
			],
			"name": "setRetirementContract",
			"outputs": [],
			"stateMutability": "nonpayable",
			"type": "function"
		},
		{
			"inputs": [
				{
					"internalType": "uint256",
					"name": "_newMaxSupply",
					"type": "uint256"
				}
			],
			"name": "setSellerNFTSupply",
			"outputs": [],
			"stateMutability": "nonpayable",
			"type": "function"
		},
		{
			"inputs": [
				{
					"internalType": "string",
					"name": "_newBaseURI",
					"type": "string"
				}
			],
			"name": "setSellerURI",
			"outputs": [],
			"stateMutability": "nonpayable",
			"type": "function"
		},
		{
			"inputs": [
				{
					"internalType": "bytes4",
					"name": "interfaceId",
					"type": "bytes4"
				}
			],
			"name": "supportsInterface",
			"outputs": [
				{
					"internalType": "bool",
					"name": "",
					"type": "bool"
				}
			],
			"stateMutability": "view",
			"type": "function"
		},
		{
			"inputs": [],
			"name": "symbol",
			"outputs": [
				{
					"internalType": "string",
					"name": "",
					"type": "string"
				}
			],
			"stateMutability": "view",
			"type": "function"
		},
		{
			"inputs": [
				{
					"internalType": "uint256",
					"name": "tokenId",
					"type": "uint256"
				}
			],
			"name": "tokenURI",
			"outputs": [
				{
					"internalType": "string",
					"name": "",
					"type": "string"
				}
			],
			"stateMutability": "view",
			"type": "function"
		},
		{
			"inputs": [
				{
					"internalType": "address",
					"name": "from",
					"type": "address"
				},
				{
					"internalType": "address",
					"name": "to",
					"type": "address"
				},
				{
					"internalType": "uint256",
					"name": "tokenId",
					"type": "uint256"
				}
			],
			"name": "transferFrom",
			"outputs": [],
			"stateMutability": "nonpayable",
			"type": "function"
		},
		{
			"inputs": [
				{
					"internalType": "address",
					"name": "newOwner",
					"type": "address"
				}
			],
			"name": "transferOwnership",
			"outputs": [],
			"stateMutability": "nonpayable",
			"type": "function"
		},
		{
			"inputs": [],
			"name": "unpause",
			"outputs": [],
			"stateMutability": "nonpayable",
			"type": "function"
		},
		{
			"inputs": [
				{
					"internalType": "uint256",
					"name": "tokenId",
					"type": "uint256"
				},
				{
					"internalType": "string",
					"name": "serialNumber",
					"type": "string"
				},
				{
					"internalType": "UD60x18",
					"name": "carbonAmount",
					"type": "uint256"
				}
			],
			"name": "updateSellerNFT",
			"outputs": [],
			"stateMutability": "nonpayable",
			"type": "function"
		},
		{
			"inputs": [
				{
					"internalType": "address",
					"name": "newImplementation",
					"type": "address"
				},
				{
					"internalType": "bytes",
					"name": "data",
					"type": "bytes"
				}
			],
			"name": "upgradeToAndCall",
			"outputs": [],
			"stateMutability": "payable",
			"type": "function"
		},
		{
			"inputs": [
				{
					"internalType": "uint256",
					"name": "tokenId",
					"type": "uint256"
				}
			],
			"name": "verifySellerNFT",
			"outputs": [],
			"stateMutability": "nonpayable",
			"type": "function"
		}
	]
}