{
	"data": {
		"bytecode": {
			"linkReferences": {},
			"object": "60a0604052306080526706f05b59d3b20000600b55670de0b6b3a7640000600c5534801561002b575f80fd5b50610034610039565b6105fc565b7ff0c57e16840df040f15088dc2f81fe391c3923bec73e23a9662efc9c229c6a00805468010000000000000000810460ff1615906001600160401b03165f811580156100825750825b90505f826001600160401b0316600114801561009d5750303b155b9050811580156100ab575080155b156100c95760405163f92ee8a960e01b815260040160405180910390fd5b84546001600160401b031916600117855583156100f757845460ff60401b1916680100000000000000001785555b6101506040518060400160405280601181526020017011da534b4d0b8c97d0d85c989bdb939195607a1b8152506040518060400160405280600881526020016711da534b50d3919560c21b81525061022360201b60201c565b610158610239565b6101613361024b565b61016961025f565b6101735f33610267565b5061019e7f0ce23c3e399818cfee81a7ab0880f714e53d7672b08df0fa62f2843416e1ea0933610267565b505f60088190556402540be400600955805560408051606081019091526035808252615b2e6020830139600a906101d5908261053d565b50831561021c57845460ff60401b19168555604051600181527fc7f505b2f371ae2175ee4913f4499e1f2633a7b5936321eed1cdaeb6115181d29060200160405180910390a15b5050505050565b61022b610335565b6102358282610383565b5050565b610241610335565b6102496103cc565b565b610253610335565b61025c816103ff565b50565b610249610335565b5f8281527f02dd7bc7dec4dceedda775e58dd541e08a116c6c53815c0bd028192f7b626800602081815260408084206001600160a01b038616855290915282205460ff1661032a575f848152602082815260408083206001600160a01b03871684529091529020805460ff191660011790556102e03390565b6001600160a01b0316836001600160a01b0316857f2f8788117e7eff1d82e926ec794901d17c78024a50270940304540a733656f0d60405160405180910390a4600191505061032f565b5f9150505b92915050565b7ff0c57e16840df040f15088dc2f81fe391c3923bec73e23a9662efc9c229c6a005468010000000000000000900460ff1661024957604051631afcd79f60e31b815260040160405180910390fd5b61038b610335565b7f80bb2b638cc20bc4d0a60d66940f3ab4a00c1d7b313497ca82fb0b4ab0079300806103b7848261053d565b50600181016103c6838261053d565b50505050565b6103d4610335565b7fcd5ed15c6e187e77e9aee88184c21f4f2182ab5827cb3b7e07fbedcd63f03300805460ff19169055565b610407610335565b6001600160a01b03811661043457604051631e4fbdf760e01b81525f600482015260240160405180910390fd5b61025c817f9016d09d72d40fdae2fd8ceac6b6234c7706214fd39c1cd1e609a0528c19930080546001600160a01b031981166001600160a01b03848116918217845560405192169182907f8be0079c531659141344cd1fd0a4f28419497f9722a3daafe3b4186f6b6457e0905f90a3505050565b634e487b7160e01b5f52604160045260245ffd5b600181811c908216806104d057607f821691505b6020821081036104ee57634e487b7160e01b5f52602260045260245ffd5b50919050565b601f82111561053857805f5260205f20601f840160051c810160208510156105195750805b601f840160051c820191505b8181101561021c575f8155600101610525565b505050565b81516001600160401b03811115610556576105566104a8565b61056a8161056484546104bc565b846104f4565b602080601f83116001811461059d575f84156105865750858301515b5f19600386901b1c1916600185901b1785556105f4565b5f85815260208120601f198616915b828110156105cb578886015182559484019460019091019084016105ac565b50858210156105e857878501515f19600388901b60f8161c191681555b505060018460011b0185555b505050505050565b60805161550c6106225f395f8181613030015281816130590152613198015261550c5ff3fe608060405260043610610437575f3560e01c80636ad2eadc1161022b5780639446d19d11610129578063c04f01fc116100b3578063e7705db611610078578063e7705db614610d40578063e985e9c514610d60578063f2fde38b14610d7f578063f5c296bd14610d9e578063ffa1ad7414610dbd575f80fd5b8063c04f01fc14610c98578063c87b56dd14610cb7578063cd5f668214610cd6578063d547741f14610cf5578063d6f343c514610d14575f80fd5b8063a217fddf116100f9578063a217fddf14610bf8578063a22cb46514610c0b578063ad3cb1cc14610c2a578063b88d4fde14610c5a578063bfa1c17e14610c79575f80fd5b80639446d19d14610b87578063944f28b814610ba657806395d89b4114610bc55780639d0cce8314610bd9575f80fd5b80637a2c3048116101b55780638456cb591161017a5780638456cb5914610ada578063879b7c8e14610aee5780638da5cb5b14610b0d5780638de8fc7214610b4957806391d1485414610b68575f80fd5b80637a2c304814610a3d57806380812fed14610a5c57806380f4467514610a8857806380f5560514610aa75780638129fc1c14610ac6575f80fd5b806370a08231116101fb57806370a0823114610999578063715018a6146109b857806373e3bf96146109cc57806374f53317146109eb57806378e875c514610a1e575f80fd5b80636ad2eadc1461092f5780636ca0b0d7146109445780636f4fde9a146109585780636fa9d5a71461096c575f80fd5b80633b05063e11610338578063550f31f2116102c257806361d46f161161028757806361d46f161461089e5780636352211e146108bd5780636458523d146108dc57806364d977c7146108fb5780636866064f1461091a575f80fd5b8063550f31f2146107de57806356387a9e1461081c57806357885ba2146108305780635c975abb1461084f5780635db4041d14610872575f80fd5b80634345a7e9116103085780634345a7e914610750578063437005f11461078357806344a0d68a146107985780634f1ef286146107b757806352d1902d146107ca575f80fd5b80633b05063e146106cd5780633f4ba83a146106fe57806341c099a41461071257806342842e0e14610731575f80fd5b8063238e3909116103c45780632fbc4436116103895780632fbc443614610622578063343e8b421461064157806334844b421461065557806336568abe1461068f5780633924d0d0146106ae575f80fd5b8063238e39091461058757806323b872dd146105a6578063248a9ca3146105c55780632f2ff15d146105e45780632f92167a14610603575f80fd5b8063081812fc1161040a578063081812fc146104d2578063095ea7b31461050957806314d80fee1461052a5780631d3b9edf1461054957806320fba16214610568575f80fd5b806301ffc9a71461043b578063025651cc1461046f57806306f856f71461048e57806306fdde03146104b1575b5f80fd5b348015610446575f80fd5b5061045a6104553660046146ea565b610deb565b60405190151581526020015b60405180910390f35b34801561047a575f80fd5b5061045a610489366004614705565b610e15565b348015610499575f80fd5b506104a3600c5481565b604051908152602001610466565b3480156104bc575f80fd5b506104c5610f71565b6040516104669190614753565b3480156104dd575f80fd5b506104f16104ec366004614765565b611012565b6040516001600160a01b039091168152602001610466565b348015610514575f80fd5b50610528610523366004614797565b611026565b005b348015610535575f80fd5b506104a3610544366004614765565b611035565b348015610554575f80fd5b506104a3610563366004614705565b61103c565b348015610573575f80fd5b5060408051602081019091525f81526104c5565b348015610592575f80fd5b506105286105a13660046147bf565b61104e565b3480156105b1575f80fd5b506105286105c03660046147ef565b6110ad565b3480156105d0575f80fd5b506104a36105df366004614765565b611136565b3480156105ef575f80fd5b506105286105fe366004614828565b611156565b34801561060e575f80fd5b506104a361061d366004614705565b611172565b34801561062d575f80fd5b5061052861063c366004614852565b61117d565b34801561064c575f80fd5b506104a35f5481565b348015610660575f80fd5b5061045a61066f366004614907565b805160208183018101805160038252928201919093012091525460ff1681565b34801561069a575f80fd5b506105286106a9366004614828565b6111a7565b3480156106b9575f80fd5b506105286106c8366004614852565b6111da565b3480156106d8575f80fd5b506106ec6106e7366004614907565b611353565b60405161046696959493929190614938565b348015610709575f80fd5b50610528611418565b34801561071d575f80fd5b506104a361072c366004614907565b61142a565b34801561073c575f80fd5b5061052861074b3660046147ef565b611454565b34801561075b575f80fd5b5061076f61076a366004614765565b61146e565b6040516104669897969594939291906149a7565b34801561078e575f80fd5b506104a360095481565b3480156107a3575f80fd5b506105286107b2366004614765565b611650565b6105286107c5366004614a1f565b61165d565b3480156107d5575f80fd5b506104a3611678565b3480156107e9575f80fd5b5061080f6107f8366004614765565b5f9081526004602052604090206005015460ff1690565b6040516104669190614a69565b348015610827575f80fd5b506104c5611693565b34801561083b575f80fd5b506104a361084a366004614765565b61171f565b34801561085a575f80fd5b505f805160206154978339815191525460ff1661045a565b34801561087d575f80fd5b5061089161088c366004614765565b611729565b6040516104669190614a77565b3480156108a9575f80fd5b506104c56108b8366004614765565b611965565b3480156108c8575f80fd5b506104f16108d7366004614765565b61198c565b3480156108e7575f80fd5b506104a36108f6366004614b29565b611996565b348015610906575f80fd5b50610528610915366004614765565b611a4f565b348015610925575f80fd5b506104a3600b5481565b34801561093a575f80fd5b506104a360085481565b34801561094f575f80fd5b506104a3600181565b348015610963575f80fd5b506009546104a3565b348015610977575f80fd5b5061098b610986366004614852565b611a96565b604051610466929190614b58565b3480156109a4575f80fd5b506104a36109b3366004614852565b611bbd565b3480156109c3575f80fd5b50610528611c15565b3480156109d7575f80fd5b506104a36109e6366004614b29565b611c26565b3480156109f6575f80fd5b506104a37fd1f21ec03a6eb050fba156f5316dad461735df521fb446dd42c5a4728e9c70fe81565b348015610a29575f80fd5b50610528610a38366004614b8b565b611ca4565b348015610a48575f80fd5b50610528610a57366004614c10565b611dd5565b348015610a67575f80fd5b50610a7b610a76366004614907565b611f54565b6040516104669190614c8a565b348015610a93575f80fd5b506002546104f1906001600160a01b031681565b348015610ab2575f80fd5b506001546104f1906001600160a01b031681565b348015610ad1575f80fd5b50610528612079565b348015610ae5575f80fd5b50610528612241565b348015610af9575f80fd5b506104a3610b08366004614b29565b612251565b348015610b18575f80fd5b507f9016d09d72d40fdae2fd8ceac6b6234c7706214fd39c1cd1e609a0528c199300546001600160a01b03166104f1565b348015610b54575f80fd5b506104a3610b63366004614ce3565b612267565b348015610b73575f80fd5b5061045a610b82366004614828565b6123b1565b348015610b92575f80fd5b50610528610ba1366004614765565b6123e7565b348015610bb1575f80fd5b50610528610bc0366004614852565b6123f4565b348015610bd0575f80fd5b506104c561241e565b348015610be4575f80fd5b506104a3610bf3366004614d50565b61245c565b348015610c03575f80fd5b506104a35f81565b348015610c16575f80fd5b50610528610c25366004614d95565b6124e5565b348015610c35575f80fd5b506104c5604051806040016040528060058152602001640352e302e360dc1b81525081565b348015610c65575f80fd5b50610528610c74366004614dbd565b6124f0565b348015610c84575f80fd5b506104a3610c93366004614b29565b612507565b348015610ca3575f80fd5b506104a3610cb2366004614705565b612514565b348015610cc2575f80fd5b506104c5610cd1366004614765565b61251f565b348015610ce1575f80fd5b50610528610cf0366004614907565b61262c565b348015610d00575f80fd5b50610528610d0f366004614828565b612640565b348015610d1f575f80fd5b50610d33610d2e366004614852565b61265c565b6040516104669190614e20565b348015610d4b575f80fd5b506104a35f805160206154b783398151915281565b348015610d6b575f80fd5b5061045a610d7a366004614e58565b6127b7565b348015610d8a575f80fd5b50610528610d99366004614852565b612803565b348015610da9575f80fd5b50610528610db8366004614e80565b61283d565b348015610dc8575f80fd5b506104c5604051806040016040528060038152602001620312e360ec1b81525081565b5f6001600160e01b03198216637965db0b60e01b1480610e0f5750610e0f826128dd565b92915050565b6001545f906001600160a01b0316610e675760405162461bcd60e51b815260206004820152601060248201526f115c9c9bdc8e88139bc81b585c9ad95d60821b60448201526064015b60405180910390fd5b60015f8481526004602052604090206005015460ff166003811115610e8e57610e8e614973565b14610ed35760405162461bcd60e51b81526020600482015260156024820152744572726f723a204e4654204e6f742056657269667960581b6044820152606401610e5e565b6001546040805160208082018690528251808303909101815290820190915233916001600160a01b031690610f0a838388846124f0565b816001600160a01b0316610f1d8761198c565b6001600160a01b031614610f655760405162461bcd60e51b815260206004820152600f60248201526e151c985b9cd9995c8819985a5b1959608a1b6044820152606401610e5e565b50600195945050505050565b5f805160206154028339815191528054606091908190610f9090614ea9565b80601f0160208091040260200160405190810160405280929190818152602001828054610fbc90614ea9565b80156110075780601f10610fde57610100808354040283529160200191611007565b820191905f5260205f20905b815481529060010190602001808311610fea57829003601f168201915b505050505091505090565b5f61101c8261292c565b50610e0f82612963565b61103182823361299c565b5050565b5f81610e0f565b5f61104782846129a9565b9392505050565b6110655f805160206154b7833981519152336123b1565b6110815760405162461bcd60e51b8152600401610e5e90614ee1565b6110896129ba565b611092836111da565b61109e5f5483836129ea565b6110a85f54612a90565b505050565b6001600160a01b0382166110d657604051633250574960e11b81525f6004820152602401610e5e565b5f6110e2838333612d15565b9050836001600160a01b0316816001600160a01b031614611130576040516364283d7b60e01b81526001600160a01b0380861660048301526024820184905282166044820152606401610e5e565b50505050565b5f9081525f80516020615477833981519152602052604090206001015490565b61115f82611136565b61116881612e17565b6111308383612e21565b5f6110478383612ec2565b611185612ed9565b600280546001600160a01b0319166001600160a01b0392909216919091179055565b6001600160a01b03811633146111d05760405163334bd91960e11b815260040160405180910390fd5b6110a88282612f34565b6111e26129ba565b5f54600954811061122d5760405162461bcd60e51b81526020600482015260156024820152744572726f723a204e4654206e6f206c65667421212160581b6044820152606401610e5e565b6001015f81905561123e8282612fad565b600a6040516020016112509190614f91565b60408051601f198184030181529181525f838152600460205220600601906112789082615021565b505f8181526004602081815260408084206005808201805460ff191690556001600160a01b0388168652835290842093859052919052906112b990826150db565b506001600160a01b0382165f90815260056020908152604080832084845260049092529091206001908101916112f09101826150db565b505f818152600460208181526040808420600381018590559092019290925580516001600160a01b03851681529182018390527f38f5c4d96107181fd54ed20c49d6743e17776fbe2b633ea9110bd5a017f69a3f91015b60405180910390a15050565b805160208183018101805160068252928201919093012091528054819061137990614ea9565b80601f01602080910402602001604051908101604052809291908181526020018280546113a590614ea9565b80156113f05780601f106113c7576101008083540402835291602001916113f0565b820191905f5260205f20905b8154815290600101906020018083116113d357829003601f168201915b5050505050908060010154908060020154908060030154908060040154908060050154905086565b611420612ed9565b611428612fc6565b565b5f60068260405161143b91906151bb565b9081526020016040518091039020600101549050919050565b6110a883838360405180602001604052805f8152506124f0565b60046020525f908152604090208054819061148890614ea9565b80601f01602080910402602001604051908101604052809291908181526020018280546114b490614ea9565b80156114ff5780601f106114d6576101008083540402835291602001916114ff565b820191905f5260205f20905b8154815290600101906020018083116114e257829003601f168201915b50505050509080600101805461151490614ea9565b80601f016020809104026020016040519081016040528092919081815260200182805461154090614ea9565b801561158b5780601f106115625761010080835404028352916020019161158b565b820191905f5260205f20905b81548152906001019060200180831161156e57829003601f168201915b50505060028401546003850154600486015460058701546006880180549798949793965091945060ff1692916115c090614ea9565b80601f01602080910402602001604051908101604052809291908181526020018280546115ec90614ea9565b80156116375780601f1061160e57610100808354040283529160200191611637565b820191905f5260205f20905b81548152906001019060200180831161161a57829003601f168201915b505050600790930154919250506001600160a01b031688565b611658612ed9565b600855565b611665613025565b61166e826130c9565b61103182826130d1565b5f61168161318d565b505f8051602061545783398151915290565b600a80546116a090614ea9565b80601f01602080910402602001604051908101604052809291908181526020018280546116cc90614ea9565b80156117175780601f106116ee57610100808354040283529160200191611717565b820191905f5260205f20905b8154815290600101906020018083116116fa57829003601f168201915b505050505081565b5f610e0f826131d6565b611731614684565b5f82815260046020526040908190208151610100810190925280548290829061175990614ea9565b80601f016020809104026020016040519081016040528092919081815260200182805461178590614ea9565b80156117d05780601f106117a7576101008083540402835291602001916117d0565b820191905f5260205f20905b8154815290600101906020018083116117b357829003601f168201915b505050505081526020016001820180546117e990614ea9565b80601f016020809104026020016040519081016040528092919081815260200182805461181590614ea9565b80156118605780601f1061183757610100808354040283529160200191611860565b820191905f5260205f20905b81548152906001019060200180831161184357829003601f168201915b505050918352505060028201546020820152600380830154604083015260048301546060830152600583015460809092019160ff16908111156118a5576118a5614973565b60038111156118b6576118b6614973565b81526020016006820180546118ca90614ea9565b80601f01602080910402602001604051908101604052809291908181526020018280546118f690614ea9565b80156119415780601f1061191857610100808354040283529160200191611941565b820191905f5260205f20905b81548152906001019060200180831161192457829003601f168201915b5050509183525050600791909101546001600160a01b031660209091015292915050565b60078181548110611974575f80fd5b905f5260205f20015f9150905080546116a090614ea9565b5f610e0f8261292c565b5f806119a28587611172565b90505f8315611a01575f6119bd66470de4df82000086611172565b90505f6119df670de0b6b3a76400005b61061d678ac7230489e8000085612514565b90506119f884610563670de0b6b3a76400005b84613230565b92505050611a04565b50805b5f611a356802b5e3af16b1880000610563611a27670de0b6b3a76400008a613230565b671bc16d674ec80000612514565b90505f611a428383611172565b9998505050505050505050565b611a665f805160206154b7833981519152336123b1565b611a825760405162461bcd60e51b8152600401610e5e90614ee1565b611a8a6129ba565b611a9381612a90565b50565b60056020525f9081526040902080548190611ab090614ea9565b80601f0160208091040260200160405190810160405280929190818152602001828054611adc90614ea9565b8015611b275780601f10611afe57610100808354040283529160200191611b27565b820191905f5260205f20905b815481529060010190602001808311611b0a57829003601f168201915b505050505090806001018054611b3c90614ea9565b80601f0160208091040260200160405190810160405280929190818152602001828054611b6890614ea9565b8015611bb35780601f10611b8a57610100808354040283529160200191611bb3565b820191905f5260205f20905b815481529060010190602001808311611b9657829003601f168201915b5050505050905082565b5f5f805160206154028339815191526001600160a01b038316611bf5576040516322718ad960e21b81525f6004820152602401610e5e565b6001600160a01b039092165f908152600390920160205250604090205490565b611c1d612ed9565b6114285f61323e565b5f80611c328587611172565b90505f8315611c81575f611c4d66470de4df8200008661103c565b90505f611c61670de0b6b3a76400006119cd565b9050611c7884610563670de0b6b3a76400006119f2565b92505050611c84565b50805b5f611a356802b5e3af16b188000061056388671bc16d674ec80000612514565b6001546001600160a01b03163314611cfe5760405162461bcd60e51b815260206004820152601f60248201527f4572726f723a204a75737420666f72204d61726b6574206175746f2072756e006044820152606401610e5e565b801515600103611dad575f5b6007548110156110a857611d68600660078381548110611d2c57611d2c6151c6565b905f5260205f2001604051611d4191906151da565b908152602001604051809103902060040154611d6368014d1120d7b160000090565b6132ae565b600660078381548110611d7d57611d7d6151c6565b905f5260205f2001604051611d9291906151da565b90815260405190819003602001902060040155600101611d0a565b5f600683604051611dbe91906151bb565b908152604051908190036020019020600401555050565b611ddd612ed9565b6001600160a01b0385165f908152600560205260409020611dff8486836151e5565b506001600160a01b0385165f908152600560205260409020600101611e258284836151e5565b50600780546001810182555f919091527fa66cc928b5edb82af9bd49922954155ab7b0942694bea4ce44661d9a8736c68801611e628486836151e5565b50611e6f848484846132bc565b6706f05b59d3b2000060068585604051611e8a929190615299565b90815260405190819003602001902060050155611ea45f90565b60068585604051611eb6929190615299565b90815260405190819003602001902060020155611ed05f90565b60068585604051611ee2929190615299565b90815260405190819003602001902060030155611efc5f90565b60068585604051611f0e929190615299565b90815260405190819003602001902060010155611f285f90565b60068585604051611f3a929190615299565b908152604051908190036020019020600401555050505050565b611f886040518060c00160405280606081526020015f81526020015f81526020015f81526020015f81526020015f81525090565b600682604051611f9891906151bb565b90815260200160405180910390206040518060c00160405290815f82018054611fc090614ea9565b80601f0160208091040260200160405190810160405280929190818152602001828054611fec90614ea9565b80156120375780601f1061200e57610100808354040283529160200191612037565b820191905f5260205f20905b81548152906001019060200180831161201a57829003601f168201915b50505050508152602001600182015481526020016002820154815260200160038201548152602001600482015481526020016005820154815250509050919050565b7ff0c57e16840df040f15088dc2f81fe391c3923bec73e23a9662efc9c229c6a008054600160401b810460ff1615906001600160401b03165f811580156120bd5750825b90505f826001600160401b031660011480156120d85750303b155b9050811580156120e6575080155b156121045760405163f92ee8a960e01b815260040160405180910390fd5b845467ffffffffffffffff19166001178555831561212e57845460ff60401b1916600160401b1785555b6121816040518060400160405280601181526020017011da534b4d0b8c97d0d85c989bdb939195607a1b8152506040518060400160405280600881526020016711da534b50d3919560c21b8152506132eb565b6121896132fd565b6121923361330d565b61219a61331e565b6121a45f33612e21565b506121bc5f805160206154b783398151915233612e21565b505f60088190556402540be4006009558055604080516060810190915260358082526154226020830139600a906121f39082615021565b50831561223a57845460ff60401b19168555604051600181527fc7f505b2f371ae2175ee4913f4499e1f2633a7b5936321eed1cdaeb6115181d29060200160405180910390a15b5050505050565b612249612ed9565b611428613326565b5f61225e85858585611c26565b95945050505050565b6001545f906001600160a01b031633146122c35760405162461bcd60e51b815260206004820152601f60248201527f4572726f723a204a75737420666f72204d61726b6574206175746f2072756e006044820152606401610e5e565b5f6122d1878787878761245c565b9050806006896040516122e491906151bb565b908152604051908190036020019020600501558215156001036123545761232c60068960405161231491906151bb565b908152602001604051809103902060020154876132ae565b60068960405161233c91906151bb565b908152604051908190036020019020600201556123a3565b61237f60068960405161236791906151bb565b908152602001604051809103902060030154876132ae565b60068960405161238f91906151bb565b908152604051908190036020019020600301555b506001979650505050505050565b5f9182525f80516020615477833981519152602090815260408084206001600160a01b0393909316845291905290205460ff1690565b6123ef612ed9565b600955565b6123fc612ed9565b600180546001600160a01b0319166001600160a01b0392909216919091179055565b7f80bb2b638cc20bc4d0a60d66940f3ab4a00c1d7b313497ca82fb0b4ab007930180546060915f8051602061540283398151915291610f9090614ea9565b5f8115156001036124b8575f61247487878787612251565b90505f6124a3670de0b6b3a76400005b61249e670de0b6b3a76400006124998661171f565b612ec2565b613230565b90506124af86826132ae565b9250505061225e565b5f6124c587878787612507565b90505f6124d9670de0b6b3a7640000612484565b90506124af8682613230565b61103133838361336e565b6124fb8484846110ad565b6111308484848461341d565b5f61225e85858585611996565b5f611047838361353c565b606061252a82613644565b61258e5760405162461bcd60e51b815260206004820152602f60248201527f4552433732314d657461646174613a2055524920717565727920666f72206e6f60448201526e3732bc34b9ba32b73a103a37b5b2b760891b6064820152608401610e5e565b5f82815260046020526040902060060180546125a990614ea9565b80601f01602080910402602001604051908101604052809291908181526020018280546125d590614ea9565b80156126205780601f106125f757610100808354040283529160200191612620565b820191905f5260205f20905b81548152906001019060200180831161260357829003601f168201915b50505050509050919050565b612634612ed9565b600a6110318282615021565b61264982611136565b61265281612e17565b6111308383612f34565b60408051808201909152606080825260208201526001600160a01b0382165f908152600560205260409081902081518083019092528054829082906126a090614ea9565b80601f01602080910402602001604051908101604052809291908181526020018280546126cc90614ea9565b80156127175780601f106126ee57610100808354040283529160200191612717565b820191905f5260205f20905b8154815290600101906020018083116126fa57829003601f168201915b5050505050815260200160018201805461273090614ea9565b80601f016020809104026020016040519081016040528092919081815260200182805461275c90614ea9565b80156127a75780601f1061277e576101008083540402835291602001916127a7565b820191905f5260205f20905b81548152906001019060200180831161278a57829003601f168201915b5050505050815250509050919050565b6001600160a01b039182165f9081527f80bb2b638cc20bc4d0a60d66940f3ab4a00c1d7b313497ca82fb0b4ab00793056020908152604080832093909416825291909152205460ff1690565b61280b612ed9565b6001600160a01b03811661283457604051631e4fbdf760e01b81525f6004820152602401610e5e565b611a938161323e565b6128456129ba565b3361284f8461198c565b6001600160a01b0316148061287657506128765f805160206154b7833981519152336123b1565b6128d25760405162461bcd60e51b815260206004820152602760248201527f4572726f723a20757064617465206f6e6c79206279206f776e6572206f72207660448201526632b934b334b2b960c91b6064820152608401610e5e565b6110a88383836129ea565b5f6001600160e01b031982166380ac58cd60e01b148061290d57506001600160e01b03198216635b5e139f60e01b145b80610e0f57506301ffc9a760e01b6001600160e01b0319831614610e0f565b5f8061293783613660565b90506001600160a01b038116610e0f57604051637e27328960e01b815260048101849052602401610e5e565b5f9081527f80bb2b638cc20bc4d0a60d66940f3ab4a00c1d7b313497ca82fb0b4ab007930460205260409020546001600160a01b031690565b6110a88383836001613699565b5f6110476129b784846137ac565b90565b5f805160206154978339815191525460ff16156114285760405163d93c066560e01b815260040160405180910390fd5b5f8381526004602052604081206005015460ff1690816003811115612a1157612a11614973565b14612a2e5760405162461bcd60e51b8152600401610e5e906152a8565b5f848152600460209081526040918290206002810186905560030184905581518681529081018590529081018390527ff373c369127508af9b81af995828345d8630e8e4dc66e2d12c2b59217bcb3bcf9060600160405180910390a150505050565b5f81815260046020526040902060020154612af75760405162461bcd60e51b815260206004820152602160248201527f4572726f723a20636172626f6e20616d6f756e74206d757374207570706572206044820152600360fc1b6064820152608401610e5e565b5f8181526004602052604081206005015460ff1690816003811115612b1e57612b1e614973565b14612b3b5760405162461bcd60e51b8152600401610e5e906152a8565b600a604051602001612b4d91906152eb565b60408051601f198184030181529181525f84815260046020522060060190612b759082615021565b50612b8182600161385e565b5f8281526004602052604081206007810180546001600160a01b031916331790558054612bad90614ea9565b80601f0160208091040260200160405190810160405280929190818152602001828054612bd990614ea9565b8015612c245780601f10612bfb57610100808354040283529160200191612c24565b820191905f5260205f20905b815481529060010190602001808311612c0757829003601f168201915b505050505090505f600682604051612c3c91906151bb565b9081526020016040518091039020600101549050612c6e8160045f8781526020019081526020015f20600201546132ae565b905080600683604051612c8191906151bb565b9081526040805160209281900383018120600101939093555f878152600490925281206003015491600690612cb79086906151bb565b90815260200160405180910390206005015490505f612cf6612cdb83600b54612514565b610563670de0b6b3a764000061061d61084a600c548961103c565b5f97885260046020819052604090982090970196909655505050505050565b5f5f8051602061540283398151915281612d2e85613660565b90506001600160a01b03841615612d4a57612d4a8185876138c1565b6001600160a01b03811615612d8657612d655f865f80613699565b6001600160a01b0381165f908152600383016020526040902080545f190190555b6001600160a01b03861615612db6576001600160a01b0386165f9081526003830160205260409020805460010190555b5f85815260028301602052604080822080546001600160a01b0319166001600160a01b038a811691821790925591518893918516917fddf252ad1be2c89b69c2b068fc378daa952ba7f163c4a11628f55a4df523b3ef91a495945050505050565b611a938133613925565b5f5f80516020615477833981519152612e3a84846123b1565b612eb9575f848152602082815260408083206001600160a01b03871684529091529020805460ff19166001179055612e6f3390565b6001600160a01b0316836001600160a01b0316857f2f8788117e7eff1d82e926ec794901d17c78024a50270940304540a733656f0d60405160405180910390a46001915050610e0f565b5f915050610e0f565b5f6110476129b784670de0b6b3a76400008561395e565b33612f0b7f9016d09d72d40fdae2fd8ceac6b6234c7706214fd39c1cd1e609a0528c199300546001600160a01b031690565b6001600160a01b0316146114285760405163118cdaa760e01b8152336004820152602401610e5e565b5f5f80516020615477833981519152612f4d84846123b1565b15612eb9575f848152602082815260408083206001600160a01b0387168085529252808320805460ff1916905551339287917ff6391f5c32d9c69d2a47ea670b442974b53935d1edc7fd64eb21e047a839171b9190a46001915050610e0f565b611031828260405180602001604052805f815250613a2d565b612fce613a43565b5f80516020615497833981519152805460ff191681557f5db9ee0a495bf2e6ff9c91a7834c1ba4fdd244a5e8aa4e537bd38aeae4b073aa335b6040516001600160a01b03909116815260200160405180910390a150565b306001600160a01b037f00000000000000000000000000000000000000000000000000000000000000001614806130ab57507f00000000000000000000000000000000000000000000000000000000000000006001600160a01b031661309f5f80516020615457833981519152546001600160a01b031690565b6001600160a01b031614155b156114285760405163703e46dd60e11b815260040160405180910390fd5b611a93612ed9565b816001600160a01b03166352d1902d6040518163ffffffff1660e01b8152600401602060405180830381865afa92505050801561312b575060408051601f3d908101601f191682019092526131289181019061531c565b60015b61315357604051634c9c8ce360e01b81526001600160a01b0383166004820152602401610e5e565b5f80516020615457833981519152811461318357604051632a87526960e21b815260048101829052602401610e5e565b6110a88383613a72565b306001600160a01b037f000000000000000000000000000000000000000000000000000000000000000016146114285760405163703e46dd60e11b815260040160405180910390fd5b5f81680736ea4425c11ac63081111561320557604051630d7b1d6560e11b815260048101849052602401610e5e565b6714057b7ef767814f8102613228670de0b6b3a76400008204613ac7565b613ac7565b949350505050565b5f6110476129b7838561535b565b7f9016d09d72d40fdae2fd8ceac6b6234c7706214fd39c1cd1e609a0528c19930080546001600160a01b031981166001600160a01b03848116918217845560405192169182907f8be0079c531659141344cd1fd0a4f28419497f9722a3daafe3b4186f6b6457e0905f90a3505050565b5f6110476129b7838561536e565b8181600686866040516132d0929190615299565b9081526040519081900360200190209161223a9190836151e5565b6132f3613b1b565b6110318282613b64565b613305613b1b565b611428613b94565b613315613b1b565b611a9381613bb4565b611428613b1b565b61332e6129ba565b5f80516020615497833981519152805460ff191660011781557f62e78cea01bee320cd4e420270b5ea74000d11b0c9f74754ebdbfc544b05a25833613007565b5f805160206154028339815191526001600160a01b0383166133ae57604051630b61174360e31b81526001600160a01b0384166004820152602401610e5e565b6001600160a01b038481165f818152600584016020908152604080832094881680845294825291829020805460ff191687151590811790915591519182527f17307eab39ab6107e8899845ad3d59bd9653f200f220920489ca2b5937696c31910160405180910390a350505050565b6001600160a01b0383163b1561113057604051630a85bd0160e11b81526001600160a01b0384169063150b7a029061345f903390889087908790600401615381565b6020604051808303815f875af1925050508015613499575060408051601f3d908101601f19168201909252613496918101906153b3565b60015b613500573d8080156134c6576040519150601f19603f3d011682016040523d82523d5f602084013e6134cb565b606091505b5080515f036134f857604051633250574960e11b81526001600160a01b0385166004820152602401610e5e565b805181602001fd5b6001600160e01b03198116630a85bd0160e11b1461223a57604051633250574960e11b81526001600160a01b0385166004820152602401610e5e565b5f8282818303613565578015613552575f61355c565b670de0b6b3a76400005b92505050610e0f565b670de0b6b3a7640000820361358657670de0b6b3a764000092505050610e0f565b805f0361359f57670de0b6b3a764000092505050610e0f565b670de0b6b3a764000081036135b8578492505050610e0f565b670de0b6b3a76400008211156135e4576135dd6132236135d787613bbc565b866129a9565b925061363c565b5f6136016129b7846ec097ce7bc90715b34b9f10000000006153ce565b90505f61361961322361361384613bbc565b886129a9565b90506136376129b7826ec097ce7bc90715b34b9f10000000006153ce565b945050505b505092915050565b5f8061364f83613660565b6001600160a01b0316141592915050565b5f9081527f80bb2b638cc20bc4d0a60d66940f3ab4a00c1d7b313497ca82fb0b4ab007930260205260409020546001600160a01b031690565b5f8051602061540283398151915281806136bb57506001600160a01b03831615155b1561377c575f6136ca8561292c565b90506001600160a01b038416158015906136f65750836001600160a01b0316816001600160a01b031614155b8015613709575061370781856127b7565b155b156137325760405163a9fbf51f60e01b81526001600160a01b0385166004820152602401610e5e565b821561377a5784866001600160a01b0316826001600160a01b03167f8c5be1e5ebec7d5bd14f71427d1e84f3dd0314c0f7b2291e5b200ac8c7c3b92560405160405180910390a45b505b5f93845260040160205250506040902080546001600160a01b0319166001600160a01b0392909216919091179055565b5f80805f19848609848602925082811083820303915050805f036137dd5750670de0b6b3a764000090049050610e0f565b670de0b6b3a7640000811061380f57604051635173648d60e01b81526004810186905260248101859052604401610e5e565b5f670de0b6b3a764000085870962040000818503049310909103600160ee1b02919091177faccb18165bd6fe31ae1cf318dc5b51eee0e1ba569b88cd74c1773b91fac106690291505092915050565b5f828152600460205260409020600501805482919060ff1916600183600381111561388b5761388b614973565b02179055507f6b37d5b7add9d663ee345fac5b2a9c71628936e80a7d3483dd02fb7d4677385b82826040516113479291906153ed565b6138cc838383613cef565b6110a8576001600160a01b0383166138fa57604051637e27328960e01b815260048101829052602401610e5e565b60405163177e802f60e01b81526001600160a01b038316600482015260248101829052604401610e5e565b61392f82826123b1565b6110315760405163e2517d3f60e01b81526001600160a01b038216600482015260248101839052604401610e5e565b5f80805f19858709858702925082811083820303915050805f036139955783828161398b5761398b615333565b0492505050611047565b8381106139c657604051630c740aef60e31b8152600481018790526024810186905260448101859052606401610e5e565b5f8486880960026001871981018816978890046003810283188082028403028082028403028082028403028082028403028082028403029081029092039091025f889003889004909101858311909403939093029303949094049190911702949350505050565b613a378383613d53565b6110a85f84848461341d565b5f805160206154978339815191525460ff1661142857604051638dfc202b60e01b815260040160405180910390fd5b613a7b82613db4565b6040516001600160a01b038316907fbc7cd75a20ee27fd9adebab32041f755214dbc6bffa90cc0225b39da2e5c2d3b905f90a2805115613abf576110a88282613e17565b611031613e80565b5f81680a688906bd8affffff811115613af65760405163b3b6ba1f60e01b815260048101849052602401610e5e565b5f613b0d670de0b6b3a7640000604084901b6153ce565b90506132286129b782613e9f565b7ff0c57e16840df040f15088dc2f81fe391c3923bec73e23a9662efc9c229c6a0054600160401b900460ff1661142857604051631afcd79f60e31b815260040160405180910390fd5b613b6c613b1b565b5f8051602061540283398151915280613b858482615021565b50600181016111308382615021565b613b9c613b1b565b5f80516020615497833981519152805460ff19169055565b61280b613b1b565b5f81670de0b6b3a7640000811015613bea5760405163036d32ef60e41b815260048101849052602401610e5e565b5f613c74670de0b6b3a7640000830460016fffffffffffffffffffffffffffffffff821160071b91821c6001600160401b03811160061b90811c63ffffffff811160051b90811c61ffff811160041b90811c60ff8111600390811b91821c600f811160021b90811c918211871b91821c969096119490961792909217171791909117919091171790565b9050670de0b6b3a7640000810282821c670de0b6b3a763ffff198101613ca057815b9695505050505050565b671bc16d674ec800006706f05b59d3b200005b8015613ce357670de0b6b3a7640000838002049250818310613cdb579283019260019290921c915b60011c613cb3565b50919695505050505050565b5f6001600160a01b038316158015906132285750826001600160a01b0316846001600160a01b03161480613d285750613d2884846127b7565b806132285750826001600160a01b0316613d4183612963565b6001600160a01b031614949350505050565b6001600160a01b038216613d7c57604051633250574960e11b81525f6004820152602401610e5e565b5f613d8883835f612d15565b90506001600160a01b038116156110a8576040516339e3563760e11b81525f6004820152602401610e5e565b806001600160a01b03163b5f03613de957604051634c9c8ce360e01b81526001600160a01b0382166004820152602401610e5e565b5f8051602061545783398151915280546001600160a01b0319166001600160a01b0392909216919091179055565b60605f80846001600160a01b031684604051613e3391906151bb565b5f60405180830381855af49150503d805f8114613e6b576040519150601f19603f3d011682016040523d82523d5f602084013e613e70565b606091505b509150915061225e8583836145ff565b34156114285760405163b398979f60e01b815260040160405180910390fd5b600160bf1b67ff00000000000000821615613fac57678000000000000000821615613ed35768016a09e667f3bcc9090260401c5b674000000000000000821615613ef2576801306fe0a31b7152df0260401c5b672000000000000000821615613f11576801172b83c7d517adce0260401c5b671000000000000000821615613f305768010b5586cf9890f62a0260401c5b670800000000000000821615613f4f576801059b0d31585743ae0260401c5b670400000000000000821615613f6e57680102c9a3e778060ee70260401c5b670200000000000000821615613f8d5768010163da9fb33356d80260401c5b670100000000000000821615613fac57680100b1afa5abcbed610260401c5b66ff0000000000008216156140ab576680000000000000821615613fd95768010058c86da1c09ea20260401c5b6640000000000000821615613ff7576801002c605e2e8cec500260401c5b662000000000000082161561401557680100162f3904051fa10260401c5b6610000000000000821615614033576801000b175effdc76ba0260401c5b660800000000000082161561405157680100058ba01fb9f96d0260401c5b660400000000000082161561406f5768010002c5cc37da94920260401c5b660200000000000082161561408d576801000162e525ee05470260401c5b66010000000000008216156140ab5768010000b17255775c040260401c5b65ff00000000008216156141a157658000000000008216156140d6576801000058b91b5bc9ae0260401c5b654000000000008216156140f357680100002c5c89d5ec6d0260401c5b652000000000008216156141105768010000162e43f4f8310260401c5b6510000000000082161561412d57680100000b1721bcfc9a0260401c5b6508000000000082161561414a5768010000058b90cf1e6e0260401c5b65040000000000821615614167576801000002c5c863b73f0260401c5b6502000000000082161561418457680100000162e430e5a20260401c5b650100000000008216156141a1576801000000b1721835510260401c5b64ff0000000082161561428e576480000000008216156141ca57680100000058b90c0b490260401c5b6440000000008216156141e65768010000002c5c8601cc0260401c5b642000000000821615614202576801000000162e42fff00260401c5b64100000000082161561421e5768010000000b17217fbb0260401c5b64080000000082161561423a576801000000058b90bfce0260401c5b64040000000082161561425657680100000002c5c85fe30260401c5b6402000000008216156142725768010000000162e42ff10260401c5b64010000000082161561428e57680100000000b17217f80260401c5b63ff0000008216156143725763800000008216156142b55768010000000058b90bfc0260401c5b63400000008216156142d0576801000000002c5c85fe0260401c5b63200000008216156142eb57680100000000162e42ff0260401c5b6310000000821615614306576801000000000b17217f0260401c5b630800000082161561432157680100000000058b90c00260401c5b630400000082161561433c5768010000000002c5c8600260401c5b6302000000821615614357576801000000000162e4300260401c5b63010000008216156143725768010000000000b172180260401c5b62ff000082161561444d5762800000821615614397576801000000000058b90c0260401c5b624000008216156143b157680100000000002c5c860260401c5b622000008216156143cb5768010000000000162e430260401c5b621000008216156143e557680100000000000b17210260401c5b620800008216156143ff5768010000000000058b910260401c5b62040000821615614419576801000000000002c5c80260401c5b6202000082161561443357680100000000000162e40260401c5b6201000082161561444d576801000000000000b1720260401c5b61ff0082161561451f5761800082161561447057680100000000000058b90260401c5b6140008216156144895768010000000000002c5d0260401c5b6120008216156144a2576801000000000000162e0260401c5b6110008216156144bb5768010000000000000b170260401c5b6108008216156144d4576801000000000000058c0260401c5b6104008216156144ed57680100000000000002c60260401c5b61020082161561450657680100000000000001630260401c5b61010082161561451f57680100000000000000b10260401c5b60ff8216156145e857608082161561454057680100000000000000590260401c5b6040821615614558576801000000000000002c0260401c5b602082161561457057680100000000000000160260401c5b6010821615614588576801000000000000000b0260401c5b60088216156145a057680100000000000000060260401c5b60048216156145b857680100000000000000030260401c5b60028216156145d057680100000000000000010260401c5b60018216156145e857680100000000000000010260401c5b670de0b6b3a76400000260409190911c60bf031c90565b6060826146145761460f8261465b565b611047565b815115801561462b57506001600160a01b0384163b155b1561465457604051639996b31560e01b81526001600160a01b0385166004820152602401610e5e565b5080611047565b80511561466b5780518082602001fd5b604051630a12f52160e11b815260040160405180910390fd5b60405180610100016040528060608152602001606081526020015f81526020015f81526020015f81526020015f60038111156146c2576146c2614973565b8152606060208201525f60409091015290565b6001600160e01b031981168114611a93575f80fd5b5f602082840312156146fa575f80fd5b8135611047816146d5565b5f8060408385031215614716575f80fd5b50508035926020909101359150565b5f81518084528060208401602086015e5f602082860101526020601f19601f83011685010191505092915050565b602081525f6110476020830184614725565b5f60208284031215614775575f80fd5b5035919050565b80356001600160a01b0381168114614792575f80fd5b919050565b5f80604083850312156147a8575f80fd5b6147b18361477c565b946020939093013593505050565b5f805f606084860312156147d1575f80fd5b6147da8461477c565b95602085013595506040909401359392505050565b5f805f60608486031215614801575f80fd5b61480a8461477c565b92506148186020850161477c565b9150604084013590509250925092565b5f8060408385031215614839575f80fd5b823591506148496020840161477c565b90509250929050565b5f60208284031215614862575f80fd5b6110478261477c565b634e487b7160e01b5f52604160045260245ffd5b5f82601f83011261488e575f80fd5b81356001600160401b03808211156148a8576148a861486b565b604051601f8301601f19908116603f011681019082821181831017156148d0576148d061486b565b816040528381528660208588010111156148e8575f80fd5b836020870160208301375f602085830101528094505050505092915050565b5f60208284031215614917575f80fd5b81356001600160401b0381111561492c575f80fd5b6132288482850161487f565b60c081525f61494a60c0830189614725565b60208301979097525060408101949094526060840192909252608083015260a090910152919050565b634e487b7160e01b5f52602160045260245ffd5b600481106149a357634e487b7160e01b5f52602160045260245ffd5b9052565b5f6101008083526149ba8184018c614725565b905082810360208401526149ce818b614725565b90508860408401528760608401528660808401526149ef60a0840187614987565b82810360c0840152614a018186614725565b91505060018060a01b03831660e08301529998505050505050505050565b5f8060408385031215614a30575f80fd5b614a398361477c565b915060208301356001600160401b03811115614a53575f80fd5b614a5f8582860161487f565b9150509250929050565b60208101610e0f8284614987565b602081525f8251610100806020850152614a95610120850183614725565b91506020850151601f1980868503016040870152614ab38483614725565b93506040870151606087015260608701516080870152608087015160a087015260a08701519150614ae760c0870183614987565b60c08701519150808685030160e087015250614b038382614725565b92505060e0850151614b1f828601826001600160a01b03169052565b5090949350505050565b5f805f8060808587031215614b3c575f80fd5b5050823594602084013594506040840135936060013592509050565b604081525f614b6a6040830185614725565b828103602084015261225e8185614725565b80358015158114614792575f80fd5b5f8060408385031215614b9c575f80fd5b82356001600160401b03811115614bb1575f80fd5b614bbd8582860161487f565b92505061484960208401614b7c565b5f8083601f840112614bdc575f80fd5b5081356001600160401b03811115614bf2575f80fd5b602083019150836020828501011115614c09575f80fd5b9250929050565b5f805f805f60608688031215614c24575f80fd5b614c2d8661477c565b945060208601356001600160401b0380821115614c48575f80fd5b614c5489838a01614bcc565b90965094506040880135915080821115614c6c575f80fd5b50614c7988828901614bcc565b969995985093965092949392505050565b602081525f825160c06020840152614ca560e0840182614725565b9050602084015160408401526040840151606084015260608401516080840152608084015160a084015260a084015160c08401528091505092915050565b5f805f805f8060c08789031215614cf8575f80fd5b86356001600160401b03811115614d0d575f80fd5b614d1989828a0161487f565b96505060208701359450604087013593506060870135925060808701359150614d4460a08801614b7c565b90509295509295509295565b5f805f805f60a08688031215614d64575f80fd5b85359450602086013593506040860135925060608601359150614d8960808701614b7c565b90509295509295909350565b5f8060408385031215614da6575f80fd5b614daf8361477c565b915061484960208401614b7c565b5f805f8060808587031215614dd0575f80fd5b614dd98561477c565b9350614de76020860161477c565b92506040850135915060608501356001600160401b03811115614e08575f80fd5b614e148782880161487f565b91505092959194509250565b602081525f825160406020840152614e3b6060840182614725565b90506020840151601f1984830301604085015261225e8282614725565b5f8060408385031215614e69575f80fd5b614e728361477c565b91506148496020840161477c565b5f805f60608486031215614e92575f80fd5b505081359360208301359350604090920135919050565b600181811c90821680614ebd57607f821691505b602082108103614edb57634e487b7160e01b5f52602260045260245ffd5b50919050565b60208082526021908201527f4572726f723a2063616c6c6572206973206e6f742074686520766572696669656040820152603960f91b606082015260800190565b5f8154614f2e81614ea9565b60018281168015614f465760018114614f5b57614f87565b60ff1984168752821515830287019450614f87565b855f526020805f205f5b85811015614f7e5781548a820152908401908201614f65565b50505082870194505b5050505092915050565b5f614f9c8284614f22565b7f2f636172626f6e4e46545f6e6f745665726966792e6a736f6e0000000000000081526019019392505050565b601f8211156110a857805f5260205f20601f840160051c81016020851015614fee5750805b601f840160051c820191505b8181101561223a575f8155600101614ffa565b5f19600383901b1c191660019190911b1790565b81516001600160401b0381111561503a5761503a61486b565b61504e816150488454614ea9565b84614fc9565b602080601f83116001811461507c575f841561506a5750858301515b615074858261500d565b8655506150d3565b5f85815260208120601f198616915b828110156150aa5788860151825594840194600190910190840161508b565b50858210156150c757878501515f19600388901b60f8161c191681555b505060018460011b0185555b505050505050565b8181036150e6575050565b6150f08254614ea9565b6001600160401b038111156151075761510761486b565b615115816150488454614ea9565b5f601f821160018114615141575f831561512f5750848201545b615139848261500d565b85555061223a565b5f8581526020808220868352908220601f198616925b838110156151775782860154825560019586019590910190602001615157565b508583101561519457818501545f19600388901b60f8161c191681555b5050505050600190811b01905550565b5f81518060208401855e5f93019283525090919050565b5f61104782846151a4565b634e487b7160e01b5f52603260045260245ffd5b5f6110478284614f22565b6001600160401b038311156151fc576151fc61486b565b6152108361520a8354614ea9565b83614fc9565b5f601f84116001811461523c575f851561522a5750838201355b615234868261500d565b84555061223a565b5f83815260208120601f198716915b8281101561526b578685013582556020948501946001909201910161524b565b5086821015615287575f1960f88860031b161c19848701351681555b505060018560011b0183555050505050565b818382375f9101908152919050565b60208082526023908201527f4572726f723a2074686973206e667420697320616c72656164792076657269666040820152621a595960ea1b606082015260800190565b5f6152f68284614f22565b7517b1b0b93137b727232a2fab32b934b33c973539b7b760511b81526016019392505050565b5f6020828403121561532c575f80fd5b5051919050565b634e487b7160e01b5f52601260045260245ffd5b634e487b7160e01b5f52601160045260245ffd5b81810381811115610e0f57610e0f615347565b80820180821115610e0f57610e0f615347565b6001600160a01b03858116825284166020820152604081018390526080606082018190525f90613c9690830184614725565b5f602082840312156153c3575f80fd5b8151611047816146d5565b5f826153e857634e487b7160e01b5f52601260045260245ffd5b500490565b82815260408101611047602083018461498756fe80bb2b638cc20bc4d0a60d66940f3ab4a00c1d7b313497ca82fb0b4ab0079300697066733a2f2f516d546b724c414848555678346b5853737a7743724850634b554275736a4279567662736e596e37683164334837360894a13ba1a3210667c828492db98dca3e2076cc3735a920a3ca505d382bbc02dd7bc7dec4dceedda775e58dd541e08a116c6c53815c0bd028192f7b626800cd5ed15c6e187e77e9aee88184c21f4f2182ab5827cb3b7e07fbedcd63f033000ce23c3e399818cfee81a7ab0880f714e53d7672b08df0fa62f2843416e1ea09a2646970667358221220482f8885ebaded313ed9bdb1c08802f6a6407893514844e64c43cad62e4a49d764736f6c63430008190033697066733a2f2f516d546b724c414848555678346b5853737a7743724850634b554275736a4279567662736e596e37683164334837",
			"opcodes": "PUSH1 0xA0 PUSH1 0x40 MSTORE ADDRESS PUSH1 0x80 MSTORE PUSH8 0x6F05B59D3B20000 PUSH1 0xB SSTORE PUSH8 0xDE0B6B3A7640000 PUSH1 0xC SSTORE CALLVALUE DUP1 ISZERO PUSH2 0x2B JUMPI PUSH0 DUP1 REVERT JUMPDEST POP PUSH2 0x34 PUSH2 0x39 JUMP JUMPDEST PUSH2 0x5FC JUMP JUMPDEST PUSH32 0xF0C57E16840DF040F15088DC2F81FE391C3923BEC73E23A9662EFC9C229C6A00 DUP1 SLOAD PUSH9 0x10000000000000000 DUP2 DIV PUSH1 0xFF AND ISZERO SWAP1 PUSH1 0x1 PUSH1 0x1 PUSH1 0x40 SHL SUB AND PUSH0 DUP2 ISZERO DUP1 ISZERO PUSH2 0x82 JUMPI POP DUP3 JUMPDEST SWAP1 POP PUSH0 DUP3 PUSH1 0x1 PUSH1 0x1 PUSH1 0x40 SHL SUB AND PUSH1 0x1 EQ DUP1 ISZERO PUSH2 0x9D JUMPI POP ADDRESS EXTCODESIZE ISZERO JUMPDEST SWAP1 POP DUP2 ISZERO DUP1 ISZERO PUSH2 0xAB JUMPI POP DUP1 ISZERO JUMPDEST ISZERO PUSH2 0xC9 JUMPI PUSH1 0x40 MLOAD PUSH4 0xF92EE8A9 PUSH1 0xE0 SHL DUP2 MSTORE PUSH1 0x4 ADD PUSH1 0x40 MLOAD DUP1 SWAP2 SUB SWAP1 REVERT JUMPDEST DUP5 SLOAD PUSH1 0x1 PUSH1 0x1 PUSH1 0x40 SHL SUB NOT AND PUSH1 0x1 OR DUP6 SSTORE DUP4 ISZERO PUSH2 0xF7 JUMPI DUP5 SLOAD PUSH1 0xFF PUSH1 0x40 SHL NOT AND PUSH9 0x10000000000000000 OR DUP6 SSTORE JUMPDEST PUSH2 0x150 PUSH1 0x40 MLOAD DUP1 PUSH1 0x40 ADD PUSH1 0x40 MSTORE DUP1 PUSH1 0x11 DUP2 MSTORE PUSH1 0x20 ADD PUSH17 0x11DA534B4D0B8C97D0D85C989BDB939195 PUSH1 0x7A SHL DUP2 MSTORE POP PUSH1 0x40 MLOAD DUP1 PUSH1 0x40 ADD PUSH1 0x40 MSTORE DUP1 PUSH1 0x8 DUP2 MSTORE PUSH1 0x20 ADD PUSH8 0x11DA534B50D39195 PUSH1 0xC2 SHL DUP2 MSTORE POP PUSH2 0x223 PUSH1 0x20 SHL PUSH1 0x20 SHR JUMP JUMPDEST PUSH2 0x158 PUSH2 0x239 JUMP JUMPDEST PUSH2 0x161 CALLER PUSH2 0x24B JUMP JUMPDEST PUSH2 0x169 PUSH2 0x25F JUMP JUMPDEST PUSH2 0x173 PUSH0 CALLER PUSH2 0x267 JUMP JUMPDEST POP PUSH2 0x19E PUSH32 0xCE23C3E399818CFEE81A7AB0880F714E53D7672B08DF0FA62F2843416E1EA09 CALLER PUSH2 0x267 JUMP JUMPDEST POP PUSH0 PUSH1 0x8 DUP2 SWAP1 SSTORE PUSH5 0x2540BE400 PUSH1 0x9 SSTORE DUP1 SSTORE PUSH1 0x40 DUP1 MLOAD PUSH1 0x60 DUP2 ADD SWAP1 SWAP2 MSTORE PUSH1 0x35 DUP1 DUP3 MSTORE PUSH2 0x5B2E PUSH1 0x20 DUP4 ADD CODECOPY PUSH1 0xA SWAP1 PUSH2 0x1D5 SWAP1 DUP3 PUSH2 0x53D JUMP JUMPDEST POP DUP4 ISZERO PUSH2 0x21C JUMPI DUP5 SLOAD PUSH1 0xFF PUSH1 0x40 SHL NOT AND DUP6 SSTORE PUSH1 0x40 MLOAD PUSH1 0x1 DUP2 MSTORE PUSH32 0xC7F505B2F371AE2175EE4913F4499E1F2633A7B5936321EED1CDAEB6115181D2 SWAP1 PUSH1 0x20 ADD PUSH1 0x40 MLOAD DUP1 SWAP2 SUB SWAP1 LOG1 JUMPDEST POP POP POP POP POP JUMP JUMPDEST PUSH2 0x22B PUSH2 0x335 JUMP JUMPDEST PUSH2 0x235 DUP3 DUP3 PUSH2 0x383 JUMP JUMPDEST POP POP JUMP JUMPDEST PUSH2 0x241 PUSH2 0x335 JUMP JUMPDEST PUSH2 0x249 PUSH2 0x3CC JUMP JUMPDEST JUMP JUMPDEST PUSH2 0x253 PUSH2 0x335 JUMP JUMPDEST PUSH2 0x25C DUP2 PUSH2 0x3FF JUMP JUMPDEST POP JUMP JUMPDEST PUSH2 0x249 PUSH2 0x335 JUMP JUMPDEST PUSH0 DUP3 DUP2 MSTORE PUSH32 0x2DD7BC7DEC4DCEEDDA775E58DD541E08A116C6C53815C0BD028192F7B626800 PUSH1 0x20 DUP2 DUP2 MSTORE PUSH1 0x40 DUP1 DUP5 KECCAK256 PUSH1 0x1 PUSH1 0x1 PUSH1 0xA0 SHL SUB DUP7 AND DUP6 MSTORE SWAP1 SWAP2 MSTORE DUP3 KECCAK256 SLOAD PUSH1 0xFF AND PUSH2 0x32A JUMPI PUSH0 DUP5 DUP2 MSTORE PUSH1 0x20 DUP3 DUP2 MSTORE PUSH1 0x40 DUP1 DUP4 KECCAK256 PUSH1 0x1 PUSH1 0x1 PUSH1 0xA0 SHL SUB DUP8 AND DUP5 MSTORE SWAP1 SWAP2 MSTORE SWAP1 KECCAK256 DUP1 SLOAD PUSH1 0xFF NOT AND PUSH1 0x1 OR SWAP1 SSTORE PUSH2 0x2E0 CALLER SWAP1 JUMP JUMPDEST PUSH1 0x1 PUSH1 0x1 PUSH1 0xA0 SHL SUB AND DUP4 PUSH1 0x1 PUSH1 0x1 PUSH1 0xA0 SHL SUB AND DUP6 PUSH32 0x2F8788117E7EFF1D82E926EC794901D17C78024A50270940304540A733656F0D PUSH1 0x40 MLOAD PUSH1 0x40 MLOAD DUP1 SWAP2 SUB SWAP1 LOG4 PUSH1 0x1 SWAP2 POP POP PUSH2 0x32F JUMP JUMPDEST PUSH0 SWAP2 POP POP JUMPDEST SWAP3 SWAP2 POP POP JUMP JUMPDEST PUSH32 0xF0C57E16840DF040F15088DC2F81FE391C3923BEC73E23A9662EFC9C229C6A00 SLOAD PUSH9 0x10000000000000000 SWAP1 DIV PUSH1 0xFF AND PUSH2 0x249 JUMPI PUSH1 0x40 MLOAD PUSH4 0x1AFCD79F PUSH1 0xE3 SHL DUP2 MSTORE PUSH1 0x4 ADD PUSH1 0x40 MLOAD DUP1 SWAP2 SUB SWAP1 REVERT JUMPDEST PUSH2 0x38B PUSH2 0x335 JUMP JUMPDEST PUSH32 0x80BB2B638CC20BC4D0A60D66940F3AB4A00C1D7B313497CA82FB0B4AB0079300 DUP1 PUSH2 0x3B7 DUP5 DUP3 PUSH2 0x53D JUMP JUMPDEST POP PUSH1 0x1 DUP2 ADD PUSH2 0x3C6 DUP4 DUP3 PUSH2 0x53D JUMP JUMPDEST POP POP POP POP JUMP JUMPDEST PUSH2 0x3D4 PUSH2 0x335 JUMP JUMPDEST PUSH32 0xCD5ED15C6E187E77E9AEE88184C21F4F2182AB5827CB3B7E07FBEDCD63F03300 DUP1 SLOAD PUSH1 0xFF NOT AND SWAP1 SSTORE JUMP JUMPDEST PUSH2 0x407 PUSH2 0x335 JUMP JUMPDEST PUSH1 0x1 PUSH1 0x1 PUSH1 0xA0 SHL SUB DUP2 AND PUSH2 0x434 JUMPI PUSH1 0x40 MLOAD PUSH4 0x1E4FBDF7 PUSH1 0xE0 SHL DUP2 MSTORE PUSH0 PUSH1 0x4 DUP3 ADD MSTORE PUSH1 0x24 ADD PUSH1 0x40 MLOAD DUP1 SWAP2 SUB SWAP1 REVERT JUMPDEST PUSH2 0x25C DUP2 PUSH32 0x9016D09D72D40FDAE2FD8CEAC6B6234C7706214FD39C1CD1E609A0528C199300 DUP1 SLOAD PUSH1 0x1 PUSH1 0x1 PUSH1 0xA0 SHL SUB NOT DUP2 AND PUSH1 0x1 PUSH1 0x1 PUSH1 0xA0 SHL SUB DUP5 DUP2 AND SWAP2 DUP3 OR DUP5 SSTORE PUSH1 0x40 MLOAD SWAP3 AND SWAP2 DUP3 SWAP1 PUSH32 0x8BE0079C531659141344CD1FD0A4F28419497F9722A3DAAFE3B4186F6B6457E0 SWAP1 PUSH0 SWAP1 LOG3 POP POP POP JUMP JUMPDEST PUSH4 0x4E487B71 PUSH1 0xE0 SHL PUSH0 MSTORE PUSH1 0x41 PUSH1 0x4 MSTORE PUSH1 0x24 PUSH0 REVERT JUMPDEST PUSH1 0x1 DUP2 DUP2 SHR SWAP1 DUP3 AND DUP1 PUSH2 0x4D0 JUMPI PUSH1 0x7F DUP3 AND SWAP2 POP JUMPDEST PUSH1 0x20 DUP3 LT DUP2 SUB PUSH2 0x4EE JUMPI PUSH4 0x4E487B71 PUSH1 0xE0 SHL PUSH0 MSTORE PUSH1 0x22 PUSH1 0x4 MSTORE PUSH1 0x24 PUSH0 REVERT JUMPDEST POP SWAP2 SWAP1 POP JUMP JUMPDEST PUSH1 0x1F DUP3 GT ISZERO PUSH2 0x538 JUMPI DUP1 PUSH0 MSTORE PUSH1 0x20 PUSH0 KECCAK256 PUSH1 0x1F DUP5 ADD PUSH1 0x5 SHR DUP2 ADD PUSH1 0x20 DUP6 LT ISZERO PUSH2 0x519 JUMPI POP DUP1 JUMPDEST PUSH1 0x1F DUP5 ADD PUSH1 0x5 SHR DUP3 ADD SWAP2 POP JUMPDEST DUP2 DUP2 LT ISZERO PUSH2 0x21C JUMPI PUSH0 DUP2 SSTORE PUSH1 0x1 ADD PUSH2 0x525 JUMP JUMPDEST POP POP POP JUMP JUMPDEST DUP2 MLOAD PUSH1 0x1 PUSH1 0x1 PUSH1 0x40 SHL SUB DUP2 GT ISZERO PUSH2 0x556 JUMPI PUSH2 0x556 PUSH2 0x4A8 JUMP JUMPDEST PUSH2 0x56A DUP2 PUSH2 0x564 DUP5 SLOAD PUSH2 0x4BC JUMP JUMPDEST DUP5 PUSH2 0x4F4 JUMP JUMPDEST PUSH1 0x20 DUP1 PUSH1 0x1F DUP4 GT PUSH1 0x1 DUP2 EQ PUSH2 0x59D JUMPI PUSH0 DUP5 ISZERO PUSH2 0x586 JUMPI POP DUP6 DUP4 ADD MLOAD JUMPDEST PUSH0 NOT PUSH1 0x3 DUP7 SWAP1 SHL SHR NOT AND PUSH1 0x1 DUP6 SWAP1 SHL OR DUP6 SSTORE PUSH2 0x5F4 JUMP JUMPDEST PUSH0 DUP6 DUP2 MSTORE PUSH1 0x20 DUP2 KECCAK256 PUSH1 0x1F NOT DUP7 AND SWAP2 JUMPDEST DUP3 DUP2 LT ISZERO PUSH2 0x5CB JUMPI DUP9 DUP7 ADD MLOAD DUP3 SSTORE SWAP5 DUP5 ADD SWAP5 PUSH1 0x1 SWAP1 SWAP2 ADD SWAP1 DUP5 ADD PUSH2 0x5AC JUMP JUMPDEST POP DUP6 DUP3 LT ISZERO PUSH2 0x5E8 JUMPI DUP8 DUP6 ADD MLOAD PUSH0 NOT PUSH1 0x3 DUP9 SWAP1 SHL PUSH1 0xF8 AND SHR NOT AND DUP2 SSTORE JUMPDEST POP POP PUSH1 0x1 DUP5 PUSH1 0x1 SHL ADD DUP6 SSTORE JUMPDEST POP POP POP POP POP POP JUMP JUMPDEST PUSH1 0x80 MLOAD PUSH2 0x550C PUSH2 0x622 PUSH0 CODECOPY PUSH0 DUP2 DUP2 PUSH2 0x3030 ADD MSTORE DUP2 DUP2 PUSH2 0x3059 ADD MSTORE PUSH2 0x3198 ADD MSTORE PUSH2 0x550C PUSH0 RETURN INVALID PUSH1 0x80 PUSH1 0x40 MSTORE PUSH1 0x4 CALLDATASIZE LT PUSH2 0x437 JUMPI PUSH0 CALLDATALOAD PUSH1 0xE0 SHR DUP1 PUSH4 0x6AD2EADC GT PUSH2 0x22B JUMPI DUP1 PUSH4 0x9446D19D GT PUSH2 0x129 JUMPI DUP1 PUSH4 0xC04F01FC GT PUSH2 0xB3 JUMPI DUP1 PUSH4 0xE7705DB6 GT PUSH2 0x78 JUMPI DUP1 PUSH4 0xE7705DB6 EQ PUSH2 0xD40 JUMPI DUP1 PUSH4 0xE985E9C5 EQ PUSH2 0xD60 JUMPI DUP1 PUSH4 0xF2FDE38B EQ PUSH2 0xD7F JUMPI DUP1 PUSH4 0xF5C296BD EQ PUSH2 0xD9E JUMPI DUP1 PUSH4 0xFFA1AD74 EQ PUSH2 0xDBD JUMPI PUSH0 DUP1 REVERT JUMPDEST DUP1 PUSH4 0xC04F01FC EQ PUSH2 0xC98 JUMPI DUP1 PUSH4 0xC87B56DD EQ PUSH2 0xCB7 JUMPI DUP1 PUSH4 0xCD5F6682 EQ PUSH2 0xCD6 JUMPI DUP1 PUSH4 0xD547741F EQ PUSH2 0xCF5 JUMPI DUP1 PUSH4 0xD6F343C5 EQ PUSH2 0xD14 JUMPI PUSH0 DUP1 REVERT JUMPDEST DUP1 PUSH4 0xA217FDDF GT PUSH2 0xF9 JUMPI DUP1 PUSH4 0xA217FDDF EQ PUSH2 0xBF8 JUMPI DUP1 PUSH4 0xA22CB465 EQ PUSH2 0xC0B JUMPI DUP1 PUSH4 0xAD3CB1CC EQ PUSH2 0xC2A JUMPI DUP1 PUSH4 0xB88D4FDE EQ PUSH2 0xC5A JUMPI DUP1 PUSH4 0xBFA1C17E EQ PUSH2 0xC79 JUMPI PUSH0 DUP1 REVERT JUMPDEST DUP1 PUSH4 0x9446D19D EQ PUSH2 0xB87 JUMPI DUP1 PUSH4 0x944F28B8 EQ PUSH2 0xBA6 JUMPI DUP1 PUSH4 0x95D89B41 EQ PUSH2 0xBC5 JUMPI DUP1 PUSH4 0x9D0CCE83 EQ PUSH2 0xBD9 JUMPI PUSH0 DUP1 REVERT JUMPDEST DUP1 PUSH4 0x7A2C3048 GT PUSH2 0x1B5 JUMPI DUP1 PUSH4 0x8456CB59 GT PUSH2 0x17A JUMPI DUP1 PUSH4 0x8456CB59 EQ PUSH2 0xADA JUMPI DUP1 PUSH4 0x879B7C8E EQ PUSH2 0xAEE JUMPI DUP1 PUSH4 0x8DA5CB5B EQ PUSH2 0xB0D JUMPI DUP1 PUSH4 0x8DE8FC72 EQ PUSH2 0xB49 JUMPI DUP1 PUSH4 0x91D14854 EQ PUSH2 0xB68 JUMPI PUSH0 DUP1 REVERT JUMPDEST DUP1 PUSH4 0x7A2C3048 EQ PUSH2 0xA3D JUMPI DUP1 PUSH4 0x80812FED EQ PUSH2 0xA5C JUMPI DUP1 PUSH4 0x80F44675 EQ PUSH2 0xA88 JUMPI DUP1 PUSH4 0x80F55605 EQ PUSH2 0xAA7 JUMPI DUP1 PUSH4 0x8129FC1C EQ PUSH2 0xAC6 JUMPI PUSH0 DUP1 REVERT JUMPDEST DUP1 PUSH4 0x70A08231 GT PUSH2 0x1FB JUMPI DUP1 PUSH4 0x70A08231 EQ PUSH2 0x999 JUMPI DUP1 PUSH4 0x715018A6 EQ PUSH2 0x9B8 JUMPI DUP1 PUSH4 0x73E3BF96 EQ PUSH2 0x9CC JUMPI DUP1 PUSH4 0x74F53317 EQ PUSH2 0x9EB JUMPI DUP1 PUSH4 0x78E875C5 EQ PUSH2 0xA1E JUMPI PUSH0 DUP1 REVERT JUMPDEST DUP1 PUSH4 0x6AD2EADC EQ PUSH2 0x92F JUMPI DUP1 PUSH4 0x6CA0B0D7 EQ PUSH2 0x944 JUMPI DUP1 PUSH4 0x6F4FDE9A EQ PUSH2 0x958 JUMPI DUP1 PUSH4 0x6FA9D5A7 EQ PUSH2 0x96C JUMPI PUSH0 DUP1 REVERT JUMPDEST DUP1 PUSH4 0x3B05063E GT PUSH2 0x338 JUMPI DUP1 PUSH4 0x550F31F2 GT PUSH2 0x2C2 JUMPI DUP1 PUSH4 0x61D46F16 GT PUSH2 0x287 JUMPI DUP1 PUSH4 0x61D46F16 EQ PUSH2 0x89E JUMPI DUP1 PUSH4 0x6352211E EQ PUSH2 0x8BD JUMPI DUP1 PUSH4 0x6458523D EQ PUSH2 0x8DC JUMPI DUP1 PUSH4 0x64D977C7 EQ PUSH2 0x8FB JUMPI DUP1 PUSH4 0x6866064F EQ PUSH2 0x91A JUMPI PUSH0 DUP1 REVERT JUMPDEST DUP1 PUSH4 0x550F31F2 EQ PUSH2 0x7DE JUMPI DUP1 PUSH4 0x56387A9E EQ PUSH2 0x81C JUMPI DUP1 PUSH4 0x57885BA2 EQ PUSH2 0x830 JUMPI DUP1 PUSH4 0x5C975ABB EQ PUSH2 0x84F JUMPI DUP1 PUSH4 0x5DB4041D EQ PUSH2 0x872 JUMPI PUSH0 DUP1 REVERT JUMPDEST DUP1 PUSH4 0x4345A7E9 GT PUSH2 0x308 JUMPI DUP1 PUSH4 0x4345A7E9 EQ PUSH2 0x750 JUMPI DUP1 PUSH4 0x437005F1 EQ PUSH2 0x783 JUMPI DUP1 PUSH4 0x44A0D68A EQ PUSH2 0x798 JUMPI DUP1 PUSH4 0x4F1EF286 EQ PUSH2 0x7B7 JUMPI DUP1 PUSH4 0x52D1902D EQ PUSH2 0x7CA JUMPI PUSH0 DUP1 REVERT JUMPDEST DUP1 PUSH4 0x3B05063E EQ PUSH2 0x6CD JUMPI DUP1 PUSH4 0x3F4BA83A EQ PUSH2 0x6FE JUMPI DUP1 PUSH4 0x41C099A4 EQ PUSH2 0x712 JUMPI DUP1 PUSH4 0x42842E0E EQ PUSH2 0x731 JUMPI PUSH0 DUP1 REVERT JUMPDEST DUP1 PUSH4 0x238E3909 GT PUSH2 0x3C4 JUMPI DUP1 PUSH4 0x2FBC4436 GT PUSH2 0x389 JUMPI DUP1 PUSH4 0x2FBC4436 EQ PUSH2 0x622 JUMPI DUP1 PUSH4 0x343E8B42 EQ PUSH2 0x641 JUMPI DUP1 PUSH4 0x34844B42 EQ PUSH2 0x655 JUMPI DUP1 PUSH4 0x36568ABE EQ PUSH2 0x68F JUMPI DUP1 PUSH4 0x3924D0D0 EQ PUSH2 0x6AE JUMPI PUSH0 DUP1 REVERT JUMPDEST DUP1 PUSH4 0x238E3909 EQ PUSH2 0x587 JUMPI DUP1 PUSH4 0x23B872DD EQ PUSH2 0x5A6 JUMPI DUP1 PUSH4 0x248A9CA3 EQ PUSH2 0x5C5 JUMPI DUP1 PUSH4 0x2F2FF15D EQ PUSH2 0x5E4 JUMPI DUP1 PUSH4 0x2F92167A EQ PUSH2 0x603 JUMPI PUSH0 DUP1 REVERT JUMPDEST DUP1 PUSH4 0x81812FC GT PUSH2 0x40A JUMPI DUP1 PUSH4 0x81812FC EQ PUSH2 0x4D2 JUMPI DUP1 PUSH4 0x95EA7B3 EQ PUSH2 0x509 JUMPI DUP1 PUSH4 0x14D80FEE EQ PUSH2 0x52A JUMPI DUP1 PUSH4 0x1D3B9EDF EQ PUSH2 0x549 JUMPI DUP1 PUSH4 0x20FBA162 EQ PUSH2 0x568 JUMPI PUSH0 DUP1 REVERT JUMPDEST DUP1 PUSH4 0x1FFC9A7 EQ PUSH2 0x43B JUMPI DUP1 PUSH4 0x25651CC EQ PUSH2 0x46F JUMPI DUP1 PUSH4 0x6F856F7 EQ PUSH2 0x48E JUMPI DUP1 PUSH4 0x6FDDE03 EQ PUSH2 0x4B1 JUMPI JUMPDEST PUSH0 DUP1 REVERT JUMPDEST CALLVALUE DUP1 ISZERO PUSH2 0x446 JUMPI PUSH0 DUP1 REVERT JUMPDEST POP PUSH2 0x45A PUSH2 0x455 CALLDATASIZE PUSH1 0x4 PUSH2 0x46EA JUMP JUMPDEST PUSH2 0xDEB JUMP JUMPDEST PUSH1 0x40 MLOAD SWAP1 ISZERO ISZERO DUP2 MSTORE PUSH1 0x20 ADD JUMPDEST PUSH1 0x40 MLOAD DUP1 SWAP2 SUB SWAP1 RETURN JUMPDEST CALLVALUE DUP1 ISZERO PUSH2 0x47A JUMPI PUSH0 DUP1 REVERT JUMPDEST POP PUSH2 0x45A PUSH2 0x489 CALLDATASIZE PUSH1 0x4 PUSH2 0x4705 JUMP JUMPDEST PUSH2 0xE15 JUMP JUMPDEST CALLVALUE DUP1 ISZERO PUSH2 0x499 JUMPI PUSH0 DUP1 REVERT JUMPDEST POP PUSH2 0x4A3 PUSH1 0xC SLOAD DUP2 JUMP JUMPDEST PUSH1 0x40 MLOAD SWAP1 DUP2 MSTORE PUSH1 0x20 ADD PUSH2 0x466 JUMP JUMPDEST CALLVALUE DUP1 ISZERO PUSH2 0x4BC JUMPI PUSH0 DUP1 REVERT JUMPDEST POP PUSH2 0x4C5 PUSH2 0xF71 JUMP JUMPDEST PUSH1 0x40 MLOAD PUSH2 0x466 SWAP2 SWAP1 PUSH2 0x4753 JUMP JUMPDEST CALLVALUE DUP1 ISZERO PUSH2 0x4DD JUMPI PUSH0 DUP1 REVERT JUMPDEST POP PUSH2 0x4F1 PUSH2 0x4EC CALLDATASIZE PUSH1 0x4 PUSH2 0x4765 JUMP JUMPDEST PUSH2 0x1012 JUMP JUMPDEST PUSH1 0x40 MLOAD PUSH1 0x1 PUSH1 0x1 PUSH1 0xA0 SHL SUB SWAP1 SWAP2 AND DUP2 MSTORE PUSH1 0x20 ADD PUSH2 0x466 JUMP JUMPDEST CALLVALUE DUP1 ISZERO PUSH2 0x514 JUMPI PUSH0 DUP1 REVERT JUMPDEST POP PUSH2 0x528 PUSH2 0x523 CALLDATASIZE PUSH1 0x4 PUSH2 0x4797 JUMP JUMPDEST PUSH2 0x1026 JUMP JUMPDEST STOP JUMPDEST CALLVALUE DUP1 ISZERO PUSH2 0x535 JUMPI PUSH0 DUP1 REVERT JUMPDEST POP PUSH2 0x4A3 PUSH2 0x544 CALLDATASIZE PUSH1 0x4 PUSH2 0x4765 JUMP JUMPDEST PUSH2 0x1035 JUMP JUMPDEST CALLVALUE DUP1 ISZERO PUSH2 0x554 JUMPI PUSH0 DUP1 REVERT JUMPDEST POP PUSH2 0x4A3 PUSH2 0x563 CALLDATASIZE PUSH1 0x4 PUSH2 0x4705 JUMP JUMPDEST PUSH2 0x103C JUMP JUMPDEST CALLVALUE DUP1 ISZERO PUSH2 0x573 JUMPI PUSH0 DUP1 REVERT JUMPDEST POP PUSH1 0x40 DUP1 MLOAD PUSH1 0x20 DUP2 ADD SWAP1 SWAP2 MSTORE PUSH0 DUP2 MSTORE PUSH2 0x4C5 JUMP JUMPDEST CALLVALUE DUP1 ISZERO PUSH2 0x592 JUMPI PUSH0 DUP1 REVERT JUMPDEST POP PUSH2 0x528 PUSH2 0x5A1 CALLDATASIZE PUSH1 0x4 PUSH2 0x47BF JUMP JUMPDEST PUSH2 0x104E JUMP JUMPDEST CALLVALUE DUP1 ISZERO PUSH2 0x5B1 JUMPI PUSH0 DUP1 REVERT JUMPDEST POP PUSH2 0x528 PUSH2 0x5C0 CALLDATASIZE PUSH1 0x4 PUSH2 0x47EF JUMP JUMPDEST PUSH2 0x10AD JUMP JUMPDEST CALLVALUE DUP1 ISZERO PUSH2 0x5D0 JUMPI PUSH0 DUP1 REVERT JUMPDEST POP PUSH2 0x4A3 PUSH2 0x5DF CALLDATASIZE PUSH1 0x4 PUSH2 0x4765 JUMP JUMPDEST PUSH2 0x1136 JUMP JUMPDEST CALLVALUE DUP1 ISZERO PUSH2 0x5EF JUMPI PUSH0 DUP1 REVERT JUMPDEST POP PUSH2 0x528 PUSH2 0x5FE CALLDATASIZE PUSH1 0x4 PUSH2 0x4828 JUMP JUMPDEST PUSH2 0x1156 JUMP JUMPDEST CALLVALUE DUP1 ISZERO PUSH2 0x60E JUMPI PUSH0 DUP1 REVERT JUMPDEST POP PUSH2 0x4A3 PUSH2 0x61D CALLDATASIZE PUSH1 0x4 PUSH2 0x4705 JUMP JUMPDEST PUSH2 0x1172 JUMP JUMPDEST CALLVALUE DUP1 ISZERO PUSH2 0x62D JUMPI PUSH0 DUP1 REVERT JUMPDEST POP PUSH2 0x528 PUSH2 0x63C CALLDATASIZE PUSH1 0x4 PUSH2 0x4852 JUMP JUMPDEST PUSH2 0x117D JUMP JUMPDEST CALLVALUE DUP1 ISZERO PUSH2 0x64C JUMPI PUSH0 DUP1 REVERT JUMPDEST POP PUSH2 0x4A3 PUSH0 SLOAD DUP2 JUMP JUMPDEST CALLVALUE DUP1 ISZERO PUSH2 0x660 JUMPI PUSH0 DUP1 REVERT JUMPDEST POP PUSH2 0x45A PUSH2 0x66F CALLDATASIZE PUSH1 0x4 PUSH2 0x4907 JUMP JUMPDEST DUP1 MLOAD PUSH1 0x20 DUP2 DUP4 ADD DUP2 ADD DUP1 MLOAD PUSH1 0x3 DUP3 MSTORE SWAP3 DUP3 ADD SWAP2 SWAP1 SWAP4 ADD KECCAK256 SWAP2 MSTORE SLOAD PUSH1 0xFF AND DUP2 JUMP JUMPDEST CALLVALUE DUP1 ISZERO PUSH2 0x69A JUMPI PUSH0 DUP1 REVERT JUMPDEST POP PUSH2 0x528 PUSH2 0x6A9 CALLDATASIZE PUSH1 0x4 PUSH2 0x4828 JUMP JUMPDEST PUSH2 0x11A7 JUMP JUMPDEST CALLVALUE DUP1 ISZERO PUSH2 0x6B9 JUMPI PUSH0 DUP1 REVERT JUMPDEST POP PUSH2 0x528 PUSH2 0x6C8 CALLDATASIZE PUSH1 0x4 PUSH2 0x4852 JUMP JUMPDEST PUSH2 0x11DA JUMP JUMPDEST CALLVALUE DUP1 ISZERO PUSH2 0x6D8 JUMPI PUSH0 DUP1 REVERT JUMPDEST POP PUSH2 0x6EC PUSH2 0x6E7 CALLDATASIZE PUSH1 0x4 PUSH2 0x4907 JUMP JUMPDEST PUSH2 0x1353 JUMP JUMPDEST PUSH1 0x40 MLOAD PUSH2 0x466 SWAP7 SWAP6 SWAP5 SWAP4 SWAP3 SWAP2 SWAP1 PUSH2 0x4938 JUMP JUMPDEST CALLVALUE DUP1 ISZERO PUSH2 0x709 JUMPI PUSH0 DUP1 REVERT JUMPDEST POP PUSH2 0x528 PUSH2 0x1418 JUMP JUMPDEST CALLVALUE DUP1 ISZERO PUSH2 0x71D JUMPI PUSH0 DUP1 REVERT JUMPDEST POP PUSH2 0x4A3 PUSH2 0x72C CALLDATASIZE PUSH1 0x4 PUSH2 0x4907 JUMP JUMPDEST PUSH2 0x142A JUMP JUMPDEST CALLVALUE DUP1 ISZERO PUSH2 0x73C JUMPI PUSH0 DUP1 REVERT JUMPDEST POP PUSH2 0x528 PUSH2 0x74B CALLDATASIZE PUSH1 0x4 PUSH2 0x47EF JUMP JUMPDEST PUSH2 0x1454 JUMP JUMPDEST CALLVALUE DUP1 ISZERO PUSH2 0x75B JUMPI PUSH0 DUP1 REVERT JUMPDEST POP PUSH2 0x76F PUSH2 0x76A CALLDATASIZE PUSH1 0x4 PUSH2 0x4765 JUMP JUMPDEST PUSH2 0x146E JUMP JUMPDEST PUSH1 0x40 MLOAD PUSH2 0x466 SWAP9 SWAP8 SWAP7 SWAP6 SWAP5 SWAP4 SWAP3 SWAP2 SWAP1 PUSH2 0x49A7 JUMP JUMPDEST CALLVALUE DUP1 ISZERO PUSH2 0x78E JUMPI PUSH0 DUP1 REVERT JUMPDEST POP PUSH2 0x4A3 PUSH1 0x9 SLOAD DUP2 JUMP JUMPDEST CALLVALUE DUP1 ISZERO PUSH2 0x7A3 JUMPI PUSH0 DUP1 REVERT JUMPDEST POP PUSH2 0x528 PUSH2 0x7B2 CALLDATASIZE PUSH1 0x4 PUSH2 0x4765 JUMP JUMPDEST PUSH2 0x1650 JUMP JUMPDEST PUSH2 0x528 PUSH2 0x7C5 CALLDATASIZE PUSH1 0x4 PUSH2 0x4A1F JUMP JUMPDEST PUSH2 0x165D JUMP JUMPDEST CALLVALUE DUP1 ISZERO PUSH2 0x7D5 JUMPI PUSH0 DUP1 REVERT JUMPDEST POP PUSH2 0x4A3 PUSH2 0x1678 JUMP JUMPDEST CALLVALUE DUP1 ISZERO PUSH2 0x7E9 JUMPI PUSH0 DUP1 REVERT JUMPDEST POP PUSH2 0x80F PUSH2 0x7F8 CALLDATASIZE PUSH1 0x4 PUSH2 0x4765 JUMP JUMPDEST PUSH0 SWAP1 DUP2 MSTORE PUSH1 0x4 PUSH1 0x20 MSTORE PUSH1 0x40 SWAP1 KECCAK256 PUSH1 0x5 ADD SLOAD PUSH1 0xFF AND SWAP1 JUMP JUMPDEST PUSH1 0x40 MLOAD PUSH2 0x466 SWAP2 SWAP1 PUSH2 0x4A69 JUMP JUMPDEST CALLVALUE DUP1 ISZERO PUSH2 0x827 JUMPI PUSH0 DUP1 REVERT JUMPDEST POP PUSH2 0x4C5 PUSH2 0x1693 JUMP JUMPDEST CALLVALUE DUP1 ISZERO PUSH2 0x83B JUMPI PUSH0 DUP1 REVERT JUMPDEST POP PUSH2 0x4A3 PUSH2 0x84A CALLDATASIZE PUSH1 0x4 PUSH2 0x4765 JUMP JUMPDEST PUSH2 0x171F JUMP JUMPDEST CALLVALUE DUP1 ISZERO PUSH2 0x85A JUMPI PUSH0 DUP1 REVERT JUMPDEST POP PUSH0 DUP1 MLOAD PUSH1 0x20 PUSH2 0x5497 DUP4 CODECOPY DUP2 MLOAD SWAP2 MSTORE SLOAD PUSH1 0xFF AND PUSH2 0x45A JUMP JUMPDEST CALLVALUE DUP1 ISZERO PUSH2 0x87D JUMPI PUSH0 DUP1 REVERT JUMPDEST POP PUSH2 0x891 PUSH2 0x88C CALLDATASIZE PUSH1 0x4 PUSH2 0x4765 JUMP JUMPDEST PUSH2 0x1729 JUMP JUMPDEST PUSH1 0x40 MLOAD PUSH2 0x466 SWAP2 SWAP1 PUSH2 0x4A77 JUMP JUMPDEST CALLVALUE DUP1 ISZERO PUSH2 0x8A9 JUMPI PUSH0 DUP1 REVERT JUMPDEST POP PUSH2 0x4C5 PUSH2 0x8B8 CALLDATASIZE PUSH1 0x4 PUSH2 0x4765 JUMP JUMPDEST PUSH2 0x1965 JUMP JUMPDEST CALLVALUE DUP1 ISZERO PUSH2 0x8C8 JUMPI PUSH0 DUP1 REVERT JUMPDEST POP PUSH2 0x4F1 PUSH2 0x8D7 CALLDATASIZE PUSH1 0x4 PUSH2 0x4765 JUMP JUMPDEST PUSH2 0x198C JUMP JUMPDEST CALLVALUE DUP1 ISZERO PUSH2 0x8E7 JUMPI PUSH0 DUP1 REVERT JUMPDEST POP PUSH2 0x4A3 PUSH2 0x8F6 CALLDATASIZE PUSH1 0x4 PUSH2 0x4B29 JUMP JUMPDEST PUSH2 0x1996 JUMP JUMPDEST CALLVALUE DUP1 ISZERO PUSH2 0x906 JUMPI PUSH0 DUP1 REVERT JUMPDEST POP PUSH2 0x528 PUSH2 0x915 CALLDATASIZE PUSH1 0x4 PUSH2 0x4765 JUMP JUMPDEST PUSH2 0x1A4F JUMP JUMPDEST CALLVALUE DUP1 ISZERO PUSH2 0x925 JUMPI PUSH0 DUP1 REVERT JUMPDEST POP PUSH2 0x4A3 PUSH1 0xB SLOAD DUP2 JUMP JUMPDEST CALLVALUE DUP1 ISZERO PUSH2 0x93A JUMPI PUSH0 DUP1 REVERT JUMPDEST POP PUSH2 0x4A3 PUSH1 0x8 SLOAD DUP2 JUMP JUMPDEST CALLVALUE DUP1 ISZERO PUSH2 0x94F JUMPI PUSH0 DUP1 REVERT JUMPDEST POP PUSH2 0x4A3 PUSH1 0x1 DUP2 JUMP JUMPDEST CALLVALUE DUP1 ISZERO PUSH2 0x963 JUMPI PUSH0 DUP1 REVERT JUMPDEST POP PUSH1 0x9 SLOAD PUSH2 0x4A3 JUMP JUMPDEST CALLVALUE DUP1 ISZERO PUSH2 0x977 JUMPI PUSH0 DUP1 REVERT JUMPDEST POP PUSH2 0x98B PUSH2 0x986 CALLDATASIZE PUSH1 0x4 PUSH2 0x4852 JUMP JUMPDEST PUSH2 0x1A96 JUMP JUMPDEST PUSH1 0x40 MLOAD PUSH2 0x466 SWAP3 SWAP2 SWAP1 PUSH2 0x4B58 JUMP JUMPDEST CALLVALUE DUP1 ISZERO PUSH2 0x9A4 JUMPI PUSH0 DUP1 REVERT JUMPDEST POP PUSH2 0x4A3 PUSH2 0x9B3 CALLDATASIZE PUSH1 0x4 PUSH2 0x4852 JUMP JUMPDEST PUSH2 0x1BBD JUMP JUMPDEST CALLVALUE DUP1 ISZERO PUSH2 0x9C3 JUMPI PUSH0 DUP1 REVERT JUMPDEST POP PUSH2 0x528 PUSH2 0x1C15 JUMP JUMPDEST CALLVALUE DUP1 ISZERO PUSH2 0x9D7 JUMPI PUSH0 DUP1 REVERT JUMPDEST POP PUSH2 0x4A3 PUSH2 0x9E6 CALLDATASIZE PUSH1 0x4 PUSH2 0x4B29 JUMP JUMPDEST PUSH2 0x1C26 JUMP JUMPDEST CALLVALUE DUP1 ISZERO PUSH2 0x9F6 JUMPI PUSH0 DUP1 REVERT JUMPDEST POP PUSH2 0x4A3 PUSH32 0xD1F21EC03A6EB050FBA156F5316DAD461735DF521FB446DD42C5A4728E9C70FE DUP2 JUMP JUMPDEST CALLVALUE DUP1 ISZERO PUSH2 0xA29 JUMPI PUSH0 DUP1 REVERT JUMPDEST POP PUSH2 0x528 PUSH2 0xA38 CALLDATASIZE PUSH1 0x4 PUSH2 0x4B8B JUMP JUMPDEST PUSH2 0x1CA4 JUMP JUMPDEST CALLVALUE DUP1 ISZERO PUSH2 0xA48 JUMPI PUSH0 DUP1 REVERT JUMPDEST POP PUSH2 0x528 PUSH2 0xA57 CALLDATASIZE PUSH1 0x4 PUSH2 0x4C10 JUMP JUMPDEST PUSH2 0x1DD5 JUMP JUMPDEST CALLVALUE DUP1 ISZERO PUSH2 0xA67 JUMPI PUSH0 DUP1 REVERT JUMPDEST POP PUSH2 0xA7B PUSH2 0xA76 CALLDATASIZE PUSH1 0x4 PUSH2 0x4907 JUMP JUMPDEST PUSH2 0x1F54 JUMP JUMPDEST PUSH1 0x40 MLOAD PUSH2 0x466 SWAP2 SWAP1 PUSH2 0x4C8A JUMP JUMPDEST CALLVALUE DUP1 ISZERO PUSH2 0xA93 JUMPI PUSH0 DUP1 REVERT JUMPDEST POP PUSH1 0x2 SLOAD PUSH2 0x4F1 SWAP1 PUSH1 0x1 PUSH1 0x1 PUSH1 0xA0 SHL SUB AND DUP2 JUMP JUMPDEST CALLVALUE DUP1 ISZERO PUSH2 0xAB2 JUMPI PUSH0 DUP1 REVERT JUMPDEST POP PUSH1 0x1 SLOAD PUSH2 0x4F1 SWAP1 PUSH1 0x1 PUSH1 0x1 PUSH1 0xA0 SHL SUB AND DUP2 JUMP JUMPDEST CALLVALUE DUP1 ISZERO PUSH2 0xAD1 JUMPI PUSH0 DUP1 REVERT JUMPDEST POP PUSH2 0x528 PUSH2 0x2079 JUMP JUMPDEST CALLVALUE DUP1 ISZERO PUSH2 0xAE5 JUMPI PUSH0 DUP1 REVERT JUMPDEST POP PUSH2 0x528 PUSH2 0x2241 JUMP JUMPDEST CALLVALUE DUP1 ISZERO PUSH2 0xAF9 JUMPI PUSH0 DUP1 REVERT JUMPDEST POP PUSH2 0x4A3 PUSH2 0xB08 CALLDATASIZE PUSH1 0x4 PUSH2 0x4B29 JUMP JUMPDEST PUSH2 0x2251 JUMP JUMPDEST CALLVALUE DUP1 ISZERO PUSH2 0xB18 JUMPI PUSH0 DUP1 REVERT JUMPDEST POP PUSH32 0x9016D09D72D40FDAE2FD8CEAC6B6234C7706214FD39C1CD1E609A0528C199300 SLOAD PUSH1 0x1 PUSH1 0x1 PUSH1 0xA0 SHL SUB AND PUSH2 0x4F1 JUMP JUMPDEST CALLVALUE DUP1 ISZERO PUSH2 0xB54 JUMPI PUSH0 DUP1 REVERT JUMPDEST POP PUSH2 0x4A3 PUSH2 0xB63 CALLDATASIZE PUSH1 0x4 PUSH2 0x4CE3 JUMP JUMPDEST PUSH2 0x2267 JUMP JUMPDEST CALLVALUE DUP1 ISZERO PUSH2 0xB73 JUMPI PUSH0 DUP1 REVERT JUMPDEST POP PUSH2 0x45A PUSH2 0xB82 CALLDATASIZE PUSH1 0x4 PUSH2 0x4828 JUMP JUMPDEST PUSH2 0x23B1 JUMP JUMPDEST CALLVALUE DUP1 ISZERO PUSH2 0xB92 JUMPI PUSH0 DUP1 REVERT JUMPDEST POP PUSH2 0x528 PUSH2 0xBA1 CALLDATASIZE PUSH1 0x4 PUSH2 0x4765 JUMP JUMPDEST PUSH2 0x23E7 JUMP JUMPDEST CALLVALUE DUP1 ISZERO PUSH2 0xBB1 JUMPI PUSH0 DUP1 REVERT JUMPDEST POP PUSH2 0x528 PUSH2 0xBC0 CALLDATASIZE PUSH1 0x4 PUSH2 0x4852 JUMP JUMPDEST PUSH2 0x23F4 JUMP JUMPDEST CALLVALUE DUP1 ISZERO PUSH2 0xBD0 JUMPI PUSH0 DUP1 REVERT JUMPDEST POP PUSH2 0x4C5 PUSH2 0x241E JUMP JUMPDEST CALLVALUE DUP1 ISZERO PUSH2 0xBE4 JUMPI PUSH0 DUP1 REVERT JUMPDEST POP PUSH2 0x4A3 PUSH2 0xBF3 CALLDATASIZE PUSH1 0x4 PUSH2 0x4D50 JUMP JUMPDEST PUSH2 0x245C JUMP JUMPDEST CALLVALUE DUP1 ISZERO PUSH2 0xC03 JUMPI PUSH0 DUP1 REVERT JUMPDEST POP PUSH2 0x4A3 PUSH0 DUP2 JUMP JUMPDEST CALLVALUE DUP1 ISZERO PUSH2 0xC16 JUMPI PUSH0 DUP1 REVERT JUMPDEST POP PUSH2 0x528 PUSH2 0xC25 CALLDATASIZE PUSH1 0x4 PUSH2 0x4D95 JUMP JUMPDEST PUSH2 0x24E5 JUMP JUMPDEST CALLVALUE DUP1 ISZERO PUSH2 0xC35 JUMPI PUSH0 DUP1 REVERT JUMPDEST POP PUSH2 0x4C5 PUSH1 0x40 MLOAD DUP1 PUSH1 0x40 ADD PUSH1 0x40 MSTORE DUP1 PUSH1 0x5 DUP2 MSTORE PUSH1 0x20 ADD PUSH5 0x352E302E3 PUSH1 0xDC SHL DUP2 MSTORE POP DUP2 JUMP JUMPDEST CALLVALUE DUP1 ISZERO PUSH2 0xC65 JUMPI PUSH0 DUP1 REVERT JUMPDEST POP PUSH2 0x528 PUSH2 0xC74 CALLDATASIZE PUSH1 0x4 PUSH2 0x4DBD JUMP JUMPDEST PUSH2 0x24F0 JUMP JUMPDEST CALLVALUE DUP1 ISZERO PUSH2 0xC84 JUMPI PUSH0 DUP1 REVERT JUMPDEST POP PUSH2 0x4A3 PUSH2 0xC93 CALLDATASIZE PUSH1 0x4 PUSH2 0x4B29 JUMP JUMPDEST PUSH2 0x2507 JUMP JUMPDEST CALLVALUE DUP1 ISZERO PUSH2 0xCA3 JUMPI PUSH0 DUP1 REVERT JUMPDEST POP PUSH2 0x4A3 PUSH2 0xCB2 CALLDATASIZE PUSH1 0x4 PUSH2 0x4705 JUMP JUMPDEST PUSH2 0x2514 JUMP JUMPDEST CALLVALUE DUP1 ISZERO PUSH2 0xCC2 JUMPI PUSH0 DUP1 REVERT JUMPDEST POP PUSH2 0x4C5 PUSH2 0xCD1 CALLDATASIZE PUSH1 0x4 PUSH2 0x4765 JUMP JUMPDEST PUSH2 0x251F JUMP JUMPDEST CALLVALUE DUP1 ISZERO PUSH2 0xCE1 JUMPI PUSH0 DUP1 REVERT JUMPDEST POP PUSH2 0x528 PUSH2 0xCF0 CALLDATASIZE PUSH1 0x4 PUSH2 0x4907 JUMP JUMPDEST PUSH2 0x262C JUMP JUMPDEST CALLVALUE DUP1 ISZERO PUSH2 0xD00 JUMPI PUSH0 DUP1 REVERT JUMPDEST POP PUSH2 0x528 PUSH2 0xD0F CALLDATASIZE PUSH1 0x4 PUSH2 0x4828 JUMP JUMPDEST PUSH2 0x2640 JUMP JUMPDEST CALLVALUE DUP1 ISZERO PUSH2 0xD1F JUMPI PUSH0 DUP1 REVERT JUMPDEST POP PUSH2 0xD33 PUSH2 0xD2E CALLDATASIZE PUSH1 0x4 PUSH2 0x4852 JUMP JUMPDEST PUSH2 0x265C JUMP JUMPDEST PUSH1 0x40 MLOAD PUSH2 0x466 SWAP2 SWAP1 PUSH2 0x4E20 JUMP JUMPDEST CALLVALUE DUP1 ISZERO PUSH2 0xD4B JUMPI PUSH0 DUP1 REVERT JUMPDEST POP PUSH2 0x4A3 PUSH0 DUP1 MLOAD PUSH1 0x20 PUSH2 0x54B7 DUP4 CODECOPY DUP2 MLOAD SWAP2 MSTORE DUP2 JUMP JUMPDEST CALLVALUE DUP1 ISZERO PUSH2 0xD6B JUMPI PUSH0 DUP1 REVERT JUMPDEST POP PUSH2 0x45A PUSH2 0xD7A CALLDATASIZE PUSH1 0x4 PUSH2 0x4E58 JUMP JUMPDEST PUSH2 0x27B7 JUMP JUMPDEST CALLVALUE DUP1 ISZERO PUSH2 0xD8A JUMPI PUSH0 DUP1 REVERT JUMPDEST POP PUSH2 0x528 PUSH2 0xD99 CALLDATASIZE PUSH1 0x4 PUSH2 0x4852 JUMP JUMPDEST PUSH2 0x2803 JUMP JUMPDEST CALLVALUE DUP1 ISZERO PUSH2 0xDA9 JUMPI PUSH0 DUP1 REVERT JUMPDEST POP PUSH2 0x528 PUSH2 0xDB8 CALLDATASIZE PUSH1 0x4 PUSH2 0x4E80 JUMP JUMPDEST PUSH2 0x283D JUMP JUMPDEST CALLVALUE DUP1 ISZERO PUSH2 0xDC8 JUMPI PUSH0 DUP1 REVERT JUMPDEST POP PUSH2 0x4C5 PUSH1 0x40 MLOAD DUP1 PUSH1 0x40 ADD PUSH1 0x40 MSTORE DUP1 PUSH1 0x3 DUP2 MSTORE PUSH1 0x20 ADD PUSH3 0x312E3 PUSH1 0xEC SHL DUP2 MSTORE POP DUP2 JUMP JUMPDEST PUSH0 PUSH1 0x1 PUSH1 0x1 PUSH1 0xE0 SHL SUB NOT DUP3 AND PUSH4 0x7965DB0B PUSH1 0xE0 SHL EQ DUP1 PUSH2 0xE0F JUMPI POP PUSH2 0xE0F DUP3 PUSH2 0x28DD JUMP JUMPDEST SWAP3 SWAP2 POP POP JUMP JUMPDEST PUSH1 0x1 SLOAD PUSH0 SWAP1 PUSH1 0x1 PUSH1 0x1 PUSH1 0xA0 SHL SUB AND PUSH2 0xE67 JUMPI PUSH1 0x40 MLOAD PUSH3 0x461BCD PUSH1 0xE5 SHL DUP2 MSTORE PUSH1 0x20 PUSH1 0x4 DUP3 ADD MSTORE PUSH1 0x10 PUSH1 0x24 DUP3 ADD MSTORE PUSH16 0x115C9C9BDC8E88139BC81B585C9AD95D PUSH1 0x82 SHL PUSH1 0x44 DUP3 ADD MSTORE PUSH1 0x64 ADD JUMPDEST PUSH1 0x40 MLOAD DUP1 SWAP2 SUB SWAP1 REVERT JUMPDEST PUSH1 0x1 PUSH0 DUP5 DUP2 MSTORE PUSH1 0x4 PUSH1 0x20 MSTORE PUSH1 0x40 SWAP1 KECCAK256 PUSH1 0x5 ADD SLOAD PUSH1 0xFF AND PUSH1 0x3 DUP2 GT ISZERO PUSH2 0xE8E JUMPI PUSH2 0xE8E PUSH2 0x4973 JUMP JUMPDEST EQ PUSH2 0xED3 JUMPI PUSH1 0x40 MLOAD PUSH3 0x461BCD PUSH1 0xE5 SHL DUP2 MSTORE PUSH1 0x20 PUSH1 0x4 DUP3 ADD MSTORE PUSH1 0x15 PUSH1 0x24 DUP3 ADD MSTORE PUSH21 0x4572726F723A204E4654204E6F7420566572696679 PUSH1 0x58 SHL PUSH1 0x44 DUP3 ADD MSTORE PUSH1 0x64 ADD PUSH2 0xE5E JUMP JUMPDEST PUSH1 0x1 SLOAD PUSH1 0x40 DUP1 MLOAD PUSH1 0x20 DUP1 DUP3 ADD DUP7 SWAP1 MSTORE DUP3 MLOAD DUP1 DUP4 SUB SWAP1 SWAP2 ADD DUP2 MSTORE SWAP1 DUP3 ADD SWAP1 SWAP2 MSTORE CALLER SWAP2 PUSH1 0x1 PUSH1 0x1 PUSH1 0xA0 SHL SUB AND SWAP1 PUSH2 0xF0A DUP4 DUP4 DUP9 DUP5 PUSH2 0x24F0 JUMP JUMPDEST DUP2 PUSH1 0x1 PUSH1 0x1 PUSH1 0xA0 SHL SUB AND PUSH2 0xF1D DUP8 PUSH2 0x198C JUMP JUMPDEST PUSH1 0x1 PUSH1 0x1 PUSH1 0xA0 SHL SUB AND EQ PUSH2 0xF65 JUMPI PUSH1 0x40 MLOAD PUSH3 0x461BCD PUSH1 0xE5 SHL DUP2 MSTORE PUSH1 0x20 PUSH1 0x4 DUP3 ADD MSTORE PUSH1 0xF PUSH1 0x24 DUP3 ADD MSTORE PUSH15 0x151C985B9CD9995C8819985A5B1959 PUSH1 0x8A SHL PUSH1 0x44 DUP3 ADD MSTORE PUSH1 0x64 ADD PUSH2 0xE5E JUMP JUMPDEST POP PUSH1 0x1 SWAP6 SWAP5 POP POP POP POP POP JUMP JUMPDEST PUSH0 DUP1 MLOAD PUSH1 0x20 PUSH2 0x5402 DUP4 CODECOPY DUP2 MLOAD SWAP2 MSTORE DUP1 SLOAD PUSH1 0x60 SWAP2 SWAP1 DUP2 SWAP1 PUSH2 0xF90 SWAP1 PUSH2 0x4EA9 JUMP JUMPDEST DUP1 PUSH1 0x1F ADD PUSH1 0x20 DUP1 SWAP2 DIV MUL PUSH1 0x20 ADD PUSH1 0x40 MLOAD SWAP1 DUP2 ADD PUSH1 0x40 MSTORE DUP1 SWAP3 SWAP2 SWAP1 DUP2 DUP2 MSTORE PUSH1 0x20 ADD DUP3 DUP1 SLOAD PUSH2 0xFBC SWAP1 PUSH2 0x4EA9 JUMP JUMPDEST DUP1 ISZERO PUSH2 0x1007 JUMPI DUP1 PUSH1 0x1F LT PUSH2 0xFDE JUMPI PUSH2 0x100 DUP1 DUP4 SLOAD DIV MUL DUP4 MSTORE SWAP2 PUSH1 0x20 ADD SWAP2 PUSH2 0x1007 JUMP JUMPDEST DUP3 ADD SWAP2 SWAP1 PUSH0 MSTORE PUSH1 0x20 PUSH0 KECCAK256 SWAP1 JUMPDEST DUP2 SLOAD DUP2 MSTORE SWAP1 PUSH1 0x1 ADD SWAP1 PUSH1 0x20 ADD DUP1 DUP4 GT PUSH2 0xFEA JUMPI DUP3 SWAP1 SUB PUSH1 0x1F AND DUP3 ADD SWAP2 JUMPDEST POP POP POP POP POP SWAP2 POP POP SWAP1 JUMP JUMPDEST PUSH0 PUSH2 0x101C DUP3 PUSH2 0x292C JUMP JUMPDEST POP PUSH2 0xE0F DUP3 PUSH2 0x2963 JUMP JUMPDEST PUSH2 0x1031 DUP3 DUP3 CALLER PUSH2 0x299C JUMP JUMPDEST POP POP JUMP JUMPDEST PUSH0 DUP2 PUSH2 0xE0F JUMP JUMPDEST PUSH0 PUSH2 0x1047 DUP3 DUP5 PUSH2 0x29A9 JUMP JUMPDEST SWAP4 SWAP3 POP POP POP JUMP JUMPDEST PUSH2 0x1065 PUSH0 DUP1 MLOAD PUSH1 0x20 PUSH2 0x54B7 DUP4 CODECOPY DUP2 MLOAD SWAP2 MSTORE CALLER PUSH2 0x23B1 JUMP JUMPDEST PUSH2 0x1081 JUMPI PUSH1 0x40 MLOAD PUSH3 0x461BCD PUSH1 0xE5 SHL DUP2 MSTORE PUSH1 0x4 ADD PUSH2 0xE5E SWAP1 PUSH2 0x4EE1 JUMP JUMPDEST PUSH2 0x1089 PUSH2 0x29BA JUMP JUMPDEST PUSH2 0x1092 DUP4 PUSH2 0x11DA JUMP JUMPDEST PUSH2 0x109E PUSH0 SLOAD DUP4 DUP4 PUSH2 0x29EA JUMP JUMPDEST PUSH2 0x10A8 PUSH0 SLOAD PUSH2 0x2A90 JUMP JUMPDEST POP POP POP JUMP JUMPDEST PUSH1 0x1 PUSH1 0x1 PUSH1 0xA0 SHL SUB DUP3 AND PUSH2 0x10D6 JUMPI PUSH1 0x40 MLOAD PUSH4 0x32505749 PUSH1 0xE1 SHL DUP2 MSTORE PUSH0 PUSH1 0x4 DUP3 ADD MSTORE PUSH1 0x24 ADD PUSH2 0xE5E JUMP JUMPDEST PUSH0 PUSH2 0x10E2 DUP4 DUP4 CALLER PUSH2 0x2D15 JUMP JUMPDEST SWAP1 POP DUP4 PUSH1 0x1 PUSH1 0x1 PUSH1 0xA0 SHL SUB AND DUP2 PUSH1 0x1 PUSH1 0x1 PUSH1 0xA0 SHL SUB AND EQ PUSH2 0x1130 JUMPI PUSH1 0x40 MLOAD PUSH4 0x64283D7B PUSH1 0xE0 SHL DUP2 MSTORE PUSH1 0x1 PUSH1 0x1 PUSH1 0xA0 SHL SUB DUP1 DUP7 AND PUSH1 0x4 DUP4 ADD MSTORE PUSH1 0x24 DUP3 ADD DUP5 SWAP1 MSTORE DUP3 AND PUSH1 0x44 DUP3 ADD MSTORE PUSH1 0x64 ADD PUSH2 0xE5E JUMP JUMPDEST POP POP POP POP JUMP JUMPDEST PUSH0 SWAP1 DUP2 MSTORE PUSH0 DUP1 MLOAD PUSH1 0x20 PUSH2 0x5477 DUP4 CODECOPY DUP2 MLOAD SWAP2 MSTORE PUSH1 0x20 MSTORE PUSH1 0x40 SWAP1 KECCAK256 PUSH1 0x1 ADD SLOAD SWAP1 JUMP JUMPDEST PUSH2 0x115F DUP3 PUSH2 0x1136 JUMP JUMPDEST PUSH2 0x1168 DUP2 PUSH2 0x2E17 JUMP JUMPDEST PUSH2 0x1130 DUP4 DUP4 PUSH2 0x2E21 JUMP JUMPDEST PUSH0 PUSH2 0x1047 DUP4 DUP4 PUSH2 0x2EC2 JUMP JUMPDEST PUSH2 0x1185 PUSH2 0x2ED9 JUMP JUMPDEST PUSH1 0x2 DUP1 SLOAD PUSH1 0x1 PUSH1 0x1 PUSH1 0xA0 SHL SUB NOT AND PUSH1 0x1 PUSH1 0x1 PUSH1 0xA0 SHL SUB SWAP3 SWAP1 SWAP3 AND SWAP2 SWAP1 SWAP2 OR SWAP1 SSTORE JUMP JUMPDEST PUSH1 0x1 PUSH1 0x1 PUSH1 0xA0 SHL SUB DUP2 AND CALLER EQ PUSH2 0x11D0 JUMPI PUSH1 0x40 MLOAD PUSH4 0x334BD919 PUSH1 0xE1 SHL DUP2 MSTORE PUSH1 0x4 ADD PUSH1 0x40 MLOAD DUP1 SWAP2 SUB SWAP1 REVERT JUMPDEST PUSH2 0x10A8 DUP3 DUP3 PUSH2 0x2F34 JUMP JUMPDEST PUSH2 0x11E2 PUSH2 0x29BA JUMP JUMPDEST PUSH0 SLOAD PUSH1 0x9 SLOAD DUP2 LT PUSH2 0x122D JUMPI PUSH1 0x40 MLOAD PUSH3 0x461BCD PUSH1 0xE5 SHL DUP2 MSTORE PUSH1 0x20 PUSH1 0x4 DUP3 ADD MSTORE PUSH1 0x15 PUSH1 0x24 DUP3 ADD MSTORE PUSH21 0x4572726F723A204E4654206E6F206C656674212121 PUSH1 0x58 SHL PUSH1 0x44 DUP3 ADD MSTORE PUSH1 0x64 ADD PUSH2 0xE5E JUMP JUMPDEST PUSH1 0x1 ADD PUSH0 DUP2 SWAP1 SSTORE PUSH2 0x123E DUP3 DUP3 PUSH2 0x2FAD JUMP JUMPDEST PUSH1 0xA PUSH1 0x40 MLOAD PUSH1 0x20 ADD PUSH2 0x1250 SWAP2 SWAP1 PUSH2 0x4F91 JUMP JUMPDEST PUSH1 0x40 DUP1 MLOAD PUSH1 0x1F NOT DUP2 DUP5 SUB ADD DUP2 MSTORE SWAP2 DUP2 MSTORE PUSH0 DUP4 DUP2 MSTORE PUSH1 0x4 PUSH1 0x20 MSTORE KECCAK256 PUSH1 0x6 ADD SWAP1 PUSH2 0x1278 SWAP1 DUP3 PUSH2 0x5021 JUMP JUMPDEST POP PUSH0 DUP2 DUP2 MSTORE PUSH1 0x4 PUSH1 0x20 DUP2 DUP2 MSTORE PUSH1 0x40 DUP1 DUP5 KECCAK256 PUSH1 0x5 DUP1 DUP3 ADD DUP1 SLOAD PUSH1 0xFF NOT AND SWAP1 SSTORE PUSH1 0x1 PUSH1 0x1 PUSH1 0xA0 SHL SUB DUP9 AND DUP7 MSTORE DUP4 MSTORE SWAP1 DUP5 KECCAK256 SWAP4 DUP6 SWAP1 MSTORE SWAP2 SWAP1 MSTORE SWAP1 PUSH2 0x12B9 SWAP1 DUP3 PUSH2 0x50DB JUMP JUMPDEST POP PUSH1 0x1 PUSH1 0x1 PUSH1 0xA0 SHL SUB DUP3 AND PUSH0 SWAP1 DUP2 MSTORE PUSH1 0x5 PUSH1 0x20 SWAP1 DUP2 MSTORE PUSH1 0x40 DUP1 DUP4 KECCAK256 DUP5 DUP5 MSTORE PUSH1 0x4 SWAP1 SWAP3 MSTORE SWAP1 SWAP2 KECCAK256 PUSH1 0x1 SWAP1 DUP2 ADD SWAP2 PUSH2 0x12F0 SWAP2 ADD DUP3 PUSH2 0x50DB JUMP JUMPDEST POP PUSH0 DUP2 DUP2 MSTORE PUSH1 0x4 PUSH1 0x20 DUP2 DUP2 MSTORE PUSH1 0x40 DUP1 DUP5 KECCAK256 PUSH1 0x3 DUP2 ADD DUP6 SWAP1 SSTORE SWAP1 SWAP3 ADD SWAP3 SWAP1 SWAP3 SSTORE DUP1 MLOAD PUSH1 0x1 PUSH1 0x1 PUSH1 0xA0 SHL SUB DUP6 AND DUP2 MSTORE SWAP2 DUP3 ADD DUP4 SWAP1 MSTORE PUSH32 0x38F5C4D96107181FD54ED20C49D6743E17776FBE2B633EA9110BD5A017F69A3F SWAP2 ADD JUMPDEST PUSH1 0x40 MLOAD DUP1 SWAP2 SUB SWAP1 LOG1 POP POP JUMP JUMPDEST DUP1 MLOAD PUSH1 0x20 DUP2 DUP4 ADD DUP2 ADD DUP1 MLOAD PUSH1 0x6 DUP3 MSTORE SWAP3 DUP3 ADD SWAP2 SWAP1 SWAP4 ADD KECCAK256 SWAP2 MSTORE DUP1 SLOAD DUP2 SWAP1 PUSH2 0x1379 SWAP1 PUSH2 0x4EA9 JUMP JUMPDEST DUP1 PUSH1 0x1F ADD PUSH1 0x20 DUP1 SWAP2 DIV MUL PUSH1 0x20 ADD PUSH1 0x40 MLOAD SWAP1 DUP2 ADD PUSH1 0x40 MSTORE DUP1 SWAP3 SWAP2 SWAP1 DUP2 DUP2 MSTORE PUSH1 0x20 ADD DUP3 DUP1 SLOAD PUSH2 0x13A5 SWAP1 PUSH2 0x4EA9 JUMP JUMPDEST DUP1 ISZERO PUSH2 0x13F0 JUMPI DUP1 PUSH1 0x1F LT PUSH2 0x13C7 JUMPI PUSH2 0x100 DUP1 DUP4 SLOAD DIV MUL DUP4 MSTORE SWAP2 PUSH1 0x20 ADD SWAP2 PUSH2 0x13F0 JUMP JUMPDEST DUP3 ADD SWAP2 SWAP1 PUSH0 MSTORE PUSH1 0x20 PUSH0 KECCAK256 SWAP1 JUMPDEST DUP2 SLOAD DUP2 MSTORE SWAP1 PUSH1 0x1 ADD SWAP1 PUSH1 0x20 ADD DUP1 DUP4 GT PUSH2 0x13D3 JUMPI DUP3 SWAP1 SUB PUSH1 0x1F AND DUP3 ADD SWAP2 JUMPDEST POP POP POP POP POP SWAP1 DUP1 PUSH1 0x1 ADD SLOAD SWAP1 DUP1 PUSH1 0x2 ADD SLOAD SWAP1 DUP1 PUSH1 0x3 ADD SLOAD SWAP1 DUP1 PUSH1 0x4 ADD SLOAD SWAP1 DUP1 PUSH1 0x5 ADD SLOAD SWAP1 POP DUP7 JUMP JUMPDEST PUSH2 0x1420 PUSH2 0x2ED9 JUMP JUMPDEST PUSH2 0x1428 PUSH2 0x2FC6 JUMP JUMPDEST JUMP JUMPDEST PUSH0 PUSH1 0x6 DUP3 PUSH1 0x40 MLOAD PUSH2 0x143B SWAP2 SWAP1 PUSH2 0x51BB JUMP JUMPDEST SWAP1 DUP2 MSTORE PUSH1 0x20 ADD PUSH1 0x40 MLOAD DUP1 SWAP2 SUB SWAP1 KECCAK256 PUSH1 0x1 ADD SLOAD SWAP1 POP SWAP2 SWAP1 POP JUMP JUMPDEST PUSH2 0x10A8 DUP4 DUP4 DUP4 PUSH1 0x40 MLOAD DUP1 PUSH1 0x20 ADD PUSH1 0x40 MSTORE DUP1 PUSH0 DUP2 MSTORE POP PUSH2 0x24F0 JUMP JUMPDEST PUSH1 0x4 PUSH1 0x20 MSTORE PUSH0 SWAP1 DUP2 MSTORE PUSH1 0x40 SWAP1 KECCAK256 DUP1 SLOAD DUP2 SWAP1 PUSH2 0x1488 SWAP1 PUSH2 0x4EA9 JUMP JUMPDEST DUP1 PUSH1 0x1F ADD PUSH1 0x20 DUP1 SWAP2 DIV MUL PUSH1 0x20 ADD PUSH1 0x40 MLOAD SWAP1 DUP2 ADD PUSH1 0x40 MSTORE DUP1 SWAP3 SWAP2 SWAP1 DUP2 DUP2 MSTORE PUSH1 0x20 ADD DUP3 DUP1 SLOAD PUSH2 0x14B4 SWAP1 PUSH2 0x4EA9 JUMP JUMPDEST DUP1 ISZERO PUSH2 0x14FF JUMPI DUP1 PUSH1 0x1F LT PUSH2 0x14D6 JUMPI PUSH2 0x100 DUP1 DUP4 SLOAD DIV MUL DUP4 MSTORE SWAP2 PUSH1 0x20 ADD SWAP2 PUSH2 0x14FF JUMP JUMPDEST DUP3 ADD SWAP2 SWAP1 PUSH0 MSTORE PUSH1 0x20 PUSH0 KECCAK256 SWAP1 JUMPDEST DUP2 SLOAD DUP2 MSTORE SWAP1 PUSH1 0x1 ADD SWAP1 PUSH1 0x20 ADD DUP1 DUP4 GT PUSH2 0x14E2 JUMPI DUP3 SWAP1 SUB PUSH1 0x1F AND DUP3 ADD SWAP2 JUMPDEST POP POP POP POP POP SWAP1 DUP1 PUSH1 0x1 ADD DUP1 SLOAD PUSH2 0x1514 SWAP1 PUSH2 0x4EA9 JUMP JUMPDEST DUP1 PUSH1 0x1F ADD PUSH1 0x20 DUP1 SWAP2 DIV MUL PUSH1 0x20 ADD PUSH1 0x40 MLOAD SWAP1 DUP2 ADD PUSH1 0x40 MSTORE DUP1 SWAP3 SWAP2 SWAP1 DUP2 DUP2 MSTORE PUSH1 0x20 ADD DUP3 DUP1 SLOAD PUSH2 0x1540 SWAP1 PUSH2 0x4EA9 JUMP JUMPDEST DUP1 ISZERO PUSH2 0x158B JUMPI DUP1 PUSH1 0x1F LT PUSH2 0x1562 JUMPI PUSH2 0x100 DUP1 DUP4 SLOAD DIV MUL DUP4 MSTORE SWAP2 PUSH1 0x20 ADD SWAP2 PUSH2 0x158B JUMP JUMPDEST DUP3 ADD SWAP2 SWAP1 PUSH0 MSTORE PUSH1 0x20 PUSH0 KECCAK256 SWAP1 JUMPDEST DUP2 SLOAD DUP2 MSTORE SWAP1 PUSH1 0x1 ADD SWAP1 PUSH1 0x20 ADD DUP1 DUP4 GT PUSH2 0x156E JUMPI DUP3 SWAP1 SUB PUSH1 0x1F AND DUP3 ADD SWAP2 JUMPDEST POP POP POP PUSH1 0x2 DUP5 ADD SLOAD PUSH1 0x3 DUP6 ADD SLOAD PUSH1 0x4 DUP7 ADD SLOAD PUSH1 0x5 DUP8 ADD SLOAD PUSH1 0x6 DUP9 ADD DUP1 SLOAD SWAP8 SWAP9 SWAP5 SWAP8 SWAP4 SWAP7 POP SWAP2 SWAP5 POP PUSH1 0xFF AND SWAP3 SWAP2 PUSH2 0x15C0 SWAP1 PUSH2 0x4EA9 JUMP JUMPDEST DUP1 PUSH1 0x1F ADD PUSH1 0x20 DUP1 SWAP2 DIV MUL PUSH1 0x20 ADD PUSH1 0x40 MLOAD SWAP1 DUP2 ADD PUSH1 0x40 MSTORE DUP1 SWAP3 SWAP2 SWAP1 DUP2 DUP2 MSTORE PUSH1 0x20 ADD DUP3 DUP1 SLOAD PUSH2 0x15EC SWAP1 PUSH2 0x4EA9 JUMP JUMPDEST DUP1 ISZERO PUSH2 0x1637 JUMPI DUP1 PUSH1 0x1F LT PUSH2 0x160E JUMPI PUSH2 0x100 DUP1 DUP4 SLOAD DIV MUL DUP4 MSTORE SWAP2 PUSH1 0x20 ADD SWAP2 PUSH2 0x1637 JUMP JUMPDEST DUP3 ADD SWAP2 SWAP1 PUSH0 MSTORE PUSH1 0x20 PUSH0 KECCAK256 SWAP1 JUMPDEST DUP2 SLOAD DUP2 MSTORE SWAP1 PUSH1 0x1 ADD SWAP1 PUSH1 0x20 ADD DUP1 DUP4 GT PUSH2 0x161A JUMPI DUP3 SWAP1 SUB PUSH1 0x1F AND DUP3 ADD SWAP2 JUMPDEST POP POP POP PUSH1 0x7 SWAP1 SWAP4 ADD SLOAD SWAP2 SWAP3 POP POP PUSH1 0x1 PUSH1 0x1 PUSH1 0xA0 SHL SUB AND DUP9 JUMP JUMPDEST PUSH2 0x1658 PUSH2 0x2ED9 JUMP JUMPDEST PUSH1 0x8 SSTORE JUMP JUMPDEST PUSH2 0x1665 PUSH2 0x3025 JUMP JUMPDEST PUSH2 0x166E DUP3 PUSH2 0x30C9 JUMP JUMPDEST PUSH2 0x1031 DUP3 DUP3 PUSH2 0x30D1 JUMP JUMPDEST PUSH0 PUSH2 0x1681 PUSH2 0x318D JUMP JUMPDEST POP PUSH0 DUP1 MLOAD PUSH1 0x20 PUSH2 0x5457 DUP4 CODECOPY DUP2 MLOAD SWAP2 MSTORE SWAP1 JUMP JUMPDEST PUSH1 0xA DUP1 SLOAD PUSH2 0x16A0 SWAP1 PUSH2 0x4EA9 JUMP JUMPDEST DUP1 PUSH1 0x1F ADD PUSH1 0x20 DUP1 SWAP2 DIV MUL PUSH1 0x20 ADD PUSH1 0x40 MLOAD SWAP1 DUP2 ADD PUSH1 0x40 MSTORE DUP1 SWAP3 SWAP2 SWAP1 DUP2 DUP2 MSTORE PUSH1 0x20 ADD DUP3 DUP1 SLOAD PUSH2 0x16CC SWAP1 PUSH2 0x4EA9 JUMP JUMPDEST DUP1 ISZERO PUSH2 0x1717 JUMPI DUP1 PUSH1 0x1F LT PUSH2 0x16EE JUMPI PUSH2 0x100 DUP1 DUP4 SLOAD DIV MUL DUP4 MSTORE SWAP2 PUSH1 0x20 ADD SWAP2 PUSH2 0x1717 JUMP JUMPDEST DUP3 ADD SWAP2 SWAP1 PUSH0 MSTORE PUSH1 0x20 PUSH0 KECCAK256 SWAP1 JUMPDEST DUP2 SLOAD DUP2 MSTORE SWAP1 PUSH1 0x1 ADD SWAP1 PUSH1 0x20 ADD DUP1 DUP4 GT PUSH2 0x16FA JUMPI DUP3 SWAP1 SUB PUSH1 0x1F AND DUP3 ADD SWAP2 JUMPDEST POP POP POP POP POP DUP2 JUMP JUMPDEST PUSH0 PUSH2 0xE0F DUP3 PUSH2 0x31D6 JUMP JUMPDEST PUSH2 0x1731 PUSH2 0x4684 JUMP JUMPDEST PUSH0 DUP3 DUP2 MSTORE PUSH1 0x4 PUSH1 0x20 MSTORE PUSH1 0x40 SWAP1 DUP2 SWAP1 KECCAK256 DUP2 MLOAD PUSH2 0x100 DUP2 ADD SWAP1 SWAP3 MSTORE DUP1 SLOAD DUP3 SWAP1 DUP3 SWAP1 PUSH2 0x1759 SWAP1 PUSH2 0x4EA9 JUMP JUMPDEST DUP1 PUSH1 0x1F ADD PUSH1 0x20 DUP1 SWAP2 DIV MUL PUSH1 0x20 ADD PUSH1 0x40 MLOAD SWAP1 DUP2 ADD PUSH1 0x40 MSTORE DUP1 SWAP3 SWAP2 SWAP1 DUP2 DUP2 MSTORE PUSH1 0x20 ADD DUP3 DUP1 SLOAD PUSH2 0x1785 SWAP1 PUSH2 0x4EA9 JUMP JUMPDEST DUP1 ISZERO PUSH2 0x17D0 JUMPI DUP1 PUSH1 0x1F LT PUSH2 0x17A7 JUMPI PUSH2 0x100 DUP1 DUP4 SLOAD DIV MUL DUP4 MSTORE SWAP2 PUSH1 0x20 ADD SWAP2 PUSH2 0x17D0 JUMP JUMPDEST DUP3 ADD SWAP2 SWAP1 PUSH0 MSTORE PUSH1 0x20 PUSH0 KECCAK256 SWAP1 JUMPDEST DUP2 SLOAD DUP2 MSTORE SWAP1 PUSH1 0x1 ADD SWAP1 PUSH1 0x20 ADD DUP1 DUP4 GT PUSH2 0x17B3 JUMPI DUP3 SWAP1 SUB PUSH1 0x1F AND DUP3 ADD SWAP2 JUMPDEST POP POP POP POP POP DUP2 MSTORE PUSH1 0x20 ADD PUSH1 0x1 DUP3 ADD DUP1 SLOAD PUSH2 0x17E9 SWAP1 PUSH2 0x4EA9 JUMP JUMPDEST DUP1 PUSH1 0x1F ADD PUSH1 0x20 DUP1 SWAP2 DIV MUL PUSH1 0x20 ADD PUSH1 0x40 MLOAD SWAP1 DUP2 ADD PUSH1 0x40 MSTORE DUP1 SWAP3 SWAP2 SWAP1 DUP2 DUP2 MSTORE PUSH1 0x20 ADD DUP3 DUP1 SLOAD PUSH2 0x1815 SWAP1 PUSH2 0x4EA9 JUMP JUMPDEST DUP1 ISZERO PUSH2 0x1860 JUMPI DUP1 PUSH1 0x1F LT PUSH2 0x1837 JUMPI PUSH2 0x100 DUP1 DUP4 SLOAD DIV MUL DUP4 MSTORE SWAP2 PUSH1 0x20 ADD SWAP2 PUSH2 0x1860 JUMP JUMPDEST DUP3 ADD SWAP2 SWAP1 PUSH0 MSTORE PUSH1 0x20 PUSH0 KECCAK256 SWAP1 JUMPDEST DUP2 SLOAD DUP2 MSTORE SWAP1 PUSH1 0x1 ADD SWAP1 PUSH1 0x20 ADD DUP1 DUP4 GT PUSH2 0x1843 JUMPI DUP3 SWAP1 SUB PUSH1 0x1F AND DUP3 ADD SWAP2 JUMPDEST POP POP POP SWAP2 DUP4 MSTORE POP POP PUSH1 0x2 DUP3 ADD SLOAD PUSH1 0x20 DUP3 ADD MSTORE PUSH1 0x3 DUP1 DUP4 ADD SLOAD PUSH1 0x40 DUP4 ADD MSTORE PUSH1 0x4 DUP4 ADD SLOAD PUSH1 0x60 DUP4 ADD MSTORE PUSH1 0x5 DUP4 ADD SLOAD PUSH1 0x80 SWAP1 SWAP3 ADD SWAP2 PUSH1 0xFF AND SWAP1 DUP2 GT ISZERO PUSH2 0x18A5 JUMPI PUSH2 0x18A5 PUSH2 0x4973 JUMP JUMPDEST PUSH1 0x3 DUP2 GT ISZERO PUSH2 0x18B6 JUMPI PUSH2 0x18B6 PUSH2 0x4973 JUMP JUMPDEST DUP2 MSTORE PUSH1 0x20 ADD PUSH1 0x6 DUP3 ADD DUP1 SLOAD PUSH2 0x18CA SWAP1 PUSH2 0x4EA9 JUMP JUMPDEST DUP1 PUSH1 0x1F ADD PUSH1 0x20 DUP1 SWAP2 DIV MUL PUSH1 0x20 ADD PUSH1 0x40 MLOAD SWAP1 DUP2 ADD PUSH1 0x40 MSTORE DUP1 SWAP3 SWAP2 SWAP1 DUP2 DUP2 MSTORE PUSH1 0x20 ADD DUP3 DUP1 SLOAD PUSH2 0x18F6 SWAP1 PUSH2 0x4EA9 JUMP JUMPDEST DUP1 ISZERO PUSH2 0x1941 JUMPI DUP1 PUSH1 0x1F LT PUSH2 0x1918 JUMPI PUSH2 0x100 DUP1 DUP4 SLOAD DIV MUL DUP4 MSTORE SWAP2 PUSH1 0x20 ADD SWAP2 PUSH2 0x1941 JUMP JUMPDEST DUP3 ADD SWAP2 SWAP1 PUSH0 MSTORE PUSH1 0x20 PUSH0 KECCAK256 SWAP1 JUMPDEST DUP2 SLOAD DUP2 MSTORE SWAP1 PUSH1 0x1 ADD SWAP1 PUSH1 0x20 ADD DUP1 DUP4 GT PUSH2 0x1924 JUMPI DUP3 SWAP1 SUB PUSH1 0x1F AND DUP3 ADD SWAP2 JUMPDEST POP POP POP SWAP2 DUP4 MSTORE POP POP PUSH1 0x7 SWAP2 SWAP1 SWAP2 ADD SLOAD PUSH1 0x1 PUSH1 0x1 PUSH1 0xA0 SHL SUB AND PUSH1 0x20 SWAP1 SWAP2 ADD MSTORE SWAP3 SWAP2 POP POP JUMP JUMPDEST PUSH1 0x7 DUP2 DUP2 SLOAD DUP2 LT PUSH2 0x1974 JUMPI PUSH0 DUP1 REVERT JUMPDEST SWAP1 PUSH0 MSTORE PUSH1 0x20 PUSH0 KECCAK256 ADD PUSH0 SWAP2 POP SWAP1 POP DUP1 SLOAD PUSH2 0x16A0 SWAP1 PUSH2 0x4EA9 JUMP JUMPDEST PUSH0 PUSH2 0xE0F DUP3 PUSH2 0x292C JUMP JUMPDEST PUSH0 DUP1 PUSH2 0x19A2 DUP6 DUP8 PUSH2 0x1172 JUMP JUMPDEST SWAP1 POP PUSH0 DUP4 ISZERO PUSH2 0x1A01 JUMPI PUSH0 PUSH2 0x19BD PUSH7 0x470DE4DF820000 DUP7 PUSH2 0x1172 JUMP JUMPDEST SWAP1 POP PUSH0 PUSH2 0x19DF PUSH8 0xDE0B6B3A7640000 JUMPDEST PUSH2 0x61D PUSH8 0x8AC7230489E80000 DUP6 PUSH2 0x2514 JUMP JUMPDEST SWAP1 POP PUSH2 0x19F8 DUP5 PUSH2 0x563 PUSH8 0xDE0B6B3A7640000 JUMPDEST DUP5 PUSH2 0x3230 JUMP JUMPDEST SWAP3 POP POP POP PUSH2 0x1A04 JUMP JUMPDEST POP DUP1 JUMPDEST PUSH0 PUSH2 0x1A35 PUSH9 0x2B5E3AF16B1880000 PUSH2 0x563 PUSH2 0x1A27 PUSH8 0xDE0B6B3A7640000 DUP11 PUSH2 0x3230 JUMP JUMPDEST PUSH8 0x1BC16D674EC80000 PUSH2 0x2514 JUMP JUMPDEST SWAP1 POP PUSH0 PUSH2 0x1A42 DUP4 DUP4 PUSH2 0x1172 JUMP JUMPDEST SWAP10 SWAP9 POP POP POP POP POP POP POP POP POP JUMP JUMPDEST PUSH2 0x1A66 PUSH0 DUP1 MLOAD PUSH1 0x20 PUSH2 0x54B7 DUP4 CODECOPY DUP2 MLOAD SWAP2 MSTORE CALLER PUSH2 0x23B1 JUMP JUMPDEST PUSH2 0x1A82 JUMPI PUSH1 0x40 MLOAD PUSH3 0x461BCD PUSH1 0xE5 SHL DUP2 MSTORE PUSH1 0x4 ADD PUSH2 0xE5E SWAP1 PUSH2 0x4EE1 JUMP JUMPDEST PUSH2 0x1A8A PUSH2 0x29BA JUMP JUMPDEST PUSH2 0x1A93 DUP2 PUSH2 0x2A90 JUMP JUMPDEST POP JUMP JUMPDEST PUSH1 0x5 PUSH1 0x20 MSTORE PUSH0 SWAP1 DUP2 MSTORE PUSH1 0x40 SWAP1 KECCAK256 DUP1 SLOAD DUP2 SWAP1 PUSH2 0x1AB0 SWAP1 PUSH2 0x4EA9 JUMP JUMPDEST DUP1 PUSH1 0x1F ADD PUSH1 0x20 DUP1 SWAP2 DIV MUL PUSH1 0x20 ADD PUSH1 0x40 MLOAD SWAP1 DUP2 ADD PUSH1 0x40 MSTORE DUP1 SWAP3 SWAP2 SWAP1 DUP2 DUP2 MSTORE PUSH1 0x20 ADD DUP3 DUP1 SLOAD PUSH2 0x1ADC SWAP1 PUSH2 0x4EA9 JUMP JUMPDEST DUP1 ISZERO PUSH2 0x1B27 JUMPI DUP1 PUSH1 0x1F LT PUSH2 0x1AFE JUMPI PUSH2 0x100 DUP1 DUP4 SLOAD DIV MUL DUP4 MSTORE SWAP2 PUSH1 0x20 ADD SWAP2 PUSH2 0x1B27 JUMP JUMPDEST DUP3 ADD SWAP2 SWAP1 PUSH0 MSTORE PUSH1 0x20 PUSH0 KECCAK256 SWAP1 JUMPDEST DUP2 SLOAD DUP2 MSTORE SWAP1 PUSH1 0x1 ADD SWAP1 PUSH1 0x20 ADD DUP1 DUP4 GT PUSH2 0x1B0A JUMPI DUP3 SWAP1 SUB PUSH1 0x1F AND DUP3 ADD SWAP2 JUMPDEST POP POP POP POP POP SWAP1 DUP1 PUSH1 0x1 ADD DUP1 SLOAD PUSH2 0x1B3C SWAP1 PUSH2 0x4EA9 JUMP JUMPDEST DUP1 PUSH1 0x1F ADD PUSH1 0x20 DUP1 SWAP2 DIV MUL PUSH1 0x20 ADD PUSH1 0x40 MLOAD SWAP1 DUP2 ADD PUSH1 0x40 MSTORE DUP1 SWAP3 SWAP2 SWAP1 DUP2 DUP2 MSTORE PUSH1 0x20 ADD DUP3 DUP1 SLOAD PUSH2 0x1B68 SWAP1 PUSH2 0x4EA9 JUMP JUMPDEST DUP1 ISZERO PUSH2 0x1BB3 JUMPI DUP1 PUSH1 0x1F LT PUSH2 0x1B8A JUMPI PUSH2 0x100 DUP1 DUP4 SLOAD DIV MUL DUP4 MSTORE SWAP2 PUSH1 0x20 ADD SWAP2 PUSH2 0x1BB3 JUMP JUMPDEST DUP3 ADD SWAP2 SWAP1 PUSH0 MSTORE PUSH1 0x20 PUSH0 KECCAK256 SWAP1 JUMPDEST DUP2 SLOAD DUP2 MSTORE SWAP1 PUSH1 0x1 ADD SWAP1 PUSH1 0x20 ADD DUP1 DUP4 GT PUSH2 0x1B96 JUMPI DUP3 SWAP1 SUB PUSH1 0x1F AND DUP3 ADD SWAP2 JUMPDEST POP POP POP POP POP SWAP1 POP DUP3 JUMP JUMPDEST PUSH0 PUSH0 DUP1 MLOAD PUSH1 0x20 PUSH2 0x5402 DUP4 CODECOPY DUP2 MLOAD SWAP2 MSTORE PUSH1 0x1 PUSH1 0x1 PUSH1 0xA0 SHL SUB DUP4 AND PUSH2 0x1BF5 JUMPI PUSH1 0x40 MLOAD PUSH4 0x22718AD9 PUSH1 0xE2 SHL DUP2 MSTORE PUSH0 PUSH1 0x4 DUP3 ADD MSTORE PUSH1 0x24 ADD PUSH2 0xE5E JUMP JUMPDEST PUSH1 0x1 PUSH1 0x1 PUSH1 0xA0 SHL SUB SWAP1 SWAP3 AND PUSH0 SWAP1 DUP2 MSTORE PUSH1 0x3 SWAP1 SWAP3 ADD PUSH1 0x20 MSTORE POP PUSH1 0x40 SWAP1 KECCAK256 SLOAD SWAP1 JUMP JUMPDEST PUSH2 0x1C1D PUSH2 0x2ED9 JUMP JUMPDEST PUSH2 0x1428 PUSH0 PUSH2 0x323E JUMP JUMPDEST PUSH0 DUP1 PUSH2 0x1C32 DUP6 DUP8 PUSH2 0x1172 JUMP JUMPDEST SWAP1 POP PUSH0 DUP4 ISZERO PUSH2 0x1C81 JUMPI PUSH0 PUSH2 0x1C4D PUSH7 0x470DE4DF820000 DUP7 PUSH2 0x103C JUMP JUMPDEST SWAP1 POP PUSH0 PUSH2 0x1C61 PUSH8 0xDE0B6B3A7640000 PUSH2 0x19CD JUMP JUMPDEST SWAP1 POP PUSH2 0x1C78 DUP5 PUSH2 0x563 PUSH8 0xDE0B6B3A7640000 PUSH2 0x19F2 JUMP JUMPDEST SWAP3 POP POP POP PUSH2 0x1C84 JUMP JUMPDEST POP DUP1 JUMPDEST PUSH0 PUSH2 0x1A35 PUSH9 0x2B5E3AF16B1880000 PUSH2 0x563 DUP9 PUSH8 0x1BC16D674EC80000 PUSH2 0x2514 JUMP JUMPDEST PUSH1 0x1 SLOAD PUSH1 0x1 PUSH1 0x1 PUSH1 0xA0 SHL SUB AND CALLER EQ PUSH2 0x1CFE JUMPI PUSH1 0x40 MLOAD PUSH3 0x461BCD PUSH1 0xE5 SHL DUP2 MSTORE PUSH1 0x20 PUSH1 0x4 DUP3 ADD MSTORE PUSH1 0x1F PUSH1 0x24 DUP3 ADD MSTORE PUSH32 0x4572726F723A204A75737420666F72204D61726B6574206175746F2072756E00 PUSH1 0x44 DUP3 ADD MSTORE PUSH1 0x64 ADD PUSH2 0xE5E JUMP JUMPDEST DUP1 ISZERO ISZERO PUSH1 0x1 SUB PUSH2 0x1DAD JUMPI PUSH0 JUMPDEST PUSH1 0x7 SLOAD DUP2 LT ISZERO PUSH2 0x10A8 JUMPI PUSH2 0x1D68 PUSH1 0x6 PUSH1 0x7 DUP4 DUP2 SLOAD DUP2 LT PUSH2 0x1D2C JUMPI PUSH2 0x1D2C PUSH2 0x51C6 JUMP JUMPDEST SWAP1 PUSH0 MSTORE PUSH1 0x20 PUSH0 KECCAK256 ADD PUSH1 0x40 MLOAD PUSH2 0x1D41 SWAP2 SWAP1 PUSH2 0x51DA JUMP JUMPDEST SWAP1 DUP2 MSTORE PUSH1 0x20 ADD PUSH1 0x40 MLOAD DUP1 SWAP2 SUB SWAP1 KECCAK256 PUSH1 0x4 ADD SLOAD PUSH2 0x1D63 PUSH9 0x14D1120D7B1600000 SWAP1 JUMP JUMPDEST PUSH2 0x32AE JUMP JUMPDEST PUSH1 0x6 PUSH1 0x7 DUP4 DUP2 SLOAD DUP2 LT PUSH2 0x1D7D JUMPI PUSH2 0x1D7D PUSH2 0x51C6 JUMP JUMPDEST SWAP1 PUSH0 MSTORE PUSH1 0x20 PUSH0 KECCAK256 ADD PUSH1 0x40 MLOAD PUSH2 0x1D92 SWAP2 SWAP1 PUSH2 0x51DA JUMP JUMPDEST SWAP1 DUP2 MSTORE PUSH1 0x40 MLOAD SWAP1 DUP2 SWAP1 SUB PUSH1 0x20 ADD SWAP1 KECCAK256 PUSH1 0x4 ADD SSTORE PUSH1 0x1 ADD PUSH2 0x1D0A JUMP JUMPDEST PUSH0 PUSH1 0x6 DUP4 PUSH1 0x40 MLOAD PUSH2 0x1DBE SWAP2 SWAP1 PUSH2 0x51BB JUMP JUMPDEST SWAP1 DUP2 MSTORE PUSH1 0x40 MLOAD SWAP1 DUP2 SWAP1 SUB PUSH1 0x20 ADD SWAP1 KECCAK256 PUSH1 0x4 ADD SSTORE POP POP JUMP JUMPDEST PUSH2 0x1DDD PUSH2 0x2ED9 JUMP JUMPDEST PUSH1 0x1 PUSH1 0x1 PUSH1 0xA0 SHL SUB DUP6 AND PUSH0 SWAP1 DUP2 MSTORE PUSH1 0x5 PUSH1 0x20 MSTORE PUSH1 0x40 SWAP1 KECCAK256 PUSH2 0x1DFF DUP5 DUP7 DUP4 PUSH2 0x51E5 JUMP JUMPDEST POP PUSH1 0x1 PUSH1 0x1 PUSH1 0xA0 SHL SUB DUP6 AND PUSH0 SWAP1 DUP2 MSTORE PUSH1 0x5 PUSH1 0x20 MSTORE PUSH1 0x40 SWAP1 KECCAK256 PUSH1 0x1 ADD PUSH2 0x1E25 DUP3 DUP5 DUP4 PUSH2 0x51E5 JUMP JUMPDEST POP PUSH1 0x7 DUP1 SLOAD PUSH1 0x1 DUP2 ADD DUP3 SSTORE PUSH0 SWAP2 SWAP1 SWAP2 MSTORE PUSH32 0xA66CC928B5EDB82AF9BD49922954155AB7B0942694BEA4CE44661D9A8736C688 ADD PUSH2 0x1E62 DUP5 DUP7 DUP4 PUSH2 0x51E5 JUMP JUMPDEST POP PUSH2 0x1E6F DUP5 DUP5 DUP5 DUP5 PUSH2 0x32BC JUMP JUMPDEST PUSH8 0x6F05B59D3B20000 PUSH1 0x6 DUP6 DUP6 PUSH1 0x40 MLOAD PUSH2 0x1E8A SWAP3 SWAP2 SWAP1 PUSH2 0x5299 JUMP JUMPDEST SWAP1 DUP2 MSTORE PUSH1 0x40 MLOAD SWAP1 DUP2 SWAP1 SUB PUSH1 0x20 ADD SWAP1 KECCAK256 PUSH1 0x5 ADD SSTORE PUSH2 0x1EA4 PUSH0 SWAP1 JUMP JUMPDEST PUSH1 0x6 DUP6 DUP6 PUSH1 0x40 MLOAD PUSH2 0x1EB6 SWAP3 SWAP2 SWAP1 PUSH2 0x5299 JUMP JUMPDEST SWAP1 DUP2 MSTORE PUSH1 0x40 MLOAD SWAP1 DUP2 SWAP1 SUB PUSH1 0x20 ADD SWAP1 KECCAK256 PUSH1 0x2 ADD SSTORE PUSH2 0x1ED0 PUSH0 SWAP1 JUMP JUMPDEST PUSH1 0x6 DUP6 DUP6 PUSH1 0x40 MLOAD PUSH2 0x1EE2 SWAP3 SWAP2 SWAP1 PUSH2 0x5299 JUMP JUMPDEST SWAP1 DUP2 MSTORE PUSH1 0x40 MLOAD SWAP1 DUP2 SWAP1 SUB PUSH1 0x20 ADD SWAP1 KECCAK256 PUSH1 0x3 ADD SSTORE PUSH2 0x1EFC PUSH0 SWAP1 JUMP JUMPDEST PUSH1 0x6 DUP6 DUP6 PUSH1 0x40 MLOAD PUSH2 0x1F0E SWAP3 SWAP2 SWAP1 PUSH2 0x5299 JUMP JUMPDEST SWAP1 DUP2 MSTORE PUSH1 0x40 MLOAD SWAP1 DUP2 SWAP1 SUB PUSH1 0x20 ADD SWAP1 KECCAK256 PUSH1 0x1 ADD SSTORE PUSH2 0x1F28 PUSH0 SWAP1 JUMP JUMPDEST PUSH1 0x6 DUP6 DUP6 PUSH1 0x40 MLOAD PUSH2 0x1F3A SWAP3 SWAP2 SWAP1 PUSH2 0x5299 JUMP JUMPDEST SWAP1 DUP2 MSTORE PUSH1 0x40 MLOAD SWAP1 DUP2 SWAP1 SUB PUSH1 0x20 ADD SWAP1 KECCAK256 PUSH1 0x4 ADD SSTORE POP POP POP POP POP JUMP JUMPDEST PUSH2 0x1F88 PUSH1 0x40 MLOAD DUP1 PUSH1 0xC0 ADD PUSH1 0x40 MSTORE DUP1 PUSH1 0x60 DUP2 MSTORE PUSH1 0x20 ADD PUSH0 DUP2 MSTORE PUSH1 0x20 ADD PUSH0 DUP2 MSTORE PUSH1 0x20 ADD PUSH0 DUP2 MSTORE PUSH1 0x20 ADD PUSH0 DUP2 MSTORE PUSH1 0x20 ADD PUSH0 DUP2 MSTORE POP SWAP1 JUMP JUMPDEST PUSH1 0x6 DUP3 PUSH1 0x40 MLOAD PUSH2 0x1F98 SWAP2 SWAP1 PUSH2 0x51BB JUMP JUMPDEST SWAP1 DUP2 MSTORE PUSH1 0x20 ADD PUSH1 0x40 MLOAD DUP1 SWAP2 SUB SWAP1 KECCAK256 PUSH1 0x40 MLOAD DUP1 PUSH1 0xC0 ADD PUSH1 0x40 MSTORE SWAP1 DUP2 PUSH0 DUP3 ADD DUP1 SLOAD PUSH2 0x1FC0 SWAP1 PUSH2 0x4EA9 JUMP JUMPDEST DUP1 PUSH1 0x1F ADD PUSH1 0x20 DUP1 SWAP2 DIV MUL PUSH1 0x20 ADD PUSH1 0x40 MLOAD SWAP1 DUP2 ADD PUSH1 0x40 MSTORE DUP1 SWAP3 SWAP2 SWAP1 DUP2 DUP2 MSTORE PUSH1 0x20 ADD DUP3 DUP1 SLOAD PUSH2 0x1FEC SWAP1 PUSH2 0x4EA9 JUMP JUMPDEST DUP1 ISZERO PUSH2 0x2037 JUMPI DUP1 PUSH1 0x1F LT PUSH2 0x200E JUMPI PUSH2 0x100 DUP1 DUP4 SLOAD DIV MUL DUP4 MSTORE SWAP2 PUSH1 0x20 ADD SWAP2 PUSH2 0x2037 JUMP JUMPDEST DUP3 ADD SWAP2 SWAP1 PUSH0 MSTORE PUSH1 0x20 PUSH0 KECCAK256 SWAP1 JUMPDEST DUP2 SLOAD DUP2 MSTORE SWAP1 PUSH1 0x1 ADD SWAP1 PUSH1 0x20 ADD DUP1 DUP4 GT PUSH2 0x201A JUMPI DUP3 SWAP1 SUB PUSH1 0x1F AND DUP3 ADD SWAP2 JUMPDEST POP POP POP POP POP DUP2 MSTORE PUSH1 0x20 ADD PUSH1 0x1 DUP3 ADD SLOAD DUP2 MSTORE PUSH1 0x20 ADD PUSH1 0x2 DUP3 ADD SLOAD DUP2 MSTORE PUSH1 0x20 ADD PUSH1 0x3 DUP3 ADD SLOAD DUP2 MSTORE PUSH1 0x20 ADD PUSH1 0x4 DUP3 ADD SLOAD DUP2 MSTORE PUSH1 0x20 ADD PUSH1 0x5 DUP3 ADD SLOAD DUP2 MSTORE POP POP SWAP1 POP SWAP2 SWAP1 POP JUMP JUMPDEST PUSH32 0xF0C57E16840DF040F15088DC2F81FE391C3923BEC73E23A9662EFC9C229C6A00 DUP1 SLOAD PUSH1 0x1 PUSH1 0x40 SHL DUP2 DIV PUSH1 0xFF AND ISZERO SWAP1 PUSH1 0x1 PUSH1 0x1 PUSH1 0x40 SHL SUB AND PUSH0 DUP2 ISZERO DUP1 ISZERO PUSH2 0x20BD JUMPI POP DUP3 JUMPDEST SWAP1 POP PUSH0 DUP3 PUSH1 0x1 PUSH1 0x1 PUSH1 0x40 SHL SUB AND PUSH1 0x1 EQ DUP1 ISZERO PUSH2 0x20D8 JUMPI POP ADDRESS EXTCODESIZE ISZERO JUMPDEST SWAP1 POP DUP2 ISZERO DUP1 ISZERO PUSH2 0x20E6 JUMPI POP DUP1 ISZERO JUMPDEST ISZERO PUSH2 0x2104 JUMPI PUSH1 0x40 MLOAD PUSH4 0xF92EE8A9 PUSH1 0xE0 SHL DUP2 MSTORE PUSH1 0x4 ADD PUSH1 0x40 MLOAD DUP1 SWAP2 SUB SWAP1 REVERT JUMPDEST DUP5 SLOAD PUSH8 0xFFFFFFFFFFFFFFFF NOT AND PUSH1 0x1 OR DUP6 SSTORE DUP4 ISZERO PUSH2 0x212E JUMPI DUP5 SLOAD PUSH1 0xFF PUSH1 0x40 SHL NOT AND PUSH1 0x1 PUSH1 0x40 SHL OR DUP6 SSTORE JUMPDEST PUSH2 0x2181 PUSH1 0x40 MLOAD DUP1 PUSH1 0x40 ADD PUSH1 0x40 MSTORE DUP1 PUSH1 0x11 DUP2 MSTORE PUSH1 0x20 ADD PUSH17 0x11DA534B4D0B8C97D0D85C989BDB939195 PUSH1 0x7A SHL DUP2 MSTORE POP PUSH1 0x40 MLOAD DUP1 PUSH1 0x40 ADD PUSH1 0x40 MSTORE DUP1 PUSH1 0x8 DUP2 MSTORE PUSH1 0x20 ADD PUSH8 0x11DA534B50D39195 PUSH1 0xC2 SHL DUP2 MSTORE POP PUSH2 0x32EB JUMP JUMPDEST PUSH2 0x2189 PUSH2 0x32FD JUMP JUMPDEST PUSH2 0x2192 CALLER PUSH2 0x330D JUMP JUMPDEST PUSH2 0x219A PUSH2 0x331E JUMP JUMPDEST PUSH2 0x21A4 PUSH0 CALLER PUSH2 0x2E21 JUMP JUMPDEST POP PUSH2 0x21BC PUSH0 DUP1 MLOAD PUSH1 0x20 PUSH2 0x54B7 DUP4 CODECOPY DUP2 MLOAD SWAP2 MSTORE CALLER PUSH2 0x2E21 JUMP JUMPDEST POP PUSH0 PUSH1 0x8 DUP2 SWAP1 SSTORE PUSH5 0x2540BE400 PUSH1 0x9 SSTORE DUP1 SSTORE PUSH1 0x40 DUP1 MLOAD PUSH1 0x60 DUP2 ADD SWAP1 SWAP2 MSTORE PUSH1 0x35 DUP1 DUP3 MSTORE PUSH2 0x5422 PUSH1 0x20 DUP4 ADD CODECOPY PUSH1 0xA SWAP1 PUSH2 0x21F3 SWAP1 DUP3 PUSH2 0x5021 JUMP JUMPDEST POP DUP4 ISZERO PUSH2 0x223A JUMPI DUP5 SLOAD PUSH1 0xFF PUSH1 0x40 SHL NOT AND DUP6 SSTORE PUSH1 0x40 MLOAD PUSH1 0x1 DUP2 MSTORE PUSH32 0xC7F505B2F371AE2175EE4913F4499E1F2633A7B5936321EED1CDAEB6115181D2 SWAP1 PUSH1 0x20 ADD PUSH1 0x40 MLOAD DUP1 SWAP2 SUB SWAP1 LOG1 JUMPDEST POP POP POP POP POP JUMP JUMPDEST PUSH2 0x2249 PUSH2 0x2ED9 JUMP JUMPDEST PUSH2 0x1428 PUSH2 0x3326 JUMP JUMPDEST PUSH0 PUSH2 0x225E DUP6 DUP6 DUP6 DUP6 PUSH2 0x1C26 JUMP JUMPDEST SWAP6 SWAP5 POP POP POP POP POP JUMP JUMPDEST PUSH1 0x1 SLOAD PUSH0 SWAP1 PUSH1 0x1 PUSH1 0x1 PUSH1 0xA0 SHL SUB AND CALLER EQ PUSH2 0x22C3 JUMPI PUSH1 0x40 MLOAD PUSH3 0x461BCD PUSH1 0xE5 SHL DUP2 MSTORE PUSH1 0x20 PUSH1 0x4 DUP3 ADD MSTORE PUSH1 0x1F PUSH1 0x24 DUP3 ADD MSTORE PUSH32 0x4572726F723A204A75737420666F72204D61726B6574206175746F2072756E00 PUSH1 0x44 DUP3 ADD MSTORE PUSH1 0x64 ADD PUSH2 0xE5E JUMP JUMPDEST PUSH0 PUSH2 0x22D1 DUP8 DUP8 DUP8 DUP8 DUP8 PUSH2 0x245C JUMP JUMPDEST SWAP1 POP DUP1 PUSH1 0x6 DUP10 PUSH1 0x40 MLOAD PUSH2 0x22E4 SWAP2 SWAP1 PUSH2 0x51BB JUMP JUMPDEST SWAP1 DUP2 MSTORE PUSH1 0x40 MLOAD SWAP1 DUP2 SWAP1 SUB PUSH1 0x20 ADD SWAP1 KECCAK256 PUSH1 0x5 ADD SSTORE DUP3 ISZERO ISZERO PUSH1 0x1 SUB PUSH2 0x2354 JUMPI PUSH2 0x232C PUSH1 0x6 DUP10 PUSH1 0x40 MLOAD PUSH2 0x2314 SWAP2 SWAP1 PUSH2 0x51BB JUMP JUMPDEST SWAP1 DUP2 MSTORE PUSH1 0x20 ADD PUSH1 0x40 MLOAD DUP1 SWAP2 SUB SWAP1 KECCAK256 PUSH1 0x2 ADD SLOAD DUP8 PUSH2 0x32AE JUMP JUMPDEST PUSH1 0x6 DUP10 PUSH1 0x40 MLOAD PUSH2 0x233C SWAP2 SWAP1 PUSH2 0x51BB JUMP JUMPDEST SWAP1 DUP2 MSTORE PUSH1 0x40 MLOAD SWAP1 DUP2 SWAP1 SUB PUSH1 0x20 ADD SWAP1 KECCAK256 PUSH1 0x2 ADD SSTORE PUSH2 0x23A3 JUMP JUMPDEST PUSH2 0x237F PUSH1 0x6 DUP10 PUSH1 0x40 MLOAD PUSH2 0x2367 SWAP2 SWAP1 PUSH2 0x51BB JUMP JUMPDEST SWAP1 DUP2 MSTORE PUSH1 0x20 ADD PUSH1 0x40 MLOAD DUP1 SWAP2 SUB SWAP1 KECCAK256 PUSH1 0x3 ADD SLOAD DUP8 PUSH2 0x32AE JUMP JUMPDEST PUSH1 0x6 DUP10 PUSH1 0x40 MLOAD PUSH2 0x238F SWAP2 SWAP1 PUSH2 0x51BB JUMP JUMPDEST SWAP1 DUP2 MSTORE PUSH1 0x40 MLOAD SWAP1 DUP2 SWAP1 SUB PUSH1 0x20 ADD SWAP1 KECCAK256 PUSH1 0x3 ADD SSTORE JUMPDEST POP PUSH1 0x1 SWAP8 SWAP7 POP POP POP POP POP POP POP JUMP JUMPDEST PUSH0 SWAP2 DUP3 MSTORE PUSH0 DUP1 MLOAD PUSH1 0x20 PUSH2 0x5477 DUP4 CODECOPY DUP2 MLOAD SWAP2 MSTORE PUSH1 0x20 SWAP1 DUP2 MSTORE PUSH1 0x40 DUP1 DUP5 KECCAK256 PUSH1 0x1 PUSH1 0x1 PUSH1 0xA0 SHL SUB SWAP4 SWAP1 SWAP4 AND DUP5 MSTORE SWAP2 SWAP1 MSTORE SWAP1 KECCAK256 SLOAD PUSH1 0xFF AND SWAP1 JUMP JUMPDEST PUSH2 0x23EF PUSH2 0x2ED9 JUMP JUMPDEST PUSH1 0x9 SSTORE JUMP JUMPDEST PUSH2 0x23FC PUSH2 0x2ED9 JUMP JUMPDEST PUSH1 0x1 DUP1 SLOAD PUSH1 0x1 PUSH1 0x1 PUSH1 0xA0 SHL SUB NOT AND PUSH1 0x1 PUSH1 0x1 PUSH1 0xA0 SHL SUB SWAP3 SWAP1 SWAP3 AND SWAP2 SWAP1 SWAP2 OR SWAP1 SSTORE JUMP JUMPDEST PUSH32 0x80BB2B638CC20BC4D0A60D66940F3AB4A00C1D7B313497CA82FB0B4AB0079301 DUP1 SLOAD PUSH1 0x60 SWAP2 PUSH0 DUP1 MLOAD PUSH1 0x20 PUSH2 0x5402 DUP4 CODECOPY DUP2 MLOAD SWAP2 MSTORE SWAP2 PUSH2 0xF90 SWAP1 PUSH2 0x4EA9 JUMP JUMPDEST PUSH0 DUP2 ISZERO ISZERO PUSH1 0x1 SUB PUSH2 0x24B8 JUMPI PUSH0 PUSH2 0x2474 DUP8 DUP8 DUP8 DUP8 PUSH2 0x2251 JUMP JUMPDEST SWAP1 POP PUSH0 PUSH2 0x24A3 PUSH8 0xDE0B6B3A7640000 JUMPDEST PUSH2 0x249E PUSH8 0xDE0B6B3A7640000 PUSH2 0x2499 DUP7 PUSH2 0x171F JUMP JUMPDEST PUSH2 0x2EC2 JUMP JUMPDEST PUSH2 0x3230 JUMP JUMPDEST SWAP1 POP PUSH2 0x24AF DUP7 DUP3 PUSH2 0x32AE JUMP JUMPDEST SWAP3 POP POP POP PUSH2 0x225E JUMP JUMPDEST PUSH0 PUSH2 0x24C5 DUP8 DUP8 DUP8 DUP8 PUSH2 0x2507 JUMP JUMPDEST SWAP1 POP PUSH0 PUSH2 0x24D9 PUSH8 0xDE0B6B3A7640000 PUSH2 0x2484 JUMP JUMPDEST SWAP1 POP PUSH2 0x24AF DUP7 DUP3 PUSH2 0x3230 JUMP JUMPDEST PUSH2 0x1031 CALLER DUP4 DUP4 PUSH2 0x336E JUMP JUMPDEST PUSH2 0x24FB DUP5 DUP5 DUP5 PUSH2 0x10AD JUMP JUMPDEST PUSH2 0x1130 DUP5 DUP5 DUP5 DUP5 PUSH2 0x341D JUMP JUMPDEST PUSH0 PUSH2 0x225E DUP6 DUP6 DUP6 DUP6 PUSH2 0x1996 JUMP JUMPDEST PUSH0 PUSH2 0x1047 DUP4 DUP4 PUSH2 0x353C JUMP JUMPDEST PUSH1 0x60 PUSH2 0x252A DUP3 PUSH2 0x3644 JUMP JUMPDEST PUSH2 0x258E JUMPI PUSH1 0x40 MLOAD PUSH3 0x461BCD PUSH1 0xE5 SHL DUP2 MSTORE PUSH1 0x20 PUSH1 0x4 DUP3 ADD MSTORE PUSH1 0x2F PUSH1 0x24 DUP3 ADD MSTORE PUSH32 0x4552433732314D657461646174613A2055524920717565727920666F72206E6F PUSH1 0x44 DUP3 ADD MSTORE PUSH15 0x3732BC34B9BA32B73A103A37B5B2B7 PUSH1 0x89 SHL PUSH1 0x64 DUP3 ADD MSTORE PUSH1 0x84 ADD PUSH2 0xE5E JUMP JUMPDEST PUSH0 DUP3 DUP2 MSTORE PUSH1 0x4 PUSH1 0x20 MSTORE PUSH1 0x40 SWAP1 KECCAK256 PUSH1 0x6 ADD DUP1 SLOAD PUSH2 0x25A9 SWAP1 PUSH2 0x4EA9 JUMP JUMPDEST DUP1 PUSH1 0x1F ADD PUSH1 0x20 DUP1 SWAP2 DIV MUL PUSH1 0x20 ADD PUSH1 0x40 MLOAD SWAP1 DUP2 ADD PUSH1 0x40 MSTORE DUP1 SWAP3 SWAP2 SWAP1 DUP2 DUP2 MSTORE PUSH1 0x20 ADD DUP3 DUP1 SLOAD PUSH2 0x25D5 SWAP1 PUSH2 0x4EA9 JUMP JUMPDEST DUP1 ISZERO PUSH2 0x2620 JUMPI DUP1 PUSH1 0x1F LT PUSH2 0x25F7 JUMPI PUSH2 0x100 DUP1 DUP4 SLOAD DIV MUL DUP4 MSTORE SWAP2 PUSH1 0x20 ADD SWAP2 PUSH2 0x2620 JUMP JUMPDEST DUP3 ADD SWAP2 SWAP1 PUSH0 MSTORE PUSH1 0x20 PUSH0 KECCAK256 SWAP1 JUMPDEST DUP2 SLOAD DUP2 MSTORE SWAP1 PUSH1 0x1 ADD SWAP1 PUSH1 0x20 ADD DUP1 DUP4 GT PUSH2 0x2603 JUMPI DUP3 SWAP1 SUB PUSH1 0x1F AND DUP3 ADD SWAP2 JUMPDEST POP POP POP POP POP SWAP1 POP SWAP2 SWAP1 POP JUMP JUMPDEST PUSH2 0x2634 PUSH2 0x2ED9 JUMP JUMPDEST PUSH1 0xA PUSH2 0x1031 DUP3 DUP3 PUSH2 0x5021 JUMP JUMPDEST PUSH2 0x2649 DUP3 PUSH2 0x1136 JUMP JUMPDEST PUSH2 0x2652 DUP2 PUSH2 0x2E17 JUMP JUMPDEST PUSH2 0x1130 DUP4 DUP4 PUSH2 0x2F34 JUMP JUMPDEST PUSH1 0x40 DUP1 MLOAD DUP1 DUP3 ADD SWAP1 SWAP2 MSTORE PUSH1 0x60 DUP1 DUP3 MSTORE PUSH1 0x20 DUP3 ADD MSTORE PUSH1 0x1 PUSH1 0x1 PUSH1 0xA0 SHL SUB DUP3 AND PUSH0 SWAP1 DUP2 MSTORE PUSH1 0x5 PUSH1 0x20 MSTORE PUSH1 0x40 SWAP1 DUP2 SWAP1 KECCAK256 DUP2 MLOAD DUP1 DUP4 ADD SWAP1 SWAP3 MSTORE DUP1 SLOAD DUP3 SWAP1 DUP3 SWAP1 PUSH2 0x26A0 SWAP1 PUSH2 0x4EA9 JUMP JUMPDEST DUP1 PUSH1 0x1F ADD PUSH1 0x20 DUP1 SWAP2 DIV MUL PUSH1 0x20 ADD PUSH1 0x40 MLOAD SWAP1 DUP2 ADD PUSH1 0x40 MSTORE DUP1 SWAP3 SWAP2 SWAP1 DUP2 DUP2 MSTORE PUSH1 0x20 ADD DUP3 DUP1 SLOAD PUSH2 0x26CC SWAP1 PUSH2 0x4EA9 JUMP JUMPDEST DUP1 ISZERO PUSH2 0x2717 JUMPI DUP1 PUSH1 0x1F LT PUSH2 0x26EE JUMPI PUSH2 0x100 DUP1 DUP4 SLOAD DIV MUL DUP4 MSTORE SWAP2 PUSH1 0x20 ADD SWAP2 PUSH2 0x2717 JUMP JUMPDEST DUP3 ADD SWAP2 SWAP1 PUSH0 MSTORE PUSH1 0x20 PUSH0 KECCAK256 SWAP1 JUMPDEST DUP2 SLOAD DUP2 MSTORE SWAP1 PUSH1 0x1 ADD SWAP1 PUSH1 0x20 ADD DUP1 DUP4 GT PUSH2 0x26FA JUMPI DUP3 SWAP1 SUB PUSH1 0x1F AND DUP3 ADD SWAP2 JUMPDEST POP POP POP POP POP DUP2 MSTORE PUSH1 0x20 ADD PUSH1 0x1 DUP3 ADD DUP1 SLOAD PUSH2 0x2730 SWAP1 PUSH2 0x4EA9 JUMP JUMPDEST DUP1 PUSH1 0x1F ADD PUSH1 0x20 DUP1 SWAP2 DIV MUL PUSH1 0x20 ADD PUSH1 0x40 MLOAD SWAP1 DUP2 ADD PUSH1 0x40 MSTORE DUP1 SWAP3 SWAP2 SWAP1 DUP2 DUP2 MSTORE PUSH1 0x20 ADD DUP3 DUP1 SLOAD PUSH2 0x275C SWAP1 PUSH2 0x4EA9 JUMP JUMPDEST DUP1 ISZERO PUSH2 0x27A7 JUMPI DUP1 PUSH1 0x1F LT PUSH2 0x277E JUMPI PUSH2 0x100 DUP1 DUP4 SLOAD DIV MUL DUP4 MSTORE SWAP2 PUSH1 0x20 ADD SWAP2 PUSH2 0x27A7 JUMP JUMPDEST DUP3 ADD SWAP2 SWAP1 PUSH0 MSTORE PUSH1 0x20 PUSH0 KECCAK256 SWAP1 JUMPDEST DUP2 SLOAD DUP2 MSTORE SWAP1 PUSH1 0x1 ADD SWAP1 PUSH1 0x20 ADD DUP1 DUP4 GT PUSH2 0x278A JUMPI DUP3 SWAP1 SUB PUSH1 0x1F AND DUP3 ADD SWAP2 JUMPDEST POP POP POP POP POP DUP2 MSTORE POP POP SWAP1 POP SWAP2 SWAP1 POP JUMP JUMPDEST PUSH1 0x1 PUSH1 0x1 PUSH1 0xA0 SHL SUB SWAP2 DUP3 AND PUSH0 SWAP1 DUP2 MSTORE PUSH32 0x80BB2B638CC20BC4D0A60D66940F3AB4A00C1D7B313497CA82FB0B4AB0079305 PUSH1 0x20 SWAP1 DUP2 MSTORE PUSH1 0x40 DUP1 DUP4 KECCAK256 SWAP4 SWAP1 SWAP5 AND DUP3 MSTORE SWAP2 SWAP1 SWAP2 MSTORE KECCAK256 SLOAD PUSH1 0xFF AND SWAP1 JUMP JUMPDEST PUSH2 0x280B PUSH2 0x2ED9 JUMP JUMPDEST PUSH1 0x1 PUSH1 0x1 PUSH1 0xA0 SHL SUB DUP2 AND PUSH2 0x2834 JUMPI PUSH1 0x40 MLOAD PUSH4 0x1E4FBDF7 PUSH1 0xE0 SHL DUP2 MSTORE PUSH0 PUSH1 0x4 DUP3 ADD MSTORE PUSH1 0x24 ADD PUSH2 0xE5E JUMP JUMPDEST PUSH2 0x1A93 DUP2 PUSH2 0x323E JUMP JUMPDEST PUSH2 0x2845 PUSH2 0x29BA JUMP JUMPDEST CALLER PUSH2 0x284F DUP5 PUSH2 0x198C JUMP JUMPDEST PUSH1 0x1 PUSH1 0x1 PUSH1 0xA0 SHL SUB AND EQ DUP1 PUSH2 0x2876 JUMPI POP PUSH2 0x2876 PUSH0 DUP1 MLOAD PUSH1 0x20 PUSH2 0x54B7 DUP4 CODECOPY DUP2 MLOAD SWAP2 MSTORE CALLER PUSH2 0x23B1 JUMP JUMPDEST PUSH2 0x28D2 JUMPI PUSH1 0x40 MLOAD PUSH3 0x461BCD PUSH1 0xE5 SHL DUP2 MSTORE PUSH1 0x20 PUSH1 0x4 DUP3 ADD MSTORE PUSH1 0x27 PUSH1 0x24 DUP3 ADD MSTORE PUSH32 0x4572726F723A20757064617465206F6E6C79206279206F776E6572206F722076 PUSH1 0x44 DUP3 ADD MSTORE PUSH7 0x32B934B334B2B9 PUSH1 0xC9 SHL PUSH1 0x64 DUP3 ADD MSTORE PUSH1 0x84 ADD PUSH2 0xE5E JUMP JUMPDEST PUSH2 0x10A8 DUP4 DUP4 DUP4 PUSH2 0x29EA JUMP JUMPDEST PUSH0 PUSH1 0x1 PUSH1 0x1 PUSH1 0xE0 SHL SUB NOT DUP3 AND PUSH4 0x80AC58CD PUSH1 0xE0 SHL EQ DUP1 PUSH2 0x290D JUMPI POP PUSH1 0x1 PUSH1 0x1 PUSH1 0xE0 SHL SUB NOT DUP3 AND PUSH4 0x5B5E139F PUSH1 0xE0 SHL EQ JUMPDEST DUP1 PUSH2 0xE0F JUMPI POP PUSH4 0x1FFC9A7 PUSH1 0xE0 SHL PUSH1 0x1 PUSH1 0x1 PUSH1 0xE0 SHL SUB NOT DUP4 AND EQ PUSH2 0xE0F JUMP JUMPDEST PUSH0 DUP1 PUSH2 0x2937 DUP4 PUSH2 0x3660 JUMP JUMPDEST SWAP1 POP PUSH1 0x1 PUSH1 0x1 PUSH1 0xA0 SHL SUB DUP2 AND PUSH2 0xE0F JUMPI PUSH1 0x40 MLOAD PUSH4 0x7E273289 PUSH1 0xE0 SHL DUP2 MSTORE PUSH1 0x4 DUP2 ADD DUP5 SWAP1 MSTORE PUSH1 0x24 ADD PUSH2 0xE5E JUMP JUMPDEST PUSH0 SWAP1 DUP2 MSTORE PUSH32 0x80BB2B638CC20BC4D0A60D66940F3AB4A00C1D7B313497CA82FB0B4AB0079304 PUSH1 0x20 MSTORE PUSH1 0x40 SWAP1 KECCAK256 SLOAD PUSH1 0x1 PUSH1 0x1 PUSH1 0xA0 SHL SUB AND SWAP1 JUMP JUMPDEST PUSH2 0x10A8 DUP4 DUP4 DUP4 PUSH1 0x1 PUSH2 0x3699 JUMP JUMPDEST PUSH0 PUSH2 0x1047 PUSH2 0x29B7 DUP5 DUP5 PUSH2 0x37AC JUMP JUMPDEST SWAP1 JUMP JUMPDEST PUSH0 DUP1 MLOAD PUSH1 0x20 PUSH2 0x5497 DUP4 CODECOPY DUP2 MLOAD SWAP2 MSTORE SLOAD PUSH1 0xFF AND ISZERO PUSH2 0x1428 JUMPI PUSH1 0x40 MLOAD PUSH4 0xD93C0665 PUSH1 0xE0 SHL DUP2 MSTORE PUSH1 0x4 ADD PUSH1 0x40 MLOAD DUP1 SWAP2 SUB SWAP1 REVERT JUMPDEST PUSH0 DUP4 DUP2 MSTORE PUSH1 0x4 PUSH1 0x20 MSTORE PUSH1 0x40 DUP2 KECCAK256 PUSH1 0x5 ADD SLOAD PUSH1 0xFF AND SWAP1 DUP2 PUSH1 0x3 DUP2 GT ISZERO PUSH2 0x2A11 JUMPI PUSH2 0x2A11 PUSH2 0x4973 JUMP JUMPDEST EQ PUSH2 0x2A2E JUMPI PUSH1 0x40 MLOAD PUSH3 0x461BCD PUSH1 0xE5 SHL DUP2 MSTORE PUSH1 0x4 ADD PUSH2 0xE5E SWAP1 PUSH2 0x52A8 JUMP JUMPDEST PUSH0 DUP5 DUP2 MSTORE PUSH1 0x4 PUSH1 0x20 SWAP1 DUP2 MSTORE PUSH1 0x40 SWAP2 DUP3 SWAP1 KECCAK256 PUSH1 0x2 DUP2 ADD DUP7 SWAP1 SSTORE PUSH1 0x3 ADD DUP5 SWAP1 SSTORE DUP2 MLOAD DUP7 DUP2 MSTORE SWAP1 DUP2 ADD DUP6 SWAP1 MSTORE SWAP1 DUP2 ADD DUP4 SWAP1 MSTORE PUSH32 0xF373C369127508AF9B81AF995828345D8630E8E4DC66E2D12C2B59217BCB3BCF SWAP1 PUSH1 0x60 ADD PUSH1 0x40 MLOAD DUP1 SWAP2 SUB SWAP1 LOG1 POP POP POP POP JUMP JUMPDEST PUSH0 DUP2 DUP2 MSTORE PUSH1 0x4 PUSH1 0x20 MSTORE PUSH1 0x40 SWAP1 KECCAK256 PUSH1 0x2 ADD SLOAD PUSH2 0x2AF7 JUMPI PUSH1 0x40 MLOAD PUSH3 0x461BCD PUSH1 0xE5 SHL DUP2 MSTORE PUSH1 0x20 PUSH1 0x4 DUP3 ADD MSTORE PUSH1 0x21 PUSH1 0x24 DUP3 ADD MSTORE PUSH32 0x4572726F723A20636172626F6E20616D6F756E74206D75737420757070657220 PUSH1 0x44 DUP3 ADD MSTORE PUSH1 0x3 PUSH1 0xFC SHL PUSH1 0x64 DUP3 ADD MSTORE PUSH1 0x84 ADD PUSH2 0xE5E JUMP JUMPDEST PUSH0 DUP2 DUP2 MSTORE PUSH1 0x4 PUSH1 0x20 MSTORE PUSH1 0x40 DUP2 KECCAK256 PUSH1 0x5 ADD SLOAD PUSH1 0xFF AND SWAP1 DUP2 PUSH1 0x3 DUP2 GT ISZERO PUSH2 0x2B1E JUMPI PUSH2 0x2B1E PUSH2 0x4973 JUMP JUMPDEST EQ PUSH2 0x2B3B JUMPI PUSH1 0x40 MLOAD PUSH3 0x461BCD PUSH1 0xE5 SHL DUP2 MSTORE PUSH1 0x4 ADD PUSH2 0xE5E SWAP1 PUSH2 0x52A8 JUMP JUMPDEST PUSH1 0xA PUSH1 0x40 MLOAD PUSH1 0x20 ADD PUSH2 0x2B4D SWAP2 SWAP1 PUSH2 0x52EB JUMP JUMPDEST PUSH1 0x40 DUP1 MLOAD PUSH1 0x1F NOT DUP2 DUP5 SUB ADD DUP2 MSTORE SWAP2 DUP2 MSTORE PUSH0 DUP5 DUP2 MSTORE PUSH1 0x4 PUSH1 0x20 MSTORE KECCAK256 PUSH1 0x6 ADD SWAP1 PUSH2 0x2B75 SWAP1 DUP3 PUSH2 0x5021 JUMP JUMPDEST POP PUSH2 0x2B81 DUP3 PUSH1 0x1 PUSH2 0x385E JUMP JUMPDEST PUSH0 DUP3 DUP2 MSTORE PUSH1 0x4 PUSH1 0x20 MSTORE PUSH1 0x40 DUP2 KECCAK256 PUSH1 0x7 DUP2 ADD DUP1 SLOAD PUSH1 0x1 PUSH1 0x1 PUSH1 0xA0 SHL SUB NOT AND CALLER OR SWAP1 SSTORE DUP1 SLOAD PUSH2 0x2BAD SWAP1 PUSH2 0x4EA9 JUMP JUMPDEST DUP1 PUSH1 0x1F ADD PUSH1 0x20 DUP1 SWAP2 DIV MUL PUSH1 0x20 ADD PUSH1 0x40 MLOAD SWAP1 DUP2 ADD PUSH1 0x40 MSTORE DUP1 SWAP3 SWAP2 SWAP1 DUP2 DUP2 MSTORE PUSH1 0x20 ADD DUP3 DUP1 SLOAD PUSH2 0x2BD9 SWAP1 PUSH2 0x4EA9 JUMP JUMPDEST DUP1 ISZERO PUSH2 0x2C24 JUMPI DUP1 PUSH1 0x1F LT PUSH2 0x2BFB JUMPI PUSH2 0x100 DUP1 DUP4 SLOAD DIV MUL DUP4 MSTORE SWAP2 PUSH1 0x20 ADD SWAP2 PUSH2 0x2C24 JUMP JUMPDEST DUP3 ADD SWAP2 SWAP1 PUSH0 MSTORE PUSH1 0x20 PUSH0 KECCAK256 SWAP1 JUMPDEST DUP2 SLOAD DUP2 MSTORE SWAP1 PUSH1 0x1 ADD SWAP1 PUSH1 0x20 ADD DUP1 DUP4 GT PUSH2 0x2C07 JUMPI DUP3 SWAP1 SUB PUSH1 0x1F AND DUP3 ADD SWAP2 JUMPDEST POP POP POP POP POP SWAP1 POP PUSH0 PUSH1 0x6 DUP3 PUSH1 0x40 MLOAD PUSH2 0x2C3C SWAP2 SWAP1 PUSH2 0x51BB JUMP JUMPDEST SWAP1 DUP2 MSTORE PUSH1 0x20 ADD PUSH1 0x40 MLOAD DUP1 SWAP2 SUB SWAP1 KECCAK256 PUSH1 0x1 ADD SLOAD SWAP1 POP PUSH2 0x2C6E DUP2 PUSH1 0x4 PUSH0 DUP8 DUP2 MSTORE PUSH1 0x20 ADD SWAP1 DUP2 MSTORE PUSH1 0x20 ADD PUSH0 KECCAK256 PUSH1 0x2 ADD SLOAD PUSH2 0x32AE JUMP JUMPDEST SWAP1 POP DUP1 PUSH1 0x6 DUP4 PUSH1 0x40 MLOAD PUSH2 0x2C81 SWAP2 SWAP1 PUSH2 0x51BB JUMP JUMPDEST SWAP1 DUP2 MSTORE PUSH1 0x40 DUP1 MLOAD PUSH1 0x20 SWAP3 DUP2 SWAP1 SUB DUP4 ADD DUP2 KECCAK256 PUSH1 0x1 ADD SWAP4 SWAP1 SWAP4 SSTORE PUSH0 DUP8 DUP2 MSTORE PUSH1 0x4 SWAP1 SWAP3 MSTORE DUP2 KECCAK256 PUSH1 0x3 ADD SLOAD SWAP2 PUSH1 0x6 SWAP1 PUSH2 0x2CB7 SWAP1 DUP7 SWAP1 PUSH2 0x51BB JUMP JUMPDEST SWAP1 DUP2 MSTORE PUSH1 0x20 ADD PUSH1 0x40 MLOAD DUP1 SWAP2 SUB SWAP1 KECCAK256 PUSH1 0x5 ADD SLOAD SWAP1 POP PUSH0 PUSH2 0x2CF6 PUSH2 0x2CDB DUP4 PUSH1 0xB SLOAD PUSH2 0x2514 JUMP JUMPDEST PUSH2 0x563 PUSH8 0xDE0B6B3A7640000 PUSH2 0x61D PUSH2 0x84A PUSH1 0xC SLOAD DUP10 PUSH2 0x103C JUMP JUMPDEST PUSH0 SWAP8 DUP9 MSTORE PUSH1 0x4 PUSH1 0x20 DUP2 SWAP1 MSTORE PUSH1 0x40 SWAP1 SWAP9 KECCAK256 SWAP1 SWAP8 ADD SWAP7 SWAP1 SWAP7 SSTORE POP POP POP POP POP POP JUMP JUMPDEST PUSH0 PUSH0 DUP1 MLOAD PUSH1 0x20 PUSH2 0x5402 DUP4 CODECOPY DUP2 MLOAD SWAP2 MSTORE DUP2 PUSH2 0x2D2E DUP6 PUSH2 0x3660 JUMP JUMPDEST SWAP1 POP PUSH1 0x1 PUSH1 0x1 PUSH1 0xA0 SHL SUB DUP5 AND ISZERO PUSH2 0x2D4A JUMPI PUSH2 0x2D4A DUP2 DUP6 DUP8 PUSH2 0x38C1 JUMP JUMPDEST PUSH1 0x1 PUSH1 0x1 PUSH1 0xA0 SHL SUB DUP2 AND ISZERO PUSH2 0x2D86 JUMPI PUSH2 0x2D65 PUSH0 DUP7 PUSH0 DUP1 PUSH2 0x3699 JUMP JUMPDEST PUSH1 0x1 PUSH1 0x1 PUSH1 0xA0 SHL SUB DUP2 AND PUSH0 SWAP1 DUP2 MSTORE PUSH1 0x3 DUP4 ADD PUSH1 0x20 MSTORE PUSH1 0x40 SWAP1 KECCAK256 DUP1 SLOAD PUSH0 NOT ADD SWAP1 SSTORE JUMPDEST PUSH1 0x1 PUSH1 0x1 PUSH1 0xA0 SHL SUB DUP7 AND ISZERO PUSH2 0x2DB6 JUMPI PUSH1 0x1 PUSH1 0x1 PUSH1 0xA0 SHL SUB DUP7 AND PUSH0 SWAP1 DUP2 MSTORE PUSH1 0x3 DUP4 ADD PUSH1 0x20 MSTORE PUSH1 0x40 SWAP1 KECCAK256 DUP1 SLOAD PUSH1 0x1 ADD SWAP1 SSTORE JUMPDEST PUSH0 DUP6 DUP2 MSTORE PUSH1 0x2 DUP4 ADD PUSH1 0x20 MSTORE PUSH1 0x40 DUP1 DUP3 KECCAK256 DUP1 SLOAD PUSH1 0x1 PUSH1 0x1 PUSH1 0xA0 SHL SUB NOT AND PUSH1 0x1 PUSH1 0x1 PUSH1 0xA0 SHL SUB DUP11 DUP2 AND SWAP2 DUP3 OR SWAP1 SWAP3 SSTORE SWAP2 MLOAD DUP9 SWAP4 SWAP2 DUP6 AND SWAP2 PUSH32 0xDDF252AD1BE2C89B69C2B068FC378DAA952BA7F163C4A11628F55A4DF523B3EF SWAP2 LOG4 SWAP6 SWAP5 POP POP POP POP POP JUMP JUMPDEST PUSH2 0x1A93 DUP2 CALLER PUSH2 0x3925 JUMP JUMPDEST PUSH0 PUSH0 DUP1 MLOAD PUSH1 0x20 PUSH2 0x5477 DUP4 CODECOPY DUP2 MLOAD SWAP2 MSTORE PUSH2 0x2E3A DUP5 DUP5 PUSH2 0x23B1 JUMP JUMPDEST PUSH2 0x2EB9 JUMPI PUSH0 DUP5 DUP2 MSTORE PUSH1 0x20 DUP3 DUP2 MSTORE PUSH1 0x40 DUP1 DUP4 KECCAK256 PUSH1 0x1 PUSH1 0x1 PUSH1 0xA0 SHL SUB DUP8 AND DUP5 MSTORE SWAP1 SWAP2 MSTORE SWAP1 KECCAK256 DUP1 SLOAD PUSH1 0xFF NOT AND PUSH1 0x1 OR SWAP1 SSTORE PUSH2 0x2E6F CALLER SWAP1 JUMP JUMPDEST PUSH1 0x1 PUSH1 0x1 PUSH1 0xA0 SHL SUB AND DUP4 PUSH1 0x1 PUSH1 0x1 PUSH1 0xA0 SHL SUB AND DUP6 PUSH32 0x2F8788117E7EFF1D82E926EC794901D17C78024A50270940304540A733656F0D PUSH1 0x40 MLOAD PUSH1 0x40 MLOAD DUP1 SWAP2 SUB SWAP1 LOG4 PUSH1 0x1 SWAP2 POP POP PUSH2 0xE0F JUMP JUMPDEST PUSH0 SWAP2 POP POP PUSH2 0xE0F JUMP JUMPDEST PUSH0 PUSH2 0x1047 PUSH2 0x29B7 DUP5 PUSH8 0xDE0B6B3A7640000 DUP6 PUSH2 0x395E JUMP JUMPDEST CALLER PUSH2 0x2F0B PUSH32 0x9016D09D72D40FDAE2FD8CEAC6B6234C7706214FD39C1CD1E609A0528C199300 SLOAD PUSH1 0x1 PUSH1 0x1 PUSH1 0xA0 SHL SUB AND SWAP1 JUMP JUMPDEST PUSH1 0x1 PUSH1 0x1 PUSH1 0xA0 SHL SUB AND EQ PUSH2 0x1428 JUMPI PUSH1 0x40 MLOAD PUSH4 0x118CDAA7 PUSH1 0xE0 SHL DUP2 MSTORE CALLER PUSH1 0x4 DUP3 ADD MSTORE PUSH1 0x24 ADD PUSH2 0xE5E JUMP JUMPDEST PUSH0 PUSH0 DUP1 MLOAD PUSH1 0x20 PUSH2 0x5477 DUP4 CODECOPY DUP2 MLOAD SWAP2 MSTORE PUSH2 0x2F4D DUP5 DUP5 PUSH2 0x23B1 JUMP JUMPDEST ISZERO PUSH2 0x2EB9 JUMPI PUSH0 DUP5 DUP2 MSTORE PUSH1 0x20 DUP3 DUP2 MSTORE PUSH1 0x40 DUP1 DUP4 KECCAK256 PUSH1 0x1 PUSH1 0x1 PUSH1 0xA0 SHL SUB DUP8 AND DUP1 DUP6 MSTORE SWAP3 MSTORE DUP1 DUP4 KECCAK256 DUP1 SLOAD PUSH1 0xFF NOT AND SWAP1 SSTORE MLOAD CALLER SWAP3 DUP8 SWAP2 PUSH32 0xF6391F5C32D9C69D2A47EA670B442974B53935D1EDC7FD64EB21E047A839171B SWAP2 SWAP1 LOG4 PUSH1 0x1 SWAP2 POP POP PUSH2 0xE0F JUMP JUMPDEST PUSH2 0x1031 DUP3 DUP3 PUSH1 0x40 MLOAD DUP1 PUSH1 0x20 ADD PUSH1 0x40 MSTORE DUP1 PUSH0 DUP2 MSTORE POP PUSH2 0x3A2D JUMP JUMPDEST PUSH2 0x2FCE PUSH2 0x3A43 JUMP JUMPDEST PUSH0 DUP1 MLOAD PUSH1 0x20 PUSH2 0x5497 DUP4 CODECOPY DUP2 MLOAD SWAP2 MSTORE DUP1 SLOAD PUSH1 0xFF NOT AND DUP2 SSTORE PUSH32 0x5DB9EE0A495BF2E6FF9C91A7834C1BA4FDD244A5E8AA4E537BD38AEAE4B073AA CALLER JUMPDEST PUSH1 0x40 MLOAD PUSH1 0x1 PUSH1 0x1 PUSH1 0xA0 SHL SUB SWAP1 SWAP2 AND DUP2 MSTORE PUSH1 0x20 ADD PUSH1 0x40 MLOAD DUP1 SWAP2 SUB SWAP1 LOG1 POP JUMP JUMPDEST ADDRESS PUSH1 0x1 PUSH1 0x1 PUSH1 0xA0 SHL SUB PUSH32 0x0 AND EQ DUP1 PUSH2 0x30AB JUMPI POP PUSH32 0x0 PUSH1 0x1 PUSH1 0x1 PUSH1 0xA0 SHL SUB AND PUSH2 0x309F PUSH0 DUP1 MLOAD PUSH1 0x20 PUSH2 0x5457 DUP4 CODECOPY DUP2 MLOAD SWAP2 MSTORE SLOAD PUSH1 0x1 PUSH1 0x1 PUSH1 0xA0 SHL SUB AND SWAP1 JUMP JUMPDEST PUSH1 0x1 PUSH1 0x1 PUSH1 0xA0 SHL SUB AND EQ ISZERO JUMPDEST ISZERO PUSH2 0x1428 JUMPI PUSH1 0x40 MLOAD PUSH4 0x703E46DD PUSH1 0xE1 SHL DUP2 MSTORE PUSH1 0x4 ADD PUSH1 0x40 MLOAD DUP1 SWAP2 SUB SWAP1 REVERT JUMPDEST PUSH2 0x1A93 PUSH2 0x2ED9 JUMP JUMPDEST DUP2 PUSH1 0x1 PUSH1 0x1 PUSH1 0xA0 SHL SUB AND PUSH4 0x52D1902D PUSH1 0x40 MLOAD DUP2 PUSH4 0xFFFFFFFF AND PUSH1 0xE0 SHL DUP2 MSTORE PUSH1 0x4 ADD PUSH1 0x20 PUSH1 0x40 MLOAD DUP1 DUP4 SUB DUP2 DUP7 GAS STATICCALL SWAP3 POP POP POP DUP1 ISZERO PUSH2 0x312B JUMPI POP PUSH1 0x40 DUP1 MLOAD PUSH1 0x1F RETURNDATASIZE SWAP1 DUP2 ADD PUSH1 0x1F NOT AND DUP3 ADD SWAP1 SWAP3 MSTORE PUSH2 0x3128 SWAP2 DUP2 ADD SWAP1 PUSH2 0x531C JUMP JUMPDEST PUSH1 0x1 JUMPDEST PUSH2 0x3153 JUMPI PUSH1 0x40 MLOAD PUSH4 0x4C9C8CE3 PUSH1 0xE0 SHL DUP2 MSTORE PUSH1 0x1 PUSH1 0x1 PUSH1 0xA0 SHL SUB DUP4 AND PUSH1 0x4 DUP3 ADD MSTORE PUSH1 0x24 ADD PUSH2 0xE5E JUMP JUMPDEST PUSH0 DUP1 MLOAD PUSH1 0x20 PUSH2 0x5457 DUP4 CODECOPY DUP2 MLOAD SWAP2 MSTORE DUP2 EQ PUSH2 0x3183 JUMPI PUSH1 0x40 MLOAD PUSH4 0x2A875269 PUSH1 0xE2 SHL DUP2 MSTORE PUSH1 0x4 DUP2 ADD DUP3 SWAP1 MSTORE PUSH1 0x24 ADD PUSH2 0xE5E JUMP JUMPDEST PUSH2 0x10A8 DUP4 DUP4 PUSH2 0x3A72 JUMP JUMPDEST ADDRESS PUSH1 0x1 PUSH1 0x1 PUSH1 0xA0 SHL SUB PUSH32 0x0 AND EQ PUSH2 0x1428 JUMPI PUSH1 0x40 MLOAD PUSH4 0x703E46DD PUSH1 0xE1 SHL DUP2 MSTORE PUSH1 0x4 ADD PUSH1 0x40 MLOAD DUP1 SWAP2 SUB SWAP1 REVERT JUMPDEST PUSH0 DUP2 PUSH9 0x736EA4425C11AC630 DUP2 GT ISZERO PUSH2 0x3205 JUMPI PUSH1 0x40 MLOAD PUSH4 0xD7B1D65 PUSH1 0xE1 SHL DUP2 MSTORE PUSH1 0x4 DUP2 ADD DUP5 SWAP1 MSTORE PUSH1 0x24 ADD PUSH2 0xE5E JUMP JUMPDEST PUSH8 0x14057B7EF767814F DUP2 MUL PUSH2 0x3228 PUSH8 0xDE0B6B3A7640000 DUP3 DIV PUSH2 0x3AC7 JUMP JUMPDEST PUSH2 0x3AC7 JUMP JUMPDEST SWAP5 SWAP4 POP POP POP POP JUMP JUMPDEST PUSH0 PUSH2 0x1047 PUSH2 0x29B7 DUP4 DUP6 PUSH2 0x535B JUMP JUMPDEST PUSH32 0x9016D09D72D40FDAE2FD8CEAC6B6234C7706214FD39C1CD1E609A0528C199300 DUP1 SLOAD PUSH1 0x1 PUSH1 0x1 PUSH1 0xA0 SHL SUB NOT DUP2 AND PUSH1 0x1 PUSH1 0x1 PUSH1 0xA0 SHL SUB DUP5 DUP2 AND SWAP2 DUP3 OR DUP5 SSTORE PUSH1 0x40 MLOAD SWAP3 AND SWAP2 DUP3 SWAP1 PUSH32 0x8BE0079C531659141344CD1FD0A4F28419497F9722A3DAAFE3B4186F6B6457E0 SWAP1 PUSH0 SWAP1 LOG3 POP POP POP JUMP JUMPDEST PUSH0 PUSH2 0x1047 PUSH2 0x29B7 DUP4 DUP6 PUSH2 0x536E JUMP JUMPDEST DUP2 DUP2 PUSH1 0x6 DUP7 DUP7 PUSH1 0x40 MLOAD PUSH2 0x32D0 SWAP3 SWAP2 SWAP1 PUSH2 0x5299 JUMP JUMPDEST SWAP1 DUP2 MSTORE PUSH1 0x40 MLOAD SWAP1 DUP2 SWAP1 SUB PUSH1 0x20 ADD SWAP1 KECCAK256 SWAP2 PUSH2 0x223A SWAP2 SWAP1 DUP4 PUSH2 0x51E5 JUMP JUMPDEST PUSH2 0x32F3 PUSH2 0x3B1B JUMP JUMPDEST PUSH2 0x1031 DUP3 DUP3 PUSH2 0x3B64 JUMP JUMPDEST PUSH2 0x3305 PUSH2 0x3B1B JUMP JUMPDEST PUSH2 0x1428 PUSH2 0x3B94 JUMP JUMPDEST PUSH2 0x3315 PUSH2 0x3B1B JUMP JUMPDEST PUSH2 0x1A93 DUP2 PUSH2 0x3BB4 JUMP JUMPDEST PUSH2 0x1428 PUSH2 0x3B1B JUMP JUMPDEST PUSH2 0x332E PUSH2 0x29BA JUMP JUMPDEST PUSH0 DUP1 MLOAD PUSH1 0x20 PUSH2 0x5497 DUP4 CODECOPY DUP2 MLOAD SWAP2 MSTORE DUP1 SLOAD PUSH1 0xFF NOT AND PUSH1 0x1 OR DUP2 SSTORE PUSH32 0x62E78CEA01BEE320CD4E420270B5EA74000D11B0C9F74754EBDBFC544B05A258 CALLER PUSH2 0x3007 JUMP JUMPDEST PUSH0 DUP1 MLOAD PUSH1 0x20 PUSH2 0x5402 DUP4 CODECOPY DUP2 MLOAD SWAP2 MSTORE PUSH1 0x1 PUSH1 0x1 PUSH1 0xA0 SHL SUB DUP4 AND PUSH2 0x33AE JUMPI PUSH1 0x40 MLOAD PUSH4 0xB611743 PUSH1 0xE3 SHL DUP2 MSTORE PUSH1 0x1 PUSH1 0x1 PUSH1 0xA0 SHL SUB DUP5 AND PUSH1 0x4 DUP3 ADD MSTORE PUSH1 0x24 ADD PUSH2 0xE5E JUMP JUMPDEST PUSH1 0x1 PUSH1 0x1 PUSH1 0xA0 SHL SUB DUP5 DUP2 AND PUSH0 DUP2 DUP2 MSTORE PUSH1 0x5 DUP5 ADD PUSH1 0x20 SWAP1 DUP2 MSTORE PUSH1 0x40 DUP1 DUP4 KECCAK256 SWAP5 DUP9 AND DUP1 DUP5 MSTORE SWAP5 DUP3 MSTORE SWAP2 DUP3 SWAP1 KECCAK256 DUP1 SLOAD PUSH1 0xFF NOT AND DUP8 ISZERO ISZERO SWAP1 DUP2 OR SWAP1 SWAP2 SSTORE SWAP2 MLOAD SWAP2 DUP3 MSTORE PUSH32 0x17307EAB39AB6107E8899845AD3D59BD9653F200F220920489CA2B5937696C31 SWAP2 ADD PUSH1 0x40 MLOAD DUP1 SWAP2 SUB SWAP1 LOG3 POP POP POP POP JUMP JUMPDEST PUSH1 0x1 PUSH1 0x1 PUSH1 0xA0 SHL SUB DUP4 AND EXTCODESIZE ISZERO PUSH2 0x1130 JUMPI PUSH1 0x40 MLOAD PUSH4 0xA85BD01 PUSH1 0xE1 SHL DUP2 MSTORE PUSH1 0x1 PUSH1 0x1 PUSH1 0xA0 SHL SUB DUP5 AND SWAP1 PUSH4 0x150B7A02 SWAP1 PUSH2 0x345F SWAP1 CALLER SWAP1 DUP9 SWAP1 DUP8 SWAP1 DUP8 SWAP1 PUSH1 0x4 ADD PUSH2 0x5381 JUMP JUMPDEST PUSH1 0x20 PUSH1 0x40 MLOAD DUP1 DUP4 SUB DUP2 PUSH0 DUP8 GAS CALL SWAP3 POP POP POP DUP1 ISZERO PUSH2 0x3499 JUMPI POP PUSH1 0x40 DUP1 MLOAD PUSH1 0x1F RETURNDATASIZE SWAP1 DUP2 ADD PUSH1 0x1F NOT AND DUP3 ADD SWAP1 SWAP3 MSTORE PUSH2 0x3496 SWAP2 DUP2 ADD SWAP1 PUSH2 0x53B3 JUMP JUMPDEST PUSH1 0x1 JUMPDEST PUSH2 0x3500 JUMPI RETURNDATASIZE DUP1 DUP1 ISZERO PUSH2 0x34C6 JUMPI PUSH1 0x40 MLOAD SWAP2 POP PUSH1 0x1F NOT PUSH1 0x3F RETURNDATASIZE ADD AND DUP3 ADD PUSH1 0x40 MSTORE RETURNDATASIZE DUP3 MSTORE RETURNDATASIZE PUSH0 PUSH1 0x20 DUP5 ADD RETURNDATACOPY PUSH2 0x34CB JUMP JUMPDEST PUSH1 0x60 SWAP2 POP JUMPDEST POP DUP1 MLOAD PUSH0 SUB PUSH2 0x34F8 JUMPI PUSH1 0x40 MLOAD PUSH4 0x32505749 PUSH1 0xE1 SHL DUP2 MSTORE PUSH1 0x1 PUSH1 0x1 PUSH1 0xA0 SHL SUB DUP6 AND PUSH1 0x4 DUP3 ADD MSTORE PUSH1 0x24 ADD PUSH2 0xE5E JUMP JUMPDEST DUP1 MLOAD DUP2 PUSH1 0x20 ADD REVERT JUMPDEST PUSH1 0x1 PUSH1 0x1 PUSH1 0xE0 SHL SUB NOT DUP2 AND PUSH4 0xA85BD01 PUSH1 0xE1 SHL EQ PUSH2 0x223A JUMPI PUSH1 0x40 MLOAD PUSH4 0x32505749 PUSH1 0xE1 SHL DUP2 MSTORE PUSH1 0x1 PUSH1 0x1 PUSH1 0xA0 SHL SUB DUP6 AND PUSH1 0x4 DUP3 ADD MSTORE PUSH1 0x24 ADD PUSH2 0xE5E JUMP JUMPDEST PUSH0 DUP3 DUP3 DUP2 DUP4 SUB PUSH2 0x3565 JUMPI DUP1 ISZERO PUSH2 0x3552 JUMPI PUSH0 PUSH2 0x355C JUMP JUMPDEST PUSH8 0xDE0B6B3A7640000 JUMPDEST SWAP3 POP POP POP PUSH2 0xE0F JUMP JUMPDEST PUSH8 0xDE0B6B3A7640000 DUP3 SUB PUSH2 0x3586 JUMPI PUSH8 0xDE0B6B3A7640000 SWAP3 POP POP POP PUSH2 0xE0F JUMP JUMPDEST DUP1 PUSH0 SUB PUSH2 0x359F JUMPI PUSH8 0xDE0B6B3A7640000 SWAP3 POP POP POP PUSH2 0xE0F JUMP JUMPDEST PUSH8 0xDE0B6B3A7640000 DUP2 SUB PUSH2 0x35B8 JUMPI DUP5 SWAP3 POP POP POP PUSH2 0xE0F JUMP JUMPDEST PUSH8 0xDE0B6B3A7640000 DUP3 GT ISZERO PUSH2 0x35E4 JUMPI PUSH2 0x35DD PUSH2 0x3223 PUSH2 0x35D7 DUP8 PUSH2 0x3BBC JUMP JUMPDEST DUP7 PUSH2 0x29A9 JUMP JUMPDEST SWAP3 POP PUSH2 0x363C JUMP JUMPDEST PUSH0 PUSH2 0x3601 PUSH2 0x29B7 DUP5 PUSH15 0xC097CE7BC90715B34B9F1000000000 PUSH2 0x53CE JUMP JUMPDEST SWAP1 POP PUSH0 PUSH2 0x3619 PUSH2 0x3223 PUSH2 0x3613 DUP5 PUSH2 0x3BBC JUMP JUMPDEST DUP9 PUSH2 0x29A9 JUMP JUMPDEST SWAP1 POP PUSH2 0x3637 PUSH2 0x29B7 DUP3 PUSH15 0xC097CE7BC90715B34B9F1000000000 PUSH2 0x53CE JUMP JUMPDEST SWAP5 POP POP POP JUMPDEST POP POP SWAP3 SWAP2 POP POP JUMP JUMPDEST PUSH0 DUP1 PUSH2 0x364F DUP4 PUSH2 0x3660 JUMP JUMPDEST PUSH1 0x1 PUSH1 0x1 PUSH1 0xA0 SHL SUB AND EQ ISZERO SWAP3 SWAP2 POP POP JUMP JUMPDEST PUSH0 SWAP1 DUP2 MSTORE PUSH32 0x80BB2B638CC20BC4D0A60D66940F3AB4A00C1D7B313497CA82FB0B4AB0079302 PUSH1 0x20 MSTORE PUSH1 0x40 SWAP1 KECCAK256 SLOAD PUSH1 0x1 PUSH1 0x1 PUSH1 0xA0 SHL SUB AND SWAP1 JUMP JUMPDEST PUSH0 DUP1 MLOAD PUSH1 0x20 PUSH2 0x5402 DUP4 CODECOPY DUP2 MLOAD SWAP2 MSTORE DUP2 DUP1 PUSH2 0x36BB JUMPI POP PUSH1 0x1 PUSH1 0x1 PUSH1 0xA0 SHL SUB DUP4 AND ISZERO ISZERO JUMPDEST ISZERO PUSH2 0x377C JUMPI PUSH0 PUSH2 0x36CA DUP6 PUSH2 0x292C JUMP JUMPDEST SWAP1 POP PUSH1 0x1 PUSH1 0x1 PUSH1 0xA0 SHL SUB DUP5 AND ISZERO DUP1 ISZERO SWAP1 PUSH2 0x36F6 JUMPI POP DUP4 PUSH1 0x1 PUSH1 0x1 PUSH1 0xA0 SHL SUB AND DUP2 PUSH1 0x1 PUSH1 0x1 PUSH1 0xA0 SHL SUB AND EQ ISZERO JUMPDEST DUP1 ISZERO PUSH2 0x3709 JUMPI POP PUSH2 0x3707 DUP2 DUP6 PUSH2 0x27B7 JUMP JUMPDEST ISZERO JUMPDEST ISZERO PUSH2 0x3732 JUMPI PUSH1 0x40 MLOAD PUSH4 0xA9FBF51F PUSH1 0xE0 SHL DUP2 MSTORE PUSH1 0x1 PUSH1 0x1 PUSH1 0xA0 SHL SUB DUP6 AND PUSH1 0x4 DUP3 ADD MSTORE PUSH1 0x24 ADD PUSH2 0xE5E JUMP JUMPDEST DUP3 ISZERO PUSH2 0x377A JUMPI DUP5 DUP7 PUSH1 0x1 PUSH1 0x1 PUSH1 0xA0 SHL SUB AND DUP3 PUSH1 0x1 PUSH1 0x1 PUSH1 0xA0 SHL SUB AND PUSH32 0x8C5BE1E5EBEC7D5BD14F71427D1E84F3DD0314C0F7B2291E5B200AC8C7C3B925 PUSH1 0x40 MLOAD PUSH1 0x40 MLOAD DUP1 SWAP2 SUB SWAP1 LOG4 JUMPDEST POP JUMPDEST PUSH0 SWAP4 DUP5 MSTORE PUSH1 0x4 ADD PUSH1 0x20 MSTORE POP POP PUSH1 0x40 SWAP1 KECCAK256 DUP1 SLOAD PUSH1 0x1 PUSH1 0x1 PUSH1 0xA0 SHL SUB NOT AND PUSH1 0x1 PUSH1 0x1 PUSH1 0xA0 SHL SUB SWAP3 SWAP1 SWAP3 AND SWAP2 SWAP1 SWAP2 OR SWAP1 SSTORE JUMP JUMPDEST PUSH0 DUP1 DUP1 PUSH0 NOT DUP5 DUP7 MULMOD DUP5 DUP7 MUL SWAP3 POP DUP3 DUP2 LT DUP4 DUP3 SUB SUB SWAP2 POP POP DUP1 PUSH0 SUB PUSH2 0x37DD JUMPI POP PUSH8 0xDE0B6B3A7640000 SWAP1 DIV SWAP1 POP PUSH2 0xE0F JUMP JUMPDEST PUSH8 0xDE0B6B3A7640000 DUP2 LT PUSH2 0x380F JUMPI PUSH1 0x40 MLOAD PUSH4 0x5173648D PUSH1 0xE0 SHL DUP2 MSTORE PUSH1 0x4 DUP2 ADD DUP7 SWAP1 MSTORE PUSH1 0x24 DUP2 ADD DUP6 SWAP1 MSTORE PUSH1 0x44 ADD PUSH2 0xE5E JUMP JUMPDEST PUSH0 PUSH8 0xDE0B6B3A7640000 DUP6 DUP8 MULMOD PUSH3 0x40000 DUP2 DUP6 SUB DIV SWAP4 LT SWAP1 SWAP2 SUB PUSH1 0x1 PUSH1 0xEE SHL MUL SWAP2 SWAP1 SWAP2 OR PUSH32 0xACCB18165BD6FE31AE1CF318DC5B51EEE0E1BA569B88CD74C1773B91FAC10669 MUL SWAP2 POP POP SWAP3 SWAP2 POP POP JUMP JUMPDEST PUSH0 DUP3 DUP2 MSTORE PUSH1 0x4 PUSH1 0x20 MSTORE PUSH1 0x40 SWAP1 KECCAK256 PUSH1 0x5 ADD DUP1 SLOAD DUP3 SWAP2 SWAP1 PUSH1 0xFF NOT AND PUSH1 0x1 DUP4 PUSH1 0x3 DUP2 GT ISZERO PUSH2 0x388B JUMPI PUSH2 0x388B PUSH2 0x4973 JUMP JUMPDEST MUL OR SWAP1 SSTORE POP PUSH32 0x6B37D5B7ADD9D663EE345FAC5B2A9C71628936E80A7D3483DD02FB7D4677385B DUP3 DUP3 PUSH1 0x40 MLOAD PUSH2 0x1347 SWAP3 SWAP2 SWAP1 PUSH2 0x53ED JUMP JUMPDEST PUSH2 0x38CC DUP4 DUP4 DUP4 PUSH2 0x3CEF JUMP JUMPDEST PUSH2 0x10A8 JUMPI PUSH1 0x1 PUSH1 0x1 PUSH1 0xA0 SHL SUB DUP4 AND PUSH2 0x38FA JUMPI PUSH1 0x40 MLOAD PUSH4 0x7E273289 PUSH1 0xE0 SHL DUP2 MSTORE PUSH1 0x4 DUP2 ADD DUP3 SWAP1 MSTORE PUSH1 0x24 ADD PUSH2 0xE5E JUMP JUMPDEST PUSH1 0x40 MLOAD PUSH4 0x177E802F PUSH1 0xE0 SHL DUP2 MSTORE PUSH1 0x1 PUSH1 0x1 PUSH1 0xA0 SHL SUB DUP4 AND PUSH1 0x4 DUP3 ADD MSTORE PUSH1 0x24 DUP2 ADD DUP3 SWAP1 MSTORE PUSH1 0x44 ADD PUSH2 0xE5E JUMP JUMPDEST PUSH2 0x392F DUP3 DUP3 PUSH2 0x23B1 JUMP JUMPDEST PUSH2 0x1031 JUMPI PUSH1 0x40 MLOAD PUSH4 0xE2517D3F PUSH1 0xE0 SHL DUP2 MSTORE PUSH1 0x1 PUSH1 0x1 PUSH1 0xA0 SHL SUB DUP3 AND PUSH1 0x4 DUP3 ADD MSTORE PUSH1 0x24 DUP2 ADD DUP4 SWAP1 MSTORE PUSH1 0x44 ADD PUSH2 0xE5E JUMP JUMPDEST PUSH0 DUP1 DUP1 PUSH0 NOT DUP6 DUP8 MULMOD DUP6 DUP8 MUL SWAP3 POP DUP3 DUP2 LT DUP4 DUP3 SUB SUB SWAP2 POP POP DUP1 PUSH0 SUB PUSH2 0x3995 JUMPI DUP4 DUP3 DUP2 PUSH2 0x398B JUMPI PUSH2 0x398B PUSH2 0x5333 JUMP JUMPDEST DIV SWAP3 POP POP POP PUSH2 0x1047 JUMP JUMPDEST DUP4 DUP2 LT PUSH2 0x39C6 JUMPI PUSH1 0x40 MLOAD PUSH4 0xC740AEF PUSH1 0xE3 SHL DUP2 MSTORE PUSH1 0x4 DUP2 ADD DUP8 SWAP1 MSTORE PUSH1 0x24 DUP2 ADD DUP7 SWAP1 MSTORE PUSH1 0x44 DUP2 ADD DUP6 SWAP1 MSTORE PUSH1 0x64 ADD PUSH2 0xE5E JUMP JUMPDEST PUSH0 DUP5 DUP7 DUP9 MULMOD PUSH1 0x2 PUSH1 0x1 DUP8 NOT DUP2 ADD DUP9 AND SWAP8 DUP9 SWAP1 DIV PUSH1 0x3 DUP2 MUL DUP4 XOR DUP1 DUP3 MUL DUP5 SUB MUL DUP1 DUP3 MUL DUP5 SUB MUL DUP1 DUP3 MUL DUP5 SUB MUL DUP1 DUP3 MUL DUP5 SUB MUL DUP1 DUP3 MUL DUP5 SUB MUL SWAP1 DUP2 MUL SWAP1 SWAP3 SUB SWAP1 SWAP2 MUL PUSH0 DUP9 SWAP1 SUB DUP9 SWAP1 DIV SWAP1 SWAP2 ADD DUP6 DUP4 GT SWAP1 SWAP5 SUB SWAP4 SWAP1 SWAP4 MUL SWAP4 SUB SWAP5 SWAP1 SWAP5 DIV SWAP2 SWAP1 SWAP2 OR MUL SWAP5 SWAP4 POP POP POP POP JUMP JUMPDEST PUSH2 0x3A37 DUP4 DUP4 PUSH2 0x3D53 JUMP JUMPDEST PUSH2 0x10A8 PUSH0 DUP5 DUP5 DUP5 PUSH2 0x341D JUMP JUMPDEST PUSH0 DUP1 MLOAD PUSH1 0x20 PUSH2 0x5497 DUP4 CODECOPY DUP2 MLOAD SWAP2 MSTORE SLOAD PUSH1 0xFF AND PUSH2 0x1428 JUMPI PUSH1 0x40 MLOAD PUSH4 0x8DFC202B PUSH1 0xE0 SHL DUP2 MSTORE PUSH1 0x4 ADD PUSH1 0x40 MLOAD DUP1 SWAP2 SUB SWAP1 REVERT JUMPDEST PUSH2 0x3A7B DUP3 PUSH2 0x3DB4 JUMP JUMPDEST PUSH1 0x40 MLOAD PUSH1 0x1 PUSH1 0x1 PUSH1 0xA0 SHL SUB DUP4 AND SWAP1 PUSH32 0xBC7CD75A20EE27FD9ADEBAB32041F755214DBC6BFFA90CC0225B39DA2E5C2D3B SWAP1 PUSH0 SWAP1 LOG2 DUP1 MLOAD ISZERO PUSH2 0x3ABF JUMPI PUSH2 0x10A8 DUP3 DUP3 PUSH2 0x3E17 JUMP JUMPDEST PUSH2 0x1031 PUSH2 0x3E80 JUMP JUMPDEST PUSH0 DUP2 PUSH9 0xA688906BD8AFFFFFF DUP2 GT ISZERO PUSH2 0x3AF6 JUMPI PUSH1 0x40 MLOAD PUSH4 0xB3B6BA1F PUSH1 0xE0 SHL DUP2 MSTORE PUSH1 0x4 DUP2 ADD DUP5 SWAP1 MSTORE PUSH1 0x24 ADD PUSH2 0xE5E JUMP JUMPDEST PUSH0 PUSH2 0x3B0D PUSH8 0xDE0B6B3A7640000 PUSH1 0x40 DUP5 SWAP1 SHL PUSH2 0x53CE JUMP JUMPDEST SWAP1 POP PUSH2 0x3228 PUSH2 0x29B7 DUP3 PUSH2 0x3E9F JUMP JUMPDEST PUSH32 0xF0C57E16840DF040F15088DC2F81FE391C3923BEC73E23A9662EFC9C229C6A00 SLOAD PUSH1 0x1 PUSH1 0x40 SHL SWAP1 DIV PUSH1 0xFF AND PUSH2 0x1428 JUMPI PUSH1 0x40 MLOAD PUSH4 0x1AFCD79F PUSH1 0xE3 SHL DUP2 MSTORE PUSH1 0x4 ADD PUSH1 0x40 MLOAD DUP1 SWAP2 SUB SWAP1 REVERT JUMPDEST PUSH2 0x3B6C PUSH2 0x3B1B JUMP JUMPDEST PUSH0 DUP1 MLOAD PUSH1 0x20 PUSH2 0x5402 DUP4 CODECOPY DUP2 MLOAD SWAP2 MSTORE DUP1 PUSH2 0x3B85 DUP5 DUP3 PUSH2 0x5021 JUMP JUMPDEST POP PUSH1 0x1 DUP2 ADD PUSH2 0x1130 DUP4 DUP3 PUSH2 0x5021 JUMP JUMPDEST PUSH2 0x3B9C PUSH2 0x3B1B JUMP JUMPDEST PUSH0 DUP1 MLOAD PUSH1 0x20 PUSH2 0x5497 DUP4 CODECOPY DUP2 MLOAD SWAP2 MSTORE DUP1 SLOAD PUSH1 0xFF NOT AND SWAP1 SSTORE JUMP JUMPDEST PUSH2 0x280B PUSH2 0x3B1B JUMP JUMPDEST PUSH0 DUP2 PUSH8 0xDE0B6B3A7640000 DUP2 LT ISZERO PUSH2 0x3BEA JUMPI PUSH1 0x40 MLOAD PUSH4 0x36D32EF PUSH1 0xE4 SHL DUP2 MSTORE PUSH1 0x4 DUP2 ADD DUP5 SWAP1 MSTORE PUSH1 0x24 ADD PUSH2 0xE5E JUMP JUMPDEST PUSH0 PUSH2 0x3C74 PUSH8 0xDE0B6B3A7640000 DUP4 DIV PUSH1 0x1 PUSH16 0xFFFFFFFFFFFFFFFFFFFFFFFFFFFFFFFF DUP3 GT PUSH1 0x7 SHL SWAP2 DUP3 SHR PUSH1 0x1 PUSH1 0x1 PUSH1 0x40 SHL SUB DUP2 GT PUSH1 0x6 SHL SWAP1 DUP2 SHR PUSH4 0xFFFFFFFF DUP2 GT PUSH1 0x5 SHL SWAP1 DUP2 SHR PUSH2 0xFFFF DUP2 GT PUSH1 0x4 SHL SWAP1 DUP2 SHR PUSH1 0xFF DUP2 GT PUSH1 0x3 SWAP1 DUP2 SHL SWAP2 DUP3 SHR PUSH1 0xF DUP2 GT PUSH1 0x2 SHL SWAP1 DUP2 SHR SWAP2 DUP3 GT DUP8 SHL SWAP2 DUP3 SHR SWAP7 SWAP1 SWAP7 GT SWAP5 SWAP1 SWAP7 OR SWAP3 SWAP1 SWAP3 OR OR OR SWAP2 SWAP1 SWAP2 OR SWAP2 SWAP1 SWAP2 OR OR SWAP1 JUMP JUMPDEST SWAP1 POP PUSH8 0xDE0B6B3A7640000 DUP2 MUL DUP3 DUP3 SHR PUSH8 0xDE0B6B3A763FFFF NOT DUP2 ADD PUSH2 0x3CA0 JUMPI DUP2 JUMPDEST SWAP7 SWAP6 POP POP POP POP POP POP JUMP JUMPDEST PUSH8 0x1BC16D674EC80000 PUSH8 0x6F05B59D3B20000 JUMPDEST DUP1 ISZERO PUSH2 0x3CE3 JUMPI PUSH8 0xDE0B6B3A7640000 DUP4 DUP1 MUL DIV SWAP3 POP DUP2 DUP4 LT PUSH2 0x3CDB JUMPI SWAP3 DUP4 ADD SWAP3 PUSH1 0x1 SWAP3 SWAP1 SWAP3 SHR SWAP2 JUMPDEST PUSH1 0x1 SHR PUSH2 0x3CB3 JUMP JUMPDEST POP SWAP2 SWAP7 SWAP6 POP POP POP POP POP POP JUMP JUMPDEST PUSH0 PUSH1 0x1 PUSH1 0x1 PUSH1 0xA0 SHL SUB DUP4 AND ISZERO DUP1 ISZERO SWAP1 PUSH2 0x3228 JUMPI POP DUP3 PUSH1 0x1 PUSH1 0x1 PUSH1 0xA0 SHL SUB AND DUP5 PUSH1 0x1 PUSH1 0x1 PUSH1 0xA0 SHL SUB AND EQ DUP1 PUSH2 0x3D28 JUMPI POP PUSH2 0x3D28 DUP5 DUP5 PUSH2 0x27B7 JUMP JUMPDEST DUP1 PUSH2 0x3228 JUMPI POP DUP3 PUSH1 0x1 PUSH1 0x1 PUSH1 0xA0 SHL SUB AND PUSH2 0x3D41 DUP4 PUSH2 0x2963 JUMP JUMPDEST PUSH1 0x1 PUSH1 0x1 PUSH1 0xA0 SHL SUB AND EQ SWAP5 SWAP4 POP POP POP POP JUMP JUMPDEST PUSH1 0x1 PUSH1 0x1 PUSH1 0xA0 SHL SUB DUP3 AND PUSH2 0x3D7C JUMPI PUSH1 0x40 MLOAD PUSH4 0x32505749 PUSH1 0xE1 SHL DUP2 MSTORE PUSH0 PUSH1 0x4 DUP3 ADD MSTORE PUSH1 0x24 ADD PUSH2 0xE5E JUMP JUMPDEST PUSH0 PUSH2 0x3D88 DUP4 DUP4 PUSH0 PUSH2 0x2D15 JUMP JUMPDEST SWAP1 POP PUSH1 0x1 PUSH1 0x1 PUSH1 0xA0 SHL SUB DUP2 AND ISZERO PUSH2 0x10A8 JUMPI PUSH1 0x40 MLOAD PUSH4 0x39E35637 PUSH1 0xE1 SHL DUP2 MSTORE PUSH0 PUSH1 0x4 DUP3 ADD MSTORE PUSH1 0x24 ADD PUSH2 0xE5E JUMP JUMPDEST DUP1 PUSH1 0x1 PUSH1 0x1 PUSH1 0xA0 SHL SUB AND EXTCODESIZE PUSH0 SUB PUSH2 0x3DE9 JUMPI PUSH1 0x40 MLOAD PUSH4 0x4C9C8CE3 PUSH1 0xE0 SHL DUP2 MSTORE PUSH1 0x1 PUSH1 0x1 PUSH1 0xA0 SHL SUB DUP3 AND PUSH1 0x4 DUP3 ADD MSTORE PUSH1 0x24 ADD PUSH2 0xE5E JUMP JUMPDEST PUSH0 DUP1 MLOAD PUSH1 0x20 PUSH2 0x5457 DUP4 CODECOPY DUP2 MLOAD SWAP2 MSTORE DUP1 SLOAD PUSH1 0x1 PUSH1 0x1 PUSH1 0xA0 SHL SUB NOT AND PUSH1 0x1 PUSH1 0x1 PUSH1 0xA0 SHL SUB SWAP3 SWAP1 SWAP3 AND SWAP2 SWAP1 SWAP2 OR SWAP1 SSTORE JUMP JUMPDEST PUSH1 0x60 PUSH0 DUP1 DUP5 PUSH1 0x1 PUSH1 0x1 PUSH1 0xA0 SHL SUB AND DUP5 PUSH1 0x40 MLOAD PUSH2 0x3E33 SWAP2 SWAP1 PUSH2 0x51BB JUMP JUMPDEST PUSH0 PUSH1 0x40 MLOAD DUP1 DUP4 SUB DUP2 DUP6 GAS DELEGATECALL SWAP2 POP POP RETURNDATASIZE DUP1 PUSH0 DUP2 EQ PUSH2 0x3E6B JUMPI PUSH1 0x40 MLOAD SWAP2 POP PUSH1 0x1F NOT PUSH1 0x3F RETURNDATASIZE ADD AND DUP3 ADD PUSH1 0x40 MSTORE RETURNDATASIZE DUP3 MSTORE RETURNDATASIZE PUSH0 PUSH1 0x20 DUP5 ADD RETURNDATACOPY PUSH2 0x3E70 JUMP JUMPDEST PUSH1 0x60 SWAP2 POP JUMPDEST POP SWAP2 POP SWAP2 POP PUSH2 0x225E DUP6 DUP4 DUP4 PUSH2 0x45FF JUMP JUMPDEST CALLVALUE ISZERO PUSH2 0x1428 JUMPI PUSH1 0x40 MLOAD PUSH4 0xB398979F PUSH1 0xE0 SHL DUP2 MSTORE PUSH1 0x4 ADD PUSH1 0x40 MLOAD DUP1 SWAP2 SUB SWAP1 REVERT JUMPDEST PUSH1 0x1 PUSH1 0xBF SHL PUSH8 0xFF00000000000000 DUP3 AND ISZERO PUSH2 0x3FAC JUMPI PUSH8 0x8000000000000000 DUP3 AND ISZERO PUSH2 0x3ED3 JUMPI PUSH9 0x16A09E667F3BCC909 MUL PUSH1 0x40 SHR JUMPDEST PUSH8 0x4000000000000000 DUP3 AND ISZERO PUSH2 0x3EF2 JUMPI PUSH9 0x1306FE0A31B7152DF MUL PUSH1 0x40 SHR JUMPDEST PUSH8 0x2000000000000000 DUP3 AND ISZERO PUSH2 0x3F11 JUMPI PUSH9 0x1172B83C7D517ADCE MUL PUSH1 0x40 SHR JUMPDEST PUSH8 0x1000000000000000 DUP3 AND ISZERO PUSH2 0x3F30 JUMPI PUSH9 0x10B5586CF9890F62A MUL PUSH1 0x40 SHR JUMPDEST PUSH8 0x800000000000000 DUP3 AND ISZERO PUSH2 0x3F4F JUMPI PUSH9 0x1059B0D31585743AE MUL PUSH1 0x40 SHR JUMPDEST PUSH8 0x400000000000000 DUP3 AND ISZERO PUSH2 0x3F6E JUMPI PUSH9 0x102C9A3E778060EE7 MUL PUSH1 0x40 SHR JUMPDEST PUSH8 0x200000000000000 DUP3 AND ISZERO PUSH2 0x3F8D JUMPI PUSH9 0x10163DA9FB33356D8 MUL PUSH1 0x40 SHR JUMPDEST PUSH8 0x100000000000000 DUP3 AND ISZERO PUSH2 0x3FAC JUMPI PUSH9 0x100B1AFA5ABCBED61 MUL PUSH1 0x40 SHR JUMPDEST PUSH7 0xFF000000000000 DUP3 AND ISZERO PUSH2 0x40AB JUMPI PUSH7 0x80000000000000 DUP3 AND ISZERO PUSH2 0x3FD9 JUMPI PUSH9 0x10058C86DA1C09EA2 MUL PUSH1 0x40 SHR JUMPDEST PUSH7 0x40000000000000 DUP3 AND ISZERO PUSH2 0x3FF7 JUMPI PUSH9 0x1002C605E2E8CEC50 MUL PUSH1 0x40 SHR JUMPDEST PUSH7 0x20000000000000 DUP3 AND ISZERO PUSH2 0x4015 JUMPI PUSH9 0x100162F3904051FA1 MUL PUSH1 0x40 SHR JUMPDEST PUSH7 0x10000000000000 DUP3 AND ISZERO PUSH2 0x4033 JUMPI PUSH9 0x1000B175EFFDC76BA MUL PUSH1 0x40 SHR JUMPDEST PUSH7 0x8000000000000 DUP3 AND ISZERO PUSH2 0x4051 JUMPI PUSH9 0x100058BA01FB9F96D MUL PUSH1 0x40 SHR JUMPDEST PUSH7 0x4000000000000 DUP3 AND ISZERO PUSH2 0x406F JUMPI PUSH9 0x10002C5CC37DA9492 MUL PUSH1 0x40 SHR JUMPDEST PUSH7 0x2000000000000 DUP3 AND ISZERO PUSH2 0x408D JUMPI PUSH9 0x1000162E525EE0547 MUL PUSH1 0x40 SHR JUMPDEST PUSH7 0x1000000000000 DUP3 AND ISZERO PUSH2 0x40AB JUMPI PUSH9 0x10000B17255775C04 MUL PUSH1 0x40 SHR JUMPDEST PUSH6 0xFF0000000000 DUP3 AND ISZERO PUSH2 0x41A1 JUMPI PUSH6 0x800000000000 DUP3 AND ISZERO PUSH2 0x40D6 JUMPI PUSH9 0x1000058B91B5BC9AE MUL PUSH1 0x40 SHR JUMPDEST PUSH6 0x400000000000 DUP3 AND ISZERO PUSH2 0x40F3 JUMPI PUSH9 0x100002C5C89D5EC6D MUL PUSH1 0x40 SHR JUMPDEST PUSH6 0x200000000000 DUP3 AND ISZERO PUSH2 0x4110 JUMPI PUSH9 0x10000162E43F4F831 MUL PUSH1 0x40 SHR JUMPDEST PUSH6 0x100000000000 DUP3 AND ISZERO PUSH2 0x412D JUMPI PUSH9 0x100000B1721BCFC9A MUL PUSH1 0x40 SHR JUMPDEST PUSH6 0x80000000000 DUP3 AND ISZERO PUSH2 0x414A JUMPI PUSH9 0x10000058B90CF1E6E MUL PUSH1 0x40 SHR JUMPDEST PUSH6 0x40000000000 DUP3 AND ISZERO PUSH2 0x4167 JUMPI PUSH9 0x1000002C5C863B73F MUL PUSH1 0x40 SHR JUMPDEST PUSH6 0x20000000000 DUP3 AND ISZERO PUSH2 0x4184 JUMPI PUSH9 0x100000162E430E5A2 MUL PUSH1 0x40 SHR JUMPDEST PUSH6 0x10000000000 DUP3 AND ISZERO PUSH2 0x41A1 JUMPI PUSH9 0x1000000B172183551 MUL PUSH1 0x40 SHR JUMPDEST PUSH5 0xFF00000000 DUP3 AND ISZERO PUSH2 0x428E JUMPI PUSH5 0x8000000000 DUP3 AND ISZERO PUSH2 0x41CA JUMPI PUSH9 0x100000058B90C0B49 MUL PUSH1 0x40 SHR JUMPDEST PUSH5 0x4000000000 DUP3 AND ISZERO PUSH2 0x41E6 JUMPI PUSH9 0x10000002C5C8601CC MUL PUSH1 0x40 SHR JUMPDEST PUSH5 0x2000000000 DUP3 AND ISZERO PUSH2 0x4202 JUMPI PUSH9 0x1000000162E42FFF0 MUL PUSH1 0x40 SHR JUMPDEST PUSH5 0x1000000000 DUP3 AND ISZERO PUSH2 0x421E JUMPI PUSH9 0x10000000B17217FBB MUL PUSH1 0x40 SHR JUMPDEST PUSH5 0x800000000 DUP3 AND ISZERO PUSH2 0x423A JUMPI PUSH9 0x1000000058B90BFCE MUL PUSH1 0x40 SHR JUMPDEST PUSH5 0x400000000 DUP3 AND ISZERO PUSH2 0x4256 JUMPI PUSH9 0x100000002C5C85FE3 MUL PUSH1 0x40 SHR JUMPDEST PUSH5 0x200000000 DUP3 AND ISZERO PUSH2 0x4272 JUMPI PUSH9 0x10000000162E42FF1 MUL PUSH1 0x40 SHR JUMPDEST PUSH5 0x100000000 DUP3 AND ISZERO PUSH2 0x428E JUMPI PUSH9 0x100000000B17217F8 MUL PUSH1 0x40 SHR JUMPDEST PUSH4 0xFF000000 DUP3 AND ISZERO PUSH2 0x4372 JUMPI PUSH4 0x80000000 DUP3 AND ISZERO PUSH2 0x42B5 JUMPI PUSH9 0x10000000058B90BFC MUL PUSH1 0x40 SHR JUMPDEST PUSH4 0x40000000 DUP3 AND ISZERO PUSH2 0x42D0 JUMPI PUSH9 0x1000000002C5C85FE MUL PUSH1 0x40 SHR JUMPDEST PUSH4 0x20000000 DUP3 AND ISZERO PUSH2 0x42EB JUMPI PUSH9 0x100000000162E42FF MUL PUSH1 0x40 SHR JUMPDEST PUSH4 0x10000000 DUP3 AND ISZERO PUSH2 0x4306 JUMPI PUSH9 0x1000000000B17217F MUL PUSH1 0x40 SHR JUMPDEST PUSH4 0x8000000 DUP3 AND ISZERO PUSH2 0x4321 JUMPI PUSH9 0x100000000058B90C0 MUL PUSH1 0x40 SHR JUMPDEST PUSH4 0x4000000 DUP3 AND ISZERO PUSH2 0x433C JUMPI PUSH9 0x10000000002C5C860 MUL PUSH1 0x40 SHR JUMPDEST PUSH4 0x2000000 DUP3 AND ISZERO PUSH2 0x4357 JUMPI PUSH9 0x1000000000162E430 MUL PUSH1 0x40 SHR JUMPDEST PUSH4 0x1000000 DUP3 AND ISZERO PUSH2 0x4372 JUMPI PUSH9 0x10000000000B17218 MUL PUSH1 0x40 SHR JUMPDEST PUSH3 0xFF0000 DUP3 AND ISZERO PUSH2 0x444D JUMPI PUSH3 0x800000 DUP3 AND ISZERO PUSH2 0x4397 JUMPI PUSH9 0x1000000000058B90C MUL PUSH1 0x40 SHR JUMPDEST PUSH3 0x400000 DUP3 AND ISZERO PUSH2 0x43B1 JUMPI PUSH9 0x100000000002C5C86 MUL PUSH1 0x40 SHR JUMPDEST PUSH3 0x200000 DUP3 AND ISZERO PUSH2 0x43CB JUMPI PUSH9 0x10000000000162E43 MUL PUSH1 0x40 SHR JUMPDEST PUSH3 0x100000 DUP3 AND ISZERO PUSH2 0x43E5 JUMPI PUSH9 0x100000000000B1721 MUL PUSH1 0x40 SHR JUMPDEST PUSH3 0x80000 DUP3 AND ISZERO PUSH2 0x43FF JUMPI PUSH9 0x10000000000058B91 MUL PUSH1 0x40 SHR JUMPDEST PUSH3 0x40000 DUP3 AND ISZERO PUSH2 0x4419 JUMPI PUSH9 0x1000000000002C5C8 MUL PUSH1 0x40 SHR JUMPDEST PUSH3 0x20000 DUP3 AND ISZERO PUSH2 0x4433 JUMPI PUSH9 0x100000000000162E4 MUL PUSH1 0x40 SHR JUMPDEST PUSH3 0x10000 DUP3 AND ISZERO PUSH2 0x444D JUMPI PUSH9 0x1000000000000B172 MUL PUSH1 0x40 SHR JUMPDEST PUSH2 0xFF00 DUP3 AND ISZERO PUSH2 0x451F JUMPI PUSH2 0x8000 DUP3 AND ISZERO PUSH2 0x4470 JUMPI PUSH9 0x100000000000058B9 MUL PUSH1 0x40 SHR JUMPDEST PUSH2 0x4000 DUP3 AND ISZERO PUSH2 0x4489 JUMPI PUSH9 0x10000000000002C5D MUL PUSH1 0x40 SHR JUMPDEST PUSH2 0x2000 DUP3 AND ISZERO PUSH2 0x44A2 JUMPI PUSH9 0x1000000000000162E MUL PUSH1 0x40 SHR JUMPDEST PUSH2 0x1000 DUP3 AND ISZERO PUSH2 0x44BB JUMPI PUSH9 0x10000000000000B17 MUL PUSH1 0x40 SHR JUMPDEST PUSH2 0x800 DUP3 AND ISZERO PUSH2 0x44D4 JUMPI PUSH9 0x1000000000000058C MUL PUSH1 0x40 SHR JUMPDEST PUSH2 0x400 DUP3 AND ISZERO PUSH2 0x44ED JUMPI PUSH9 0x100000000000002C6 MUL PUSH1 0x40 SHR JUMPDEST PUSH2 0x200 DUP3 AND ISZERO PUSH2 0x4506 JUMPI PUSH9 0x10000000000000163 MUL PUSH1 0x40 SHR JUMPDEST PUSH2 0x100 DUP3 AND ISZERO PUSH2 0x451F JUMPI PUSH9 0x100000000000000B1 MUL PUSH1 0x40 SHR JUMPDEST PUSH1 0xFF DUP3 AND ISZERO PUSH2 0x45E8 JUMPI PUSH1 0x80 DUP3 AND ISZERO PUSH2 0x4540 JUMPI PUSH9 0x10000000000000059 MUL PUSH1 0x40 SHR JUMPDEST PUSH1 0x40 DUP3 AND ISZERO PUSH2 0x4558 JUMPI PUSH9 0x1000000000000002C MUL PUSH1 0x40 SHR JUMPDEST PUSH1 0x20 DUP3 AND ISZERO PUSH2 0x4570 JUMPI PUSH9 0x10000000000000016 MUL PUSH1 0x40 SHR JUMPDEST PUSH1 0x10 DUP3 AND ISZERO PUSH2 0x4588 JUMPI PUSH9 0x1000000000000000B MUL PUSH1 0x40 SHR JUMPDEST PUSH1 0x8 DUP3 AND ISZERO PUSH2 0x45A0 JUMPI PUSH9 0x10000000000000006 MUL PUSH1 0x40 SHR JUMPDEST PUSH1 0x4 DUP3 AND ISZERO PUSH2 0x45B8 JUMPI PUSH9 0x10000000000000003 MUL PUSH1 0x40 SHR JUMPDEST PUSH1 0x2 DUP3 AND ISZERO PUSH2 0x45D0 JUMPI PUSH9 0x10000000000000001 MUL PUSH1 0x40 SHR JUMPDEST PUSH1 0x1 DUP3 AND ISZERO PUSH2 0x45E8 JUMPI PUSH9 0x10000000000000001 MUL PUSH1 0x40 SHR JUMPDEST PUSH8 0xDE0B6B3A7640000 MUL PUSH1 0x40 SWAP2 SWAP1 SWAP2 SHR PUSH1 0xBF SUB SHR SWAP1 JUMP JUMPDEST PUSH1 0x60 DUP3 PUSH2 0x4614 JUMPI PUSH2 0x460F DUP3 PUSH2 0x465B JUMP JUMPDEST PUSH2 0x1047 JUMP JUMPDEST DUP2 MLOAD ISZERO DUP1 ISZERO PUSH2 0x462B JUMPI POP PUSH1 0x1 PUSH1 0x1 PUSH1 0xA0 SHL SUB DUP5 AND EXTCODESIZE ISZERO JUMPDEST ISZERO PUSH2 0x4654 JUMPI PUSH1 0x40 MLOAD PUSH4 0x9996B315 PUSH1 0xE0 SHL DUP2 MSTORE PUSH1 0x1 PUSH1 0x1 PUSH1 0xA0 SHL SUB DUP6 AND PUSH1 0x4 DUP3 ADD MSTORE PUSH1 0x24 ADD PUSH2 0xE5E JUMP JUMPDEST POP DUP1 PUSH2 0x1047 JUMP JUMPDEST DUP1 MLOAD ISZERO PUSH2 0x466B JUMPI DUP1 MLOAD DUP1 DUP3 PUSH1 0x20 ADD REVERT JUMPDEST PUSH1 0x40 MLOAD PUSH4 0xA12F521 PUSH1 0xE1 SHL DUP2 MSTORE PUSH1 0x4 ADD PUSH1 0x40 MLOAD DUP1 SWAP2 SUB SWAP1 REVERT JUMPDEST PUSH1 0x40 MLOAD DUP1 PUSH2 0x100 ADD PUSH1 0x40 MSTORE DUP1 PUSH1 0x60 DUP2 MSTORE PUSH1 0x20 ADD PUSH1 0x60 DUP2 MSTORE PUSH1 0x20 ADD PUSH0 DUP2 MSTORE PUSH1 0x20 ADD PUSH0 DUP2 MSTORE PUSH1 0x20 ADD PUSH0 DUP2 MSTORE PUSH1 0x20 ADD PUSH0 PUSH1 0x3 DUP2 GT ISZERO PUSH2 0x46C2 JUMPI PUSH2 0x46C2 PUSH2 0x4973 JUMP JUMPDEST DUP2 MSTORE PUSH1 0x60 PUSH1 0x20 DUP3 ADD MSTORE PUSH0 PUSH1 0x40 SWAP1 SWAP2 ADD MSTORE SWAP1 JUMP JUMPDEST PUSH1 0x1 PUSH1 0x1 PUSH1 0xE0 SHL SUB NOT DUP2 AND DUP2 EQ PUSH2 0x1A93 JUMPI PUSH0 DUP1 REVERT JUMPDEST PUSH0 PUSH1 0x20 DUP3 DUP5 SUB SLT ISZERO PUSH2 0x46FA JUMPI PUSH0 DUP1 REVERT JUMPDEST DUP2 CALLDATALOAD PUSH2 0x1047 DUP2 PUSH2 0x46D5 JUMP JUMPDEST PUSH0 DUP1 PUSH1 0x40 DUP4 DUP6 SUB SLT ISZERO PUSH2 0x4716 JUMPI PUSH0 DUP1 REVERT JUMPDEST POP POP DUP1 CALLDATALOAD SWAP3 PUSH1 0x20 SWAP1 SWAP2 ADD CALLDATALOAD SWAP2 POP JUMP JUMPDEST PUSH0 DUP2 MLOAD DUP1 DUP5 MSTORE DUP1 PUSH1 0x20 DUP5 ADD PUSH1 0x20 DUP7 ADD MCOPY PUSH0 PUSH1 0x20 DUP3 DUP7 ADD ADD MSTORE PUSH1 0x20 PUSH1 0x1F NOT PUSH1 0x1F DUP4 ADD AND DUP6 ADD ADD SWAP2 POP POP SWAP3 SWAP2 POP POP JUMP JUMPDEST PUSH1 0x20 DUP2 MSTORE PUSH0 PUSH2 0x1047 PUSH1 0x20 DUP4 ADD DUP5 PUSH2 0x4725 JUMP JUMPDEST PUSH0 PUSH1 0x20 DUP3 DUP5 SUB SLT ISZERO PUSH2 0x4775 JUMPI PUSH0 DUP1 REVERT JUMPDEST POP CALLDATALOAD SWAP2 SWAP1 POP JUMP JUMPDEST DUP1 CALLDATALOAD PUSH1 0x1 PUSH1 0x1 PUSH1 0xA0 SHL SUB DUP2 AND DUP2 EQ PUSH2 0x4792 JUMPI PUSH0 DUP1 REVERT JUMPDEST SWAP2 SWAP1 POP JUMP JUMPDEST PUSH0 DUP1 PUSH1 0x40 DUP4 DUP6 SUB SLT ISZERO PUSH2 0x47A8 JUMPI PUSH0 DUP1 REVERT JUMPDEST PUSH2 0x47B1 DUP4 PUSH2 0x477C JUMP JUMPDEST SWAP5 PUSH1 0x20 SWAP4 SWAP1 SWAP4 ADD CALLDATALOAD SWAP4 POP POP POP JUMP JUMPDEST PUSH0 DUP1 PUSH0 PUSH1 0x60 DUP5 DUP7 SUB SLT ISZERO PUSH2 0x47D1 JUMPI PUSH0 DUP1 REVERT JUMPDEST PUSH2 0x47DA DUP5 PUSH2 0x477C JUMP JUMPDEST SWAP6 PUSH1 0x20 DUP6 ADD CALLDATALOAD SWAP6 POP PUSH1 0x40 SWAP1 SWAP5 ADD CALLDATALOAD SWAP4 SWAP3 POP POP POP JUMP JUMPDEST PUSH0 DUP1 PUSH0 PUSH1 0x60 DUP5 DUP7 SUB SLT ISZERO PUSH2 0x4801 JUMPI PUSH0 DUP1 REVERT JUMPDEST PUSH2 0x480A DUP5 PUSH2 0x477C JUMP JUMPDEST SWAP3 POP PUSH2 0x4818 PUSH1 0x20 DUP6 ADD PUSH2 0x477C JUMP JUMPDEST SWAP2 POP PUSH1 0x40 DUP5 ADD CALLDATALOAD SWAP1 POP SWAP3 POP SWAP3 POP SWAP3 JUMP JUMPDEST PUSH0 DUP1 PUSH1 0x40 DUP4 DUP6 SUB SLT ISZERO PUSH2 0x4839 JUMPI PUSH0 DUP1 REVERT JUMPDEST DUP3 CALLDATALOAD SWAP2 POP PUSH2 0x4849 PUSH1 0x20 DUP5 ADD PUSH2 0x477C JUMP JUMPDEST SWAP1 POP SWAP3 POP SWAP3 SWAP1 POP JUMP JUMPDEST PUSH0 PUSH1 0x20 DUP3 DUP5 SUB SLT ISZERO PUSH2 0x4862 JUMPI PUSH0 DUP1 REVERT JUMPDEST PUSH2 0x1047 DUP3 PUSH2 0x477C JUMP JUMPDEST PUSH4 0x4E487B71 PUSH1 0xE0 SHL PUSH0 MSTORE PUSH1 0x41 PUSH1 0x4 MSTORE PUSH1 0x24 PUSH0 REVERT JUMPDEST PUSH0 DUP3 PUSH1 0x1F DUP4 ADD SLT PUSH2 0x488E JUMPI PUSH0 DUP1 REVERT JUMPDEST DUP2 CALLDATALOAD PUSH1 0x1 PUSH1 0x1 PUSH1 0x40 SHL SUB DUP1 DUP3 GT ISZERO PUSH2 0x48A8 JUMPI PUSH2 0x48A8 PUSH2 0x486B JUMP JUMPDEST PUSH1 0x40 MLOAD PUSH1 0x1F DUP4 ADD PUSH1 0x1F NOT SWAP1 DUP2 AND PUSH1 0x3F ADD AND DUP2 ADD SWAP1 DUP3 DUP3 GT DUP2 DUP4 LT OR ISZERO PUSH2 0x48D0 JUMPI PUSH2 0x48D0 PUSH2 0x486B JUMP JUMPDEST DUP2 PUSH1 0x40 MSTORE DUP4 DUP2 MSTORE DUP7 PUSH1 0x20 DUP6 DUP9 ADD ADD GT ISZERO PUSH2 0x48E8 JUMPI PUSH0 DUP1 REVERT JUMPDEST DUP4 PUSH1 0x20 DUP8 ADD PUSH1 0x20 DUP4 ADD CALLDATACOPY PUSH0 PUSH1 0x20 DUP6 DUP4 ADD ADD MSTORE DUP1 SWAP5 POP POP POP POP POP SWAP3 SWAP2 POP POP JUMP JUMPDEST PUSH0 PUSH1 0x20 DUP3 DUP5 SUB SLT ISZERO PUSH2 0x4917 JUMPI PUSH0 DUP1 REVERT JUMPDEST DUP2 CALLDATALOAD PUSH1 0x1 PUSH1 0x1 PUSH1 0x40 SHL SUB DUP2 GT ISZERO PUSH2 0x492C JUMPI PUSH0 DUP1 REVERT JUMPDEST PUSH2 0x3228 DUP5 DUP3 DUP6 ADD PUSH2 0x487F JUMP JUMPDEST PUSH1 0xC0 DUP2 MSTORE PUSH0 PUSH2 0x494A PUSH1 0xC0 DUP4 ADD DUP10 PUSH2 0x4725 JUMP JUMPDEST PUSH1 0x20 DUP4 ADD SWAP8 SWAP1 SWAP8 MSTORE POP PUSH1 0x40 DUP2 ADD SWAP5 SWAP1 SWAP5 MSTORE PUSH1 0x60 DUP5 ADD SWAP3 SWAP1 SWAP3 MSTORE PUSH1 0x80 DUP4 ADD MSTORE PUSH1 0xA0 SWAP1 SWAP2 ADD MSTORE SWAP2 SWAP1 POP JUMP JUMPDEST PUSH4 0x4E487B71 PUSH1 0xE0 SHL PUSH0 MSTORE PUSH1 0x21 PUSH1 0x4 MSTORE PUSH1 0x24 PUSH0 REVERT JUMPDEST PUSH1 0x4 DUP2 LT PUSH2 0x49A3 JUMPI PUSH4 0x4E487B71 PUSH1 0xE0 SHL PUSH0 MSTORE PUSH1 0x21 PUSH1 0x4 MSTORE PUSH1 0x24 PUSH0 REVERT JUMPDEST SWAP1 MSTORE JUMP JUMPDEST PUSH0 PUSH2 0x100 DUP1 DUP4 MSTORE PUSH2 0x49BA DUP2 DUP5 ADD DUP13 PUSH2 0x4725 JUMP JUMPDEST SWAP1 POP DUP3 DUP2 SUB PUSH1 0x20 DUP5 ADD MSTORE PUSH2 0x49CE DUP2 DUP12 PUSH2 0x4725 JUMP JUMPDEST SWAP1 POP DUP9 PUSH1 0x40 DUP5 ADD MSTORE DUP8 PUSH1 0x60 DUP5 ADD MSTORE DUP7 PUSH1 0x80 DUP5 ADD MSTORE PUSH2 0x49EF PUSH1 0xA0 DUP5 ADD DUP8 PUSH2 0x4987 JUMP JUMPDEST DUP3 DUP2 SUB PUSH1 0xC0 DUP5 ADD MSTORE PUSH2 0x4A01 DUP2 DUP7 PUSH2 0x4725 JUMP JUMPDEST SWAP2 POP POP PUSH1 0x1 DUP1 PUSH1 0xA0 SHL SUB DUP4 AND PUSH1 0xE0 DUP4 ADD MSTORE SWAP10 SWAP9 POP POP POP POP POP POP POP POP POP JUMP JUMPDEST PUSH0 DUP1 PUSH1 0x40 DUP4 DUP6 SUB SLT ISZERO PUSH2 0x4A30 JUMPI PUSH0 DUP1 REVERT JUMPDEST PUSH2 0x4A39 DUP4 PUSH2 0x477C JUMP JUMPDEST SWAP2 POP PUSH1 0x20 DUP4 ADD CALLDATALOAD PUSH1 0x1 PUSH1 0x1 PUSH1 0x40 SHL SUB DUP2 GT ISZERO PUSH2 0x4A53 JUMPI PUSH0 DUP1 REVERT JUMPDEST PUSH2 0x4A5F DUP6 DUP3 DUP7 ADD PUSH2 0x487F JUMP JUMPDEST SWAP2 POP POP SWAP3 POP SWAP3 SWAP1 POP JUMP JUMPDEST PUSH1 0x20 DUP2 ADD PUSH2 0xE0F DUP3 DUP5 PUSH2 0x4987 JUMP JUMPDEST PUSH1 0x20 DUP2 MSTORE PUSH0 DUP3 MLOAD PUSH2 0x100 DUP1 PUSH1 0x20 DUP6 ADD MSTORE PUSH2 0x4A95 PUSH2 0x120 DUP6 ADD DUP4 PUSH2 0x4725 JUMP JUMPDEST SWAP2 POP PUSH1 0x20 DUP6 ADD MLOAD PUSH1 0x1F NOT DUP1 DUP7 DUP6 SUB ADD PUSH1 0x40 DUP8 ADD MSTORE PUSH2 0x4AB3 DUP5 DUP4 PUSH2 0x4725 JUMP JUMPDEST SWAP4 POP PUSH1 0x40 DUP8 ADD MLOAD PUSH1 0x60 DUP8 ADD MSTORE PUSH1 0x60 DUP8 ADD MLOAD PUSH1 0x80 DUP8 ADD MSTORE PUSH1 0x80 DUP8 ADD MLOAD PUSH1 0xA0 DUP8 ADD MSTORE PUSH1 0xA0 DUP8 ADD MLOAD SWAP2 POP PUSH2 0x4AE7 PUSH1 0xC0 DUP8 ADD DUP4 PUSH2 0x4987 JUMP JUMPDEST PUSH1 0xC0 DUP8 ADD MLOAD SWAP2 POP DUP1 DUP7 DUP6 SUB ADD PUSH1 0xE0 DUP8 ADD MSTORE POP PUSH2 0x4B03 DUP4 DUP3 PUSH2 0x4725 JUMP JUMPDEST SWAP3 POP POP PUSH1 0xE0 DUP6 ADD MLOAD PUSH2 0x4B1F DUP3 DUP7 ADD DUP3 PUSH1 0x1 PUSH1 0x1 PUSH1 0xA0 SHL SUB AND SWAP1 MSTORE JUMP JUMPDEST POP SWAP1 SWAP5 SWAP4 POP POP POP POP JUMP JUMPDEST PUSH0 DUP1 PUSH0 DUP1 PUSH1 0x80 DUP6 DUP8 SUB SLT ISZERO PUSH2 0x4B3C JUMPI PUSH0 DUP1 REVERT JUMPDEST POP POP DUP3 CALLDATALOAD SWAP5 PUSH1 0x20 DUP5 ADD CALLDATALOAD SWAP5 POP PUSH1 0x40 DUP5 ADD CALLDATALOAD SWAP4 PUSH1 0x60 ADD CALLDATALOAD SWAP3 POP SWAP1 POP JUMP JUMPDEST PUSH1 0x40 DUP2 MSTORE PUSH0 PUSH2 0x4B6A PUSH1 0x40 DUP4 ADD DUP6 PUSH2 0x4725 JUMP JUMPDEST DUP3 DUP2 SUB PUSH1 0x20 DUP5 ADD MSTORE PUSH2 0x225E DUP2 DUP6 PUSH2 0x4725 JUMP JUMPDEST DUP1 CALLDATALOAD DUP1 ISZERO ISZERO DUP2 EQ PUSH2 0x4792 JUMPI PUSH0 DUP1 REVERT JUMPDEST PUSH0 DUP1 PUSH1 0x40 DUP4 DUP6 SUB SLT ISZERO PUSH2 0x4B9C JUMPI PUSH0 DUP1 REVERT JUMPDEST DUP3 CALLDATALOAD PUSH1 0x1 PUSH1 0x1 PUSH1 0x40 SHL SUB DUP2 GT ISZERO PUSH2 0x4BB1 JUMPI PUSH0 DUP1 REVERT JUMPDEST PUSH2 0x4BBD DUP6 DUP3 DUP7 ADD PUSH2 0x487F JUMP JUMPDEST SWAP3 POP POP PUSH2 0x4849 PUSH1 0x20 DUP5 ADD PUSH2 0x4B7C JUMP JUMPDEST PUSH0 DUP1 DUP4 PUSH1 0x1F DUP5 ADD SLT PUSH2 0x4BDC JUMPI PUSH0 DUP1 REVERT JUMPDEST POP DUP2 CALLDATALOAD PUSH1 0x1 PUSH1 0x1 PUSH1 0x40 SHL SUB DUP2 GT ISZERO PUSH2 0x4BF2 JUMPI PUSH0 DUP1 REVERT JUMPDEST PUSH1 0x20 DUP4 ADD SWAP2 POP DUP4 PUSH1 0x20 DUP3 DUP6 ADD ADD GT ISZERO PUSH2 0x4C09 JUMPI PUSH0 DUP1 REVERT JUMPDEST SWAP3 POP SWAP3 SWAP1 POP JUMP JUMPDEST PUSH0 DUP1 PUSH0 DUP1 PUSH0 PUSH1 0x60 DUP7 DUP9 SUB SLT ISZERO PUSH2 0x4C24 JUMPI PUSH0 DUP1 REVERT JUMPDEST PUSH2 0x4C2D DUP7 PUSH2 0x477C JUMP JUMPDEST SWAP5 POP PUSH1 0x20 DUP7 ADD CALLDATALOAD PUSH1 0x1 PUSH1 0x1 PUSH1 0x40 SHL SUB DUP1 DUP3 GT ISZERO PUSH2 0x4C48 JUMPI PUSH0 DUP1 REVERT JUMPDEST PUSH2 0x4C54 DUP10 DUP4 DUP11 ADD PUSH2 0x4BCC JUMP JUMPDEST SWAP1 SWAP7 POP SWAP5 POP PUSH1 0x40 DUP9 ADD CALLDATALOAD SWAP2 POP DUP1 DUP3 GT ISZERO PUSH2 0x4C6C JUMPI PUSH0 DUP1 REVERT JUMPDEST POP PUSH2 0x4C79 DUP9 DUP3 DUP10 ADD PUSH2 0x4BCC JUMP JUMPDEST SWAP7 SWAP10 SWAP6 SWAP9 POP SWAP4 SWAP7 POP SWAP3 SWAP5 SWAP4 SWAP3 POP POP POP JUMP JUMPDEST PUSH1 0x20 DUP2 MSTORE PUSH0 DUP3 MLOAD PUSH1 0xC0 PUSH1 0x20 DUP5 ADD MSTORE PUSH2 0x4CA5 PUSH1 0xE0 DUP5 ADD DUP3 PUSH2 0x4725 JUMP JUMPDEST SWAP1 POP PUSH1 0x20 DUP5 ADD MLOAD PUSH1 0x40 DUP5 ADD MSTORE PUSH1 0x40 DUP5 ADD MLOAD PUSH1 0x60 DUP5 ADD MSTORE PUSH1 0x60 DUP5 ADD MLOAD PUSH1 0x80 DUP5 ADD MSTORE PUSH1 0x80 DUP5 ADD MLOAD PUSH1 0xA0 DUP5 ADD MSTORE PUSH1 0xA0 DUP5 ADD MLOAD PUSH1 0xC0 DUP5 ADD MSTORE DUP1 SWAP2 POP POP SWAP3 SWAP2 POP POP JUMP JUMPDEST PUSH0 DUP1 PUSH0 DUP1 PUSH0 DUP1 PUSH1 0xC0 DUP8 DUP10 SUB SLT ISZERO PUSH2 0x4CF8 JUMPI PUSH0 DUP1 REVERT JUMPDEST DUP7 CALLDATALOAD PUSH1 0x1 PUSH1 0x1 PUSH1 0x40 SHL SUB DUP2 GT ISZERO PUSH2 0x4D0D JUMPI PUSH0 DUP1 REVERT JUMPDEST PUSH2 0x4D19 DUP10 DUP3 DUP11 ADD PUSH2 0x487F JUMP JUMPDEST SWAP7 POP POP PUSH1 0x20 DUP8 ADD CALLDATALOAD SWAP5 POP PUSH1 0x40 DUP8 ADD CALLDATALOAD SWAP4 POP PUSH1 0x60 DUP8 ADD CALLDATALOAD SWAP3 POP PUSH1 0x80 DUP8 ADD CALLDATALOAD SWAP2 POP PUSH2 0x4D44 PUSH1 0xA0 DUP9 ADD PUSH2 0x4B7C JUMP JUMPDEST SWAP1 POP SWAP3 SWAP6 POP SWAP3 SWAP6 POP SWAP3 SWAP6 JUMP JUMPDEST PUSH0 DUP1 PUSH0 DUP1 PUSH0 PUSH1 0xA0 DUP7 DUP9 SUB SLT ISZERO PUSH2 0x4D64 JUMPI PUSH0 DUP1 REVERT JUMPDEST DUP6 CALLDATALOAD SWAP5 POP PUSH1 0x20 DUP7 ADD CALLDATALOAD SWAP4 POP PUSH1 0x40 DUP7 ADD CALLDATALOAD SWAP3 POP PUSH1 0x60 DUP7 ADD CALLDATALOAD SWAP2 POP PUSH2 0x4D89 PUSH1 0x80 DUP8 ADD PUSH2 0x4B7C JUMP JUMPDEST SWAP1 POP SWAP3 SWAP6 POP SWAP3 SWAP6 SWAP1 SWAP4 POP JUMP JUMPDEST PUSH0 DUP1 PUSH1 0x40 DUP4 DUP6 SUB SLT ISZERO PUSH2 0x4DA6 JUMPI PUSH0 DUP1 REVERT JUMPDEST PUSH2 0x4DAF DUP4 PUSH2 0x477C JUMP JUMPDEST SWAP2 POP PUSH2 0x4849 PUSH1 0x20 DUP5 ADD PUSH2 0x4B7C JUMP JUMPDEST PUSH0 DUP1 PUSH0 DUP1 PUSH1 0x80 DUP6 DUP8 SUB SLT ISZERO PUSH2 0x4DD0 JUMPI PUSH0 DUP1 REVERT JUMPDEST PUSH2 0x4DD9 DUP6 PUSH2 0x477C JUMP JUMPDEST SWAP4 POP PUSH2 0x4DE7 PUSH1 0x20 DUP7 ADD PUSH2 0x477C JUMP JUMPDEST SWAP3 POP PUSH1 0x40 DUP6 ADD CALLDATALOAD SWAP2 POP PUSH1 0x60 DUP6 ADD CALLDATALOAD PUSH1 0x1 PUSH1 0x1 PUSH1 0x40 SHL SUB DUP2 GT ISZERO PUSH2 0x4E08 JUMPI PUSH0 DUP1 REVERT JUMPDEST PUSH2 0x4E14 DUP8 DUP3 DUP9 ADD PUSH2 0x487F JUMP JUMPDEST SWAP2 POP POP SWAP3 SWAP6 SWAP2 SWAP5 POP SWAP3 POP JUMP JUMPDEST PUSH1 0x20 DUP2 MSTORE PUSH0 DUP3 MLOAD PUSH1 0x40 PUSH1 0x20 DUP5 ADD MSTORE PUSH2 0x4E3B PUSH1 0x60 DUP5 ADD DUP3 PUSH2 0x4725 JUMP JUMPDEST SWAP1 POP PUSH1 0x20 DUP5 ADD MLOAD PUSH1 0x1F NOT DUP5 DUP4 SUB ADD PUSH1 0x40 DUP6 ADD MSTORE PUSH2 0x225E DUP3 DUP3 PUSH2 0x4725 JUMP JUMPDEST PUSH0 DUP1 PUSH1 0x40 DUP4 DUP6 SUB SLT ISZERO PUSH2 0x4E69 JUMPI PUSH0 DUP1 REVERT JUMPDEST PUSH2 0x4E72 DUP4 PUSH2 0x477C JUMP JUMPDEST SWAP2 POP PUSH2 0x4849 PUSH1 0x20 DUP5 ADD PUSH2 0x477C JUMP JUMPDEST PUSH0 DUP1 PUSH0 PUSH1 0x60 DUP5 DUP7 SUB SLT ISZERO PUSH2 0x4E92 JUMPI PUSH0 DUP1 REVERT JUMPDEST POP POP DUP2 CALLDATALOAD SWAP4 PUSH1 0x20 DUP4 ADD CALLDATALOAD SWAP4 POP PUSH1 0x40 SWAP1 SWAP3 ADD CALLDATALOAD SWAP2 SWAP1 POP JUMP JUMPDEST PUSH1 0x1 DUP2 DUP2 SHR SWAP1 DUP3 AND DUP1 PUSH2 0x4EBD JUMPI PUSH1 0x7F DUP3 AND SWAP2 POP JUMPDEST PUSH1 0x20 DUP3 LT DUP2 SUB PUSH2 0x4EDB JUMPI PUSH4 0x4E487B71 PUSH1 0xE0 SHL PUSH0 MSTORE PUSH1 0x22 PUSH1 0x4 MSTORE PUSH1 0x24 PUSH0 REVERT JUMPDEST POP SWAP2 SWAP1 POP JUMP JUMPDEST PUSH1 0x20 DUP1 DUP3 MSTORE PUSH1 0x21 SWAP1 DUP3 ADD MSTORE PUSH32 0x4572726F723A2063616C6C6572206973206E6F74207468652076657269666965 PUSH1 0x40 DUP3 ADD MSTORE PUSH1 0x39 PUSH1 0xF9 SHL PUSH1 0x60 DUP3 ADD MSTORE PUSH1 0x80 ADD SWAP1 JUMP JUMPDEST PUSH0 DUP2 SLOAD PUSH2 0x4F2E DUP2 PUSH2 0x4EA9 JUMP JUMPDEST PUSH1 0x1 DUP3 DUP2 AND DUP1 ISZERO PUSH2 0x4F46 JUMPI PUSH1 0x1 DUP2 EQ PUSH2 0x4F5B JUMPI PUSH2 0x4F87 JUMP JUMPDEST PUSH1 0xFF NOT DUP5 AND DUP8 MSTORE DUP3 ISZERO ISZERO DUP4 MUL DUP8 ADD SWAP5 POP PUSH2 0x4F87 JUMP JUMPDEST DUP6 PUSH0 MSTORE PUSH1 0x20 DUP1 PUSH0 KECCAK256 PUSH0 JUMPDEST DUP6 DUP2 LT ISZERO PUSH2 0x4F7E JUMPI DUP2 SLOAD DUP11 DUP3 ADD MSTORE SWAP1 DUP5 ADD SWAP1 DUP3 ADD PUSH2 0x4F65 JUMP JUMPDEST POP POP POP DUP3 DUP8 ADD SWAP5 POP JUMPDEST POP POP POP POP SWAP3 SWAP2 POP POP JUMP JUMPDEST PUSH0 PUSH2 0x4F9C DUP3 DUP5 PUSH2 0x4F22 JUMP JUMPDEST PUSH32 0x2F636172626F6E4E46545F6E6F745665726966792E6A736F6E00000000000000 DUP2 MSTORE PUSH1 0x19 ADD SWAP4 SWAP3 POP POP POP JUMP JUMPDEST PUSH1 0x1F DUP3 GT ISZERO PUSH2 0x10A8 JUMPI DUP1 PUSH0 MSTORE PUSH1 0x20 PUSH0 KECCAK256 PUSH1 0x1F DUP5 ADD PUSH1 0x5 SHR DUP2 ADD PUSH1 0x20 DUP6 LT ISZERO PUSH2 0x4FEE JUMPI POP DUP1 JUMPDEST PUSH1 0x1F DUP5 ADD PUSH1 0x5 SHR DUP3 ADD SWAP2 POP JUMPDEST DUP2 DUP2 LT ISZERO PUSH2 0x223A JUMPI PUSH0 DUP2 SSTORE PUSH1 0x1 ADD PUSH2 0x4FFA JUMP JUMPDEST PUSH0 NOT PUSH1 0x3 DUP4 SWAP1 SHL SHR NOT AND PUSH1 0x1 SWAP2 SWAP1 SWAP2 SHL OR SWAP1 JUMP JUMPDEST DUP2 MLOAD PUSH1 0x1 PUSH1 0x1 PUSH1 0x40 SHL SUB DUP2 GT ISZERO PUSH2 0x503A JUMPI PUSH2 0x503A PUSH2 0x486B JUMP JUMPDEST PUSH2 0x504E DUP2 PUSH2 0x5048 DUP5 SLOAD PUSH2 0x4EA9 JUMP JUMPDEST DUP5 PUSH2 0x4FC9 JUMP JUMPDEST PUSH1 0x20 DUP1 PUSH1 0x1F DUP4 GT PUSH1 0x1 DUP2 EQ PUSH2 0x507C JUMPI PUSH0 DUP5 ISZERO PUSH2 0x506A JUMPI POP DUP6 DUP4 ADD MLOAD JUMPDEST PUSH2 0x5074 DUP6 DUP3 PUSH2 0x500D JUMP JUMPDEST DUP7 SSTORE POP PUSH2 0x50D3 JUMP JUMPDEST PUSH0 DUP6 DUP2 MSTORE PUSH1 0x20 DUP2 KECCAK256 PUSH1 0x1F NOT DUP7 AND SWAP2 JUMPDEST DUP3 DUP2 LT ISZERO PUSH2 0x50AA JUMPI DUP9 DUP7 ADD MLOAD DUP3 SSTORE SWAP5 DUP5 ADD SWAP5 PUSH1 0x1 SWAP1 SWAP2 ADD SWAP1 DUP5 ADD PUSH2 0x508B JUMP JUMPDEST POP DUP6 DUP3 LT ISZERO PUSH2 0x50C7 JUMPI DUP8 DUP6 ADD MLOAD PUSH0 NOT PUSH1 0x3 DUP9 SWAP1 SHL PUSH1 0xF8 AND SHR NOT AND DUP2 SSTORE JUMPDEST POP POP PUSH1 0x1 DUP5 PUSH1 0x1 SHL ADD DUP6 SSTORE JUMPDEST POP POP POP POP POP POP JUMP JUMPDEST DUP2 DUP2 SUB PUSH2 0x50E6 JUMPI POP POP JUMP JUMPDEST PUSH2 0x50F0 DUP3 SLOAD PUSH2 0x4EA9 JUMP JUMPDEST PUSH1 0x1 PUSH1 0x1 PUSH1 0x40 SHL SUB DUP2 GT ISZERO PUSH2 0x5107 JUMPI PUSH2 0x5107 PUSH2 0x486B JUMP JUMPDEST PUSH2 0x5115 DUP2 PUSH2 0x5048 DUP5 SLOAD PUSH2 0x4EA9 JUMP JUMPDEST PUSH0 PUSH1 0x1F DUP3 GT PUSH1 0x1 DUP2 EQ PUSH2 0x5141 JUMPI PUSH0 DUP4 ISZERO PUSH2 0x512F JUMPI POP DUP5 DUP3 ADD SLOAD JUMPDEST PUSH2 0x5139 DUP5 DUP3 PUSH2 0x500D JUMP JUMPDEST DUP6 SSTORE POP PUSH2 0x223A JUMP JUMPDEST PUSH0 DUP6 DUP2 MSTORE PUSH1 0x20 DUP1 DUP3 KECCAK256 DUP7 DUP4 MSTORE SWAP1 DUP3 KECCAK256 PUSH1 0x1F NOT DUP7 AND SWAP3 JUMPDEST DUP4 DUP2 LT ISZERO PUSH2 0x5177 JUMPI DUP3 DUP7 ADD SLOAD DUP3 SSTORE PUSH1 0x1 SWAP6 DUP7 ADD SWAP6 SWAP1 SWAP2 ADD SWAP1 PUSH1 0x20 ADD PUSH2 0x5157 JUMP JUMPDEST POP DUP6 DUP4 LT ISZERO PUSH2 0x5194 JUMPI DUP2 DUP6 ADD SLOAD PUSH0 NOT PUSH1 0x3 DUP9 SWAP1 SHL PUSH1 0xF8 AND SHR NOT AND DUP2 SSTORE JUMPDEST POP POP POP POP POP PUSH1 0x1 SWAP1 DUP2 SHL ADD SWAP1 SSTORE POP JUMP JUMPDEST PUSH0 DUP2 MLOAD DUP1 PUSH1 0x20 DUP5 ADD DUP6 MCOPY PUSH0 SWAP4 ADD SWAP3 DUP4 MSTORE POP SWAP1 SWAP2 SWAP1 POP JUMP JUMPDEST PUSH0 PUSH2 0x1047 DUP3 DUP5 PUSH2 0x51A4 JUMP JUMPDEST PUSH4 0x4E487B71 PUSH1 0xE0 SHL PUSH0 MSTORE PUSH1 0x32 PUSH1 0x4 MSTORE PUSH1 0x24 PUSH0 REVERT JUMPDEST PUSH0 PUSH2 0x1047 DUP3 DUP5 PUSH2 0x4F22 JUMP JUMPDEST PUSH1 0x1 PUSH1 0x1 PUSH1 0x40 SHL SUB DUP4 GT ISZERO PUSH2 0x51FC JUMPI PUSH2 0x51FC PUSH2 0x486B JUMP JUMPDEST PUSH2 0x5210 DUP4 PUSH2 0x520A DUP4 SLOAD PUSH2 0x4EA9 JUMP JUMPDEST DUP4 PUSH2 0x4FC9 JUMP JUMPDEST PUSH0 PUSH1 0x1F DUP5 GT PUSH1 0x1 DUP2 EQ PUSH2 0x523C JUMPI PUSH0 DUP6 ISZERO PUSH2 0x522A JUMPI POP DUP4 DUP3 ADD CALLDATALOAD JUMPDEST PUSH2 0x5234 DUP7 DUP3 PUSH2 0x500D JUMP JUMPDEST DUP5 SSTORE POP PUSH2 0x223A JUMP JUMPDEST PUSH0 DUP4 DUP2 MSTORE PUSH1 0x20 DUP2 KECCAK256 PUSH1 0x1F NOT DUP8 AND SWAP2 JUMPDEST DUP3 DUP2 LT ISZERO PUSH2 0x526B JUMPI DUP7 DUP6 ADD CALLDATALOAD DUP3 SSTORE PUSH1 0x20 SWAP5 DUP6 ADD SWAP5 PUSH1 0x1 SWAP1 SWAP3 ADD SWAP2 ADD PUSH2 0x524B JUMP JUMPDEST POP DUP7 DUP3 LT ISZERO PUSH2 0x5287 JUMPI PUSH0 NOT PUSH1 0xF8 DUP9 PUSH1 0x3 SHL AND SHR NOT DUP5 DUP8 ADD CALLDATALOAD AND DUP2 SSTORE JUMPDEST POP POP PUSH1 0x1 DUP6 PUSH1 0x1 SHL ADD DUP4 SSTORE POP POP POP POP POP JUMP JUMPDEST DUP2 DUP4 DUP3 CALLDATACOPY PUSH0 SWAP2 ADD SWAP1 DUP2 MSTORE SWAP2 SWAP1 POP JUMP JUMPDEST PUSH1 0x20 DUP1 DUP3 MSTORE PUSH1 0x23 SWAP1 DUP3 ADD MSTORE PUSH32 0x4572726F723A2074686973206E667420697320616C7265616479207665726966 PUSH1 0x40 DUP3 ADD MSTORE PUSH3 0x1A5959 PUSH1 0xEA SHL PUSH1 0x60 DUP3 ADD MSTORE PUSH1 0x80 ADD SWAP1 JUMP JUMPDEST PUSH0 PUSH2 0x52F6 DUP3 DUP5 PUSH2 0x4F22 JUMP JUMPDEST PUSH22 0x17B1B0B93137B727232A2FAB32B934B33C973539B7B7 PUSH1 0x51 SHL DUP2 MSTORE PUSH1 0x16 ADD SWAP4 SWAP3 POP POP POP JUMP JUMPDEST PUSH0 PUSH1 0x20 DUP3 DUP5 SUB SLT ISZERO PUSH2 0x532C JUMPI PUSH0 DUP1 REVERT JUMPDEST POP MLOAD SWAP2 SWAP1 POP JUMP JUMPDEST PUSH4 0x4E487B71 PUSH1 0xE0 SHL PUSH0 MSTORE PUSH1 0x12 PUSH1 0x4 MSTORE PUSH1 0x24 PUSH0 REVERT JUMPDEST PUSH4 0x4E487B71 PUSH1 0xE0 SHL PUSH0 MSTORE PUSH1 0x11 PUSH1 0x4 MSTORE PUSH1 0x24 PUSH0 REVERT JUMPDEST DUP2 DUP2 SUB DUP2 DUP2 GT ISZERO PUSH2 0xE0F JUMPI PUSH2 0xE0F PUSH2 0x5347 JUMP JUMPDEST DUP1 DUP3 ADD DUP1 DUP3 GT ISZERO PUSH2 0xE0F JUMPI PUSH2 0xE0F PUSH2 0x5347 JUMP JUMPDEST PUSH1 0x1 PUSH1 0x1 PUSH1 0xA0 SHL SUB DUP6 DUP2 AND DUP3 MSTORE DUP5 AND PUSH1 0x20 DUP3 ADD MSTORE PUSH1 0x40 DUP2 ADD DUP4 SWAP1 MSTORE PUSH1 0x80 PUSH1 0x60 DUP3 ADD DUP2 SWAP1 MSTORE PUSH0 SWAP1 PUSH2 0x3C96 SWAP1 DUP4 ADD DUP5 PUSH2 0x4725 JUMP JUMPDEST PUSH0 PUSH1 0x20 DUP3 DUP5 SUB SLT ISZERO PUSH2 0x53C3 JUMPI PUSH0 DUP1 REVERT JUMPDEST DUP2 MLOAD PUSH2 0x1047 DUP2 PUSH2 0x46D5 JUMP JUMPDEST PUSH0 DUP3 PUSH2 0x53E8 JUMPI PUSH4 0x4E487B71 PUSH1 0xE0 SHL PUSH0 MSTORE PUSH1 0x12 PUSH1 0x4 MSTORE PUSH1 0x24 PUSH0 REVERT JUMPDEST POP DIV SWAP1 JUMP JUMPDEST DUP3 DUP2 MSTORE PUSH1 0x40 DUP2 ADD PUSH2 0x1047 PUSH1 0x20 DUP4 ADD DUP5 PUSH2 0x4987 JUMP INVALID DUP1 0xBB 0x2B PUSH4 0x8CC20BC4 0xD0 0xA6 0xD PUSH7 0x940F3AB4A00C1D PUSH28 0x313497CA82FB0B4AB0079300697066733A2F2F516D546B724C414848 SSTORE JUMP PUSH25 0x346B5853737A7743724850634B554275736A4279567662736E MSIZE PUSH15 0x37683164334837360894A13BA1A321 MOD PUSH8 0xC828492DB98DCA3E KECCAK256 PUSH23 0xCC3735A920A3CA505D382BBC02DD7BC7DEC4DCEEDDA775 0xE5 DUP14 0xD5 COINBASE 0xE0 DUP11 GT PUSH13 0x6C53815C0BD028192F7B626800 0xCD MCOPY 0xD1 TLOAD PUSH15 0x187E77E9AEE88184C21F4F2182AB58 0x27 0xCB EXTCODESIZE PUSH31 0x7FBEDCD63F033000CE23C3E399818CFEE81A7AB0880F714E53D7672B08DF0 STATICCALL PUSH3 0xF28434 AND 0xE1 0xEA MULMOD LOG2 PUSH5 0x6970667358 0x22 SLT KECCAK256 BASEFEE 0x2F DUP9 DUP6 0xEB 0xAD 0xED BALANCE RETURNDATACOPY 0xD9 0xBD 0xB1 0xC0 DUP9 MUL 0xF6 0xA6 BLOCKHASH PUSH25 0x93514844E64C43CAD62E4A49D764736F6C6343000819003369 PUSH17 0x66733A2F2F516D546B724C414848555678 CALLVALUE PUSH12 0x5853737A7743724850634B55 TIMESTAMP PUSH22 0x736A4279567662736E596E3768316433483700000000 "
		},
		"gasEstimates": {
			"creation": {
				"codeDepositCost": "4354400",
				"executionCost": "infinite",
				"totalCost": "infinite"
			},
			"external": {
				"BuyerCounter()": "2383",
				"BuyerMint(address)": "infinite",
				"BuyerNFTList(uint256)": "infinite",
				"BuyerNFTSupply()": "2384",
				"BuyerNFTtotalSupply()": "2404",
				"BuyerURI()": "infinite",
				"CompanyDataList(string)": "infinite",
				"CompanyIdList(uint256)": "infinite",
				"CreditFactor()": "2449",
				"DEFAULT_ADMIN_ROLE()": "260",
				"EnrollmentList(address)": "infinite",
				"ErrorFactor()": "2408",
				"Market(uint256,uint256)": "infinite",
				"NFTMintCost()": "2363",
				"REGISTER_ROLE()": "328",
				"UPGRADE_INTERFACE_VERSION()": "infinite",
				"VERIFIER_ROLE()": "infinite",
				"VERSION()": "infinite",
				"VERSION_RELEASE_CANDIDATE()": "285",
				"VerifierMintBuyerNFT(address,uint256,uint256)": "infinite",
				"_creditDecreaseRate(uint256,uint256,uint256,uint256)": "infinite",
				"_creditIncreaseRate(uint256,uint256,uint256,uint256)": "infinite",
				"_getDecreaseRate(uint256,uint256,uint256,uint256)": "infinite",
				"_getIncreaseRate(uint256,uint256,uint256,uint256)": "infinite",
				"approve(address,uint256)": "infinite",
				"balanceOf(address)": "infinite",
				"changeMarketContract(address)": "26856",
				"epower(uint256)": "infinite",
				"fractions(uint256,uint256)": "infinite",
				"getApproved(uint256)": "infinite",
				"getBuyerNFTData(uint256)": "infinite",
				"getBuyerNFTStatus(uint256)": "2596",
				"getCompanyCarbonUsed(string)": "infinite",
				"getCompanyData(string)": "infinite",
				"getCompanyId(address)": "infinite",
				"getRoleAdmin(bytes32)": "infinite",
				"grantRole(bytes32,address)": "infinite",
				"hasRole(bytes32,address)": "infinite",
				"help()": "infinite",
				"iMRCRetirementAddress()": "2448",
				"initialize()": "infinite",
				"isApprovedForAll(address,address)": "infinite",
				"market()": "2470",
				"name()": "infinite",
				"owner()": "2441",
				"ownerOf(uint256)": "infinite",
				"pause()": "infinite",
				"paused()": "infinite",
				"power(uint256,uint256)": "infinite",
				"proxiableUUID()": "infinite",
				"renounceOwnership()": "infinite",
				"renounceRole(bytes32,address)": "29227",
				"revokeRole(bytes32,address)": "infinite",
				"safeTransferFrom(address,address,uint256)": "infinite",
				"safeTransferFrom(address,address,uint256,bytes)": "infinite",
				"serialNumberApproved(string)": "infinite",
				"setApprovalForAll(address,bool)": "infinite",
				"setBuyerNFTSupply(uint256)": "24587",
				"setBuyerURI(string)": "infinite",
				"setCompanyEnrollment(address,string,string)": "infinite",
				"setCost(uint256)": "24631",
				"setRetirementContract(address)": "26834",
				"supportsInterface(bytes4)": "infinite",
				"symbol()": "infinite",
				"times(uint256,uint256)": "infinite",
				"tokenURI(uint256)": "infinite",
				"tradingFinish(string,uint256,uint256,uint256,uint256,bool)": "infinite",
				"transferFrom(address,address,uint256)": "infinite",
				"transferOwnership(address)": "28475",
				"unpause()": "infinite",
				"updateBuyerNFT(uint256,uint256,uint256)": "infinite",
				"updateCredits(uint256,uint256,uint256,uint256,bool)": "infinite",
				"updateTime(string,bool)": "infinite",
				"upgradeToAndCall(address,bytes)": "infinite",
				"uuu(uint256)": "416",
				"verifyBuyerNFT(uint256)": "infinite"
			},
			"internal": {
				"_authorizeUpgrade(address)": "infinite",
				"_exists(uint256)": "2270",
				"_updateBuyerNFT(uint256,UD60x18,UD60x18)": "infinite",
				"_verifyBuyerNFT(uint256)": "infinite",
				"memcmp(bytes memory,bytes memory)": "infinite",
				"setCompanyDataName(string calldata,string calldata)": "infinite",
				"strcmp(string memory,string memory)": "infinite",
				"updateStatus(uint256,enum NftStatus)": "infinite"
			}
		},
		"methodIdentifiers": {
			"BuyerCounter()": "343e8b42",
			"BuyerMint(address)": "3924d0d0",
			"BuyerNFTList(uint256)": "4345a7e9",
			"BuyerNFTSupply()": "437005f1",
			"BuyerNFTtotalSupply()": "6f4fde9a",
			"BuyerURI()": "56387a9e",
			"CompanyDataList(string)": "3b05063e",
			"CompanyIdList(uint256)": "61d46f16",
			"CreditFactor()": "6866064f",
			"DEFAULT_ADMIN_ROLE()": "a217fddf",
			"EnrollmentList(address)": "6fa9d5a7",
			"ErrorFactor()": "06f856f7",
			"Market(uint256,uint256)": "025651cc",
			"NFTMintCost()": "6ad2eadc",
			"REGISTER_ROLE()": "74f53317",
			"UPGRADE_INTERFACE_VERSION()": "ad3cb1cc",
			"VERIFIER_ROLE()": "e7705db6",
			"VERSION()": "ffa1ad74",
			"VERSION_RELEASE_CANDIDATE()": "6ca0b0d7",
			"VerifierMintBuyerNFT(address,uint256,uint256)": "238e3909",
			"_creditDecreaseRate(uint256,uint256,uint256,uint256)": "6458523d",
			"_creditIncreaseRate(uint256,uint256,uint256,uint256)": "73e3bf96",
			"_getDecreaseRate(uint256,uint256,uint256,uint256)": "bfa1c17e",
			"_getIncreaseRate(uint256,uint256,uint256,uint256)": "879b7c8e",
			"approve(address,uint256)": "095ea7b3",
			"balanceOf(address)": "70a08231",
			"changeMarketContract(address)": "944f28b8",
			"epower(uint256)": "57885ba2",
			"fractions(uint256,uint256)": "2f92167a",
			"getApproved(uint256)": "081812fc",
			"getBuyerNFTData(uint256)": "5db4041d",
			"getBuyerNFTStatus(uint256)": "550f31f2",
			"getCompanyCarbonUsed(string)": "41c099a4",
			"getCompanyData(string)": "80812fed",
			"getCompanyId(address)": "d6f343c5",
			"getRoleAdmin(bytes32)": "248a9ca3",
			"grantRole(bytes32,address)": "2f2ff15d",
			"hasRole(bytes32,address)": "91d14854",
			"help()": "20fba162",
			"iMRCRetirementAddress()": "80f44675",
			"initialize()": "8129fc1c",
			"isApprovedForAll(address,address)": "e985e9c5",
			"market()": "80f55605",
			"name()": "06fdde03",
			"owner()": "8da5cb5b",
			"ownerOf(uint256)": "6352211e",
			"pause()": "8456cb59",
			"paused()": "5c975abb",
			"power(uint256,uint256)": "c04f01fc",
			"proxiableUUID()": "52d1902d",
			"renounceOwnership()": "715018a6",
			"renounceRole(bytes32,address)": "36568abe",
			"revokeRole(bytes32,address)": "d547741f",
			"safeTransferFrom(address,address,uint256)": "42842e0e",
			"safeTransferFrom(address,address,uint256,bytes)": "b88d4fde",
			"serialNumberApproved(string)": "34844b42",
			"setApprovalForAll(address,bool)": "a22cb465",
			"setBuyerNFTSupply(uint256)": "9446d19d",
			"setBuyerURI(string)": "cd5f6682",
			"setCompanyEnrollment(address,string,string)": "7a2c3048",
			"setCost(uint256)": "44a0d68a",
			"setRetirementContract(address)": "2fbc4436",
			"supportsInterface(bytes4)": "01ffc9a7",
			"symbol()": "95d89b41",
			"times(uint256,uint256)": "1d3b9edf",
			"tokenURI(uint256)": "c87b56dd",
			"tradingFinish(string,uint256,uint256,uint256,uint256,bool)": "8de8fc72",
			"transferFrom(address,address,uint256)": "23b872dd",
			"transferOwnership(address)": "f2fde38b",
			"unpause()": "3f4ba83a",
			"updateBuyerNFT(uint256,uint256,uint256)": "f5c296bd",
			"updateCredits(uint256,uint256,uint256,uint256,bool)": "9d0cce83",
			"updateTime(string,bool)": "78e875c5",
			"upgradeToAndCall(address,bytes)": "4f1ef286",
			"uuu(uint256)": "14d80fee",
			"verifyBuyerNFT(uint256)": "64d977c7"
		}
	},
	"abi": [
		{
			"inputs": [],
			"stateMutability": "nonpayable",
			"type": "constructor"
		},
		{
			"inputs": [],
			"name": "AccessControlBadConfirmation",
			"type": "error"
		},
		{
			"inputs": [
				{
					"internalType": "address",
					"name": "account",
					"type": "address"
				},
				{
					"internalType": "bytes32",
					"name": "neededRole",
					"type": "bytes32"
				}
			],
			"name": "AccessControlUnauthorizedAccount",
			"type": "error"
		},
		{
			"inputs": [
				{
					"internalType": "address",
					"name": "target",
					"type": "address"
				}
			],
			"name": "AddressEmptyCode",
			"type": "error"
		},
		{
			"inputs": [
				{
					"internalType": "address",
					"name": "implementation",
					"type": "address"
				}
			],
			"name": "ERC1967InvalidImplementation",
			"type": "error"
		},
		{
			"inputs": [],
			"name": "ERC1967NonPayable",
			"type": "error"
		},
		{
			"inputs": [
				{
					"internalType": "address",
					"name": "sender",
					"type": "address"
				},
				{
					"internalType": "uint256",
					"name": "tokenId",
					"type": "uint256"
				},
				{
					"internalType": "address",
					"name": "owner",
					"type": "address"
				}
			],
			"name": "ERC721IncorrectOwner",
			"type": "error"
		},
		{
			"inputs": [
				{
					"internalType": "address",
					"name": "operator",
					"type": "address"
				},
				{
					"internalType": "uint256",
					"name": "tokenId",
					"type": "uint256"
				}
			],
			"name": "ERC721InsufficientApproval",
			"type": "error"
		},
		{
			"inputs": [
				{
					"internalType": "address",
					"name": "approver",
					"type": "address"
				}
			],
			"name": "ERC721InvalidApprover",
			"type": "error"
		},
		{
			"inputs": [
				{
					"internalType": "address",
					"name": "operator",
					"type": "address"
				}
			],
			"name": "ERC721InvalidOperator",
			"type": "error"
		},
		{
			"inputs": [
				{
					"internalType": "address",
					"name": "owner",
					"type": "address"
				}
			],
			"name": "ERC721InvalidOwner",
			"type": "error"
		},
		{
			"inputs": [
				{
					"internalType": "address",
					"name": "receiver",
					"type": "address"
				}
			],
			"name": "ERC721InvalidReceiver",
			"type": "error"
		},
		{
			"inputs": [
				{
					"internalType": "address",
					"name": "sender",
					"type": "address"
				}
			],
			"name": "ERC721InvalidSender",
			"type": "error"
		},
		{
			"inputs": [
				{
					"internalType": "uint256",
					"name": "tokenId",
					"type": "uint256"
				}
			],
			"name": "ERC721NonexistentToken",
			"type": "error"
		},
		{
			"inputs": [],
			"name": "EnforcedPause",
			"type": "error"
		},
		{
			"inputs": [],
			"name": "ExpectedPause",
			"type": "error"
		},
		{
			"inputs": [],
			"name": "FailedInnerCall",
			"type": "error"
		},
		{
			"inputs": [],
			"name": "InvalidInitialization",
			"type": "error"
		},
		{
			"inputs": [],
			"name": "NotInitializing",
			"type": "error"
		},
		{
			"inputs": [
				{
					"internalType": "address",
					"name": "owner",
					"type": "address"
				}
			],
			"name": "OwnableInvalidOwner",
			"type": "error"
		},
		{
			"inputs": [
				{
					"internalType": "address",
					"name": "account",
					"type": "address"
				}
			],
			"name": "OwnableUnauthorizedAccount",
			"type": "error"
		},
		{
			"inputs": [
				{
					"internalType": "uint256",
					"name": "x",
					"type": "uint256"
				},
				{
					"internalType": "uint256",
					"name": "y",
					"type": "uint256"
				}
			],
			"name": "PRBMath_MulDiv18_Overflow",
			"type": "error"
		},
		{
			"inputs": [
				{
					"internalType": "uint256",
					"name": "x",
					"type": "uint256"
				},
				{
					"internalType": "uint256",
					"name": "y",
					"type": "uint256"
				},
				{
					"internalType": "uint256",
					"name": "denominator",
					"type": "uint256"
				}
			],
			"name": "PRBMath_MulDiv_Overflow",
			"type": "error"
		},
		{
			"inputs": [
				{
					"internalType": "UD60x18",
					"name": "x",
					"type": "uint256"
				}
			],
			"name": "PRBMath_UD60x18_Exp2_InputTooBig",
			"type": "error"
		},
		{
			"inputs": [
				{
					"internalType": "UD60x18",
					"name": "x",
					"type": "uint256"
				}
			],
			"name": "PRBMath_UD60x18_Exp_InputTooBig",
			"type": "error"
		},
		{
			"inputs": [
				{
					"internalType": "UD60x18",
					"name": "x",
					"type": "uint256"
				}
			],
			"name": "PRBMath_UD60x18_Log_InputTooSmall",
			"type": "error"
		},
		{
			"inputs": [],
			"name": "UUPSUnauthorizedCallContext",
			"type": "error"
		},
		{
			"inputs": [
				{
					"internalType": "bytes32",
					"name": "slot",
					"type": "bytes32"
				}
			],
			"name": "UUPSUnsupportedProxiableUUID",
			"type": "error"
		},
		{
			"anonymous": false,
			"inputs": [
				{
					"indexed": true,
					"internalType": "address",
					"name": "owner",
					"type": "address"
				},
				{
					"indexed": true,
					"internalType": "address",
					"name": "approved",
					"type": "address"
				},
				{
					"indexed": true,
					"internalType": "uint256",
					"name": "tokenId",
					"type": "uint256"
				}
			],
			"name": "Approval",
			"type": "event"
		},
		{
			"anonymous": false,
			"inputs": [
				{
					"indexed": true,
					"internalType": "address",
					"name": "owner",
					"type": "address"
				},
				{
					"indexed": true,
					"internalType": "address",
					"name": "operator",
					"type": "address"
				},
				{
					"indexed": false,
					"internalType": "bool",
					"name": "approved",
					"type": "bool"
				}
			],
			"name": "ApprovalForAll",
			"type": "event"
		},
		{
			"anonymous": false,
			"inputs": [
				{
					"indexed": false,
					"internalType": "address",
					"name": "sender",
					"type": "address"
				},
				{
					"indexed": false,
					"internalType": "uint256",
					"name": "tokenId",
					"type": "uint256"
				}
			],
			"name": "BuyerNFTMint",
			"type": "event"
		},
		{
			"anonymous": false,
			"inputs": [
				{
					"indexed": false,
					"internalType": "uint256",
					"name": "tokenId",
					"type": "uint256"
				},
				{
					"indexed": false,
					"internalType": "enum NftStatus",
					"name": "status",
					"type": "uint8"
				}
			],
			"name": "BuyerNFTStatus",
			"type": "event"
		},
		{
			"anonymous": false,
			"inputs": [
				{
					"indexed": false,
					"internalType": "uint256",
					"name": "tokenId",
					"type": "uint256"
				},
				{
					"indexed": false,
					"internalType": "UD60x18",
					"name": "carbonAmount",
					"type": "uint256"
				},
				{
					"indexed": false,
					"internalType": "UD60x18",
					"name": "errorRate",
					"type": "uint256"
				}
			],
			"name": "BuyerNFTUpdated",
			"type": "event"
		},
		{
			"anonymous": false,
			"inputs": [
				{
					"indexed": false,
					"internalType": "uint64",
					"name": "version",
					"type": "uint64"
				}
			],
			"name": "Initialized",
			"type": "event"
		},
		{
			"anonymous": false,
			"inputs": [
				{
					"indexed": true,
					"internalType": "address",
					"name": "previousOwner",
					"type": "address"
				},
				{
					"indexed": true,
					"internalType": "address",
					"name": "newOwner",
					"type": "address"
				}
			],
			"name": "OwnershipTransferred",
			"type": "event"
		},
		{
			"anonymous": false,
			"inputs": [
				{
					"indexed": false,
					"internalType": "address",
					"name": "account",
					"type": "address"
				}
			],
			"name": "Paused",
			"type": "event"
		},
		{
			"anonymous": false,
			"inputs": [
				{
					"indexed": true,
					"internalType": "bytes32",
					"name": "role",
					"type": "bytes32"
				},
				{
					"indexed": true,
					"internalType": "bytes32",
					"name": "previousAdminRole",
					"type": "bytes32"
				},
				{
					"indexed": true,
					"internalType": "bytes32",
					"name": "newAdminRole",
					"type": "bytes32"
				}
			],
			"name": "RoleAdminChanged",
			"type": "event"
		},
		{
			"anonymous": false,
			"inputs": [
				{
					"indexed": true,
					"internalType": "bytes32",
					"name": "role",
					"type": "bytes32"
				},
				{
					"indexed": true,
					"internalType": "address",
					"name": "account",
					"type": "address"
				},
				{
					"indexed": true,
					"internalType": "address",
					"name": "sender",
					"type": "address"
				}
			],
			"name": "RoleGranted",
			"type": "event"
		},
		{
			"anonymous": false,
			"inputs": [
				{
					"indexed": true,
					"internalType": "bytes32",
					"name": "role",
					"type": "bytes32"
				},
				{
					"indexed": true,
					"internalType": "address",
					"name": "account",
					"type": "address"
				},
				{
					"indexed": true,
					"internalType": "address",
					"name": "sender",
					"type": "address"
				}
			],
			"name": "RoleRevoked",
			"type": "event"
		},
		{
			"anonymous": false,
			"inputs": [
				{
					"indexed": true,
					"internalType": "address",
					"name": "from",
					"type": "address"
				},
				{
					"indexed": true,
					"internalType": "address",
					"name": "to",
					"type": "address"
				},
				{
					"indexed": true,
					"internalType": "uint256",
					"name": "tokenId",
					"type": "uint256"
				}
			],
			"name": "Transfer",
			"type": "event"
		},
		{
			"anonymous": false,
			"inputs": [
				{
					"indexed": false,
					"internalType": "address",
					"name": "account",
					"type": "address"
				}
			],
			"name": "Unpaused",
			"type": "event"
		},
		{
			"anonymous": false,
			"inputs": [
				{
					"indexed": true,
					"internalType": "address",
					"name": "implementation",
					"type": "address"
				}
			],
			"name": "Upgraded",
			"type": "event"
		},
		{
			"inputs": [],
			"name": "BuyerCounter",
			"outputs": [
				{
					"internalType": "uint256",
					"name": "",
					"type": "uint256"
				}
			],
			"stateMutability": "view",
			"type": "function"
		},
		{
			"inputs": [
				{
					"internalType": "address",
					"name": "to",
					"type": "address"
				}
			],
			"name": "BuyerMint",
			"outputs": [],
			"stateMutability": "nonpayable",
			"type": "function"
		},
		{
			"inputs": [
				{
					"internalType": "uint256",
					"name": "",
					"type": "uint256"
				}
			],
			"name": "BuyerNFTList",
			"outputs": [
				{
					"internalType": "string",
					"name": "CompanyId",
					"type": "string"
				},
				{
					"internalType": "string",
					"name": "CompanyName",
					"type": "string"
				},
				{
					"internalType": "UD60x18",
					"name": "carbonAmount",
					"type": "uint256"
				},
				{
					"internalType": "UD60x18",
					"name": "errorRate",
					"type": "uint256"
				},
				{
					"internalType": "UD60x18",
					"name": "reputation",
					"type": "uint256"
				},
				{
					"internalType": "enum NftStatus",
					"name": "status",
					"type": "uint8"
				},
				{
					"internalType": "string",
					"name": "uri",
					"type": "string"
				},
				{
					"internalType": "address",
					"name": "verifier",
					"type": "address"
				}
			],
			"stateMutability": "view",
			"type": "function"
		},
		{
			"inputs": [],
			"name": "BuyerNFTSupply",
			"outputs": [
				{
					"internalType": "uint256",
					"name": "",
					"type": "uint256"
				}
			],
			"stateMutability": "view",
			"type": "function"
		},
		{
			"inputs": [],
			"name": "BuyerNFTtotalSupply",
			"outputs": [
				{
					"internalType": "uint256",
					"name": "",
					"type": "uint256"
				}
			],
			"stateMutability": "view",
			"type": "function"
		},
		{
			"inputs": [],
			"name": "BuyerURI",
			"outputs": [
				{
					"internalType": "string",
					"name": "",
					"type": "string"
				}
			],
			"stateMutability": "view",
			"type": "function"
		},
		{
			"inputs": [
				{
					"internalType": "string",
					"name": "",
					"type": "string"
				}
			],
			"name": "CompanyDataList",
			"outputs": [
				{
					"internalType": "string",
					"name": "CompanyNameEnrollment",
					"type": "string"
				},
				{
					"internalType": "UD60x18",
					"name": "registryAmount",
					"type": "uint256"
				},
				{
					"internalType": "UD60x18",
					"name": "successAmount",
					"type": "uint256"
				},
				{
					"internalType": "UD60x18",
					"name": "failAmount",
					"type": "uint256"
				},
				{
					"internalType": "UD60x18",
					"name": "lastFailTimestamp",
					"type": "uint256"
				},
				{
					"internalType": "UD60x18",
					"name": "tradingCredit",
					"type": "uint256"
				}
			],
			"stateMutability": "view",
			"type": "function"
		},
		{
			"inputs": [
				{
					"internalType": "uint256",
					"name": "",
					"type": "uint256"
				}
			],
			"name": "CompanyIdList",
			"outputs": [
				{
					"internalType": "string",
					"name": "",
					"type": "string"
				}
			],
			"stateMutability": "view",
			"type": "function"
		},
		{
			"inputs": [],
			"name": "CreditFactor",
			"outputs": [
				{
					"internalType": "UD60x18",
					"name": "",
					"type": "uint256"
				}
			],
			"stateMutability": "view",
			"type": "function"
		},
		{
			"inputs": [],
			"name": "DEFAULT_ADMIN_ROLE",
			"outputs": [
				{
					"internalType": "bytes32",
					"name": "",
					"type": "bytes32"
				}
			],
			"stateMutability": "view",
			"type": "function"
		},
		{
			"inputs": [
				{
					"internalType": "address",
					"name": "",
					"type": "address"
				}
			],
			"name": "EnrollmentList",
			"outputs": [
				{
					"internalType": "string",
					"name": "CompanyIdEnrollment",
					"type": "string"
				},
				{
					"internalType": "string",
					"name": "CompanyNameEnrollment",
					"type": "string"
				}
			],
			"stateMutability": "view",
			"type": "function"
		},
		{
			"inputs": [],
			"name": "ErrorFactor",
			"outputs": [
				{
					"internalType": "UD60x18",
					"name": "",
					"type": "uint256"
				}
			],
			"stateMutability": "view",
			"type": "function"
		},
		{
			"inputs": [
				{
					"internalType": "uint256",
					"name": "tokenId",
					"type": "uint256"
				},
				{
					"internalType": "uint256",
					"name": "price",
					"type": "uint256"
				}
			],
			"name": "Market",
			"outputs": [
				{
					"internalType": "bool",
					"name": "",
					"type": "bool"
				}
			],
			"stateMutability": "nonpayable",
			"type": "function"
		},
		{
			"inputs": [],
			"name": "NFTMintCost",
			"outputs": [
				{
					"internalType": "uint256",
					"name": "",
					"type": "uint256"
				}
			],
			"stateMutability": "view",
			"type": "function"
		},
		{
			"inputs": [],
			"name": "REGISTER_ROLE",
			"outputs": [
				{
					"internalType": "bytes32",
					"name": "",
					"type": "bytes32"
				}
			],
			"stateMutability": "view",
			"type": "function"
		},
		{
			"inputs": [],
			"name": "UPGRADE_INTERFACE_VERSION",
			"outputs": [
				{
					"internalType": "string",
					"name": "",
					"type": "string"
				}
			],
			"stateMutability": "view",
			"type": "function"
		},
		{
			"inputs": [],
			"name": "VERIFIER_ROLE",
			"outputs": [
				{
					"internalType": "bytes32",
					"name": "",
					"type": "bytes32"
				}
			],
			"stateMutability": "view",
			"type": "function"
		},
		{
			"inputs": [],
			"name": "VERSION",
			"outputs": [
				{
					"internalType": "string",
					"name": "",
					"type": "string"
				}
			],
			"stateMutability": "view",
			"type": "function"
		},
		{
			"inputs": [],
			"name": "VERSION_RELEASE_CANDIDATE",
			"outputs": [
				{
					"internalType": "uint256",
					"name": "",
					"type": "uint256"
				}
			],
			"stateMutability": "view",
			"type": "function"
		},
		{
			"inputs": [
				{
					"internalType": "address",
					"name": "to",
					"type": "address"
				},
				{
					"internalType": "UD60x18",
					"name": "carbonAmount",
					"type": "uint256"
				},
				{
					"internalType": "UD60x18",
					"name": "errorRate",
					"type": "uint256"
				}
			],
			"name": "VerifierMintBuyerNFT",
			"outputs": [],
			"stateMutability": "nonpayable",
			"type": "function"
		},
		{
			"inputs": [
				{
					"internalType": "UD60x18",
					"name": "totalAmount",
					"type": "uint256"
				},
				{
					"internalType": "UD60x18",
					"name": "currentAmount",
					"type": "uint256"
				},
				{
					"internalType": "UD60x18",
					"name": "currentCredit",
					"type": "uint256"
				},
				{
					"internalType": "UD60x18",
					"name": "timeDifference",
					"type": "uint256"
				}
			],
			"name": "_creditDecreaseRate",
			"outputs": [
				{
					"internalType": "UD60x18",
					"name": "",
					"type": "uint256"
				}
			],
			"stateMutability": "pure",
			"type": "function"
		},
		{
			"inputs": [
				{
					"internalType": "UD60x18",
					"name": "totalAmount",
					"type": "uint256"
				},
				{
					"internalType": "UD60x18",
					"name": "currentAmount",
					"type": "uint256"
				},
				{
					"internalType": "UD60x18",
					"name": "currentCredit",
					"type": "uint256"
				},
				{
					"internalType": "UD60x18",
					"name": "timeDifference",
					"type": "uint256"
				}
			],
			"name": "_creditIncreaseRate",
			"outputs": [
				{
					"internalType": "UD60x18",
					"name": "",
					"type": "uint256"
				}
			],
			"stateMutability": "pure",
			"type": "function"
		},
		{
			"inputs": [
				{
					"internalType": "UD60x18",
					"name": "totalAmount",
					"type": "uint256"
				},
				{
					"internalType": "UD60x18",
					"name": "currentAmount",
					"type": "uint256"
				},
				{
					"internalType": "UD60x18",
					"name": "currentCredit",
					"type": "uint256"
				},
				{
					"internalType": "UD60x18",
					"name": "timeDifference",
					"type": "uint256"
				}
			],
			"name": "_getDecreaseRate",
			"outputs": [
				{
					"internalType": "UD60x18",
					"name": "",
					"type": "uint256"
				}
			],
			"stateMutability": "pure",
			"type": "function"
		},
		{
			"inputs": [
				{
					"internalType": "UD60x18",
					"name": "totalAmount",
					"type": "uint256"
				},
				{
					"internalType": "UD60x18",
					"name": "currentAmount",
					"type": "uint256"
				},
				{
					"internalType": "UD60x18",
					"name": "currentCredit",
					"type": "uint256"
				},
				{
					"internalType": "UD60x18",
					"name": "timeDifference",
					"type": "uint256"
				}
			],
			"name": "_getIncreaseRate",
			"outputs": [
				{
					"internalType": "UD60x18",
					"name": "",
					"type": "uint256"
				}
			],
			"stateMutability": "pure",
			"type": "function"
		},
		{
			"inputs": [
				{
					"internalType": "address",
					"name": "to",
					"type": "address"
				},
				{
					"internalType": "uint256",
					"name": "tokenId",
					"type": "uint256"
				}
			],
			"name": "approve",
			"outputs": [],
			"stateMutability": "nonpayable",
			"type": "function"
		},
		{
			"inputs": [
				{
					"internalType": "address",
					"name": "owner",
					"type": "address"
				}
			],
			"name": "balanceOf",
			"outputs": [
				{
					"internalType": "uint256",
					"name": "",
					"type": "uint256"
				}
			],
			"stateMutability": "view",
			"type": "function"
		},
		{
			"inputs": [
				{
					"internalType": "address",
					"name": "newMarket",
					"type": "address"
				}
			],
			"name": "changeMarketContract",
			"outputs": [],
			"stateMutability": "nonpayable",
			"type": "function"
		},
		{
			"inputs": [
				{
					"internalType": "UD60x18",
					"name": "a",
					"type": "uint256"
				}
			],
			"name": "epower",
			"outputs": [
				{
					"internalType": "UD60x18",
					"name": "",
					"type": "uint256"
				}
			],
			"stateMutability": "pure",
			"type": "function"
		},
		{
			"inputs": [
				{
					"internalType": "UD60x18",
					"name": "a",
					"type": "uint256"
				},
				{
					"internalType": "UD60x18",
					"name": "b",
					"type": "uint256"
				}
			],
			"name": "fractions",
			"outputs": [
				{
					"internalType": "UD60x18",
					"name": "",
					"type": "uint256"
				}
			],
			"stateMutability": "pure",
			"type": "function"
		},
		{
			"inputs": [
				{
					"internalType": "uint256",
					"name": "tokenId",
					"type": "uint256"
				}
			],
			"name": "getApproved",
			"outputs": [
				{
					"internalType": "address",
					"name": "",
					"type": "address"
				}
			],
			"stateMutability": "view",
			"type": "function"
		},
		{
			"inputs": [
				{
					"internalType": "uint256",
					"name": "tokenId",
					"type": "uint256"
				}
			],
			"name": "getBuyerNFTData",
			"outputs": [
				{
					"components": [
						{
							"internalType": "string",
							"name": "CompanyId",
							"type": "string"
						},
						{
							"internalType": "string",
							"name": "CompanyName",
							"type": "string"
						},
						{
							"internalType": "UD60x18",
							"name": "carbonAmount",
							"type": "uint256"
						},
						{
							"internalType": "UD60x18",
							"name": "errorRate",
							"type": "uint256"
						},
						{
							"internalType": "UD60x18",
							"name": "reputation",
							"type": "uint256"
						},
						{
							"internalType": "enum NftStatus",
							"name": "status",
							"type": "uint8"
						},
						{
							"internalType": "string",
							"name": "uri",
							"type": "string"
						},
						{
							"internalType": "address",
							"name": "verifier",
							"type": "address"
						}
					],
					"internalType": "struct iMRCNFTRequirementV1.BuyerNFT",
					"name": "",
					"type": "tuple"
				}
			],
			"stateMutability": "view",
			"type": "function"
		},
		{
			"inputs": [
				{
					"internalType": "uint256",
					"name": "tokenId",
					"type": "uint256"
				}
			],
			"name": "getBuyerNFTStatus",
			"outputs": [
				{
					"internalType": "enum NftStatus",
					"name": "",
					"type": "uint8"
				}
			],
			"stateMutability": "view",
			"type": "function"
		},
		{
			"inputs": [
				{
					"internalType": "string",
					"name": "CompanyId",
					"type": "string"
				}
			],
			"name": "getCompanyCarbonUsed",
			"outputs": [
				{
					"internalType": "UD60x18",
					"name": "registryAmount",
					"type": "uint256"
				}
			],
			"stateMutability": "view",
			"type": "function"
		},
		{
			"inputs": [
				{
					"internalType": "string",
					"name": "CompanyId",
					"type": "string"
				}
			],
			"name": "getCompanyData",
			"outputs": [
				{
					"components": [
						{
							"internalType": "string",
							"name": "CompanyNameEnrollment",
							"type": "string"
						},
						{
							"internalType": "UD60x18",
							"name": "registryAmount",
							"type": "uint256"
						},
						{
							"internalType": "UD60x18",
							"name": "successAmount",
							"type": "uint256"
						},
						{
							"internalType": "UD60x18",
							"name": "failAmount",
							"type": "uint256"
						},
						{
							"internalType": "UD60x18",
							"name": "lastFailTimestamp",
							"type": "uint256"
						},
						{
							"internalType": "UD60x18",
							"name": "tradingCredit",
							"type": "uint256"
						}
					],
					"internalType": "struct iMRCNFTRequirementV1.CompanyData",
					"name": "",
					"type": "tuple"
				}
			],
			"stateMutability": "view",
			"type": "function"
		},
		{
			"inputs": [
				{
					"internalType": "address",
					"name": "to",
					"type": "address"
				}
			],
			"name": "getCompanyId",
			"outputs": [
				{
					"components": [
						{
							"internalType": "string",
							"name": "CompanyIdEnrollment",
							"type": "string"
						},
						{
							"internalType": "string",
							"name": "CompanyNameEnrollment",
							"type": "string"
						}
					],
					"internalType": "struct iMRCNFTRequirementV1.CompanyEnrollment",
					"name": "",
					"type": "tuple"
				}
			],
			"stateMutability": "view",
			"type": "function"
		},
		{
			"inputs": [
				{
					"internalType": "bytes32",
					"name": "role",
					"type": "bytes32"
				}
			],
			"name": "getRoleAdmin",
			"outputs": [
				{
					"internalType": "bytes32",
					"name": "",
					"type": "bytes32"
				}
			],
			"stateMutability": "view",
			"type": "function"
		},
		{
			"inputs": [
				{
					"internalType": "bytes32",
					"name": "role",
					"type": "bytes32"
				},
				{
					"internalType": "address",
					"name": "account",
					"type": "address"
				}
			],
			"name": "grantRole",
			"outputs": [],
			"stateMutability": "nonpayable",
			"type": "function"
		},
		{
			"inputs": [
				{
					"internalType": "bytes32",
					"name": "role",
					"type": "bytes32"
				},
				{
					"internalType": "address",
					"name": "account",
					"type": "address"
				}
			],
			"name": "hasRole",
			"outputs": [
				{
					"internalType": "bool",
					"name": "",
					"type": "bool"
				}
			],
			"stateMutability": "view",
			"type": "function"
		},
		{
			"inputs": [],
			"name": "help",
			"outputs": [
				{
					"internalType": "string",
					"name": "",
					"type": "string"
				}
			],
			"stateMutability": "view",
			"type": "function"
		},
		{
			"inputs": [],
			"name": "iMRCRetirementAddress",
			"outputs": [
				{
					"internalType": "address",
					"name": "",
					"type": "address"
				}
			],
			"stateMutability": "view",
			"type": "function"
		},
		{
			"inputs": [],
			"name": "initialize",
			"outputs": [],
			"stateMutability": "nonpayable",
			"type": "function"
		},
		{
			"inputs": [
				{
					"internalType": "address",
					"name": "owner",
					"type": "address"
				},
				{
					"internalType": "address",
					"name": "operator",
					"type": "address"
				}
			],
			"name": "isApprovedForAll",
			"outputs": [
				{
					"internalType": "bool",
					"name": "",
					"type": "bool"
				}
			],
			"stateMutability": "view",
			"type": "function"
		},
		{
			"inputs": [],
			"name": "market",
			"outputs": [
				{
					"internalType": "address",
					"name": "",
					"type": "address"
				}
			],
			"stateMutability": "view",
			"type": "function"
		},
		{
			"inputs": [],
			"name": "name",
			"outputs": [
				{
					"internalType": "string",
					"name": "",
					"type": "string"
				}
			],
			"stateMutability": "view",
			"type": "function"
		},
		{
			"inputs": [],
			"name": "owner",
			"outputs": [
				{
					"internalType": "address",
					"name": "",
					"type": "address"
				}
			],
			"stateMutability": "view",
			"type": "function"
		},
		{
			"inputs": [
				{
					"internalType": "uint256",
					"name": "tokenId",
					"type": "uint256"
				}
			],
			"name": "ownerOf",
			"outputs": [
				{
					"internalType": "address",
					"name": "",
					"type": "address"
				}
			],
			"stateMutability": "view",
			"type": "function"
		},
		{
			"inputs": [],
			"name": "pause",
			"outputs": [],
			"stateMutability": "nonpayable",
			"type": "function"
		},
		{
			"inputs": [],
			"name": "paused",
			"outputs": [
				{
					"internalType": "bool",
					"name": "",
					"type": "bool"
				}
			],
			"stateMutability": "view",
			"type": "function"
		},
		{
			"inputs": [
				{
					"internalType": "UD60x18",
					"name": "a",
					"type": "uint256"
				},
				{
					"internalType": "UD60x18",
					"name": "b",
					"type": "uint256"
				}
			],
			"name": "power",
			"outputs": [
				{
					"internalType": "UD60x18",
					"name": "",
					"type": "uint256"
				}
			],
			"stateMutability": "pure",
			"type": "function"
		},
		{
			"inputs": [],
			"name": "proxiableUUID",
			"outputs": [
				{
					"internalType": "bytes32",
					"name": "",
					"type": "bytes32"
				}
			],
			"stateMutability": "view",
			"type": "function"
		},
		{
			"inputs": [],
			"name": "renounceOwnership",
			"outputs": [],
			"stateMutability": "nonpayable",
			"type": "function"
		},
		{
			"inputs": [
				{
					"internalType": "bytes32",
					"name": "role",
					"type": "bytes32"
				},
				{
					"internalType": "address",
					"name": "callerConfirmation",
					"type": "address"
				}
			],
			"name": "renounceRole",
			"outputs": [],
			"stateMutability": "nonpayable",
			"type": "function"
		},
		{
			"inputs": [
				{
					"internalType": "bytes32",
					"name": "role",
					"type": "bytes32"
				},
				{
					"internalType": "address",
					"name": "account",
					"type": "address"
				}
			],
			"name": "revokeRole",
			"outputs": [],
			"stateMutability": "nonpayable",
			"type": "function"
		},
		{
			"inputs": [
				{
					"internalType": "address",
					"name": "from",
					"type": "address"
				},
				{
					"internalType": "address",
					"name": "to",
					"type": "address"
				},
				{
					"internalType": "uint256",
					"name": "tokenId",
					"type": "uint256"
				}
			],
			"name": "safeTransferFrom",
			"outputs": [],
			"stateMutability": "nonpayable",
			"type": "function"
		},
		{
			"inputs": [
				{
					"internalType": "address",
					"name": "from",
					"type": "address"
				},
				{
					"internalType": "address",
					"name": "to",
					"type": "address"
				},
				{
					"internalType": "uint256",
					"name": "tokenId",
					"type": "uint256"
				},
				{
					"internalType": "bytes",
					"name": "data",
					"type": "bytes"
				}
			],
			"name": "safeTransferFrom",
			"outputs": [],
			"stateMutability": "nonpayable",
			"type": "function"
		},
		{
			"inputs": [
				{
					"internalType": "string",
					"name": "",
					"type": "string"
				}
			],
			"name": "serialNumberApproved",
			"outputs": [
				{
					"internalType": "bool",
					"name": "",
					"type": "bool"
				}
			],
			"stateMutability": "view",
			"type": "function"
		},
		{
			"inputs": [
				{
					"internalType": "address",
					"name": "operator",
					"type": "address"
				},
				{
					"internalType": "bool",
					"name": "approved",
					"type": "bool"
				}
			],
			"name": "setApprovalForAll",
			"outputs": [],
			"stateMutability": "nonpayable",
			"type": "function"
		},
		{
			"inputs": [
				{
					"internalType": "uint256",
					"name": "_newMaxSupply",
					"type": "uint256"
				}
			],
			"name": "setBuyerNFTSupply",
			"outputs": [],
			"stateMutability": "nonpayable",
			"type": "function"
		},
		{
			"inputs": [
				{
					"internalType": "string",
					"name": "_newBaseURI",
					"type": "string"
				}
			],
			"name": "setBuyerURI",
			"outputs": [],
			"stateMutability": "nonpayable",
			"type": "function"
		},
		{
			"inputs": [
				{
					"internalType": "address",
					"name": "_setaddress",
					"type": "address"
				},
				{
					"internalType": "string",
					"name": "_CompanyIdEnrollment",
					"type": "string"
				},
				{
					"internalType": "string",
					"name": "_CompanyNameEnrollment",
					"type": "string"
				}
			],
			"name": "setCompanyEnrollment",
			"outputs": [],
			"stateMutability": "nonpayable",
			"type": "function"
		},
		{
			"inputs": [
				{
					"internalType": "uint256",
					"name": "_newCost",
					"type": "uint256"
				}
			],
			"name": "setCost",
			"outputs": [],
			"stateMutability": "nonpayable",
			"type": "function"
		},
		{
			"inputs": [
				{
					"internalType": "address",
					"name": "_iMRCRetirementAddress",
					"type": "address"
				}
			],
			"name": "setRetirementContract",
			"outputs": [],
			"stateMutability": "nonpayable",
			"type": "function"
		},
		{
			"inputs": [
				{
					"internalType": "bytes4",
					"name": "interfaceId",
					"type": "bytes4"
				}
			],
			"name": "supportsInterface",
			"outputs": [
				{
					"internalType": "bool",
					"name": "",
					"type": "bool"
				}
			],
			"stateMutability": "view",
			"type": "function"
		},
		{
			"inputs": [],
			"name": "symbol",
			"outputs": [
				{
					"internalType": "string",
					"name": "",
					"type": "string"
				}
			],
			"stateMutability": "view",
			"type": "function"
		},
		{
			"inputs": [
				{
					"internalType": "UD60x18",
					"name": "a",
					"type": "uint256"
				},
				{
					"internalType": "UD60x18",
					"name": "b",
					"type": "uint256"
				}
			],
			"name": "times",
			"outputs": [
				{
					"internalType": "UD60x18",
					"name": "",
					"type": "uint256"
				}
			],
			"stateMutability": "pure",
			"type": "function"
		},
		{
			"inputs": [
				{
					"internalType": "uint256",
					"name": "tokenId",
					"type": "uint256"
				}
			],
			"name": "tokenURI",
			"outputs": [
				{
					"internalType": "string",
					"name": "",
					"type": "string"
				}
			],
			"stateMutability": "view",
			"type": "function"
		},
		{
			"inputs": [
				{
					"internalType": "string",
					"name": "CompanyId",
					"type": "string"
				},
				{
					"internalType": "UD60x18",
					"name": "totalAmount",
					"type": "uint256"
				},
				{
					"internalType": "UD60x18",
					"name": "currentAmount",
					"type": "uint256"
				},
				{
					"internalType": "UD60x18",
					"name": "currentCredit",
					"type": "uint256"
				},
				{
					"internalType": "UD60x18",
					"name": "timeDifference",
					"type": "uint256"
				},
				{
					"internalType": "bool",
					"name": "tradingStatus",
					"type": "bool"
				}
			],
			"name": "tradingFinish",
			"outputs": [
				{
					"internalType": "uint256",
					"name": "",
					"type": "uint256"
				}
			],
			"stateMutability": "nonpayable",
			"type": "function"
		},
		{
			"inputs": [
				{
					"internalType": "address",
					"name": "from",
					"type": "address"
				},
				{
					"internalType": "address",
					"name": "to",
					"type": "address"
				},
				{
					"internalType": "uint256",
					"name": "tokenId",
					"type": "uint256"
				}
			],
			"name": "transferFrom",
			"outputs": [],
			"stateMutability": "nonpayable",
			"type": "function"
		},
		{
			"inputs": [
				{
					"internalType": "address",
					"name": "newOwner",
					"type": "address"
				}
			],
			"name": "transferOwnership",
			"outputs": [],
			"stateMutability": "nonpayable",
			"type": "function"
		},
		{
			"inputs": [],
			"name": "unpause",
			"outputs": [],
			"stateMutability": "nonpayable",
			"type": "function"
		},
		{
			"inputs": [
				{
					"internalType": "uint256",
					"name": "tokenId",
					"type": "uint256"
				},
				{
					"internalType": "UD60x18",
					"name": "carbonAmount",
					"type": "uint256"
				},
				{
					"internalType": "UD60x18",
					"name": "errorRate",
					"type": "uint256"
				}
			],
			"name": "updateBuyerNFT",
			"outputs": [],
			"stateMutability": "nonpayable",
			"type": "function"
		},
		{
			"inputs": [
				{
					"internalType": "UD60x18",
					"name": "totalAmount",
					"type": "uint256"
				},
				{
					"internalType": "UD60x18",
					"name": "currentAmount",
					"type": "uint256"
				},
				{
					"internalType": "UD60x18",
					"name": "currentCredit",
					"type": "uint256"
				},
				{
					"internalType": "UD60x18",
					"name": "timeDifference",
					"type": "uint256"
				},
				{
					"internalType": "bool",
					"name": "tradingStatus",
					"type": "bool"
				}
			],
			"name": "updateCredits",
			"outputs": [
				{
					"internalType": "UD60x18",
					"name": "",
					"type": "uint256"
				}
			],
			"stateMutability": "pure",
			"type": "function"
		},
		{
			"inputs": [
				{
					"internalType": "string",
					"name": "CompanyId",
					"type": "string"
				},
				{
					"internalType": "bool",
					"name": "AddOrReset",
					"type": "bool"
				}
			],
			"name": "updateTime",
			"outputs": [],
			"stateMutability": "nonpayable",
			"type": "function"
		},
		{
			"inputs": [
				{
					"internalType": "address",
					"name": "newImplementation",
					"type": "address"
				},
				{
					"internalType": "bytes",
					"name": "data",
					"type": "bytes"
				}
			],
			"name": "upgradeToAndCall",
			"outputs": [],
			"stateMutability": "payable",
			"type": "function"
		},
		{
			"inputs": [
				{
					"internalType": "uint256",
					"name": "i",
					"type": "uint256"
				}
			],
			"name": "uuu",
			"outputs": [
				{
					"internalType": "UD60x18",
					"name": "",
					"type": "uint256"
				}
			],
			"stateMutability": "pure",
			"type": "function"
		},
		{
			"inputs": [
				{
					"internalType": "uint256",
					"name": "tokenId",
					"type": "uint256"
				}
			],
			"name": "verifyBuyerNFT",
			"outputs": [],
			"stateMutability": "nonpayable",
			"type": "function"
		}
	]
}