{
	"data": {
		"bytecode": {
			"linkReferences": {},
			"object": "60a060405230608052603280546001600160a01b0319908116735cd9636875e03ef896fe62f39c4662f9f61f22031790915560338054909116736c554a2f5585153047dc54217d61afa2ee7191581790555f603d819055603e55348015610064575f80fd5b5061006d610072565b6102ca565b7ff0c57e16840df040f15088dc2f81fe391c3923bec73e23a9662efc9c229c6a00805468010000000000000000810460ff1615906001600160401b03165f811580156100bb5750825b90505f826001600160401b031660011480156100d65750303b155b9050811580156100e4575080155b156101025760405163f92ee8a960e01b815260040160405180910390fd5b84546001600160401b0319166001178555831561013057845460ff60401b1916680100000000000000001785555b610138610196565b610141336101a8565b6101496101bc565b831561018f57845460ff60401b19168555604051600181527fc7f505b2f371ae2175ee4913f4499e1f2633a7b5936321eed1cdaeb6115181d29060200160405180910390a15b5050505050565b61019e6101c0565b6101a661020e565b565b6101b06101c0565b6101b981610221565b50565b6101a65b7ff0c57e16840df040f15088dc2f81fe391c3923bec73e23a9662efc9c229c6a005468010000000000000000900460ff166101a657604051631afcd79f60e31b815260040160405180910390fd5b6102166101c0565b5f805460ff19169055565b6102296101c0565b6001600160a01b03811661025657604051631e4fbdf760e01b81525f600482015260240160405180910390fd5b6101b9817f9016d09d72d40fdae2fd8ceac6b6234c7706214fd39c1cd1e609a0528c19930080546001600160a01b031981166001600160a01b03848116918217845560405192169182907f8be0079c531659141344cd1fd0a4f28419497f9722a3daafe3b4186f6b6457e0905f90a3505050565b6080516137026102f05f395f8181612298015281816122c1015261240001526137025ff3fe6080604052600436106101f1575f3560e01c80638456cb5911610108578063ad3cb1cc1161009d578063f2ce965e1161006d578063f2ce965e146106ac578063f2fde38b146106cd578063f77ee79d146106ec578063fa31465d14610751578063ffa1ad7414610770575f80fd5b8063ad3cb1cc146105c6578063c93d979f14610603578063cda70ec514610685578063d73298c514610699575f80fd5b80639b58a874116100d85780639b58a87414610560578063a23c749314610574578063a28c8e0314610593578063a8d20d61146105a7575f80fd5b80638456cb59146104d25780638da5cb5b146104e6578063926afe401461052257806397ed54ff14610541575f80fd5b80634f1ef286116101895780636ca0b0d7116101595780636ca0b0d714610440578063715018a6146104545780637a05ee2b1461046857806380f446751461049f5780638129fc1c146104be575f80fd5b80634f1ef286146103ef57806352d1902d146104025780635c975abb14610416578063632dad131461042c575f80fd5b8063294af2a0116101c4578063294af2a0146102e157806334844b421461036e5780633722ee4d146103b85780633f4ba83a146103db575f80fd5b8063150b7a02146101f55780631742f7ca146102325780631ac2733c146102535780632117f8e6146102c2575b5f80fd5b348015610200575f80fd5b5061021461020f366004612e54565b61079e565b6040516001600160e01b031990911681526020015b60405180910390f35b34801561023d575f80fd5b5061025161024c366004612ebb565b610ae9565b005b34801561025e575f80fd5b5061027261026d366004612eff565b610d88565b6040516102299190815181526020808301516001600160a01b03169082015260408083015190820152606080830151908201526080808301519082015260a0918201519181019190915260c00190565b3480156102cd575f80fd5b506102516102dc366004612f16565b610e25565b3480156102ec575f80fd5b506103396102fb366004612eff565b60366020525f908152604090208054600182015460028301546003840154600485015460059095015493946001600160a01b03909316939192909186565b604080519687526001600160a01b039095166020870152938501929092526060840152608083015260a082015260c001610229565b348015610379575f80fd5b506103a8610388366004612f31565b805160208183018101805160358252928201919093012091525460ff1681565b6040519015158152602001610229565b3480156103c3575f80fd5b506103cd603c5481565b604051908152602001610229565b3480156103e6575f80fd5b50610251610e4f565b6102516103fd366004612f7d565b610e61565b34801561040d575f80fd5b506103cd610e80565b348015610421575f80fd5b505f5460ff166103a8565b348015610437575f80fd5b50603e546103cd565b34801561044b575f80fd5b506103cd600181565b34801561045f575f80fd5b50610251610e9b565b348015610473575f80fd5b50603354610487906001600160a01b031681565b6040516001600160a01b039091168152602001610229565b3480156104aa575f80fd5b50603454610487906001600160a01b031681565b3480156104c9575f80fd5b50610251610eac565b3480156104dd575f80fd5b50610251610fc7565b3480156104f1575f80fd5b507f9016d09d72d40fdae2fd8ceac6b6234c7706214fd39c1cd1e609a0528c199300546001600160a01b0316610487565b34801561052d575f80fd5b506103cd61053c366004612eff565b610fd7565b34801561054c575f80fd5b5061025161055b366004612fc9565b610ff6565b34801561056b575f80fd5b50603d546103cd565b34801561057f575f80fd5b5061025161058e366004612f16565b611246565b34801561059e575f80fd5b50610251611270565b3480156105b2575f80fd5b506102516105c1366004612eff565b611453565b3480156105d1575f80fd5b506105f6604051806040016040528060058152602001640352e302e360dc1b81525081565b6040516102299190613031565b34801561060e575f80fd5b5061065561061d366004612eff565b60386020525f90815260409020805460018201546002830154600384015460049094015492936001600160a01b039092169290919085565b604080519586526001600160a01b039094166020860152928401919091526060830152608082015260a001610229565b348015610690575f80fd5b506102516114fc565b6102516106a7366004612eff565b61180f565b3480156106b7575f80fd5b506106c0611d87565b6040516102299190613043565b3480156106d8575f80fd5b506102516106e7366004612f16565b611f0f565b3480156106f7575f80fd5b5061070b610706366004612eff565b611f49565b6040516102299190815181526020808301516001600160a01b03169082015260408083015190820152606080830151908201526080918201519181019190915260a00190565b34801561075c575f80fd5b50603254610487906001600160a01b031681565b34801561077b575f80fd5b506105f6604051806040016040528060038152602001620312e360ec1b81525081565b5f6107a7611fd6565b5f6107b13361201b565b9050806002036108195760405162461bcd60e51b815260206004820152602860248201527f4572726f723a204e4654206e6f742066726f6d2077686974656c69737465642060448201526718dbdb9d1c9858dd60c21b60648201526084015b60405180910390fd5b5f8380602001905181019061082e919061311c565b9050805f83900361098d57604051635db4041d60e01b8152600481018790525f903390635db4041d906024015f60405180830381865afa158015610874573d5f803e3d5ffd5b505050506040513d5f823e601f3d908101601f1916820160405261089b9190810190613199565b905060018160a0015160038111156108b5576108b5613287565b146108d25760405162461bcd60e51b81526004016108109061329b565b6108e581604001516108e15f90565b1090565b61092b5760405162461bcd60e51b81526020600482015260176024820152764572726f723a206e6f20416d6f756e7420696e7369646560481b6044820152606401610810565b61094087898360400151846080015186610ae9565b60408082015181516001600160a01b038b16815260208101919091527fa5e87a37233138f2b4398006833f40071fe05f6dd454c011d832e52c4db37872910160405180910390a150610ad5565b60405163041642dd60e21b8152600481018790525f9033906310590b74906024015f60405180830381865afa1580156109c8573d5f803e3d5ffd5b505050506040513d5f823e601f3d908101601f191682016040526109ef91908101906132ee565b9050600181608001516003811115610a0957610a09613287565b14610a265760405162461bcd60e51b81526004016108109061329b565b610a3581606001516108e15f90565b610a7b5760405162461bcd60e51b81526020600482015260176024820152764572726f723a206e6f20416d6f756e7420696e7369646560481b6044820152606401610810565b610a8b8789836060015185610ff6565b6060810151604080516001600160a01b038b16815260208101929092527f16ee48e497ae1026975411fa2362c986d3dc9b8041561d7c386235cf039599ad910160405180910390a1505b50630a85bd0160e11b979650505050505050565b5f610af48383612065565b90505f6040518060c00160405280888152602001876001600160a01b031681526020018681526020018581526020018481526020018381525090505f610b398361207d565b603d80545f90815260366020908152604080832087518155918701516001830180546001600160a01b0319166001600160a01b039092169190911790558601516002820155606086015160038201556080860151600482015560a08601516005909101558154929350610bab836133fe565b91905055505f6001603d54610bc09190613416565b90505b81811115610d7d575f603681610bda600185613416565b815260208082019290925260409081015f908120825160c08082018552825482526001808401546001600160a01b0390811684890152600280860154858901526003808701546060808801919091526004808901546080808a01919091526005998a015460a0808b01919091528f8c526036808f528d8d208e519a8b018f5280548b52808a01549098169e8a019e909e52948601549b88019b909b529184015490860152820154978401979097529093015494810194909452945091928392859290610ca69088613416565b815260208082019290925260409081015f90812088825260368452908290208451815584840151600180830180546001600160a01b039384166001600160a01b031991821617909155878601516002808601919091556060808a01516003808801919091556080808c01516004808a019190915560a09c8d01516005998a01558d518a559a8d01519589018054969097169590941694909417909455958901519585019590955590870151908301559185015192810192909255929091015191015550819050610d7581613429565b915050610bc3565b505050505050505050565b610dc46040518060c001604052805f81526020015f6001600160a01b031681526020015f81526020015f81526020015f81526020015f81525090565b505f90815260366020908152604091829020825160c0810184528154815260018201546001600160a01b031692810192909252600281015492820192909252600382015460608201526004820154608082015260059091015460a082015290565b610e2d6121e1565b603280546001600160a01b0319166001600160a01b0392909216919091179055565b610e576121e1565b610e5f61223c565b565b610e6961228d565b610e7282612331565b610e7c8282612339565b5050565b5f610e896123f5565b505f805160206136ad83398151915290565b610ea36121e1565b610e5f5f61243e565b7ff0c57e16840df040f15088dc2f81fe391c3923bec73e23a9662efc9c229c6a008054600160401b810460ff1615906001600160401b03165f81158015610ef05750825b90505f826001600160401b03166001148015610f0b5750303b155b905081158015610f19575080155b15610f375760405163f92ee8a960e01b815260040160405180910390fd5b845467ffffffffffffffff191660011785558315610f6157845460ff60401b1916600160401b1785555b610f696124ae565b610f72336124be565b610f7a6124cf565b8315610fc057845460ff60401b19168555604051600181527fc7f505b2f371ae2175ee4913f4499e1f2633a7b5936321eed1cdaeb6115181d29060200160405180910390a15b5050505050565b610fcf6121e1565b610e5f6124d7565b603b8181548110610fe6575f80fd5b5f91825260209091200154905081565b6040805160a0810182528581526001600160a01b0385166020820152908101839052606081018290526080810182905281905f61103283612513565b603e80545f90815260386020908152604080832087518155918701516001830180546001600160a01b0319166001600160a01b039092169190911790558601516002820155606086015160038201556080860151600490910155815492935061109a836133fe565b91905055505f6001603e546110af9190613416565b90505b8181111561123c575f6038816110c9600185613416565b815260208082019290925260409081015f908120825160a08082018552825482526001808401546001600160a01b0390811684890152600280860154858901526003808701546060808801919091526004978801546080808901919091528d8a526038808d528b8b208c519889018d5280548952808801549096169c88019c909c52928401549986019990995282015497840197909752909301549481019490945294509192839285929061117e9088613416565b815260208082019290925260409081015f90812088825260388452908290208451815584840151600180830180546001600160a01b03199081166001600160a01b0394851617909155878601516002808601919091556060808a015160038088019190915560809a8b01516004978801558b518855988b01519387018054909316939094169290921790559387015193830193909355918501519281019290925592909101519101555081905061123481613429565b9150506110b2565b5050505050505050565b61124e6121e1565b603380546001600160a01b0319166001600160a01b0392909216919091179055565b6112786121e1565b5f805b603d54158061128a5750603e54155b6113ab576001603d5461129d9190613416565b8211806112b757506001603e546112b49190613416565b81115b6113ab575f82815260366020908152604080832060029081015485855260389093529083200154101561131357505f81815260386020526040902060020154611301838383612671565b8161130b816133fe565b9250506113a5565b5f8381526036602090815260408083206002908101548685526038909352922090910154111561136c57505f8281526036602052604090206002015461135a838383612671565b82611364816133fe565b9350506113a5565b505f81815260386020526040902060020154611389838383612671565b82611393816133fe565b93505081806113a1906133fe565b9250505b5061127b565b6032546001600160a01b03166113d35760405162461bcd60e51b81526004016108109061343e565b603254604080516378e875c560e01b81526004808201929092526044810191909152630307830360e41b6064820152600160248201526001600160a01b03909116906378e875c5906084015f604051808303815f87803b158015611435575f80fd5b505af1158015611447573d5f803e3d5ffd5b50505050610e7c6128c2565b603b545f5b818110156114f75782603b828154811061147457611474613489565b905f5260205f200154036114ef57603b61148f600184613416565b8154811061149f5761149f613489565b905f5260205f200154603b82815481106114bb576114bb613489565b5f91825260209091200155603b8054806114d7576114d761349d565b600190038181905f5260205f20015f90559055505050565b600101611458565b505050565b6115046121e1565b6032546001600160a01b031661152c5760405162461bcd60e51b81526004016108109061343e565b5f611535611d87565b90505f5b81518110156118005760325482515f916001600160a01b03169063d6f343c59085908590811061156b5761156b613489565b60200260200101515f01515f8151811061158757611587613489565b6020908102919091010151516040516001600160e01b031960e084901b1681526001600160a01b0390911660048201526024015f60405180830381865afa1580156115d4573d5f803e3d5ffd5b505050506040513d5f823e601f3d908101601f191682016040526115fb91908101906134b1565b60325481516040516380812fed60e01b81529293505f926001600160a01b03909216916380812fed9161163091600401613031565b5f60405180830381865afa15801561164a573d5f803e3d5ffd5b505050506040513d5f823e601f3d908101601f191682016040526116719190810190613551565b60808101519091505f5b85858151811061168d5761168d613489565b60200260200101515f015151811015611791575f8686815181106116b3576116b3613489565b60200260200101515f015182815181106116cf576116cf613489565b60200260200101516080015190505f6116f085606001518660400151612987565b90506116fc8183612987565b60a086015160325488516040516346f47e3960e11b815293945091926001600160a01b0390911691638de8fc729161174191908690889087908c905f906004016135ed565b6020604051808303815f875af115801561175d573d5f803e3d5ffd5b505050506040513d601f19601f82011682018060405250810190611781919061311c565b50506001909201915061167b9050565b5060325483516040516378e875c560e01b81526001600160a01b03909216916378e875c5916117c4915f9060040161362a565b5f604051808303815f87803b1580156117db575f80fd5b505af11580156117ed573d5f803e3d5ffd5b5050600190950194506115399350505050565b5061180c603b5f612ce2565b50565b6032546001600160a01b03166118375760405162461bcd60e51b81526004016108109061343e565b5f805b5f838152603a60205260409020548110156118da575f838152603a6020526040902080546118d09184916118cb91908590811061187957611879613489565b905f5260205f20906006020160050154603a5f8881526020019081526020015f205f0185815481106118ad576118ad613489565b905f5260205f2090600602016004015461206590919063ffffffff16565b612987565b915060010161183a565b506118e481612995565b6118f690670de0b6b3a764000061364d565b3410156119455760405162461bcd60e51b815260206004820152601b60248201527f596f75206e65656420746f2073656e64206d6f7265206d6174696300000000006044820152606401610810565b6032545f838152603a60205260408120805491926001600160a01b03169163d6f343c59190849061197857611978613489565b5f91825260209091206006909102015460405160e083901b6001600160e01b03191681526001600160a01b0390911660048201526024015f60405180830381865afa1580156119c9573d5f803e3d5ffd5b505050506040513d5f823e601f3d908101601f191682016040526119f091908101906134b1565b60325481516040516380812fed60e01b81529293505f926001600160a01b03909216916380812fed91611a2591600401613031565b5f60405180830381865afa158015611a3f573d5f803e3d5ffd5b505050506040513d5f823e601f3d908101601f19168201604052611a669190810190613551565b60808101519091505f5b5f868152603a6020526040902054811015611d60575f611a9884606001518560400151612987565b5f888152603a602052604081208054929350909184908110611abc57611abc613489565b5f9182526020909120600160069092020101546001600160a01b0316905080611b1b5760405162461bcd60e51b8152602060048201526011602482015270149958da5c1a595b9d081b9bdd081cd95d607a1b6044820152606401610810565b5f888152603a6020526040812080546001600160a01b03841691611b8791611b82919088908110611b4e57611b4e613489565b905f5260205f20906006020160050154603a5f8e81526020019081526020015f205f0188815481106118ad576118ad613489565b612995565b611b9990670de0b6b3a764000061364d565b6040515f81818185875af1925050503d805f8114611bd2576040519150601f19603f3d011682016040523d82523d5f602084013e611bd7565b606091505b5050905080611c1f5760405162461bcd60e51b81526020600482015260146024820152732330b4b632b2103a379039b2b7321022ba3432b960611b6044820152606401610810565b5f898152603a602052604090208054611c5991859187908110611c4457611c44613489565b905f5260205f20906006020160040154612987565b60325488515f8c8152603a6020526040902080549396506001600160a01b0390921692638de8fc7292879189908110611c9457611c94613489565b905f5260205f209060060201600401548a60a001518a60016040518763ffffffff1660e01b8152600401611ccd969594939291906135ed565b6020604051808303815f875af1158015611ce9573d5f803e3d5ffd5b505050506040513d601f19601f82011682018060405250810190611d0d919061311c565b50604080513381526001600160a01b0384166020820152348183015290517f45fdc265dc29885b9a485766b03e70978440d38c7c328ee0a14fa40c76c6af549181900360600190a1505050600101611a70565b505f858152603a602052604090206001908101805460ff19169091179055610fc085611453565b603b546060905f906001600160401b03811115611da657611da6612d24565b604051908082528060200260200182016040528015611deb57816020015b60408051808201909152606081525f6020820152815260200190600190039081611dc45790505b5090505f5b603b54811015611f0957603a5f603b8381548110611e1057611e10613489565b905f5260205f20015481526020019081526020015f206040518060400160405290815f8201805480602002602001604051908101604052809291908181526020015f905b82821015611ec9575f8481526020908190206040805160c0810182526006860290920180546001600160a01b0390811684526001808301549091168486015260028201549284019290925260038101546060840152600481015460808401526005015460a08301529083529092019101611e54565b505050908252506001919091015460ff1615156020909101528251839083908110611ef657611ef6613489565b6020908102919091010152600101611df0565b50919050565b611f176121e1565b6001600160a01b038116611f4057604051631e4fbdf760e01b81525f6004820152602401610810565b61180c8161243e565b611f7f6040518060a001604052805f81526020015f6001600160a01b031681526020015f81526020015f81526020015f81525090565b505f90815260386020908152604091829020825160a0810184528154815260018201546001600160a01b03169281019290925260028101549282019290925260038201546060820152600490910154608082015290565b5f5460ff1615610e5f5760405162461bcd60e51b815260206004820152601060248201526f14185d5cd8589b194e881c185d5cd95960821b6044820152606401610810565b6032545f906001600160a01b039081169083160361203a57505f919050565b6033546001600160a01b039081169083160361205857506001919050565b506002919050565b919050565b5f61207661207384846129a8565b90565b9392505050565b60378054600181810183555f8381527f42a7b7dd785cd69714a189dffb3fd7d7174edc9ece837694ce50f7078f7c31ae9092018490559154909182916120c39190613416565b9050805f036120d25792915050565b5f81118015612125575061212560376120ec600184613416565b815481106120fc576120fc613489565b905f5260205f2001546037838154811061211857612118613489565b905f5260205f2001541190565b156121db576037818154811061213d5761213d613489565b905f5260205f20015460376001836121559190613416565b8154811061216557612165613489565b905f5260205f200154603760018461217d9190613416565b8154811061218d5761218d613489565b905f5260205f20015f603785815481106121a9576121a9613489565b5f918252602090912001929092559190915550806121c681613429565b915050805f036121d65792915050565b6120d2565b92915050565b336122137f9016d09d72d40fdae2fd8ceac6b6234c7706214fd39c1cd1e609a0528c199300546001600160a01b031690565b6001600160a01b031614610e5f5760405163118cdaa760e01b8152336004820152602401610810565b612244612a5a565b5f805460ff191690557f5db9ee0a495bf2e6ff9c91a7834c1ba4fdd244a5e8aa4e537bd38aeae4b073aa335b6040516001600160a01b03909116815260200160405180910390a1565b306001600160a01b037f000000000000000000000000000000000000000000000000000000000000000016148061231357507f00000000000000000000000000000000000000000000000000000000000000006001600160a01b03166123075f805160206136ad833981519152546001600160a01b031690565b6001600160a01b031614155b15610e5f5760405163703e46dd60e11b815260040160405180910390fd5b61180c6121e1565b816001600160a01b03166352d1902d6040518163ffffffff1660e01b8152600401602060405180830381865afa925050508015612393575060408051601f3d908101601f191682019092526123909181019061311c565b60015b6123bb57604051634c9c8ce360e01b81526001600160a01b0383166004820152602401610810565b5f805160206136ad83398151915281146123eb57604051632a87526960e21b815260048101829052602401610810565b6114f78383612aa2565b306001600160a01b037f00000000000000000000000000000000000000000000000000000000000000001614610e5f5760405163703e46dd60e11b815260040160405180910390fd5b7f9016d09d72d40fdae2fd8ceac6b6234c7706214fd39c1cd1e609a0528c19930080546001600160a01b031981166001600160a01b03848116918217845560405192169182907f8be0079c531659141344cd1fd0a4f28419497f9722a3daafe3b4186f6b6457e0905f90a3505050565b6124b6612af7565b610e5f612b40565b6124c6612af7565b61180c81612b53565b610e5f612af7565b6124df611fd6565b5f805460ff191660011790557f62e78cea01bee320cd4e420270b5ea74000d11b0c9f74754ebdbfc544b05a2586122703390565b60398054600181810183555f8381527fdc16fef70f8d5ddbc01ee3d903d1e69c18a3c7be080eb86a81e0578814ee58d39092018490559154909182916125599190613416565b9050805f036125685792915050565b5f811180156125bb57506125bb6039612582600184613416565b8154811061259257612592613489565b905f5260205f200154603983815481106125ae576125ae613489565b905f5260205f2001541090565b156121db57603981815481106125d3576125d3613489565b905f5260205f20015460396001836125eb9190613416565b815481106125fb576125fb613489565b905f5260205f20015460396001846126139190613416565b8154811061262357612623613489565b905f5260205f20015f6039858154811061263f5761263f613489565b5f9182526020909120019290925591909155508061265c81613429565b915050805f0361266c5792915050565b612568565b5f6126de6126b161269a670de0b6b3a76400005f88815260366020526040902060030154612b5b565b5f8781526036602052604090206004015490612065565b5f86815260366020908152604080832060039081015489855260389093529220909101546118cb91612065565b5f85815260366020818152604080842080548552603a83528185206001908101805460ff191690558154808752838720845160c081018652838501546001600160a01b0390811682528d8a526038808952878b20808701548316848b019081529884019586529089525460608301908152608083018e815260a084018d815285548089018755958d528a8d209451600690960290940180549584166001600160a01b0319968716178155985196890180549790931696909416959095179055915160028087019190915592516003860155516004850155516005909301929092559389905291905201549091506127d59083612b5b565b5f8581526036602090815260408083206002908101949094558683526038909152902001546128049083612b5b565b5f8481526038602081815260408084206002810195909555888452603682528084208054603b805460018082019092557fbbe3212124853f8b0084a66a2d057c2966e251e132af3691db153ab65f0d1a4d01919091559081015494899052928252919093015481516001600160a01b039384168152921692820192909252908101839052606081018290527faef303072d43a31d76f74874d3e0089419d56efd929ded7e1f35c6b6e197e7e79060800160405180910390a150505050565b5f5b603d54811015612915575f818152603660205260408120818155600180820180546001600160a01b0319169055600282018390556003820183905560048201839055600590910191909155016128c4565b505f5b603e54811015612962575f818152603860205260408120818155600180820180546001600160a01b0319169055600282018390556003820183905560049091019190915501612918565b505f603d81905561297590603790612ce2565b5f603e819055610e5f90603990612ce2565b5f6120766120738385613664565b5f6121db670de0b6b3a764000083613677565b5f80805f19848609848602925082811083820303915050805f036129d95750670de0b6b3a7640000900490506121db565b670de0b6b3a76400008110612a0b57604051635173648d60e01b81526004810186905260248101859052604401610810565b5f670de0b6b3a764000085870962040000818503049310909103600160ee1b02919091177faccb18165bd6fe31ae1cf318dc5b51eee0e1ba569b88cd74c1773b91fac106690291505092915050565b5f5460ff16610e5f5760405162461bcd60e51b815260206004820152601460248201527314185d5cd8589b194e881b9bdd081c185d5cd95960621b6044820152606401610810565b612aab82612b69565b6040516001600160a01b038316907fbc7cd75a20ee27fd9adebab32041f755214dbc6bffa90cc0225b39da2e5c2d3b905f90a2805115612aef576114f78282612bcc565b610e7c612c3e565b7ff0c57e16840df040f15088dc2f81fe391c3923bec73e23a9662efc9c229c6a0054600160401b900460ff16610e5f57604051631afcd79f60e31b815260040160405180910390fd5b612b48612af7565b5f805460ff19169055565b611f17612af7565b5f6120766120738385613416565b806001600160a01b03163b5f03612b9e57604051634c9c8ce360e01b81526001600160a01b0382166004820152602401610810565b5f805160206136ad83398151915280546001600160a01b0319166001600160a01b0392909216919091179055565b60605f80846001600160a01b031684604051612be89190613696565b5f60405180830381855af49150503d805f8114612c20576040519150601f19603f3d011682016040523d82523d5f602084013e612c25565b606091505b5091509150612c35858383612c5d565b95945050505050565b3415610e5f5760405163b398979f60e01b815260040160405180910390fd5b606082612c7257612c6d82612cb9565b612076565b8151158015612c8957506001600160a01b0384163b155b15612cb257604051639996b31560e01b81526001600160a01b0385166004820152602401610810565b5092915050565b805115612cc95780518082602001fd5b604051630a12f52160e11b815260040160405180910390fd5b5080545f8255905f5260205f209081019061180c91905b80821115612d0c575f8155600101612cf9565b5090565b6001600160a01b038116811461180c575f80fd5b634e487b7160e01b5f52604160045260245ffd5b60405161010081016001600160401b0381118282101715612d5b57612d5b612d24565b60405290565b60405160e081016001600160401b0381118282101715612d5b57612d5b612d24565b60405160c081016001600160401b0381118282101715612d5b57612d5b612d24565b604051601f8201601f191681016001600160401b0381118282101715612dcd57612dcd612d24565b604052919050565b5f6001600160401b03821115612ded57612ded612d24565b50601f01601f191660200190565b5f612e0d612e0884612dd5565b612da5565b9050828152838383011115612e20575f80fd5b828260208301375f602084830101529392505050565b5f82601f830112612e45575f80fd5b61207683833560208501612dfb565b5f805f8060808587031215612e67575f80fd5b8435612e7281612d10565b93506020850135612e8281612d10565b92506040850135915060608501356001600160401b03811115612ea3575f80fd5b612eaf87828801612e36565b91505092959194509250565b5f805f805f60a08688031215612ecf575f80fd5b853594506020860135612ee181612d10565b94979496505050506040830135926060810135926080909101359150565b5f60208284031215612f0f575f80fd5b5035919050565b5f60208284031215612f26575f80fd5b813561207681612d10565b5f60208284031215612f41575f80fd5b81356001600160401b03811115612f56575f80fd5b8201601f81018413612f66575f80fd5b612f7584823560208401612dfb565b949350505050565b5f8060408385031215612f8e575f80fd5b8235612f9981612d10565b915060208301356001600160401b03811115612fb3575f80fd5b612fbf85828601612e36565b9150509250929050565b5f805f8060808587031215612fdc575f80fd5b843593506020850135612fee81612d10565b93969395505050506040820135916060013590565b5f81518084528060208401602086015e5f602082860101526020601f19601f83011685010191505092915050565b602081525f6120766020830184613003565b5f6020808301818452808551808352604092508286019150828160051b8701018488015f5b8381101561310e57888303603f190185528151805187855280518886018190526060918a0190828701905f5b818110156130ec57835180516001600160a01b0390811685528e820151168e8501528c8101518d85015285810151868501526080808201519085015260a09081015190840152928c019260c090920191600101613094565b5050928a01511515958a01959095525094870194925090860190600101613068565b509098975050505050505050565b5f6020828403121561312c575f80fd5b5051919050565b5f82601f830112613142575f80fd5b8151613150612e0882612dd5565b818152846020838601011115613164575f80fd5b8160208501602083015e5f918101602001919091529392505050565b805160048110612060575f80fd5b805161206081612d10565b5f602082840312156131a9575f80fd5b81516001600160401b03808211156131bf575f80fd5b9083019061010082860312156131d3575f80fd5b6131db612d38565b8251828111156131e9575f80fd5b6131f587828601613133565b825250602083015182811115613209575f80fd5b61321587828601613133565b60208301525060408301516040820152606083015160608201526080830151608082015261324560a08401613180565b60a082015260c08301518281111561325b575f80fd5b61326787828601613133565b60c08301525061327960e0840161318e565b60e082015295945050505050565b634e487b7160e01b5f52602160045260245ffd5b60208082526033908201527f4572726f723a4e4654206e6f7420796574205665726966696564206f7220616c6040820152723932b0b23c9032b73a32b91026b0b935b2ba1760691b606082015260800190565b5f602082840312156132fe575f80fd5b81516001600160401b0380821115613314575f80fd5b9083019060e08286031215613327575f80fd5b61332f612d61565b82518281111561333d575f80fd5b61334987828601613133565b82525060208301518281111561335d575f80fd5b61336987828601613133565b602083015250604083015182811115613380575f80fd5b61338c87828601613133565b604083015250606083015160608201526133a860808401613180565b608082015260a0830151828111156133be575f80fd5b6133ca87828601613133565b60a0830152506133dc60c0840161318e565b60c082015295945050505050565b634e487b7160e01b5f52601160045260245ffd5b5f6001820161340f5761340f6133ea565b5060010190565b818103818111156121db576121db6133ea565b5f81613437576134376133ea565b505f190190565b6020808252602b908201527f4572726f723a204e65656420436f6d62696e6520694d52434e465420436f6e7460408201526a3930b1ba103334b939ba1760a91b606082015260800190565b634e487b7160e01b5f52603260045260245ffd5b634e487b7160e01b5f52603160045260245ffd5b5f602082840312156134c1575f80fd5b81516001600160401b03808211156134d7575f80fd5b90830190604082860312156134ea575f80fd5b60405160408101818110838211171561350557613505612d24565b604052825182811115613516575f80fd5b61352287828601613133565b825250602083015182811115613536575f80fd5b61354287828601613133565b60208301525095945050505050565b5f60208284031215613561575f80fd5b81516001600160401b0380821115613577575f80fd5b9083019060c0828603121561358a575f80fd5b613592612d83565b8251828111156135a0575f80fd5b6135ac87828601613133565b8252506020830151602082015260408301516040820152606083015160608201526080830151608082015260a083015160a082015280935050505092915050565b60c081525f6135ff60c0830189613003565b602083019790975250604081019490945260608401929092526080830152151560a090910152919050565b604081525f61363c6040830185613003565b905082151560208301529392505050565b80820281158282048414176121db576121db6133ea565b808201808211156121db576121db6133ea565b5f8261369157634e487b7160e01b5f52601260045260245ffd5b500490565b5f82518060208501845e5f92019182525091905056fe360894a13ba1a3210667c828492db98dca3e2076cc3735a920a3ca505d382bbca2646970667358221220b1b2c9ad41c62475492921e24088848bf0a72c3e4dcfa59d84b4f5805be30d5a64736f6c63430008190033",
			"opcodes": "PUSH1 0xA0 PUSH1 0x40 MSTORE ADDRESS PUSH1 0x80 MSTORE PUSH1 0x32 DUP1 SLOAD PUSH1 0x1 PUSH1 0x1 PUSH1 0xA0 SHL SUB NOT SWAP1 DUP2 AND PUSH20 0x5CD9636875E03EF896FE62F39C4662F9F61F2203 OR SWAP1 SWAP2 SSTORE PUSH1 0x33 DUP1 SLOAD SWAP1 SWAP2 AND PUSH20 0x6C554A2F5585153047DC54217D61AFA2EE719158 OR SWAP1 SSTORE PUSH0 PUSH1 0x3D DUP2 SWAP1 SSTORE PUSH1 0x3E SSTORE CALLVALUE DUP1 ISZERO PUSH2 0x64 JUMPI PUSH0 DUP1 REVERT JUMPDEST POP PUSH2 0x6D PUSH2 0x72 JUMP JUMPDEST PUSH2 0x2CA JUMP JUMPDEST PUSH32 0xF0C57E16840DF040F15088DC2F81FE391C3923BEC73E23A9662EFC9C229C6A00 DUP1 SLOAD PUSH9 0x10000000000000000 DUP2 DIV PUSH1 0xFF AND ISZERO SWAP1 PUSH1 0x1 PUSH1 0x1 PUSH1 0x40 SHL SUB AND PUSH0 DUP2 ISZERO DUP1 ISZERO PUSH2 0xBB JUMPI POP DUP3 JUMPDEST SWAP1 POP PUSH0 DUP3 PUSH1 0x1 PUSH1 0x1 PUSH1 0x40 SHL SUB AND PUSH1 0x1 EQ DUP1 ISZERO PUSH2 0xD6 JUMPI POP ADDRESS EXTCODESIZE ISZERO JUMPDEST SWAP1 POP DUP2 ISZERO DUP1 ISZERO PUSH2 0xE4 JUMPI POP DUP1 ISZERO JUMPDEST ISZERO PUSH2 0x102 JUMPI PUSH1 0x40 MLOAD PUSH4 0xF92EE8A9 PUSH1 0xE0 SHL DUP2 MSTORE PUSH1 0x4 ADD PUSH1 0x40 MLOAD DUP1 SWAP2 SUB SWAP1 REVERT JUMPDEST DUP5 SLOAD PUSH1 0x1 PUSH1 0x1 PUSH1 0x40 SHL SUB NOT AND PUSH1 0x1 OR DUP6 SSTORE DUP4 ISZERO PUSH2 0x130 JUMPI DUP5 SLOAD PUSH1 0xFF PUSH1 0x40 SHL NOT AND PUSH9 0x10000000000000000 OR DUP6 SSTORE JUMPDEST PUSH2 0x138 PUSH2 0x196 JUMP JUMPDEST PUSH2 0x141 CALLER PUSH2 0x1A8 JUMP JUMPDEST PUSH2 0x149 PUSH2 0x1BC JUMP JUMPDEST DUP4 ISZERO PUSH2 0x18F JUMPI DUP5 SLOAD PUSH1 0xFF PUSH1 0x40 SHL NOT AND DUP6 SSTORE PUSH1 0x40 MLOAD PUSH1 0x1 DUP2 MSTORE PUSH32 0xC7F505B2F371AE2175EE4913F4499E1F2633A7B5936321EED1CDAEB6115181D2 SWAP1 PUSH1 0x20 ADD PUSH1 0x40 MLOAD DUP1 SWAP2 SUB SWAP1 LOG1 JUMPDEST POP POP POP POP POP JUMP JUMPDEST PUSH2 0x19E PUSH2 0x1C0 JUMP JUMPDEST PUSH2 0x1A6 PUSH2 0x20E JUMP JUMPDEST JUMP JUMPDEST PUSH2 0x1B0 PUSH2 0x1C0 JUMP JUMPDEST PUSH2 0x1B9 DUP2 PUSH2 0x221 JUMP JUMPDEST POP JUMP JUMPDEST PUSH2 0x1A6 JUMPDEST PUSH32 0xF0C57E16840DF040F15088DC2F81FE391C3923BEC73E23A9662EFC9C229C6A00 SLOAD PUSH9 0x10000000000000000 SWAP1 DIV PUSH1 0xFF AND PUSH2 0x1A6 JUMPI PUSH1 0x40 MLOAD PUSH4 0x1AFCD79F PUSH1 0xE3 SHL DUP2 MSTORE PUSH1 0x4 ADD PUSH1 0x40 MLOAD DUP1 SWAP2 SUB SWAP1 REVERT JUMPDEST PUSH2 0x216 PUSH2 0x1C0 JUMP JUMPDEST PUSH0 DUP1 SLOAD PUSH1 0xFF NOT AND SWAP1 SSTORE JUMP JUMPDEST PUSH2 0x229 PUSH2 0x1C0 JUMP JUMPDEST PUSH1 0x1 PUSH1 0x1 PUSH1 0xA0 SHL SUB DUP2 AND PUSH2 0x256 JUMPI PUSH1 0x40 MLOAD PUSH4 0x1E4FBDF7 PUSH1 0xE0 SHL DUP2 MSTORE PUSH0 PUSH1 0x4 DUP3 ADD MSTORE PUSH1 0x24 ADD PUSH1 0x40 MLOAD DUP1 SWAP2 SUB SWAP1 REVERT JUMPDEST PUSH2 0x1B9 DUP2 PUSH32 0x9016D09D72D40FDAE2FD8CEAC6B6234C7706214FD39C1CD1E609A0528C199300 DUP1 SLOAD PUSH1 0x1 PUSH1 0x1 PUSH1 0xA0 SHL SUB NOT DUP2 AND PUSH1 0x1 PUSH1 0x1 PUSH1 0xA0 SHL SUB DUP5 DUP2 AND SWAP2 DUP3 OR DUP5 SSTORE PUSH1 0x40 MLOAD SWAP3 AND SWAP2 DUP3 SWAP1 PUSH32 0x8BE0079C531659141344CD1FD0A4F28419497F9722A3DAAFE3B4186F6B6457E0 SWAP1 PUSH0 SWAP1 LOG3 POP POP POP JUMP JUMPDEST PUSH1 0x80 MLOAD PUSH2 0x3702 PUSH2 0x2F0 PUSH0 CODECOPY PUSH0 DUP2 DUP2 PUSH2 0x2298 ADD MSTORE DUP2 DUP2 PUSH2 0x22C1 ADD MSTORE PUSH2 0x2400 ADD MSTORE PUSH2 0x3702 PUSH0 RETURN INVALID PUSH1 0x80 PUSH1 0x40 MSTORE PUSH1 0x4 CALLDATASIZE LT PUSH2 0x1F1 JUMPI PUSH0 CALLDATALOAD PUSH1 0xE0 SHR DUP1 PUSH4 0x8456CB59 GT PUSH2 0x108 JUMPI DUP1 PUSH4 0xAD3CB1CC GT PUSH2 0x9D JUMPI DUP1 PUSH4 0xF2CE965E GT PUSH2 0x6D JUMPI DUP1 PUSH4 0xF2CE965E EQ PUSH2 0x6AC JUMPI DUP1 PUSH4 0xF2FDE38B EQ PUSH2 0x6CD JUMPI DUP1 PUSH4 0xF77EE79D EQ PUSH2 0x6EC JUMPI DUP1 PUSH4 0xFA31465D EQ PUSH2 0x751 JUMPI DUP1 PUSH4 0xFFA1AD74 EQ PUSH2 0x770 JUMPI PUSH0 DUP1 REVERT JUMPDEST DUP1 PUSH4 0xAD3CB1CC EQ PUSH2 0x5C6 JUMPI DUP1 PUSH4 0xC93D979F EQ PUSH2 0x603 JUMPI DUP1 PUSH4 0xCDA70EC5 EQ PUSH2 0x685 JUMPI DUP1 PUSH4 0xD73298C5 EQ PUSH2 0x699 JUMPI PUSH0 DUP1 REVERT JUMPDEST DUP1 PUSH4 0x9B58A874 GT PUSH2 0xD8 JUMPI DUP1 PUSH4 0x9B58A874 EQ PUSH2 0x560 JUMPI DUP1 PUSH4 0xA23C7493 EQ PUSH2 0x574 JUMPI DUP1 PUSH4 0xA28C8E03 EQ PUSH2 0x593 JUMPI DUP1 PUSH4 0xA8D20D61 EQ PUSH2 0x5A7 JUMPI PUSH0 DUP1 REVERT JUMPDEST DUP1 PUSH4 0x8456CB59 EQ PUSH2 0x4D2 JUMPI DUP1 PUSH4 0x8DA5CB5B EQ PUSH2 0x4E6 JUMPI DUP1 PUSH4 0x926AFE40 EQ PUSH2 0x522 JUMPI DUP1 PUSH4 0x97ED54FF EQ PUSH2 0x541 JUMPI PUSH0 DUP1 REVERT JUMPDEST DUP1 PUSH4 0x4F1EF286 GT PUSH2 0x189 JUMPI DUP1 PUSH4 0x6CA0B0D7 GT PUSH2 0x159 JUMPI DUP1 PUSH4 0x6CA0B0D7 EQ PUSH2 0x440 JUMPI DUP1 PUSH4 0x715018A6 EQ PUSH2 0x454 JUMPI DUP1 PUSH4 0x7A05EE2B EQ PUSH2 0x468 JUMPI DUP1 PUSH4 0x80F44675 EQ PUSH2 0x49F JUMPI DUP1 PUSH4 0x8129FC1C EQ PUSH2 0x4BE JUMPI PUSH0 DUP1 REVERT JUMPDEST DUP1 PUSH4 0x4F1EF286 EQ PUSH2 0x3EF JUMPI DUP1 PUSH4 0x52D1902D EQ PUSH2 0x402 JUMPI DUP1 PUSH4 0x5C975ABB EQ PUSH2 0x416 JUMPI DUP1 PUSH4 0x632DAD13 EQ PUSH2 0x42C JUMPI PUSH0 DUP1 REVERT JUMPDEST DUP1 PUSH4 0x294AF2A0 GT PUSH2 0x1C4 JUMPI DUP1 PUSH4 0x294AF2A0 EQ PUSH2 0x2E1 JUMPI DUP1 PUSH4 0x34844B42 EQ PUSH2 0x36E JUMPI DUP1 PUSH4 0x3722EE4D EQ PUSH2 0x3B8 JUMPI DUP1 PUSH4 0x3F4BA83A EQ PUSH2 0x3DB JUMPI PUSH0 DUP1 REVERT JUMPDEST DUP1 PUSH4 0x150B7A02 EQ PUSH2 0x1F5 JUMPI DUP1 PUSH4 0x1742F7CA EQ PUSH2 0x232 JUMPI DUP1 PUSH4 0x1AC2733C EQ PUSH2 0x253 JUMPI DUP1 PUSH4 0x2117F8E6 EQ PUSH2 0x2C2 JUMPI JUMPDEST PUSH0 DUP1 REVERT JUMPDEST CALLVALUE DUP1 ISZERO PUSH2 0x200 JUMPI PUSH0 DUP1 REVERT JUMPDEST POP PUSH2 0x214 PUSH2 0x20F CALLDATASIZE PUSH1 0x4 PUSH2 0x2E54 JUMP JUMPDEST PUSH2 0x79E JUMP JUMPDEST PUSH1 0x40 MLOAD PUSH1 0x1 PUSH1 0x1 PUSH1 0xE0 SHL SUB NOT SWAP1 SWAP2 AND DUP2 MSTORE PUSH1 0x20 ADD JUMPDEST PUSH1 0x40 MLOAD DUP1 SWAP2 SUB SWAP1 RETURN JUMPDEST CALLVALUE DUP1 ISZERO PUSH2 0x23D JUMPI PUSH0 DUP1 REVERT JUMPDEST POP PUSH2 0x251 PUSH2 0x24C CALLDATASIZE PUSH1 0x4 PUSH2 0x2EBB JUMP JUMPDEST PUSH2 0xAE9 JUMP JUMPDEST STOP JUMPDEST CALLVALUE DUP1 ISZERO PUSH2 0x25E JUMPI PUSH0 DUP1 REVERT JUMPDEST POP PUSH2 0x272 PUSH2 0x26D CALLDATASIZE PUSH1 0x4 PUSH2 0x2EFF JUMP JUMPDEST PUSH2 0xD88 JUMP JUMPDEST PUSH1 0x40 MLOAD PUSH2 0x229 SWAP2 SWAP1 DUP2 MLOAD DUP2 MSTORE PUSH1 0x20 DUP1 DUP4 ADD MLOAD PUSH1 0x1 PUSH1 0x1 PUSH1 0xA0 SHL SUB AND SWAP1 DUP3 ADD MSTORE PUSH1 0x40 DUP1 DUP4 ADD MLOAD SWAP1 DUP3 ADD MSTORE PUSH1 0x60 DUP1 DUP4 ADD MLOAD SWAP1 DUP3 ADD MSTORE PUSH1 0x80 DUP1 DUP4 ADD MLOAD SWAP1 DUP3 ADD MSTORE PUSH1 0xA0 SWAP2 DUP3 ADD MLOAD SWAP2 DUP2 ADD SWAP2 SWAP1 SWAP2 MSTORE PUSH1 0xC0 ADD SWAP1 JUMP JUMPDEST CALLVALUE DUP1 ISZERO PUSH2 0x2CD JUMPI PUSH0 DUP1 REVERT JUMPDEST POP PUSH2 0x251 PUSH2 0x2DC CALLDATASIZE PUSH1 0x4 PUSH2 0x2F16 JUMP JUMPDEST PUSH2 0xE25 JUMP JUMPDEST CALLVALUE DUP1 ISZERO PUSH2 0x2EC JUMPI PUSH0 DUP1 REVERT JUMPDEST POP PUSH2 0x339 PUSH2 0x2FB CALLDATASIZE PUSH1 0x4 PUSH2 0x2EFF JUMP JUMPDEST PUSH1 0x36 PUSH1 0x20 MSTORE PUSH0 SWAP1 DUP2 MSTORE PUSH1 0x40 SWAP1 KECCAK256 DUP1 SLOAD PUSH1 0x1 DUP3 ADD SLOAD PUSH1 0x2 DUP4 ADD SLOAD PUSH1 0x3 DUP5 ADD SLOAD PUSH1 0x4 DUP6 ADD SLOAD PUSH1 0x5 SWAP1 SWAP6 ADD SLOAD SWAP4 SWAP5 PUSH1 0x1 PUSH1 0x1 PUSH1 0xA0 SHL SUB SWAP1 SWAP4 AND SWAP4 SWAP2 SWAP3 SWAP1 SWAP2 DUP7 JUMP JUMPDEST PUSH1 0x40 DUP1 MLOAD SWAP7 DUP8 MSTORE PUSH1 0x1 PUSH1 0x1 PUSH1 0xA0 SHL SUB SWAP1 SWAP6 AND PUSH1 0x20 DUP8 ADD MSTORE SWAP4 DUP6 ADD SWAP3 SWAP1 SWAP3 MSTORE PUSH1 0x60 DUP5 ADD MSTORE PUSH1 0x80 DUP4 ADD MSTORE PUSH1 0xA0 DUP3 ADD MSTORE PUSH1 0xC0 ADD PUSH2 0x229 JUMP JUMPDEST CALLVALUE DUP1 ISZERO PUSH2 0x379 JUMPI PUSH0 DUP1 REVERT JUMPDEST POP PUSH2 0x3A8 PUSH2 0x388 CALLDATASIZE PUSH1 0x4 PUSH2 0x2F31 JUMP JUMPDEST DUP1 MLOAD PUSH1 0x20 DUP2 DUP4 ADD DUP2 ADD DUP1 MLOAD PUSH1 0x35 DUP3 MSTORE SWAP3 DUP3 ADD SWAP2 SWAP1 SWAP4 ADD KECCAK256 SWAP2 MSTORE SLOAD PUSH1 0xFF AND DUP2 JUMP JUMPDEST PUSH1 0x40 MLOAD SWAP1 ISZERO ISZERO DUP2 MSTORE PUSH1 0x20 ADD PUSH2 0x229 JUMP JUMPDEST CALLVALUE DUP1 ISZERO PUSH2 0x3C3 JUMPI PUSH0 DUP1 REVERT JUMPDEST POP PUSH2 0x3CD PUSH1 0x3C SLOAD DUP2 JUMP JUMPDEST PUSH1 0x40 MLOAD SWAP1 DUP2 MSTORE PUSH1 0x20 ADD PUSH2 0x229 JUMP JUMPDEST CALLVALUE DUP1 ISZERO PUSH2 0x3E6 JUMPI PUSH0 DUP1 REVERT JUMPDEST POP PUSH2 0x251 PUSH2 0xE4F JUMP JUMPDEST PUSH2 0x251 PUSH2 0x3FD CALLDATASIZE PUSH1 0x4 PUSH2 0x2F7D JUMP JUMPDEST PUSH2 0xE61 JUMP JUMPDEST CALLVALUE DUP1 ISZERO PUSH2 0x40D JUMPI PUSH0 DUP1 REVERT JUMPDEST POP PUSH2 0x3CD PUSH2 0xE80 JUMP JUMPDEST CALLVALUE DUP1 ISZERO PUSH2 0x421 JUMPI PUSH0 DUP1 REVERT JUMPDEST POP PUSH0 SLOAD PUSH1 0xFF AND PUSH2 0x3A8 JUMP JUMPDEST CALLVALUE DUP1 ISZERO PUSH2 0x437 JUMPI PUSH0 DUP1 REVERT JUMPDEST POP PUSH1 0x3E SLOAD PUSH2 0x3CD JUMP JUMPDEST CALLVALUE DUP1 ISZERO PUSH2 0x44B JUMPI PUSH0 DUP1 REVERT JUMPDEST POP PUSH2 0x3CD PUSH1 0x1 DUP2 JUMP JUMPDEST CALLVALUE DUP1 ISZERO PUSH2 0x45F JUMPI PUSH0 DUP1 REVERT JUMPDEST POP PUSH2 0x251 PUSH2 0xE9B JUMP JUMPDEST CALLVALUE DUP1 ISZERO PUSH2 0x473 JUMPI PUSH0 DUP1 REVERT JUMPDEST POP PUSH1 0x33 SLOAD PUSH2 0x487 SWAP1 PUSH1 0x1 PUSH1 0x1 PUSH1 0xA0 SHL SUB AND DUP2 JUMP JUMPDEST PUSH1 0x40 MLOAD PUSH1 0x1 PUSH1 0x1 PUSH1 0xA0 SHL SUB SWAP1 SWAP2 AND DUP2 MSTORE PUSH1 0x20 ADD PUSH2 0x229 JUMP JUMPDEST CALLVALUE DUP1 ISZERO PUSH2 0x4AA JUMPI PUSH0 DUP1 REVERT JUMPDEST POP PUSH1 0x34 SLOAD PUSH2 0x487 SWAP1 PUSH1 0x1 PUSH1 0x1 PUSH1 0xA0 SHL SUB AND DUP2 JUMP JUMPDEST CALLVALUE DUP1 ISZERO PUSH2 0x4C9 JUMPI PUSH0 DUP1 REVERT JUMPDEST POP PUSH2 0x251 PUSH2 0xEAC JUMP JUMPDEST CALLVALUE DUP1 ISZERO PUSH2 0x4DD JUMPI PUSH0 DUP1 REVERT JUMPDEST POP PUSH2 0x251 PUSH2 0xFC7 JUMP JUMPDEST CALLVALUE DUP1 ISZERO PUSH2 0x4F1 JUMPI PUSH0 DUP1 REVERT JUMPDEST POP PUSH32 0x9016D09D72D40FDAE2FD8CEAC6B6234C7706214FD39C1CD1E609A0528C199300 SLOAD PUSH1 0x1 PUSH1 0x1 PUSH1 0xA0 SHL SUB AND PUSH2 0x487 JUMP JUMPDEST CALLVALUE DUP1 ISZERO PUSH2 0x52D JUMPI PUSH0 DUP1 REVERT JUMPDEST POP PUSH2 0x3CD PUSH2 0x53C CALLDATASIZE PUSH1 0x4 PUSH2 0x2EFF JUMP JUMPDEST PUSH2 0xFD7 JUMP JUMPDEST CALLVALUE DUP1 ISZERO PUSH2 0x54C JUMPI PUSH0 DUP1 REVERT JUMPDEST POP PUSH2 0x251 PUSH2 0x55B CALLDATASIZE PUSH1 0x4 PUSH2 0x2FC9 JUMP JUMPDEST PUSH2 0xFF6 JUMP JUMPDEST CALLVALUE DUP1 ISZERO PUSH2 0x56B JUMPI PUSH0 DUP1 REVERT JUMPDEST POP PUSH1 0x3D SLOAD PUSH2 0x3CD JUMP JUMPDEST CALLVALUE DUP1 ISZERO PUSH2 0x57F JUMPI PUSH0 DUP1 REVERT JUMPDEST POP PUSH2 0x251 PUSH2 0x58E CALLDATASIZE PUSH1 0x4 PUSH2 0x2F16 JUMP JUMPDEST PUSH2 0x1246 JUMP JUMPDEST CALLVALUE DUP1 ISZERO PUSH2 0x59E JUMPI PUSH0 DUP1 REVERT JUMPDEST POP PUSH2 0x251 PUSH2 0x1270 JUMP JUMPDEST CALLVALUE DUP1 ISZERO PUSH2 0x5B2 JUMPI PUSH0 DUP1 REVERT JUMPDEST POP PUSH2 0x251 PUSH2 0x5C1 CALLDATASIZE PUSH1 0x4 PUSH2 0x2EFF JUMP JUMPDEST PUSH2 0x1453 JUMP JUMPDEST CALLVALUE DUP1 ISZERO PUSH2 0x5D1 JUMPI PUSH0 DUP1 REVERT JUMPDEST POP PUSH2 0x5F6 PUSH1 0x40 MLOAD DUP1 PUSH1 0x40 ADD PUSH1 0x40 MSTORE DUP1 PUSH1 0x5 DUP2 MSTORE PUSH1 0x20 ADD PUSH5 0x352E302E3 PUSH1 0xDC SHL DUP2 MSTORE POP DUP2 JUMP JUMPDEST PUSH1 0x40 MLOAD PUSH2 0x229 SWAP2 SWAP1 PUSH2 0x3031 JUMP JUMPDEST CALLVALUE DUP1 ISZERO PUSH2 0x60E JUMPI PUSH0 DUP1 REVERT JUMPDEST POP PUSH2 0x655 PUSH2 0x61D CALLDATASIZE PUSH1 0x4 PUSH2 0x2EFF JUMP JUMPDEST PUSH1 0x38 PUSH1 0x20 MSTORE PUSH0 SWAP1 DUP2 MSTORE PUSH1 0x40 SWAP1 KECCAK256 DUP1 SLOAD PUSH1 0x1 DUP3 ADD SLOAD PUSH1 0x2 DUP4 ADD SLOAD PUSH1 0x3 DUP5 ADD SLOAD PUSH1 0x4 SWAP1 SWAP5 ADD SLOAD SWAP3 SWAP4 PUSH1 0x1 PUSH1 0x1 PUSH1 0xA0 SHL SUB SWAP1 SWAP3 AND SWAP3 SWAP1 SWAP2 SWAP1 DUP6 JUMP JUMPDEST PUSH1 0x40 DUP1 MLOAD SWAP6 DUP7 MSTORE PUSH1 0x1 PUSH1 0x1 PUSH1 0xA0 SHL SUB SWAP1 SWAP5 AND PUSH1 0x20 DUP7 ADD MSTORE SWAP3 DUP5 ADD SWAP2 SWAP1 SWAP2 MSTORE PUSH1 0x60 DUP4 ADD MSTORE PUSH1 0x80 DUP3 ADD MSTORE PUSH1 0xA0 ADD PUSH2 0x229 JUMP JUMPDEST CALLVALUE DUP1 ISZERO PUSH2 0x690 JUMPI PUSH0 DUP1 REVERT JUMPDEST POP PUSH2 0x251 PUSH2 0x14FC JUMP JUMPDEST PUSH2 0x251 PUSH2 0x6A7 CALLDATASIZE PUSH1 0x4 PUSH2 0x2EFF JUMP JUMPDEST PUSH2 0x180F JUMP JUMPDEST CALLVALUE DUP1 ISZERO PUSH2 0x6B7 JUMPI PUSH0 DUP1 REVERT JUMPDEST POP PUSH2 0x6C0 PUSH2 0x1D87 JUMP JUMPDEST PUSH1 0x40 MLOAD PUSH2 0x229 SWAP2 SWAP1 PUSH2 0x3043 JUMP JUMPDEST CALLVALUE DUP1 ISZERO PUSH2 0x6D8 JUMPI PUSH0 DUP1 REVERT JUMPDEST POP PUSH2 0x251 PUSH2 0x6E7 CALLDATASIZE PUSH1 0x4 PUSH2 0x2F16 JUMP JUMPDEST PUSH2 0x1F0F JUMP JUMPDEST CALLVALUE DUP1 ISZERO PUSH2 0x6F7 JUMPI PUSH0 DUP1 REVERT JUMPDEST POP PUSH2 0x70B PUSH2 0x706 CALLDATASIZE PUSH1 0x4 PUSH2 0x2EFF JUMP JUMPDEST PUSH2 0x1F49 JUMP JUMPDEST PUSH1 0x40 MLOAD PUSH2 0x229 SWAP2 SWAP1 DUP2 MLOAD DUP2 MSTORE PUSH1 0x20 DUP1 DUP4 ADD MLOAD PUSH1 0x1 PUSH1 0x1 PUSH1 0xA0 SHL SUB AND SWAP1 DUP3 ADD MSTORE PUSH1 0x40 DUP1 DUP4 ADD MLOAD SWAP1 DUP3 ADD MSTORE PUSH1 0x60 DUP1 DUP4 ADD MLOAD SWAP1 DUP3 ADD MSTORE PUSH1 0x80 SWAP2 DUP3 ADD MLOAD SWAP2 DUP2 ADD SWAP2 SWAP1 SWAP2 MSTORE PUSH1 0xA0 ADD SWAP1 JUMP JUMPDEST CALLVALUE DUP1 ISZERO PUSH2 0x75C JUMPI PUSH0 DUP1 REVERT JUMPDEST POP PUSH1 0x32 SLOAD PUSH2 0x487 SWAP1 PUSH1 0x1 PUSH1 0x1 PUSH1 0xA0 SHL SUB AND DUP2 JUMP JUMPDEST CALLVALUE DUP1 ISZERO PUSH2 0x77B JUMPI PUSH0 DUP1 REVERT JUMPDEST POP PUSH2 0x5F6 PUSH1 0x40 MLOAD DUP1 PUSH1 0x40 ADD PUSH1 0x40 MSTORE DUP1 PUSH1 0x3 DUP2 MSTORE PUSH1 0x20 ADD PUSH3 0x312E3 PUSH1 0xEC SHL DUP2 MSTORE POP DUP2 JUMP JUMPDEST PUSH0 PUSH2 0x7A7 PUSH2 0x1FD6 JUMP JUMPDEST PUSH0 PUSH2 0x7B1 CALLER PUSH2 0x201B JUMP JUMPDEST SWAP1 POP DUP1 PUSH1 0x2 SUB PUSH2 0x819 JUMPI PUSH1 0x40 MLOAD PUSH3 0x461BCD PUSH1 0xE5 SHL DUP2 MSTORE PUSH1 0x20 PUSH1 0x4 DUP3 ADD MSTORE PUSH1 0x28 PUSH1 0x24 DUP3 ADD MSTORE PUSH32 0x4572726F723A204E4654206E6F742066726F6D2077686974656C697374656420 PUSH1 0x44 DUP3 ADD MSTORE PUSH8 0x18DBDB9D1C9858DD PUSH1 0xC2 SHL PUSH1 0x64 DUP3 ADD MSTORE PUSH1 0x84 ADD JUMPDEST PUSH1 0x40 MLOAD DUP1 SWAP2 SUB SWAP1 REVERT JUMPDEST PUSH0 DUP4 DUP1 PUSH1 0x20 ADD SWAP1 MLOAD DUP2 ADD SWAP1 PUSH2 0x82E SWAP2 SWAP1 PUSH2 0x311C JUMP JUMPDEST SWAP1 POP DUP1 PUSH0 DUP4 SWAP1 SUB PUSH2 0x98D JUMPI PUSH1 0x40 MLOAD PUSH4 0x5DB4041D PUSH1 0xE0 SHL DUP2 MSTORE PUSH1 0x4 DUP2 ADD DUP8 SWAP1 MSTORE PUSH0 SWAP1 CALLER SWAP1 PUSH4 0x5DB4041D SWAP1 PUSH1 0x24 ADD PUSH0 PUSH1 0x40 MLOAD DUP1 DUP4 SUB DUP2 DUP7 GAS STATICCALL ISZERO DUP1 ISZERO PUSH2 0x874 JUMPI RETURNDATASIZE PUSH0 DUP1 RETURNDATACOPY RETURNDATASIZE PUSH0 REVERT JUMPDEST POP POP POP POP PUSH1 0x40 MLOAD RETURNDATASIZE PUSH0 DUP3 RETURNDATACOPY PUSH1 0x1F RETURNDATASIZE SWAP1 DUP2 ADD PUSH1 0x1F NOT AND DUP3 ADD PUSH1 0x40 MSTORE PUSH2 0x89B SWAP2 SWAP1 DUP2 ADD SWAP1 PUSH2 0x3199 JUMP JUMPDEST SWAP1 POP PUSH1 0x1 DUP2 PUSH1 0xA0 ADD MLOAD PUSH1 0x3 DUP2 GT ISZERO PUSH2 0x8B5 JUMPI PUSH2 0x8B5 PUSH2 0x3287 JUMP JUMPDEST EQ PUSH2 0x8D2 JUMPI PUSH1 0x40 MLOAD PUSH3 0x461BCD PUSH1 0xE5 SHL DUP2 MSTORE PUSH1 0x4 ADD PUSH2 0x810 SWAP1 PUSH2 0x329B JUMP JUMPDEST PUSH2 0x8E5 DUP2 PUSH1 0x40 ADD MLOAD PUSH2 0x8E1 PUSH0 SWAP1 JUMP JUMPDEST LT SWAP1 JUMP JUMPDEST PUSH2 0x92B JUMPI PUSH1 0x40 MLOAD PUSH3 0x461BCD PUSH1 0xE5 SHL DUP2 MSTORE PUSH1 0x20 PUSH1 0x4 DUP3 ADD MSTORE PUSH1 0x17 PUSH1 0x24 DUP3 ADD MSTORE PUSH23 0x4572726F723A206E6F20416D6F756E7420696E73696465 PUSH1 0x48 SHL PUSH1 0x44 DUP3 ADD MSTORE PUSH1 0x64 ADD PUSH2 0x810 JUMP JUMPDEST PUSH2 0x940 DUP8 DUP10 DUP4 PUSH1 0x40 ADD MLOAD DUP5 PUSH1 0x80 ADD MLOAD DUP7 PUSH2 0xAE9 JUMP JUMPDEST PUSH1 0x40 DUP1 DUP3 ADD MLOAD DUP2 MLOAD PUSH1 0x1 PUSH1 0x1 PUSH1 0xA0 SHL SUB DUP12 AND DUP2 MSTORE PUSH1 0x20 DUP2 ADD SWAP2 SWAP1 SWAP2 MSTORE PUSH32 0xA5E87A37233138F2B4398006833F40071FE05F6DD454C011D832E52C4DB37872 SWAP2 ADD PUSH1 0x40 MLOAD DUP1 SWAP2 SUB SWAP1 LOG1 POP PUSH2 0xAD5 JUMP JUMPDEST PUSH1 0x40 MLOAD PUSH4 0x41642DD PUSH1 0xE2 SHL DUP2 MSTORE PUSH1 0x4 DUP2 ADD DUP8 SWAP1 MSTORE PUSH0 SWAP1 CALLER SWAP1 PUSH4 0x10590B74 SWAP1 PUSH1 0x24 ADD PUSH0 PUSH1 0x40 MLOAD DUP1 DUP4 SUB DUP2 DUP7 GAS STATICCALL ISZERO DUP1 ISZERO PUSH2 0x9C8 JUMPI RETURNDATASIZE PUSH0 DUP1 RETURNDATACOPY RETURNDATASIZE PUSH0 REVERT JUMPDEST POP POP POP POP PUSH1 0x40 MLOAD RETURNDATASIZE PUSH0 DUP3 RETURNDATACOPY PUSH1 0x1F RETURNDATASIZE SWAP1 DUP2 ADD PUSH1 0x1F NOT AND DUP3 ADD PUSH1 0x40 MSTORE PUSH2 0x9EF SWAP2 SWAP1 DUP2 ADD SWAP1 PUSH2 0x32EE JUMP JUMPDEST SWAP1 POP PUSH1 0x1 DUP2 PUSH1 0x80 ADD MLOAD PUSH1 0x3 DUP2 GT ISZERO PUSH2 0xA09 JUMPI PUSH2 0xA09 PUSH2 0x3287 JUMP JUMPDEST EQ PUSH2 0xA26 JUMPI PUSH1 0x40 MLOAD PUSH3 0x461BCD PUSH1 0xE5 SHL DUP2 MSTORE PUSH1 0x4 ADD PUSH2 0x810 SWAP1 PUSH2 0x329B JUMP JUMPDEST PUSH2 0xA35 DUP2 PUSH1 0x60 ADD MLOAD PUSH2 0x8E1 PUSH0 SWAP1 JUMP JUMPDEST PUSH2 0xA7B JUMPI PUSH1 0x40 MLOAD PUSH3 0x461BCD PUSH1 0xE5 SHL DUP2 MSTORE PUSH1 0x20 PUSH1 0x4 DUP3 ADD MSTORE PUSH1 0x17 PUSH1 0x24 DUP3 ADD MSTORE PUSH23 0x4572726F723A206E6F20416D6F756E7420696E73696465 PUSH1 0x48 SHL PUSH1 0x44 DUP3 ADD MSTORE PUSH1 0x64 ADD PUSH2 0x810 JUMP JUMPDEST PUSH2 0xA8B DUP8 DUP10 DUP4 PUSH1 0x60 ADD MLOAD DUP6 PUSH2 0xFF6 JUMP JUMPDEST PUSH1 0x60 DUP2 ADD MLOAD PUSH1 0x40 DUP1 MLOAD PUSH1 0x1 PUSH1 0x1 PUSH1 0xA0 SHL SUB DUP12 AND DUP2 MSTORE PUSH1 0x20 DUP2 ADD SWAP3 SWAP1 SWAP3 MSTORE PUSH32 0x16EE48E497AE1026975411FA2362C986D3DC9B8041561D7C386235CF039599AD SWAP2 ADD PUSH1 0x40 MLOAD DUP1 SWAP2 SUB SWAP1 LOG1 POP JUMPDEST POP PUSH4 0xA85BD01 PUSH1 0xE1 SHL SWAP8 SWAP7 POP POP POP POP POP POP POP JUMP JUMPDEST PUSH0 PUSH2 0xAF4 DUP4 DUP4 PUSH2 0x2065 JUMP JUMPDEST SWAP1 POP PUSH0 PUSH1 0x40 MLOAD DUP1 PUSH1 0xC0 ADD PUSH1 0x40 MSTORE DUP1 DUP9 DUP2 MSTORE PUSH1 0x20 ADD DUP8 PUSH1 0x1 PUSH1 0x1 PUSH1 0xA0 SHL SUB AND DUP2 MSTORE PUSH1 0x20 ADD DUP7 DUP2 MSTORE PUSH1 0x20 ADD DUP6 DUP2 MSTORE PUSH1 0x20 ADD DUP5 DUP2 MSTORE PUSH1 0x20 ADD DUP4 DUP2 MSTORE POP SWAP1 POP PUSH0 PUSH2 0xB39 DUP4 PUSH2 0x207D JUMP JUMPDEST PUSH1 0x3D DUP1 SLOAD PUSH0 SWAP1 DUP2 MSTORE PUSH1 0x36 PUSH1 0x20 SWAP1 DUP2 MSTORE PUSH1 0x40 DUP1 DUP4 KECCAK256 DUP8 MLOAD DUP2 SSTORE SWAP2 DUP8 ADD MLOAD PUSH1 0x1 DUP4 ADD DUP1 SLOAD PUSH1 0x1 PUSH1 0x1 PUSH1 0xA0 SHL SUB NOT AND PUSH1 0x1 PUSH1 0x1 PUSH1 0xA0 SHL SUB SWAP1 SWAP3 AND SWAP2 SWAP1 SWAP2 OR SWAP1 SSTORE DUP7 ADD MLOAD PUSH1 0x2 DUP3 ADD SSTORE PUSH1 0x60 DUP7 ADD MLOAD PUSH1 0x3 DUP3 ADD SSTORE PUSH1 0x80 DUP7 ADD MLOAD PUSH1 0x4 DUP3 ADD SSTORE PUSH1 0xA0 DUP7 ADD MLOAD PUSH1 0x5 SWAP1 SWAP2 ADD SSTORE DUP2 SLOAD SWAP3 SWAP4 POP PUSH2 0xBAB DUP4 PUSH2 0x33FE JUMP JUMPDEST SWAP2 SWAP1 POP SSTORE POP PUSH0 PUSH1 0x1 PUSH1 0x3D SLOAD PUSH2 0xBC0 SWAP2 SWAP1 PUSH2 0x3416 JUMP JUMPDEST SWAP1 POP JUMPDEST DUP2 DUP2 GT ISZERO PUSH2 0xD7D JUMPI PUSH0 PUSH1 0x36 DUP2 PUSH2 0xBDA PUSH1 0x1 DUP6 PUSH2 0x3416 JUMP JUMPDEST DUP2 MSTORE PUSH1 0x20 DUP1 DUP3 ADD SWAP3 SWAP1 SWAP3 MSTORE PUSH1 0x40 SWAP1 DUP2 ADD PUSH0 SWAP1 DUP2 KECCAK256 DUP3 MLOAD PUSH1 0xC0 DUP1 DUP3 ADD DUP6 MSTORE DUP3 SLOAD DUP3 MSTORE PUSH1 0x1 DUP1 DUP5 ADD SLOAD PUSH1 0x1 PUSH1 0x1 PUSH1 0xA0 SHL SUB SWAP1 DUP2 AND DUP5 DUP10 ADD MSTORE PUSH1 0x2 DUP1 DUP7 ADD SLOAD DUP6 DUP10 ADD MSTORE PUSH1 0x3 DUP1 DUP8 ADD SLOAD PUSH1 0x60 DUP1 DUP9 ADD SWAP2 SWAP1 SWAP2 MSTORE PUSH1 0x4 DUP1 DUP10 ADD SLOAD PUSH1 0x80 DUP1 DUP11 ADD SWAP2 SWAP1 SWAP2 MSTORE PUSH1 0x5 SWAP10 DUP11 ADD SLOAD PUSH1 0xA0 DUP1 DUP12 ADD SWAP2 SWAP1 SWAP2 MSTORE DUP16 DUP13 MSTORE PUSH1 0x36 DUP1 DUP16 MSTORE DUP14 DUP14 KECCAK256 DUP15 MLOAD SWAP11 DUP12 ADD DUP16 MSTORE DUP1 SLOAD DUP12 MSTORE DUP1 DUP11 ADD SLOAD SWAP1 SWAP9 AND SWAP15 DUP11 ADD SWAP15 SWAP1 SWAP15 MSTORE SWAP5 DUP7 ADD SLOAD SWAP12 DUP9 ADD SWAP12 SWAP1 SWAP12 MSTORE SWAP2 DUP5 ADD SLOAD SWAP1 DUP7 ADD MSTORE DUP3 ADD SLOAD SWAP8 DUP5 ADD SWAP8 SWAP1 SWAP8 MSTORE SWAP1 SWAP4 ADD SLOAD SWAP5 DUP2 ADD SWAP5 SWAP1 SWAP5 MSTORE SWAP5 POP SWAP2 SWAP3 DUP4 SWAP3 DUP6 SWAP3 SWAP1 PUSH2 0xCA6 SWAP1 DUP9 PUSH2 0x3416 JUMP JUMPDEST DUP2 MSTORE PUSH1 0x20 DUP1 DUP3 ADD SWAP3 SWAP1 SWAP3 MSTORE PUSH1 0x40 SWAP1 DUP2 ADD PUSH0 SWAP1 DUP2 KECCAK256 DUP9 DUP3 MSTORE PUSH1 0x36 DUP5 MSTORE SWAP1 DUP3 SWAP1 KECCAK256 DUP5 MLOAD DUP2 SSTORE DUP5 DUP5 ADD MLOAD PUSH1 0x1 DUP1 DUP4 ADD DUP1 SLOAD PUSH1 0x1 PUSH1 0x1 PUSH1 0xA0 SHL SUB SWAP4 DUP5 AND PUSH1 0x1 PUSH1 0x1 PUSH1 0xA0 SHL SUB NOT SWAP2 DUP3 AND OR SWAP1 SWAP2 SSTORE DUP8 DUP7 ADD MLOAD PUSH1 0x2 DUP1 DUP7 ADD SWAP2 SWAP1 SWAP2 SSTORE PUSH1 0x60 DUP1 DUP11 ADD MLOAD PUSH1 0x3 DUP1 DUP9 ADD SWAP2 SWAP1 SWAP2 SSTORE PUSH1 0x80 DUP1 DUP13 ADD MLOAD PUSH1 0x4 DUP1 DUP11 ADD SWAP2 SWAP1 SWAP2 SSTORE PUSH1 0xA0 SWAP13 DUP14 ADD MLOAD PUSH1 0x5 SWAP10 DUP11 ADD SSTORE DUP14 MLOAD DUP11 SSTORE SWAP11 DUP14 ADD MLOAD SWAP6 DUP10 ADD DUP1 SLOAD SWAP7 SWAP1 SWAP8 AND SWAP6 SWAP1 SWAP5 AND SWAP5 SWAP1 SWAP5 OR SWAP1 SWAP5 SSTORE SWAP6 DUP10 ADD MLOAD SWAP6 DUP6 ADD SWAP6 SWAP1 SWAP6 SSTORE SWAP1 DUP8 ADD MLOAD SWAP1 DUP4 ADD SSTORE SWAP2 DUP6 ADD MLOAD SWAP3 DUP2 ADD SWAP3 SWAP1 SWAP3 SSTORE SWAP3 SWAP1 SWAP2 ADD MLOAD SWAP2 ADD SSTORE POP DUP2 SWAP1 POP PUSH2 0xD75 DUP2 PUSH2 0x3429 JUMP JUMPDEST SWAP2 POP POP PUSH2 0xBC3 JUMP JUMPDEST POP POP POP POP POP POP POP POP POP JUMP JUMPDEST PUSH2 0xDC4 PUSH1 0x40 MLOAD DUP1 PUSH1 0xC0 ADD PUSH1 0x40 MSTORE DUP1 PUSH0 DUP2 MSTORE PUSH1 0x20 ADD PUSH0 PUSH1 0x1 PUSH1 0x1 PUSH1 0xA0 SHL SUB AND DUP2 MSTORE PUSH1 0x20 ADD PUSH0 DUP2 MSTORE PUSH1 0x20 ADD PUSH0 DUP2 MSTORE PUSH1 0x20 ADD PUSH0 DUP2 MSTORE PUSH1 0x20 ADD PUSH0 DUP2 MSTORE POP SWAP1 JUMP JUMPDEST POP PUSH0 SWAP1 DUP2 MSTORE PUSH1 0x36 PUSH1 0x20 SWAP1 DUP2 MSTORE PUSH1 0x40 SWAP2 DUP3 SWAP1 KECCAK256 DUP3 MLOAD PUSH1 0xC0 DUP2 ADD DUP5 MSTORE DUP2 SLOAD DUP2 MSTORE PUSH1 0x1 DUP3 ADD SLOAD PUSH1 0x1 PUSH1 0x1 PUSH1 0xA0 SHL SUB AND SWAP3 DUP2 ADD SWAP3 SWAP1 SWAP3 MSTORE PUSH1 0x2 DUP2 ADD SLOAD SWAP3 DUP3 ADD SWAP3 SWAP1 SWAP3 MSTORE PUSH1 0x3 DUP3 ADD SLOAD PUSH1 0x60 DUP3 ADD MSTORE PUSH1 0x4 DUP3 ADD SLOAD PUSH1 0x80 DUP3 ADD MSTORE PUSH1 0x5 SWAP1 SWAP2 ADD SLOAD PUSH1 0xA0 DUP3 ADD MSTORE SWAP1 JUMP JUMPDEST PUSH2 0xE2D PUSH2 0x21E1 JUMP JUMPDEST PUSH1 0x32 DUP1 SLOAD PUSH1 0x1 PUSH1 0x1 PUSH1 0xA0 SHL SUB NOT AND PUSH1 0x1 PUSH1 0x1 PUSH1 0xA0 SHL SUB SWAP3 SWAP1 SWAP3 AND SWAP2 SWAP1 SWAP2 OR SWAP1 SSTORE JUMP JUMPDEST PUSH2 0xE57 PUSH2 0x21E1 JUMP JUMPDEST PUSH2 0xE5F PUSH2 0x223C JUMP JUMPDEST JUMP JUMPDEST PUSH2 0xE69 PUSH2 0x228D JUMP JUMPDEST PUSH2 0xE72 DUP3 PUSH2 0x2331 JUMP JUMPDEST PUSH2 0xE7C DUP3 DUP3 PUSH2 0x2339 JUMP JUMPDEST POP POP JUMP JUMPDEST PUSH0 PUSH2 0xE89 PUSH2 0x23F5 JUMP JUMPDEST POP PUSH0 DUP1 MLOAD PUSH1 0x20 PUSH2 0x36AD DUP4 CODECOPY DUP2 MLOAD SWAP2 MSTORE SWAP1 JUMP JUMPDEST PUSH2 0xEA3 PUSH2 0x21E1 JUMP JUMPDEST PUSH2 0xE5F PUSH0 PUSH2 0x243E JUMP JUMPDEST PUSH32 0xF0C57E16840DF040F15088DC2F81FE391C3923BEC73E23A9662EFC9C229C6A00 DUP1 SLOAD PUSH1 0x1 PUSH1 0x40 SHL DUP2 DIV PUSH1 0xFF AND ISZERO SWAP1 PUSH1 0x1 PUSH1 0x1 PUSH1 0x40 SHL SUB AND PUSH0 DUP2 ISZERO DUP1 ISZERO PUSH2 0xEF0 JUMPI POP DUP3 JUMPDEST SWAP1 POP PUSH0 DUP3 PUSH1 0x1 PUSH1 0x1 PUSH1 0x40 SHL SUB AND PUSH1 0x1 EQ DUP1 ISZERO PUSH2 0xF0B JUMPI POP ADDRESS EXTCODESIZE ISZERO JUMPDEST SWAP1 POP DUP2 ISZERO DUP1 ISZERO PUSH2 0xF19 JUMPI POP DUP1 ISZERO JUMPDEST ISZERO PUSH2 0xF37 JUMPI PUSH1 0x40 MLOAD PUSH4 0xF92EE8A9 PUSH1 0xE0 SHL DUP2 MSTORE PUSH1 0x4 ADD PUSH1 0x40 MLOAD DUP1 SWAP2 SUB SWAP1 REVERT JUMPDEST DUP5 SLOAD PUSH8 0xFFFFFFFFFFFFFFFF NOT AND PUSH1 0x1 OR DUP6 SSTORE DUP4 ISZERO PUSH2 0xF61 JUMPI DUP5 SLOAD PUSH1 0xFF PUSH1 0x40 SHL NOT AND PUSH1 0x1 PUSH1 0x40 SHL OR DUP6 SSTORE JUMPDEST PUSH2 0xF69 PUSH2 0x24AE JUMP JUMPDEST PUSH2 0xF72 CALLER PUSH2 0x24BE JUMP JUMPDEST PUSH2 0xF7A PUSH2 0x24CF JUMP JUMPDEST DUP4 ISZERO PUSH2 0xFC0 JUMPI DUP5 SLOAD PUSH1 0xFF PUSH1 0x40 SHL NOT AND DUP6 SSTORE PUSH1 0x40 MLOAD PUSH1 0x1 DUP2 MSTORE PUSH32 0xC7F505B2F371AE2175EE4913F4499E1F2633A7B5936321EED1CDAEB6115181D2 SWAP1 PUSH1 0x20 ADD PUSH1 0x40 MLOAD DUP1 SWAP2 SUB SWAP1 LOG1 JUMPDEST POP POP POP POP POP JUMP JUMPDEST PUSH2 0xFCF PUSH2 0x21E1 JUMP JUMPDEST PUSH2 0xE5F PUSH2 0x24D7 JUMP JUMPDEST PUSH1 0x3B DUP2 DUP2 SLOAD DUP2 LT PUSH2 0xFE6 JUMPI PUSH0 DUP1 REVERT JUMPDEST PUSH0 SWAP2 DUP3 MSTORE PUSH1 0x20 SWAP1 SWAP2 KECCAK256 ADD SLOAD SWAP1 POP DUP2 JUMP JUMPDEST PUSH1 0x40 DUP1 MLOAD PUSH1 0xA0 DUP2 ADD DUP3 MSTORE DUP6 DUP2 MSTORE PUSH1 0x1 PUSH1 0x1 PUSH1 0xA0 SHL SUB DUP6 AND PUSH1 0x20 DUP3 ADD MSTORE SWAP1 DUP2 ADD DUP4 SWAP1 MSTORE PUSH1 0x60 DUP2 ADD DUP3 SWAP1 MSTORE PUSH1 0x80 DUP2 ADD DUP3 SWAP1 MSTORE DUP2 SWAP1 PUSH0 PUSH2 0x1032 DUP4 PUSH2 0x2513 JUMP JUMPDEST PUSH1 0x3E DUP1 SLOAD PUSH0 SWAP1 DUP2 MSTORE PUSH1 0x38 PUSH1 0x20 SWAP1 DUP2 MSTORE PUSH1 0x40 DUP1 DUP4 KECCAK256 DUP8 MLOAD DUP2 SSTORE SWAP2 DUP8 ADD MLOAD PUSH1 0x1 DUP4 ADD DUP1 SLOAD PUSH1 0x1 PUSH1 0x1 PUSH1 0xA0 SHL SUB NOT AND PUSH1 0x1 PUSH1 0x1 PUSH1 0xA0 SHL SUB SWAP1 SWAP3 AND SWAP2 SWAP1 SWAP2 OR SWAP1 SSTORE DUP7 ADD MLOAD PUSH1 0x2 DUP3 ADD SSTORE PUSH1 0x60 DUP7 ADD MLOAD PUSH1 0x3 DUP3 ADD SSTORE PUSH1 0x80 DUP7 ADD MLOAD PUSH1 0x4 SWAP1 SWAP2 ADD SSTORE DUP2 SLOAD SWAP3 SWAP4 POP PUSH2 0x109A DUP4 PUSH2 0x33FE JUMP JUMPDEST SWAP2 SWAP1 POP SSTORE POP PUSH0 PUSH1 0x1 PUSH1 0x3E SLOAD PUSH2 0x10AF SWAP2 SWAP1 PUSH2 0x3416 JUMP JUMPDEST SWAP1 POP JUMPDEST DUP2 DUP2 GT ISZERO PUSH2 0x123C JUMPI PUSH0 PUSH1 0x38 DUP2 PUSH2 0x10C9 PUSH1 0x1 DUP6 PUSH2 0x3416 JUMP JUMPDEST DUP2 MSTORE PUSH1 0x20 DUP1 DUP3 ADD SWAP3 SWAP1 SWAP3 MSTORE PUSH1 0x40 SWAP1 DUP2 ADD PUSH0 SWAP1 DUP2 KECCAK256 DUP3 MLOAD PUSH1 0xA0 DUP1 DUP3 ADD DUP6 MSTORE DUP3 SLOAD DUP3 MSTORE PUSH1 0x1 DUP1 DUP5 ADD SLOAD PUSH1 0x1 PUSH1 0x1 PUSH1 0xA0 SHL SUB SWAP1 DUP2 AND DUP5 DUP10 ADD MSTORE PUSH1 0x2 DUP1 DUP7 ADD SLOAD DUP6 DUP10 ADD MSTORE PUSH1 0x3 DUP1 DUP8 ADD SLOAD PUSH1 0x60 DUP1 DUP9 ADD SWAP2 SWAP1 SWAP2 MSTORE PUSH1 0x4 SWAP8 DUP9 ADD SLOAD PUSH1 0x80 DUP1 DUP10 ADD SWAP2 SWAP1 SWAP2 MSTORE DUP14 DUP11 MSTORE PUSH1 0x38 DUP1 DUP14 MSTORE DUP12 DUP12 KECCAK256 DUP13 MLOAD SWAP9 DUP10 ADD DUP14 MSTORE DUP1 SLOAD DUP10 MSTORE DUP1 DUP9 ADD SLOAD SWAP1 SWAP7 AND SWAP13 DUP9 ADD SWAP13 SWAP1 SWAP13 MSTORE SWAP3 DUP5 ADD SLOAD SWAP10 DUP7 ADD SWAP10 SWAP1 SWAP10 MSTORE DUP3 ADD SLOAD SWAP8 DUP5 ADD SWAP8 SWAP1 SWAP8 MSTORE SWAP1 SWAP4 ADD SLOAD SWAP5 DUP2 ADD SWAP5 SWAP1 SWAP5 MSTORE SWAP5 POP SWAP2 SWAP3 DUP4 SWAP3 DUP6 SWAP3 SWAP1 PUSH2 0x117E SWAP1 DUP9 PUSH2 0x3416 JUMP JUMPDEST DUP2 MSTORE PUSH1 0x20 DUP1 DUP3 ADD SWAP3 SWAP1 SWAP3 MSTORE PUSH1 0x40 SWAP1 DUP2 ADD PUSH0 SWAP1 DUP2 KECCAK256 DUP9 DUP3 MSTORE PUSH1 0x38 DUP5 MSTORE SWAP1 DUP3 SWAP1 KECCAK256 DUP5 MLOAD DUP2 SSTORE DUP5 DUP5 ADD MLOAD PUSH1 0x1 DUP1 DUP4 ADD DUP1 SLOAD PUSH1 0x1 PUSH1 0x1 PUSH1 0xA0 SHL SUB NOT SWAP1 DUP2 AND PUSH1 0x1 PUSH1 0x1 PUSH1 0xA0 SHL SUB SWAP5 DUP6 AND OR SWAP1 SWAP2 SSTORE DUP8 DUP7 ADD MLOAD PUSH1 0x2 DUP1 DUP7 ADD SWAP2 SWAP1 SWAP2 SSTORE PUSH1 0x60 DUP1 DUP11 ADD MLOAD PUSH1 0x3 DUP1 DUP9 ADD SWAP2 SWAP1 SWAP2 SSTORE PUSH1 0x80 SWAP11 DUP12 ADD MLOAD PUSH1 0x4 SWAP8 DUP9 ADD SSTORE DUP12 MLOAD DUP9 SSTORE SWAP9 DUP12 ADD MLOAD SWAP4 DUP8 ADD DUP1 SLOAD SWAP1 SWAP4 AND SWAP4 SWAP1 SWAP5 AND SWAP3 SWAP1 SWAP3 OR SWAP1 SSTORE SWAP4 DUP8 ADD MLOAD SWAP4 DUP4 ADD SWAP4 SWAP1 SWAP4 SSTORE SWAP2 DUP6 ADD MLOAD SWAP3 DUP2 ADD SWAP3 SWAP1 SWAP3 SSTORE SWAP3 SWAP1 SWAP2 ADD MLOAD SWAP2 ADD SSTORE POP DUP2 SWAP1 POP PUSH2 0x1234 DUP2 PUSH2 0x3429 JUMP JUMPDEST SWAP2 POP POP PUSH2 0x10B2 JUMP JUMPDEST POP POP POP POP POP POP POP POP JUMP JUMPDEST PUSH2 0x124E PUSH2 0x21E1 JUMP JUMPDEST PUSH1 0x33 DUP1 SLOAD PUSH1 0x1 PUSH1 0x1 PUSH1 0xA0 SHL SUB NOT AND PUSH1 0x1 PUSH1 0x1 PUSH1 0xA0 SHL SUB SWAP3 SWAP1 SWAP3 AND SWAP2 SWAP1 SWAP2 OR SWAP1 SSTORE JUMP JUMPDEST PUSH2 0x1278 PUSH2 0x21E1 JUMP JUMPDEST PUSH0 DUP1 JUMPDEST PUSH1 0x3D SLOAD ISZERO DUP1 PUSH2 0x128A JUMPI POP PUSH1 0x3E SLOAD ISZERO JUMPDEST PUSH2 0x13AB JUMPI PUSH1 0x1 PUSH1 0x3D SLOAD PUSH2 0x129D SWAP2 SWAP1 PUSH2 0x3416 JUMP JUMPDEST DUP3 GT DUP1 PUSH2 0x12B7 JUMPI POP PUSH1 0x1 PUSH1 0x3E SLOAD PUSH2 0x12B4 SWAP2 SWAP1 PUSH2 0x3416 JUMP JUMPDEST DUP2 GT JUMPDEST PUSH2 0x13AB JUMPI PUSH0 DUP3 DUP2 MSTORE PUSH1 0x36 PUSH1 0x20 SWAP1 DUP2 MSTORE PUSH1 0x40 DUP1 DUP4 KECCAK256 PUSH1 0x2 SWAP1 DUP2 ADD SLOAD DUP6 DUP6 MSTORE PUSH1 0x38 SWAP1 SWAP4 MSTORE SWAP1 DUP4 KECCAK256 ADD SLOAD LT ISZERO PUSH2 0x1313 JUMPI POP PUSH0 DUP2 DUP2 MSTORE PUSH1 0x38 PUSH1 0x20 MSTORE PUSH1 0x40 SWAP1 KECCAK256 PUSH1 0x2 ADD SLOAD PUSH2 0x1301 DUP4 DUP4 DUP4 PUSH2 0x2671 JUMP JUMPDEST DUP2 PUSH2 0x130B DUP2 PUSH2 0x33FE JUMP JUMPDEST SWAP3 POP POP PUSH2 0x13A5 JUMP JUMPDEST PUSH0 DUP4 DUP2 MSTORE PUSH1 0x36 PUSH1 0x20 SWAP1 DUP2 MSTORE PUSH1 0x40 DUP1 DUP4 KECCAK256 PUSH1 0x2 SWAP1 DUP2 ADD SLOAD DUP7 DUP6 MSTORE PUSH1 0x38 SWAP1 SWAP4 MSTORE SWAP3 KECCAK256 SWAP1 SWAP2 ADD SLOAD GT ISZERO PUSH2 0x136C JUMPI POP PUSH0 DUP3 DUP2 MSTORE PUSH1 0x36 PUSH1 0x20 MSTORE PUSH1 0x40 SWAP1 KECCAK256 PUSH1 0x2 ADD SLOAD PUSH2 0x135A DUP4 DUP4 DUP4 PUSH2 0x2671 JUMP JUMPDEST DUP3 PUSH2 0x1364 DUP2 PUSH2 0x33FE JUMP JUMPDEST SWAP4 POP POP PUSH2 0x13A5 JUMP JUMPDEST POP PUSH0 DUP2 DUP2 MSTORE PUSH1 0x38 PUSH1 0x20 MSTORE PUSH1 0x40 SWAP1 KECCAK256 PUSH1 0x2 ADD SLOAD PUSH2 0x1389 DUP4 DUP4 DUP4 PUSH2 0x2671 JUMP JUMPDEST DUP3 PUSH2 0x1393 DUP2 PUSH2 0x33FE JUMP JUMPDEST SWAP4 POP POP DUP2 DUP1 PUSH2 0x13A1 SWAP1 PUSH2 0x33FE JUMP JUMPDEST SWAP3 POP POP JUMPDEST POP PUSH2 0x127B JUMP JUMPDEST PUSH1 0x32 SLOAD PUSH1 0x1 PUSH1 0x1 PUSH1 0xA0 SHL SUB AND PUSH2 0x13D3 JUMPI PUSH1 0x40 MLOAD PUSH3 0x461BCD PUSH1 0xE5 SHL DUP2 MSTORE PUSH1 0x4 ADD PUSH2 0x810 SWAP1 PUSH2 0x343E JUMP JUMPDEST PUSH1 0x32 SLOAD PUSH1 0x40 DUP1 MLOAD PUSH4 0x78E875C5 PUSH1 0xE0 SHL DUP2 MSTORE PUSH1 0x4 DUP1 DUP3 ADD SWAP3 SWAP1 SWAP3 MSTORE PUSH1 0x44 DUP2 ADD SWAP2 SWAP1 SWAP2 MSTORE PUSH4 0x3078303 PUSH1 0xE4 SHL PUSH1 0x64 DUP3 ADD MSTORE PUSH1 0x1 PUSH1 0x24 DUP3 ADD MSTORE PUSH1 0x1 PUSH1 0x1 PUSH1 0xA0 SHL SUB SWAP1 SWAP2 AND SWAP1 PUSH4 0x78E875C5 SWAP1 PUSH1 0x84 ADD PUSH0 PUSH1 0x40 MLOAD DUP1 DUP4 SUB DUP2 PUSH0 DUP8 DUP1 EXTCODESIZE ISZERO DUP1 ISZERO PUSH2 0x1435 JUMPI PUSH0 DUP1 REVERT JUMPDEST POP GAS CALL ISZERO DUP1 ISZERO PUSH2 0x1447 JUMPI RETURNDATASIZE PUSH0 DUP1 RETURNDATACOPY RETURNDATASIZE PUSH0 REVERT JUMPDEST POP POP POP POP PUSH2 0xE7C PUSH2 0x28C2 JUMP JUMPDEST PUSH1 0x3B SLOAD PUSH0 JUMPDEST DUP2 DUP2 LT ISZERO PUSH2 0x14F7 JUMPI DUP3 PUSH1 0x3B DUP3 DUP2 SLOAD DUP2 LT PUSH2 0x1474 JUMPI PUSH2 0x1474 PUSH2 0x3489 JUMP JUMPDEST SWAP1 PUSH0 MSTORE PUSH1 0x20 PUSH0 KECCAK256 ADD SLOAD SUB PUSH2 0x14EF JUMPI PUSH1 0x3B PUSH2 0x148F PUSH1 0x1 DUP5 PUSH2 0x3416 JUMP JUMPDEST DUP2 SLOAD DUP2 LT PUSH2 0x149F JUMPI PUSH2 0x149F PUSH2 0x3489 JUMP JUMPDEST SWAP1 PUSH0 MSTORE PUSH1 0x20 PUSH0 KECCAK256 ADD SLOAD PUSH1 0x3B DUP3 DUP2 SLOAD DUP2 LT PUSH2 0x14BB JUMPI PUSH2 0x14BB PUSH2 0x3489 JUMP JUMPDEST PUSH0 SWAP2 DUP3 MSTORE PUSH1 0x20 SWAP1 SWAP2 KECCAK256 ADD SSTORE PUSH1 0x3B DUP1 SLOAD DUP1 PUSH2 0x14D7 JUMPI PUSH2 0x14D7 PUSH2 0x349D JUMP JUMPDEST PUSH1 0x1 SWAP1 SUB DUP2 DUP2 SWAP1 PUSH0 MSTORE PUSH1 0x20 PUSH0 KECCAK256 ADD PUSH0 SWAP1 SSTORE SWAP1 SSTORE POP POP POP JUMP JUMPDEST PUSH1 0x1 ADD PUSH2 0x1458 JUMP JUMPDEST POP POP POP JUMP JUMPDEST PUSH2 0x1504 PUSH2 0x21E1 JUMP JUMPDEST PUSH1 0x32 SLOAD PUSH1 0x1 PUSH1 0x1 PUSH1 0xA0 SHL SUB AND PUSH2 0x152C JUMPI PUSH1 0x40 MLOAD PUSH3 0x461BCD PUSH1 0xE5 SHL DUP2 MSTORE PUSH1 0x4 ADD PUSH2 0x810 SWAP1 PUSH2 0x343E JUMP JUMPDEST PUSH0 PUSH2 0x1535 PUSH2 0x1D87 JUMP JUMPDEST SWAP1 POP PUSH0 JUMPDEST DUP2 MLOAD DUP2 LT ISZERO PUSH2 0x1800 JUMPI PUSH1 0x32 SLOAD DUP3 MLOAD PUSH0 SWAP2 PUSH1 0x1 PUSH1 0x1 PUSH1 0xA0 SHL SUB AND SWAP1 PUSH4 0xD6F343C5 SWAP1 DUP6 SWAP1 DUP6 SWAP1 DUP2 LT PUSH2 0x156B JUMPI PUSH2 0x156B PUSH2 0x3489 JUMP JUMPDEST PUSH1 0x20 MUL PUSH1 0x20 ADD ADD MLOAD PUSH0 ADD MLOAD PUSH0 DUP2 MLOAD DUP2 LT PUSH2 0x1587 JUMPI PUSH2 0x1587 PUSH2 0x3489 JUMP JUMPDEST PUSH1 0x20 SWAP1 DUP2 MUL SWAP2 SWAP1 SWAP2 ADD ADD MLOAD MLOAD PUSH1 0x40 MLOAD PUSH1 0x1 PUSH1 0x1 PUSH1 0xE0 SHL SUB NOT PUSH1 0xE0 DUP5 SWAP1 SHL AND DUP2 MSTORE PUSH1 0x1 PUSH1 0x1 PUSH1 0xA0 SHL SUB SWAP1 SWAP2 AND PUSH1 0x4 DUP3 ADD MSTORE PUSH1 0x24 ADD PUSH0 PUSH1 0x40 MLOAD DUP1 DUP4 SUB DUP2 DUP7 GAS STATICCALL ISZERO DUP1 ISZERO PUSH2 0x15D4 JUMPI RETURNDATASIZE PUSH0 DUP1 RETURNDATACOPY RETURNDATASIZE PUSH0 REVERT JUMPDEST POP POP POP POP PUSH1 0x40 MLOAD RETURNDATASIZE PUSH0 DUP3 RETURNDATACOPY PUSH1 0x1F RETURNDATASIZE SWAP1 DUP2 ADD PUSH1 0x1F NOT AND DUP3 ADD PUSH1 0x40 MSTORE PUSH2 0x15FB SWAP2 SWAP1 DUP2 ADD SWAP1 PUSH2 0x34B1 JUMP JUMPDEST PUSH1 0x32 SLOAD DUP2 MLOAD PUSH1 0x40 MLOAD PUSH4 0x80812FED PUSH1 0xE0 SHL DUP2 MSTORE SWAP3 SWAP4 POP PUSH0 SWAP3 PUSH1 0x1 PUSH1 0x1 PUSH1 0xA0 SHL SUB SWAP1 SWAP3 AND SWAP2 PUSH4 0x80812FED SWAP2 PUSH2 0x1630 SWAP2 PUSH1 0x4 ADD PUSH2 0x3031 JUMP JUMPDEST PUSH0 PUSH1 0x40 MLOAD DUP1 DUP4 SUB DUP2 DUP7 GAS STATICCALL ISZERO DUP1 ISZERO PUSH2 0x164A JUMPI RETURNDATASIZE PUSH0 DUP1 RETURNDATACOPY RETURNDATASIZE PUSH0 REVERT JUMPDEST POP POP POP POP PUSH1 0x40 MLOAD RETURNDATASIZE PUSH0 DUP3 RETURNDATACOPY PUSH1 0x1F RETURNDATASIZE SWAP1 DUP2 ADD PUSH1 0x1F NOT AND DUP3 ADD PUSH1 0x40 MSTORE PUSH2 0x1671 SWAP2 SWAP1 DUP2 ADD SWAP1 PUSH2 0x3551 JUMP JUMPDEST PUSH1 0x80 DUP2 ADD MLOAD SWAP1 SWAP2 POP PUSH0 JUMPDEST DUP6 DUP6 DUP2 MLOAD DUP2 LT PUSH2 0x168D JUMPI PUSH2 0x168D PUSH2 0x3489 JUMP JUMPDEST PUSH1 0x20 MUL PUSH1 0x20 ADD ADD MLOAD PUSH0 ADD MLOAD MLOAD DUP2 LT ISZERO PUSH2 0x1791 JUMPI PUSH0 DUP7 DUP7 DUP2 MLOAD DUP2 LT PUSH2 0x16B3 JUMPI PUSH2 0x16B3 PUSH2 0x3489 JUMP JUMPDEST PUSH1 0x20 MUL PUSH1 0x20 ADD ADD MLOAD PUSH0 ADD MLOAD DUP3 DUP2 MLOAD DUP2 LT PUSH2 0x16CF JUMPI PUSH2 0x16CF PUSH2 0x3489 JUMP JUMPDEST PUSH1 0x20 MUL PUSH1 0x20 ADD ADD MLOAD PUSH1 0x80 ADD MLOAD SWAP1 POP PUSH0 PUSH2 0x16F0 DUP6 PUSH1 0x60 ADD MLOAD DUP7 PUSH1 0x40 ADD MLOAD PUSH2 0x2987 JUMP JUMPDEST SWAP1 POP PUSH2 0x16FC DUP2 DUP4 PUSH2 0x2987 JUMP JUMPDEST PUSH1 0xA0 DUP7 ADD MLOAD PUSH1 0x32 SLOAD DUP9 MLOAD PUSH1 0x40 MLOAD PUSH4 0x46F47E39 PUSH1 0xE1 SHL DUP2 MSTORE SWAP4 SWAP5 POP SWAP2 SWAP3 PUSH1 0x1 PUSH1 0x1 PUSH1 0xA0 SHL SUB SWAP1 SWAP2 AND SWAP2 PUSH4 0x8DE8FC72 SWAP2 PUSH2 0x1741 SWAP2 SWAP1 DUP7 SWAP1 DUP9 SWAP1 DUP8 SWAP1 DUP13 SWAP1 PUSH0 SWAP1 PUSH1 0x4 ADD PUSH2 0x35ED JUMP JUMPDEST PUSH1 0x20 PUSH1 0x40 MLOAD DUP1 DUP4 SUB DUP2 PUSH0 DUP8 GAS CALL ISZERO DUP1 ISZERO PUSH2 0x175D JUMPI RETURNDATASIZE PUSH0 DUP1 RETURNDATACOPY RETURNDATASIZE PUSH0 REVERT JUMPDEST POP POP POP POP PUSH1 0x40 MLOAD RETURNDATASIZE PUSH1 0x1F NOT PUSH1 0x1F DUP3 ADD AND DUP3 ADD DUP1 PUSH1 0x40 MSTORE POP DUP2 ADD SWAP1 PUSH2 0x1781 SWAP2 SWAP1 PUSH2 0x311C JUMP JUMPDEST POP POP PUSH1 0x1 SWAP1 SWAP3 ADD SWAP2 POP PUSH2 0x167B SWAP1 POP JUMP JUMPDEST POP PUSH1 0x32 SLOAD DUP4 MLOAD PUSH1 0x40 MLOAD PUSH4 0x78E875C5 PUSH1 0xE0 SHL DUP2 MSTORE PUSH1 0x1 PUSH1 0x1 PUSH1 0xA0 SHL SUB SWAP1 SWAP3 AND SWAP2 PUSH4 0x78E875C5 SWAP2 PUSH2 0x17C4 SWAP2 PUSH0 SWAP1 PUSH1 0x4 ADD PUSH2 0x362A JUMP JUMPDEST PUSH0 PUSH1 0x40 MLOAD DUP1 DUP4 SUB DUP2 PUSH0 DUP8 DUP1 EXTCODESIZE ISZERO DUP1 ISZERO PUSH2 0x17DB JUMPI PUSH0 DUP1 REVERT JUMPDEST POP GAS CALL ISZERO DUP1 ISZERO PUSH2 0x17ED JUMPI RETURNDATASIZE PUSH0 DUP1 RETURNDATACOPY RETURNDATASIZE PUSH0 REVERT JUMPDEST POP POP PUSH1 0x1 SWAP1 SWAP6 ADD SWAP5 POP PUSH2 0x1539 SWAP4 POP POP POP POP JUMP JUMPDEST POP PUSH2 0x180C PUSH1 0x3B PUSH0 PUSH2 0x2CE2 JUMP JUMPDEST POP JUMP JUMPDEST PUSH1 0x32 SLOAD PUSH1 0x1 PUSH1 0x1 PUSH1 0xA0 SHL SUB AND PUSH2 0x1837 JUMPI PUSH1 0x40 MLOAD PUSH3 0x461BCD PUSH1 0xE5 SHL DUP2 MSTORE PUSH1 0x4 ADD PUSH2 0x810 SWAP1 PUSH2 0x343E JUMP JUMPDEST PUSH0 DUP1 JUMPDEST PUSH0 DUP4 DUP2 MSTORE PUSH1 0x3A PUSH1 0x20 MSTORE PUSH1 0x40 SWAP1 KECCAK256 SLOAD DUP2 LT ISZERO PUSH2 0x18DA JUMPI PUSH0 DUP4 DUP2 MSTORE PUSH1 0x3A PUSH1 0x20 MSTORE PUSH1 0x40 SWAP1 KECCAK256 DUP1 SLOAD PUSH2 0x18D0 SWAP2 DUP5 SWAP2 PUSH2 0x18CB SWAP2 SWAP1 DUP6 SWAP1 DUP2 LT PUSH2 0x1879 JUMPI PUSH2 0x1879 PUSH2 0x3489 JUMP JUMPDEST SWAP1 PUSH0 MSTORE PUSH1 0x20 PUSH0 KECCAK256 SWAP1 PUSH1 0x6 MUL ADD PUSH1 0x5 ADD SLOAD PUSH1 0x3A PUSH0 DUP9 DUP2 MSTORE PUSH1 0x20 ADD SWAP1 DUP2 MSTORE PUSH1 0x20 ADD PUSH0 KECCAK256 PUSH0 ADD DUP6 DUP2 SLOAD DUP2 LT PUSH2 0x18AD JUMPI PUSH2 0x18AD PUSH2 0x3489 JUMP JUMPDEST SWAP1 PUSH0 MSTORE PUSH1 0x20 PUSH0 KECCAK256 SWAP1 PUSH1 0x6 MUL ADD PUSH1 0x4 ADD SLOAD PUSH2 0x2065 SWAP1 SWAP2 SWAP1 PUSH4 0xFFFFFFFF AND JUMP JUMPDEST PUSH2 0x2987 JUMP JUMPDEST SWAP2 POP PUSH1 0x1 ADD PUSH2 0x183A JUMP JUMPDEST POP PUSH2 0x18E4 DUP2 PUSH2 0x2995 JUMP JUMPDEST PUSH2 0x18F6 SWAP1 PUSH8 0xDE0B6B3A7640000 PUSH2 0x364D JUMP JUMPDEST CALLVALUE LT ISZERO PUSH2 0x1945 JUMPI PUSH1 0x40 MLOAD PUSH3 0x461BCD PUSH1 0xE5 SHL DUP2 MSTORE PUSH1 0x20 PUSH1 0x4 DUP3 ADD MSTORE PUSH1 0x1B PUSH1 0x24 DUP3 ADD MSTORE PUSH32 0x596F75206E65656420746F2073656E64206D6F7265206D617469630000000000 PUSH1 0x44 DUP3 ADD MSTORE PUSH1 0x64 ADD PUSH2 0x810 JUMP JUMPDEST PUSH1 0x32 SLOAD PUSH0 DUP4 DUP2 MSTORE PUSH1 0x3A PUSH1 0x20 MSTORE PUSH1 0x40 DUP2 KECCAK256 DUP1 SLOAD SWAP2 SWAP3 PUSH1 0x1 PUSH1 0x1 PUSH1 0xA0 SHL SUB AND SWAP2 PUSH4 0xD6F343C5 SWAP2 SWAP1 DUP5 SWAP1 PUSH2 0x1978 JUMPI PUSH2 0x1978 PUSH2 0x3489 JUMP JUMPDEST PUSH0 SWAP2 DUP3 MSTORE PUSH1 0x20 SWAP1 SWAP2 KECCAK256 PUSH1 0x6 SWAP1 SWAP2 MUL ADD SLOAD PUSH1 0x40 MLOAD PUSH1 0xE0 DUP4 SWAP1 SHL PUSH1 0x1 PUSH1 0x1 PUSH1 0xE0 SHL SUB NOT AND DUP2 MSTORE PUSH1 0x1 PUSH1 0x1 PUSH1 0xA0 SHL SUB SWAP1 SWAP2 AND PUSH1 0x4 DUP3 ADD MSTORE PUSH1 0x24 ADD PUSH0 PUSH1 0x40 MLOAD DUP1 DUP4 SUB DUP2 DUP7 GAS STATICCALL ISZERO DUP1 ISZERO PUSH2 0x19C9 JUMPI RETURNDATASIZE PUSH0 DUP1 RETURNDATACOPY RETURNDATASIZE PUSH0 REVERT JUMPDEST POP POP POP POP PUSH1 0x40 MLOAD RETURNDATASIZE PUSH0 DUP3 RETURNDATACOPY PUSH1 0x1F RETURNDATASIZE SWAP1 DUP2 ADD PUSH1 0x1F NOT AND DUP3 ADD PUSH1 0x40 MSTORE PUSH2 0x19F0 SWAP2 SWAP1 DUP2 ADD SWAP1 PUSH2 0x34B1 JUMP JUMPDEST PUSH1 0x32 SLOAD DUP2 MLOAD PUSH1 0x40 MLOAD PUSH4 0x80812FED PUSH1 0xE0 SHL DUP2 MSTORE SWAP3 SWAP4 POP PUSH0 SWAP3 PUSH1 0x1 PUSH1 0x1 PUSH1 0xA0 SHL SUB SWAP1 SWAP3 AND SWAP2 PUSH4 0x80812FED SWAP2 PUSH2 0x1A25 SWAP2 PUSH1 0x4 ADD PUSH2 0x3031 JUMP JUMPDEST PUSH0 PUSH1 0x40 MLOAD DUP1 DUP4 SUB DUP2 DUP7 GAS STATICCALL ISZERO DUP1 ISZERO PUSH2 0x1A3F JUMPI RETURNDATASIZE PUSH0 DUP1 RETURNDATACOPY RETURNDATASIZE PUSH0 REVERT JUMPDEST POP POP POP POP PUSH1 0x40 MLOAD RETURNDATASIZE PUSH0 DUP3 RETURNDATACOPY PUSH1 0x1F RETURNDATASIZE SWAP1 DUP2 ADD PUSH1 0x1F NOT AND DUP3 ADD PUSH1 0x40 MSTORE PUSH2 0x1A66 SWAP2 SWAP1 DUP2 ADD SWAP1 PUSH2 0x3551 JUMP JUMPDEST PUSH1 0x80 DUP2 ADD MLOAD SWAP1 SWAP2 POP PUSH0 JUMPDEST PUSH0 DUP7 DUP2 MSTORE PUSH1 0x3A PUSH1 0x20 MSTORE PUSH1 0x40 SWAP1 KECCAK256 SLOAD DUP2 LT ISZERO PUSH2 0x1D60 JUMPI PUSH0 PUSH2 0x1A98 DUP5 PUSH1 0x60 ADD MLOAD DUP6 PUSH1 0x40 ADD MLOAD PUSH2 0x2987 JUMP JUMPDEST PUSH0 DUP9 DUP2 MSTORE PUSH1 0x3A PUSH1 0x20 MSTORE PUSH1 0x40 DUP2 KECCAK256 DUP1 SLOAD SWAP3 SWAP4 POP SWAP1 SWAP2 DUP5 SWAP1 DUP2 LT PUSH2 0x1ABC JUMPI PUSH2 0x1ABC PUSH2 0x3489 JUMP JUMPDEST PUSH0 SWAP2 DUP3 MSTORE PUSH1 0x20 SWAP1 SWAP2 KECCAK256 PUSH1 0x1 PUSH1 0x6 SWAP1 SWAP3 MUL ADD ADD SLOAD PUSH1 0x1 PUSH1 0x1 PUSH1 0xA0 SHL SUB AND SWAP1 POP DUP1 PUSH2 0x1B1B JUMPI PUSH1 0x40 MLOAD PUSH3 0x461BCD PUSH1 0xE5 SHL DUP2 MSTORE PUSH1 0x20 PUSH1 0x4 DUP3 ADD MSTORE PUSH1 0x11 PUSH1 0x24 DUP3 ADD MSTORE PUSH17 0x149958DA5C1A595B9D081B9BDD081CD95D PUSH1 0x7A SHL PUSH1 0x44 DUP3 ADD MSTORE PUSH1 0x64 ADD PUSH2 0x810 JUMP JUMPDEST PUSH0 DUP9 DUP2 MSTORE PUSH1 0x3A PUSH1 0x20 MSTORE PUSH1 0x40 DUP2 KECCAK256 DUP1 SLOAD PUSH1 0x1 PUSH1 0x1 PUSH1 0xA0 SHL SUB DUP5 AND SWAP2 PUSH2 0x1B87 SWAP2 PUSH2 0x1B82 SWAP2 SWAP1 DUP9 SWAP1 DUP2 LT PUSH2 0x1B4E JUMPI PUSH2 0x1B4E PUSH2 0x3489 JUMP JUMPDEST SWAP1 PUSH0 MSTORE PUSH1 0x20 PUSH0 KECCAK256 SWAP1 PUSH1 0x6 MUL ADD PUSH1 0x5 ADD SLOAD PUSH1 0x3A PUSH0 DUP15 DUP2 MSTORE PUSH1 0x20 ADD SWAP1 DUP2 MSTORE PUSH1 0x20 ADD PUSH0 KECCAK256 PUSH0 ADD DUP9 DUP2 SLOAD DUP2 LT PUSH2 0x18AD JUMPI PUSH2 0x18AD PUSH2 0x3489 JUMP JUMPDEST PUSH2 0x2995 JUMP JUMPDEST PUSH2 0x1B99 SWAP1 PUSH8 0xDE0B6B3A7640000 PUSH2 0x364D JUMP JUMPDEST PUSH1 0x40 MLOAD PUSH0 DUP2 DUP2 DUP2 DUP6 DUP8 GAS CALL SWAP3 POP POP POP RETURNDATASIZE DUP1 PUSH0 DUP2 EQ PUSH2 0x1BD2 JUMPI PUSH1 0x40 MLOAD SWAP2 POP PUSH1 0x1F NOT PUSH1 0x3F RETURNDATASIZE ADD AND DUP3 ADD PUSH1 0x40 MSTORE RETURNDATASIZE DUP3 MSTORE RETURNDATASIZE PUSH0 PUSH1 0x20 DUP5 ADD RETURNDATACOPY PUSH2 0x1BD7 JUMP JUMPDEST PUSH1 0x60 SWAP2 POP JUMPDEST POP POP SWAP1 POP DUP1 PUSH2 0x1C1F JUMPI PUSH1 0x40 MLOAD PUSH3 0x461BCD PUSH1 0xE5 SHL DUP2 MSTORE PUSH1 0x20 PUSH1 0x4 DUP3 ADD MSTORE PUSH1 0x14 PUSH1 0x24 DUP3 ADD MSTORE PUSH20 0x2330B4B632B2103A379039B2B7321022BA3432B9 PUSH1 0x61 SHL PUSH1 0x44 DUP3 ADD MSTORE PUSH1 0x64 ADD PUSH2 0x810 JUMP JUMPDEST PUSH0 DUP10 DUP2 MSTORE PUSH1 0x3A PUSH1 0x20 MSTORE PUSH1 0x40 SWAP1 KECCAK256 DUP1 SLOAD PUSH2 0x1C59 SWAP2 DUP6 SWAP2 DUP8 SWAP1 DUP2 LT PUSH2 0x1C44 JUMPI PUSH2 0x1C44 PUSH2 0x3489 JUMP JUMPDEST SWAP1 PUSH0 MSTORE PUSH1 0x20 PUSH0 KECCAK256 SWAP1 PUSH1 0x6 MUL ADD PUSH1 0x4 ADD SLOAD PUSH2 0x2987 JUMP JUMPDEST PUSH1 0x32 SLOAD DUP9 MLOAD PUSH0 DUP13 DUP2 MSTORE PUSH1 0x3A PUSH1 0x20 MSTORE PUSH1 0x40 SWAP1 KECCAK256 DUP1 SLOAD SWAP4 SWAP7 POP PUSH1 0x1 PUSH1 0x1 PUSH1 0xA0 SHL SUB SWAP1 SWAP3 AND SWAP3 PUSH4 0x8DE8FC72 SWAP3 DUP8 SWAP2 DUP10 SWAP1 DUP2 LT PUSH2 0x1C94 JUMPI PUSH2 0x1C94 PUSH2 0x3489 JUMP JUMPDEST SWAP1 PUSH0 MSTORE PUSH1 0x20 PUSH0 KECCAK256 SWAP1 PUSH1 0x6 MUL ADD PUSH1 0x4 ADD SLOAD DUP11 PUSH1 0xA0 ADD MLOAD DUP11 PUSH1 0x1 PUSH1 0x40 MLOAD DUP8 PUSH4 0xFFFFFFFF AND PUSH1 0xE0 SHL DUP2 MSTORE PUSH1 0x4 ADD PUSH2 0x1CCD SWAP7 SWAP6 SWAP5 SWAP4 SWAP3 SWAP2 SWAP1 PUSH2 0x35ED JUMP JUMPDEST PUSH1 0x20 PUSH1 0x40 MLOAD DUP1 DUP4 SUB DUP2 PUSH0 DUP8 GAS CALL ISZERO DUP1 ISZERO PUSH2 0x1CE9 JUMPI RETURNDATASIZE PUSH0 DUP1 RETURNDATACOPY RETURNDATASIZE PUSH0 REVERT JUMPDEST POP POP POP POP PUSH1 0x40 MLOAD RETURNDATASIZE PUSH1 0x1F NOT PUSH1 0x1F DUP3 ADD AND DUP3 ADD DUP1 PUSH1 0x40 MSTORE POP DUP2 ADD SWAP1 PUSH2 0x1D0D SWAP2 SWAP1 PUSH2 0x311C JUMP JUMPDEST POP PUSH1 0x40 DUP1 MLOAD CALLER DUP2 MSTORE PUSH1 0x1 PUSH1 0x1 PUSH1 0xA0 SHL SUB DUP5 AND PUSH1 0x20 DUP3 ADD MSTORE CALLVALUE DUP2 DUP4 ADD MSTORE SWAP1 MLOAD PUSH32 0x45FDC265DC29885B9A485766B03E70978440D38C7C328EE0A14FA40C76C6AF54 SWAP2 DUP2 SWAP1 SUB PUSH1 0x60 ADD SWAP1 LOG1 POP POP POP PUSH1 0x1 ADD PUSH2 0x1A70 JUMP JUMPDEST POP PUSH0 DUP6 DUP2 MSTORE PUSH1 0x3A PUSH1 0x20 MSTORE PUSH1 0x40 SWAP1 KECCAK256 PUSH1 0x1 SWAP1 DUP2 ADD DUP1 SLOAD PUSH1 0xFF NOT AND SWAP1 SWAP2 OR SWAP1 SSTORE PUSH2 0xFC0 DUP6 PUSH2 0x1453 JUMP JUMPDEST PUSH1 0x3B SLOAD PUSH1 0x60 SWAP1 PUSH0 SWAP1 PUSH1 0x1 PUSH1 0x1 PUSH1 0x40 SHL SUB DUP2 GT ISZERO PUSH2 0x1DA6 JUMPI PUSH2 0x1DA6 PUSH2 0x2D24 JUMP JUMPDEST PUSH1 0x40 MLOAD SWAP1 DUP1 DUP3 MSTORE DUP1 PUSH1 0x20 MUL PUSH1 0x20 ADD DUP3 ADD PUSH1 0x40 MSTORE DUP1 ISZERO PUSH2 0x1DEB JUMPI DUP2 PUSH1 0x20 ADD JUMPDEST PUSH1 0x40 DUP1 MLOAD DUP1 DUP3 ADD SWAP1 SWAP2 MSTORE PUSH1 0x60 DUP2 MSTORE PUSH0 PUSH1 0x20 DUP3 ADD MSTORE DUP2 MSTORE PUSH1 0x20 ADD SWAP1 PUSH1 0x1 SWAP1 SUB SWAP1 DUP2 PUSH2 0x1DC4 JUMPI SWAP1 POP JUMPDEST POP SWAP1 POP PUSH0 JUMPDEST PUSH1 0x3B SLOAD DUP2 LT ISZERO PUSH2 0x1F09 JUMPI PUSH1 0x3A PUSH0 PUSH1 0x3B DUP4 DUP2 SLOAD DUP2 LT PUSH2 0x1E10 JUMPI PUSH2 0x1E10 PUSH2 0x3489 JUMP JUMPDEST SWAP1 PUSH0 MSTORE PUSH1 0x20 PUSH0 KECCAK256 ADD SLOAD DUP2 MSTORE PUSH1 0x20 ADD SWAP1 DUP2 MSTORE PUSH1 0x20 ADD PUSH0 KECCAK256 PUSH1 0x40 MLOAD DUP1 PUSH1 0x40 ADD PUSH1 0x40 MSTORE SWAP1 DUP2 PUSH0 DUP3 ADD DUP1 SLOAD DUP1 PUSH1 0x20 MUL PUSH1 0x20 ADD PUSH1 0x40 MLOAD SWAP1 DUP2 ADD PUSH1 0x40 MSTORE DUP1 SWAP3 SWAP2 SWAP1 DUP2 DUP2 MSTORE PUSH1 0x20 ADD PUSH0 SWAP1 JUMPDEST DUP3 DUP3 LT ISZERO PUSH2 0x1EC9 JUMPI PUSH0 DUP5 DUP2 MSTORE PUSH1 0x20 SWAP1 DUP2 SWAP1 KECCAK256 PUSH1 0x40 DUP1 MLOAD PUSH1 0xC0 DUP2 ADD DUP3 MSTORE PUSH1 0x6 DUP7 MUL SWAP1 SWAP3 ADD DUP1 SLOAD PUSH1 0x1 PUSH1 0x1 PUSH1 0xA0 SHL SUB SWAP1 DUP2 AND DUP5 MSTORE PUSH1 0x1 DUP1 DUP4 ADD SLOAD SWAP1 SWAP2 AND DUP5 DUP7 ADD MSTORE PUSH1 0x2 DUP3 ADD SLOAD SWAP3 DUP5 ADD SWAP3 SWAP1 SWAP3 MSTORE PUSH1 0x3 DUP2 ADD SLOAD PUSH1 0x60 DUP5 ADD MSTORE PUSH1 0x4 DUP2 ADD SLOAD PUSH1 0x80 DUP5 ADD MSTORE PUSH1 0x5 ADD SLOAD PUSH1 0xA0 DUP4 ADD MSTORE SWAP1 DUP4 MSTORE SWAP1 SWAP3 ADD SWAP2 ADD PUSH2 0x1E54 JUMP JUMPDEST POP POP POP SWAP1 DUP3 MSTORE POP PUSH1 0x1 SWAP2 SWAP1 SWAP2 ADD SLOAD PUSH1 0xFF AND ISZERO ISZERO PUSH1 0x20 SWAP1 SWAP2 ADD MSTORE DUP3 MLOAD DUP4 SWAP1 DUP4 SWAP1 DUP2 LT PUSH2 0x1EF6 JUMPI PUSH2 0x1EF6 PUSH2 0x3489 JUMP JUMPDEST PUSH1 0x20 SWAP1 DUP2 MUL SWAP2 SWAP1 SWAP2 ADD ADD MSTORE PUSH1 0x1 ADD PUSH2 0x1DF0 JUMP JUMPDEST POP SWAP2 SWAP1 POP JUMP JUMPDEST PUSH2 0x1F17 PUSH2 0x21E1 JUMP JUMPDEST PUSH1 0x1 PUSH1 0x1 PUSH1 0xA0 SHL SUB DUP2 AND PUSH2 0x1F40 JUMPI PUSH1 0x40 MLOAD PUSH4 0x1E4FBDF7 PUSH1 0xE0 SHL DUP2 MSTORE PUSH0 PUSH1 0x4 DUP3 ADD MSTORE PUSH1 0x24 ADD PUSH2 0x810 JUMP JUMPDEST PUSH2 0x180C DUP2 PUSH2 0x243E JUMP JUMPDEST PUSH2 0x1F7F PUSH1 0x40 MLOAD DUP1 PUSH1 0xA0 ADD PUSH1 0x40 MSTORE DUP1 PUSH0 DUP2 MSTORE PUSH1 0x20 ADD PUSH0 PUSH1 0x1 PUSH1 0x1 PUSH1 0xA0 SHL SUB AND DUP2 MSTORE PUSH1 0x20 ADD PUSH0 DUP2 MSTORE PUSH1 0x20 ADD PUSH0 DUP2 MSTORE PUSH1 0x20 ADD PUSH0 DUP2 MSTORE POP SWAP1 JUMP JUMPDEST POP PUSH0 SWAP1 DUP2 MSTORE PUSH1 0x38 PUSH1 0x20 SWAP1 DUP2 MSTORE PUSH1 0x40 SWAP2 DUP3 SWAP1 KECCAK256 DUP3 MLOAD PUSH1 0xA0 DUP2 ADD DUP5 MSTORE DUP2 SLOAD DUP2 MSTORE PUSH1 0x1 DUP3 ADD SLOAD PUSH1 0x1 PUSH1 0x1 PUSH1 0xA0 SHL SUB AND SWAP3 DUP2 ADD SWAP3 SWAP1 SWAP3 MSTORE PUSH1 0x2 DUP2 ADD SLOAD SWAP3 DUP3 ADD SWAP3 SWAP1 SWAP3 MSTORE PUSH1 0x3 DUP3 ADD SLOAD PUSH1 0x60 DUP3 ADD MSTORE PUSH1 0x4 SWAP1 SWAP2 ADD SLOAD PUSH1 0x80 DUP3 ADD MSTORE SWAP1 JUMP JUMPDEST PUSH0 SLOAD PUSH1 0xFF AND ISZERO PUSH2 0xE5F JUMPI PUSH1 0x40 MLOAD PUSH3 0x461BCD PUSH1 0xE5 SHL DUP2 MSTORE PUSH1 0x20 PUSH1 0x4 DUP3 ADD MSTORE PUSH1 0x10 PUSH1 0x24 DUP3 ADD MSTORE PUSH16 0x14185D5CD8589B194E881C185D5CD959 PUSH1 0x82 SHL PUSH1 0x44 DUP3 ADD MSTORE PUSH1 0x64 ADD PUSH2 0x810 JUMP JUMPDEST PUSH1 0x32 SLOAD PUSH0 SWAP1 PUSH1 0x1 PUSH1 0x1 PUSH1 0xA0 SHL SUB SWAP1 DUP2 AND SWAP1 DUP4 AND SUB PUSH2 0x203A JUMPI POP PUSH0 SWAP2 SWAP1 POP JUMP JUMPDEST PUSH1 0x33 SLOAD PUSH1 0x1 PUSH1 0x1 PUSH1 0xA0 SHL SUB SWAP1 DUP2 AND SWAP1 DUP4 AND SUB PUSH2 0x2058 JUMPI POP PUSH1 0x1 SWAP2 SWAP1 POP JUMP JUMPDEST POP PUSH1 0x2 SWAP2 SWAP1 POP JUMP JUMPDEST SWAP2 SWAP1 POP JUMP JUMPDEST PUSH0 PUSH2 0x2076 PUSH2 0x2073 DUP5 DUP5 PUSH2 0x29A8 JUMP JUMPDEST SWAP1 JUMP JUMPDEST SWAP4 SWAP3 POP POP POP JUMP JUMPDEST PUSH1 0x37 DUP1 SLOAD PUSH1 0x1 DUP2 DUP2 ADD DUP4 SSTORE PUSH0 DUP4 DUP2 MSTORE PUSH32 0x42A7B7DD785CD69714A189DFFB3FD7D7174EDC9ECE837694CE50F7078F7C31AE SWAP1 SWAP3 ADD DUP5 SWAP1 SSTORE SWAP2 SLOAD SWAP1 SWAP2 DUP3 SWAP2 PUSH2 0x20C3 SWAP2 SWAP1 PUSH2 0x3416 JUMP JUMPDEST SWAP1 POP DUP1 PUSH0 SUB PUSH2 0x20D2 JUMPI SWAP3 SWAP2 POP POP JUMP JUMPDEST PUSH0 DUP2 GT DUP1 ISZERO PUSH2 0x2125 JUMPI POP PUSH2 0x2125 PUSH1 0x37 PUSH2 0x20EC PUSH1 0x1 DUP5 PUSH2 0x3416 JUMP JUMPDEST DUP2 SLOAD DUP2 LT PUSH2 0x20FC JUMPI PUSH2 0x20FC PUSH2 0x3489 JUMP JUMPDEST SWAP1 PUSH0 MSTORE PUSH1 0x20 PUSH0 KECCAK256 ADD SLOAD PUSH1 0x37 DUP4 DUP2 SLOAD DUP2 LT PUSH2 0x2118 JUMPI PUSH2 0x2118 PUSH2 0x3489 JUMP JUMPDEST SWAP1 PUSH0 MSTORE PUSH1 0x20 PUSH0 KECCAK256 ADD SLOAD GT SWAP1 JUMP JUMPDEST ISZERO PUSH2 0x21DB JUMPI PUSH1 0x37 DUP2 DUP2 SLOAD DUP2 LT PUSH2 0x213D JUMPI PUSH2 0x213D PUSH2 0x3489 JUMP JUMPDEST SWAP1 PUSH0 MSTORE PUSH1 0x20 PUSH0 KECCAK256 ADD SLOAD PUSH1 0x37 PUSH1 0x1 DUP4 PUSH2 0x2155 SWAP2 SWAP1 PUSH2 0x3416 JUMP JUMPDEST DUP2 SLOAD DUP2 LT PUSH2 0x2165 JUMPI PUSH2 0x2165 PUSH2 0x3489 JUMP JUMPDEST SWAP1 PUSH0 MSTORE PUSH1 0x20 PUSH0 KECCAK256 ADD SLOAD PUSH1 0x37 PUSH1 0x1 DUP5 PUSH2 0x217D SWAP2 SWAP1 PUSH2 0x3416 JUMP JUMPDEST DUP2 SLOAD DUP2 LT PUSH2 0x218D JUMPI PUSH2 0x218D PUSH2 0x3489 JUMP JUMPDEST SWAP1 PUSH0 MSTORE PUSH1 0x20 PUSH0 KECCAK256 ADD PUSH0 PUSH1 0x37 DUP6 DUP2 SLOAD DUP2 LT PUSH2 0x21A9 JUMPI PUSH2 0x21A9 PUSH2 0x3489 JUMP JUMPDEST PUSH0 SWAP2 DUP3 MSTORE PUSH1 0x20 SWAP1 SWAP2 KECCAK256 ADD SWAP3 SWAP1 SWAP3 SSTORE SWAP2 SWAP1 SWAP2 SSTORE POP DUP1 PUSH2 0x21C6 DUP2 PUSH2 0x3429 JUMP JUMPDEST SWAP2 POP POP DUP1 PUSH0 SUB PUSH2 0x21D6 JUMPI SWAP3 SWAP2 POP POP JUMP JUMPDEST PUSH2 0x20D2 JUMP JUMPDEST SWAP3 SWAP2 POP POP JUMP JUMPDEST CALLER PUSH2 0x2213 PUSH32 0x9016D09D72D40FDAE2FD8CEAC6B6234C7706214FD39C1CD1E609A0528C199300 SLOAD PUSH1 0x1 PUSH1 0x1 PUSH1 0xA0 SHL SUB AND SWAP1 JUMP JUMPDEST PUSH1 0x1 PUSH1 0x1 PUSH1 0xA0 SHL SUB AND EQ PUSH2 0xE5F JUMPI PUSH1 0x40 MLOAD PUSH4 0x118CDAA7 PUSH1 0xE0 SHL DUP2 MSTORE CALLER PUSH1 0x4 DUP3 ADD MSTORE PUSH1 0x24 ADD PUSH2 0x810 JUMP JUMPDEST PUSH2 0x2244 PUSH2 0x2A5A JUMP JUMPDEST PUSH0 DUP1 SLOAD PUSH1 0xFF NOT AND SWAP1 SSTORE PUSH32 0x5DB9EE0A495BF2E6FF9C91A7834C1BA4FDD244A5E8AA4E537BD38AEAE4B073AA CALLER JUMPDEST PUSH1 0x40 MLOAD PUSH1 0x1 PUSH1 0x1 PUSH1 0xA0 SHL SUB SWAP1 SWAP2 AND DUP2 MSTORE PUSH1 0x20 ADD PUSH1 0x40 MLOAD DUP1 SWAP2 SUB SWAP1 LOG1 JUMP JUMPDEST ADDRESS PUSH1 0x1 PUSH1 0x1 PUSH1 0xA0 SHL SUB PUSH32 0x0 AND EQ DUP1 PUSH2 0x2313 JUMPI POP PUSH32 0x0 PUSH1 0x1 PUSH1 0x1 PUSH1 0xA0 SHL SUB AND PUSH2 0x2307 PUSH0 DUP1 MLOAD PUSH1 0x20 PUSH2 0x36AD DUP4 CODECOPY DUP2 MLOAD SWAP2 MSTORE SLOAD PUSH1 0x1 PUSH1 0x1 PUSH1 0xA0 SHL SUB AND SWAP1 JUMP JUMPDEST PUSH1 0x1 PUSH1 0x1 PUSH1 0xA0 SHL SUB AND EQ ISZERO JUMPDEST ISZERO PUSH2 0xE5F JUMPI PUSH1 0x40 MLOAD PUSH4 0x703E46DD PUSH1 0xE1 SHL DUP2 MSTORE PUSH1 0x4 ADD PUSH1 0x40 MLOAD DUP1 SWAP2 SUB SWAP1 REVERT JUMPDEST PUSH2 0x180C PUSH2 0x21E1 JUMP JUMPDEST DUP2 PUSH1 0x1 PUSH1 0x1 PUSH1 0xA0 SHL SUB AND PUSH4 0x52D1902D PUSH1 0x40 MLOAD DUP2 PUSH4 0xFFFFFFFF AND PUSH1 0xE0 SHL DUP2 MSTORE PUSH1 0x4 ADD PUSH1 0x20 PUSH1 0x40 MLOAD DUP1 DUP4 SUB DUP2 DUP7 GAS STATICCALL SWAP3 POP POP POP DUP1 ISZERO PUSH2 0x2393 JUMPI POP PUSH1 0x40 DUP1 MLOAD PUSH1 0x1F RETURNDATASIZE SWAP1 DUP2 ADD PUSH1 0x1F NOT AND DUP3 ADD SWAP1 SWAP3 MSTORE PUSH2 0x2390 SWAP2 DUP2 ADD SWAP1 PUSH2 0x311C JUMP JUMPDEST PUSH1 0x1 JUMPDEST PUSH2 0x23BB JUMPI PUSH1 0x40 MLOAD PUSH4 0x4C9C8CE3 PUSH1 0xE0 SHL DUP2 MSTORE PUSH1 0x1 PUSH1 0x1 PUSH1 0xA0 SHL SUB DUP4 AND PUSH1 0x4 DUP3 ADD MSTORE PUSH1 0x24 ADD PUSH2 0x810 JUMP JUMPDEST PUSH0 DUP1 MLOAD PUSH1 0x20 PUSH2 0x36AD DUP4 CODECOPY DUP2 MLOAD SWAP2 MSTORE DUP2 EQ PUSH2 0x23EB JUMPI PUSH1 0x40 MLOAD PUSH4 0x2A875269 PUSH1 0xE2 SHL DUP2 MSTORE PUSH1 0x4 DUP2 ADD DUP3 SWAP1 MSTORE PUSH1 0x24 ADD PUSH2 0x810 JUMP JUMPDEST PUSH2 0x14F7 DUP4 DUP4 PUSH2 0x2AA2 JUMP JUMPDEST ADDRESS PUSH1 0x1 PUSH1 0x1 PUSH1 0xA0 SHL SUB PUSH32 0x0 AND EQ PUSH2 0xE5F JUMPI PUSH1 0x40 MLOAD PUSH4 0x703E46DD PUSH1 0xE1 SHL DUP2 MSTORE PUSH1 0x4 ADD PUSH1 0x40 MLOAD DUP1 SWAP2 SUB SWAP1 REVERT JUMPDEST PUSH32 0x9016D09D72D40FDAE2FD8CEAC6B6234C7706214FD39C1CD1E609A0528C199300 DUP1 SLOAD PUSH1 0x1 PUSH1 0x1 PUSH1 0xA0 SHL SUB NOT DUP2 AND PUSH1 0x1 PUSH1 0x1 PUSH1 0xA0 SHL SUB DUP5 DUP2 AND SWAP2 DUP3 OR DUP5 SSTORE PUSH1 0x40 MLOAD SWAP3 AND SWAP2 DUP3 SWAP1 PUSH32 0x8BE0079C531659141344CD1FD0A4F28419497F9722A3DAAFE3B4186F6B6457E0 SWAP1 PUSH0 SWAP1 LOG3 POP POP POP JUMP JUMPDEST PUSH2 0x24B6 PUSH2 0x2AF7 JUMP JUMPDEST PUSH2 0xE5F PUSH2 0x2B40 JUMP JUMPDEST PUSH2 0x24C6 PUSH2 0x2AF7 JUMP JUMPDEST PUSH2 0x180C DUP2 PUSH2 0x2B53 JUMP JUMPDEST PUSH2 0xE5F PUSH2 0x2AF7 JUMP JUMPDEST PUSH2 0x24DF PUSH2 0x1FD6 JUMP JUMPDEST PUSH0 DUP1 SLOAD PUSH1 0xFF NOT AND PUSH1 0x1 OR SWAP1 SSTORE PUSH32 0x62E78CEA01BEE320CD4E420270B5EA74000D11B0C9F74754EBDBFC544B05A258 PUSH2 0x2270 CALLER SWAP1 JUMP JUMPDEST PUSH1 0x39 DUP1 SLOAD PUSH1 0x1 DUP2 DUP2 ADD DUP4 SSTORE PUSH0 DUP4 DUP2 MSTORE PUSH32 0xDC16FEF70F8D5DDBC01EE3D903D1E69C18A3C7BE080EB86A81E0578814EE58D3 SWAP1 SWAP3 ADD DUP5 SWAP1 SSTORE SWAP2 SLOAD SWAP1 SWAP2 DUP3 SWAP2 PUSH2 0x2559 SWAP2 SWAP1 PUSH2 0x3416 JUMP JUMPDEST SWAP1 POP DUP1 PUSH0 SUB PUSH2 0x2568 JUMPI SWAP3 SWAP2 POP POP JUMP JUMPDEST PUSH0 DUP2 GT DUP1 ISZERO PUSH2 0x25BB JUMPI POP PUSH2 0x25BB PUSH1 0x39 PUSH2 0x2582 PUSH1 0x1 DUP5 PUSH2 0x3416 JUMP JUMPDEST DUP2 SLOAD DUP2 LT PUSH2 0x2592 JUMPI PUSH2 0x2592 PUSH2 0x3489 JUMP JUMPDEST SWAP1 PUSH0 MSTORE PUSH1 0x20 PUSH0 KECCAK256 ADD SLOAD PUSH1 0x39 DUP4 DUP2 SLOAD DUP2 LT PUSH2 0x25AE JUMPI PUSH2 0x25AE PUSH2 0x3489 JUMP JUMPDEST SWAP1 PUSH0 MSTORE PUSH1 0x20 PUSH0 KECCAK256 ADD SLOAD LT SWAP1 JUMP JUMPDEST ISZERO PUSH2 0x21DB JUMPI PUSH1 0x39 DUP2 DUP2 SLOAD DUP2 LT PUSH2 0x25D3 JUMPI PUSH2 0x25D3 PUSH2 0x3489 JUMP JUMPDEST SWAP1 PUSH0 MSTORE PUSH1 0x20 PUSH0 KECCAK256 ADD SLOAD PUSH1 0x39 PUSH1 0x1 DUP4 PUSH2 0x25EB SWAP2 SWAP1 PUSH2 0x3416 JUMP JUMPDEST DUP2 SLOAD DUP2 LT PUSH2 0x25FB JUMPI PUSH2 0x25FB PUSH2 0x3489 JUMP JUMPDEST SWAP1 PUSH0 MSTORE PUSH1 0x20 PUSH0 KECCAK256 ADD SLOAD PUSH1 0x39 PUSH1 0x1 DUP5 PUSH2 0x2613 SWAP2 SWAP1 PUSH2 0x3416 JUMP JUMPDEST DUP2 SLOAD DUP2 LT PUSH2 0x2623 JUMPI PUSH2 0x2623 PUSH2 0x3489 JUMP JUMPDEST SWAP1 PUSH0 MSTORE PUSH1 0x20 PUSH0 KECCAK256 ADD PUSH0 PUSH1 0x39 DUP6 DUP2 SLOAD DUP2 LT PUSH2 0x263F JUMPI PUSH2 0x263F PUSH2 0x3489 JUMP JUMPDEST PUSH0 SWAP2 DUP3 MSTORE PUSH1 0x20 SWAP1 SWAP2 KECCAK256 ADD SWAP3 SWAP1 SWAP3 SSTORE SWAP2 SWAP1 SWAP2 SSTORE POP DUP1 PUSH2 0x265C DUP2 PUSH2 0x3429 JUMP JUMPDEST SWAP2 POP POP DUP1 PUSH0 SUB PUSH2 0x266C JUMPI SWAP3 SWAP2 POP POP JUMP JUMPDEST PUSH2 0x2568 JUMP JUMPDEST PUSH0 PUSH2 0x26DE PUSH2 0x26B1 PUSH2 0x269A PUSH8 0xDE0B6B3A7640000 PUSH0 DUP9 DUP2 MSTORE PUSH1 0x36 PUSH1 0x20 MSTORE PUSH1 0x40 SWAP1 KECCAK256 PUSH1 0x3 ADD SLOAD PUSH2 0x2B5B JUMP JUMPDEST PUSH0 DUP8 DUP2 MSTORE PUSH1 0x36 PUSH1 0x20 MSTORE PUSH1 0x40 SWAP1 KECCAK256 PUSH1 0x4 ADD SLOAD SWAP1 PUSH2 0x2065 JUMP JUMPDEST PUSH0 DUP7 DUP2 MSTORE PUSH1 0x36 PUSH1 0x20 SWAP1 DUP2 MSTORE PUSH1 0x40 DUP1 DUP4 KECCAK256 PUSH1 0x3 SWAP1 DUP2 ADD SLOAD DUP10 DUP6 MSTORE PUSH1 0x38 SWAP1 SWAP4 MSTORE SWAP3 KECCAK256 SWAP1 SWAP2 ADD SLOAD PUSH2 0x18CB SWAP2 PUSH2 0x2065 JUMP JUMPDEST PUSH0 DUP6 DUP2 MSTORE PUSH1 0x36 PUSH1 0x20 DUP2 DUP2 MSTORE PUSH1 0x40 DUP1 DUP5 KECCAK256 DUP1 SLOAD DUP6 MSTORE PUSH1 0x3A DUP4 MSTORE DUP2 DUP6 KECCAK256 PUSH1 0x1 SWAP1 DUP2 ADD DUP1 SLOAD PUSH1 0xFF NOT AND SWAP1 SSTORE DUP2 SLOAD DUP1 DUP8 MSTORE DUP4 DUP8 KECCAK256 DUP5 MLOAD PUSH1 0xC0 DUP2 ADD DUP7 MSTORE DUP4 DUP6 ADD SLOAD PUSH1 0x1 PUSH1 0x1 PUSH1 0xA0 SHL SUB SWAP1 DUP2 AND DUP3 MSTORE DUP14 DUP11 MSTORE PUSH1 0x38 DUP1 DUP10 MSTORE DUP8 DUP12 KECCAK256 DUP1 DUP8 ADD SLOAD DUP4 AND DUP5 DUP12 ADD SWAP1 DUP2 MSTORE SWAP9 DUP5 ADD SWAP6 DUP7 MSTORE SWAP1 DUP10 MSTORE SLOAD PUSH1 0x60 DUP4 ADD SWAP1 DUP2 MSTORE PUSH1 0x80 DUP4 ADD DUP15 DUP2 MSTORE PUSH1 0xA0 DUP5 ADD DUP14 DUP2 MSTORE DUP6 SLOAD DUP1 DUP10 ADD DUP8 SSTORE SWAP6 DUP14 MSTORE DUP11 DUP14 KECCAK256 SWAP5 MLOAD PUSH1 0x6 SWAP1 SWAP7 MUL SWAP1 SWAP5 ADD DUP1 SLOAD SWAP6 DUP5 AND PUSH1 0x1 PUSH1 0x1 PUSH1 0xA0 SHL SUB NOT SWAP7 DUP8 AND OR DUP2 SSTORE SWAP9 MLOAD SWAP7 DUP10 ADD DUP1 SLOAD SWAP8 SWAP1 SWAP4 AND SWAP7 SWAP1 SWAP5 AND SWAP6 SWAP1 SWAP6 OR SWAP1 SSTORE SWAP2 MLOAD PUSH1 0x2 DUP1 DUP8 ADD SWAP2 SWAP1 SWAP2 SSTORE SWAP3 MLOAD PUSH1 0x3 DUP7 ADD SSTORE MLOAD PUSH1 0x4 DUP6 ADD SSTORE MLOAD PUSH1 0x5 SWAP1 SWAP4 ADD SWAP3 SWAP1 SWAP3 SSTORE SWAP4 DUP10 SWAP1 MSTORE SWAP2 SWAP1 MSTORE ADD SLOAD SWAP1 SWAP2 POP PUSH2 0x27D5 SWAP1 DUP4 PUSH2 0x2B5B JUMP JUMPDEST PUSH0 DUP6 DUP2 MSTORE PUSH1 0x36 PUSH1 0x20 SWAP1 DUP2 MSTORE PUSH1 0x40 DUP1 DUP4 KECCAK256 PUSH1 0x2 SWAP1 DUP2 ADD SWAP5 SWAP1 SWAP5 SSTORE DUP7 DUP4 MSTORE PUSH1 0x38 SWAP1 SWAP2 MSTORE SWAP1 KECCAK256 ADD SLOAD PUSH2 0x2804 SWAP1 DUP4 PUSH2 0x2B5B JUMP JUMPDEST PUSH0 DUP5 DUP2 MSTORE PUSH1 0x38 PUSH1 0x20 DUP2 DUP2 MSTORE PUSH1 0x40 DUP1 DUP5 KECCAK256 PUSH1 0x2 DUP2 ADD SWAP6 SWAP1 SWAP6 SSTORE DUP9 DUP5 MSTORE PUSH1 0x36 DUP3 MSTORE DUP1 DUP5 KECCAK256 DUP1 SLOAD PUSH1 0x3B DUP1 SLOAD PUSH1 0x1 DUP1 DUP3 ADD SWAP1 SWAP3 SSTORE PUSH32 0xBBE3212124853F8B0084A66A2D057C2966E251E132AF3691DB153AB65F0D1A4D ADD SWAP2 SWAP1 SWAP2 SSTORE SWAP1 DUP2 ADD SLOAD SWAP5 DUP10 SWAP1 MSTORE SWAP3 DUP3 MSTORE SWAP2 SWAP1 SWAP4 ADD SLOAD DUP2 MLOAD PUSH1 0x1 PUSH1 0x1 PUSH1 0xA0 SHL SUB SWAP4 DUP5 AND DUP2 MSTORE SWAP3 AND SWAP3 DUP3 ADD SWAP3 SWAP1 SWAP3 MSTORE SWAP1 DUP2 ADD DUP4 SWAP1 MSTORE PUSH1 0x60 DUP2 ADD DUP3 SWAP1 MSTORE PUSH32 0xAEF303072D43A31D76F74874D3E0089419D56EFD929DED7E1F35C6B6E197E7E7 SWAP1 PUSH1 0x80 ADD PUSH1 0x40 MLOAD DUP1 SWAP2 SUB SWAP1 LOG1 POP POP POP POP JUMP JUMPDEST PUSH0 JUMPDEST PUSH1 0x3D SLOAD DUP2 LT ISZERO PUSH2 0x2915 JUMPI PUSH0 DUP2 DUP2 MSTORE PUSH1 0x36 PUSH1 0x20 MSTORE PUSH1 0x40 DUP2 KECCAK256 DUP2 DUP2 SSTORE PUSH1 0x1 DUP1 DUP3 ADD DUP1 SLOAD PUSH1 0x1 PUSH1 0x1 PUSH1 0xA0 SHL SUB NOT AND SWAP1 SSTORE PUSH1 0x2 DUP3 ADD DUP4 SWAP1 SSTORE PUSH1 0x3 DUP3 ADD DUP4 SWAP1 SSTORE PUSH1 0x4 DUP3 ADD DUP4 SWAP1 SSTORE PUSH1 0x5 SWAP1 SWAP2 ADD SWAP2 SWAP1 SWAP2 SSTORE ADD PUSH2 0x28C4 JUMP JUMPDEST POP PUSH0 JUMPDEST PUSH1 0x3E SLOAD DUP2 LT ISZERO PUSH2 0x2962 JUMPI PUSH0 DUP2 DUP2 MSTORE PUSH1 0x38 PUSH1 0x20 MSTORE PUSH1 0x40 DUP2 KECCAK256 DUP2 DUP2 SSTORE PUSH1 0x1 DUP1 DUP3 ADD DUP1 SLOAD PUSH1 0x1 PUSH1 0x1 PUSH1 0xA0 SHL SUB NOT AND SWAP1 SSTORE PUSH1 0x2 DUP3 ADD DUP4 SWAP1 SSTORE PUSH1 0x3 DUP3 ADD DUP4 SWAP1 SSTORE PUSH1 0x4 SWAP1 SWAP2 ADD SWAP2 SWAP1 SWAP2 SSTORE ADD PUSH2 0x2918 JUMP JUMPDEST POP PUSH0 PUSH1 0x3D DUP2 SWAP1 SSTORE PUSH2 0x2975 SWAP1 PUSH1 0x37 SWAP1 PUSH2 0x2CE2 JUMP JUMPDEST PUSH0 PUSH1 0x3E DUP2 SWAP1 SSTORE PUSH2 0xE5F SWAP1 PUSH1 0x39 SWAP1 PUSH2 0x2CE2 JUMP JUMPDEST PUSH0 PUSH2 0x2076 PUSH2 0x2073 DUP4 DUP6 PUSH2 0x3664 JUMP JUMPDEST PUSH0 PUSH2 0x21DB PUSH8 0xDE0B6B3A7640000 DUP4 PUSH2 0x3677 JUMP JUMPDEST PUSH0 DUP1 DUP1 PUSH0 NOT DUP5 DUP7 MULMOD DUP5 DUP7 MUL SWAP3 POP DUP3 DUP2 LT DUP4 DUP3 SUB SUB SWAP2 POP POP DUP1 PUSH0 SUB PUSH2 0x29D9 JUMPI POP PUSH8 0xDE0B6B3A7640000 SWAP1 DIV SWAP1 POP PUSH2 0x21DB JUMP JUMPDEST PUSH8 0xDE0B6B3A7640000 DUP2 LT PUSH2 0x2A0B JUMPI PUSH1 0x40 MLOAD PUSH4 0x5173648D PUSH1 0xE0 SHL DUP2 MSTORE PUSH1 0x4 DUP2 ADD DUP7 SWAP1 MSTORE PUSH1 0x24 DUP2 ADD DUP6 SWAP1 MSTORE PUSH1 0x44 ADD PUSH2 0x810 JUMP JUMPDEST PUSH0 PUSH8 0xDE0B6B3A7640000 DUP6 DUP8 MULMOD PUSH3 0x40000 DUP2 DUP6 SUB DIV SWAP4 LT SWAP1 SWAP2 SUB PUSH1 0x1 PUSH1 0xEE SHL MUL SWAP2 SWAP1 SWAP2 OR PUSH32 0xACCB18165BD6FE31AE1CF318DC5B51EEE0E1BA569B88CD74C1773B91FAC10669 MUL SWAP2 POP POP SWAP3 SWAP2 POP POP JUMP JUMPDEST PUSH0 SLOAD PUSH1 0xFF AND PUSH2 0xE5F JUMPI PUSH1 0x40 MLOAD PUSH3 0x461BCD PUSH1 0xE5 SHL DUP2 MSTORE PUSH1 0x20 PUSH1 0x4 DUP3 ADD MSTORE PUSH1 0x14 PUSH1 0x24 DUP3 ADD MSTORE PUSH20 0x14185D5CD8589B194E881B9BDD081C185D5CD959 PUSH1 0x62 SHL PUSH1 0x44 DUP3 ADD MSTORE PUSH1 0x64 ADD PUSH2 0x810 JUMP JUMPDEST PUSH2 0x2AAB DUP3 PUSH2 0x2B69 JUMP JUMPDEST PUSH1 0x40 MLOAD PUSH1 0x1 PUSH1 0x1 PUSH1 0xA0 SHL SUB DUP4 AND SWAP1 PUSH32 0xBC7CD75A20EE27FD9ADEBAB32041F755214DBC6BFFA90CC0225B39DA2E5C2D3B SWAP1 PUSH0 SWAP1 LOG2 DUP1 MLOAD ISZERO PUSH2 0x2AEF JUMPI PUSH2 0x14F7 DUP3 DUP3 PUSH2 0x2BCC JUMP JUMPDEST PUSH2 0xE7C PUSH2 0x2C3E JUMP JUMPDEST PUSH32 0xF0C57E16840DF040F15088DC2F81FE391C3923BEC73E23A9662EFC9C229C6A00 SLOAD PUSH1 0x1 PUSH1 0x40 SHL SWAP1 DIV PUSH1 0xFF AND PUSH2 0xE5F JUMPI PUSH1 0x40 MLOAD PUSH4 0x1AFCD79F PUSH1 0xE3 SHL DUP2 MSTORE PUSH1 0x4 ADD PUSH1 0x40 MLOAD DUP1 SWAP2 SUB SWAP1 REVERT JUMPDEST PUSH2 0x2B48 PUSH2 0x2AF7 JUMP JUMPDEST PUSH0 DUP1 SLOAD PUSH1 0xFF NOT AND SWAP1 SSTORE JUMP JUMPDEST PUSH2 0x1F17 PUSH2 0x2AF7 JUMP JUMPDEST PUSH0 PUSH2 0x2076 PUSH2 0x2073 DUP4 DUP6 PUSH2 0x3416 JUMP JUMPDEST DUP1 PUSH1 0x1 PUSH1 0x1 PUSH1 0xA0 SHL SUB AND EXTCODESIZE PUSH0 SUB PUSH2 0x2B9E JUMPI PUSH1 0x40 MLOAD PUSH4 0x4C9C8CE3 PUSH1 0xE0 SHL DUP2 MSTORE PUSH1 0x1 PUSH1 0x1 PUSH1 0xA0 SHL SUB DUP3 AND PUSH1 0x4 DUP3 ADD MSTORE PUSH1 0x24 ADD PUSH2 0x810 JUMP JUMPDEST PUSH0 DUP1 MLOAD PUSH1 0x20 PUSH2 0x36AD DUP4 CODECOPY DUP2 MLOAD SWAP2 MSTORE DUP1 SLOAD PUSH1 0x1 PUSH1 0x1 PUSH1 0xA0 SHL SUB NOT AND PUSH1 0x1 PUSH1 0x1 PUSH1 0xA0 SHL SUB SWAP3 SWAP1 SWAP3 AND SWAP2 SWAP1 SWAP2 OR SWAP1 SSTORE JUMP JUMPDEST PUSH1 0x60 PUSH0 DUP1 DUP5 PUSH1 0x1 PUSH1 0x1 PUSH1 0xA0 SHL SUB AND DUP5 PUSH1 0x40 MLOAD PUSH2 0x2BE8 SWAP2 SWAP1 PUSH2 0x3696 JUMP JUMPDEST PUSH0 PUSH1 0x40 MLOAD DUP1 DUP4 SUB DUP2 DUP6 GAS DELEGATECALL SWAP2 POP POP RETURNDATASIZE DUP1 PUSH0 DUP2 EQ PUSH2 0x2C20 JUMPI PUSH1 0x40 MLOAD SWAP2 POP PUSH1 0x1F NOT PUSH1 0x3F RETURNDATASIZE ADD AND DUP3 ADD PUSH1 0x40 MSTORE RETURNDATASIZE DUP3 MSTORE RETURNDATASIZE PUSH0 PUSH1 0x20 DUP5 ADD RETURNDATACOPY PUSH2 0x2C25 JUMP JUMPDEST PUSH1 0x60 SWAP2 POP JUMPDEST POP SWAP2 POP SWAP2 POP PUSH2 0x2C35 DUP6 DUP4 DUP4 PUSH2 0x2C5D JUMP JUMPDEST SWAP6 SWAP5 POP POP POP POP POP JUMP JUMPDEST CALLVALUE ISZERO PUSH2 0xE5F JUMPI PUSH1 0x40 MLOAD PUSH4 0xB398979F PUSH1 0xE0 SHL DUP2 MSTORE PUSH1 0x4 ADD PUSH1 0x40 MLOAD DUP1 SWAP2 SUB SWAP1 REVERT JUMPDEST PUSH1 0x60 DUP3 PUSH2 0x2C72 JUMPI PUSH2 0x2C6D DUP3 PUSH2 0x2CB9 JUMP JUMPDEST PUSH2 0x2076 JUMP JUMPDEST DUP2 MLOAD ISZERO DUP1 ISZERO PUSH2 0x2C89 JUMPI POP PUSH1 0x1 PUSH1 0x1 PUSH1 0xA0 SHL SUB DUP5 AND EXTCODESIZE ISZERO JUMPDEST ISZERO PUSH2 0x2CB2 JUMPI PUSH1 0x40 MLOAD PUSH4 0x9996B315 PUSH1 0xE0 SHL DUP2 MSTORE PUSH1 0x1 PUSH1 0x1 PUSH1 0xA0 SHL SUB DUP6 AND PUSH1 0x4 DUP3 ADD MSTORE PUSH1 0x24 ADD PUSH2 0x810 JUMP JUMPDEST POP SWAP3 SWAP2 POP POP JUMP JUMPDEST DUP1 MLOAD ISZERO PUSH2 0x2CC9 JUMPI DUP1 MLOAD DUP1 DUP3 PUSH1 0x20 ADD REVERT JUMPDEST PUSH1 0x40 MLOAD PUSH4 0xA12F521 PUSH1 0xE1 SHL DUP2 MSTORE PUSH1 0x4 ADD PUSH1 0x40 MLOAD DUP1 SWAP2 SUB SWAP1 REVERT JUMPDEST POP DUP1 SLOAD PUSH0 DUP3 SSTORE SWAP1 PUSH0 MSTORE PUSH1 0x20 PUSH0 KECCAK256 SWAP1 DUP2 ADD SWAP1 PUSH2 0x180C SWAP2 SWAP1 JUMPDEST DUP1 DUP3 GT ISZERO PUSH2 0x2D0C JUMPI PUSH0 DUP2 SSTORE PUSH1 0x1 ADD PUSH2 0x2CF9 JUMP JUMPDEST POP SWAP1 JUMP JUMPDEST PUSH1 0x1 PUSH1 0x1 PUSH1 0xA0 SHL SUB DUP2 AND DUP2 EQ PUSH2 0x180C JUMPI PUSH0 DUP1 REVERT JUMPDEST PUSH4 0x4E487B71 PUSH1 0xE0 SHL PUSH0 MSTORE PUSH1 0x41 PUSH1 0x4 MSTORE PUSH1 0x24 PUSH0 REVERT JUMPDEST PUSH1 0x40 MLOAD PUSH2 0x100 DUP2 ADD PUSH1 0x1 PUSH1 0x1 PUSH1 0x40 SHL SUB DUP2 GT DUP3 DUP3 LT OR ISZERO PUSH2 0x2D5B JUMPI PUSH2 0x2D5B PUSH2 0x2D24 JUMP JUMPDEST PUSH1 0x40 MSTORE SWAP1 JUMP JUMPDEST PUSH1 0x40 MLOAD PUSH1 0xE0 DUP2 ADD PUSH1 0x1 PUSH1 0x1 PUSH1 0x40 SHL SUB DUP2 GT DUP3 DUP3 LT OR ISZERO PUSH2 0x2D5B JUMPI PUSH2 0x2D5B PUSH2 0x2D24 JUMP JUMPDEST PUSH1 0x40 MLOAD PUSH1 0xC0 DUP2 ADD PUSH1 0x1 PUSH1 0x1 PUSH1 0x40 SHL SUB DUP2 GT DUP3 DUP3 LT OR ISZERO PUSH2 0x2D5B JUMPI PUSH2 0x2D5B PUSH2 0x2D24 JUMP JUMPDEST PUSH1 0x40 MLOAD PUSH1 0x1F DUP3 ADD PUSH1 0x1F NOT AND DUP2 ADD PUSH1 0x1 PUSH1 0x1 PUSH1 0x40 SHL SUB DUP2 GT DUP3 DUP3 LT OR ISZERO PUSH2 0x2DCD JUMPI PUSH2 0x2DCD PUSH2 0x2D24 JUMP JUMPDEST PUSH1 0x40 MSTORE SWAP2 SWAP1 POP JUMP JUMPDEST PUSH0 PUSH1 0x1 PUSH1 0x1 PUSH1 0x40 SHL SUB DUP3 GT ISZERO PUSH2 0x2DED JUMPI PUSH2 0x2DED PUSH2 0x2D24 JUMP JUMPDEST POP PUSH1 0x1F ADD PUSH1 0x1F NOT AND PUSH1 0x20 ADD SWAP1 JUMP JUMPDEST PUSH0 PUSH2 0x2E0D PUSH2 0x2E08 DUP5 PUSH2 0x2DD5 JUMP JUMPDEST PUSH2 0x2DA5 JUMP JUMPDEST SWAP1 POP DUP3 DUP2 MSTORE DUP4 DUP4 DUP4 ADD GT ISZERO PUSH2 0x2E20 JUMPI PUSH0 DUP1 REVERT JUMPDEST DUP3 DUP3 PUSH1 0x20 DUP4 ADD CALLDATACOPY PUSH0 PUSH1 0x20 DUP5 DUP4 ADD ADD MSTORE SWAP4 SWAP3 POP POP POP JUMP JUMPDEST PUSH0 DUP3 PUSH1 0x1F DUP4 ADD SLT PUSH2 0x2E45 JUMPI PUSH0 DUP1 REVERT JUMPDEST PUSH2 0x2076 DUP4 DUP4 CALLDATALOAD PUSH1 0x20 DUP6 ADD PUSH2 0x2DFB JUMP JUMPDEST PUSH0 DUP1 PUSH0 DUP1 PUSH1 0x80 DUP6 DUP8 SUB SLT ISZERO PUSH2 0x2E67 JUMPI PUSH0 DUP1 REVERT JUMPDEST DUP5 CALLDATALOAD PUSH2 0x2E72 DUP2 PUSH2 0x2D10 JUMP JUMPDEST SWAP4 POP PUSH1 0x20 DUP6 ADD CALLDATALOAD PUSH2 0x2E82 DUP2 PUSH2 0x2D10 JUMP JUMPDEST SWAP3 POP PUSH1 0x40 DUP6 ADD CALLDATALOAD SWAP2 POP PUSH1 0x60 DUP6 ADD CALLDATALOAD PUSH1 0x1 PUSH1 0x1 PUSH1 0x40 SHL SUB DUP2 GT ISZERO PUSH2 0x2EA3 JUMPI PUSH0 DUP1 REVERT JUMPDEST PUSH2 0x2EAF DUP8 DUP3 DUP9 ADD PUSH2 0x2E36 JUMP JUMPDEST SWAP2 POP POP SWAP3 SWAP6 SWAP2 SWAP5 POP SWAP3 POP JUMP JUMPDEST PUSH0 DUP1 PUSH0 DUP1 PUSH0 PUSH1 0xA0 DUP7 DUP9 SUB SLT ISZERO PUSH2 0x2ECF JUMPI PUSH0 DUP1 REVERT JUMPDEST DUP6 CALLDATALOAD SWAP5 POP PUSH1 0x20 DUP7 ADD CALLDATALOAD PUSH2 0x2EE1 DUP2 PUSH2 0x2D10 JUMP JUMPDEST SWAP5 SWAP8 SWAP5 SWAP7 POP POP POP POP PUSH1 0x40 DUP4 ADD CALLDATALOAD SWAP3 PUSH1 0x60 DUP2 ADD CALLDATALOAD SWAP3 PUSH1 0x80 SWAP1 SWAP2 ADD CALLDATALOAD SWAP2 POP JUMP JUMPDEST PUSH0 PUSH1 0x20 DUP3 DUP5 SUB SLT ISZERO PUSH2 0x2F0F JUMPI PUSH0 DUP1 REVERT JUMPDEST POP CALLDATALOAD SWAP2 SWAP1 POP JUMP JUMPDEST PUSH0 PUSH1 0x20 DUP3 DUP5 SUB SLT ISZERO PUSH2 0x2F26 JUMPI PUSH0 DUP1 REVERT JUMPDEST DUP2 CALLDATALOAD PUSH2 0x2076 DUP2 PUSH2 0x2D10 JUMP JUMPDEST PUSH0 PUSH1 0x20 DUP3 DUP5 SUB SLT ISZERO PUSH2 0x2F41 JUMPI PUSH0 DUP1 REVERT JUMPDEST DUP2 CALLDATALOAD PUSH1 0x1 PUSH1 0x1 PUSH1 0x40 SHL SUB DUP2 GT ISZERO PUSH2 0x2F56 JUMPI PUSH0 DUP1 REVERT JUMPDEST DUP3 ADD PUSH1 0x1F DUP2 ADD DUP5 SGT PUSH2 0x2F66 JUMPI PUSH0 DUP1 REVERT JUMPDEST PUSH2 0x2F75 DUP5 DUP3 CALLDATALOAD PUSH1 0x20 DUP5 ADD PUSH2 0x2DFB JUMP JUMPDEST SWAP5 SWAP4 POP POP POP POP JUMP JUMPDEST PUSH0 DUP1 PUSH1 0x40 DUP4 DUP6 SUB SLT ISZERO PUSH2 0x2F8E JUMPI PUSH0 DUP1 REVERT JUMPDEST DUP3 CALLDATALOAD PUSH2 0x2F99 DUP2 PUSH2 0x2D10 JUMP JUMPDEST SWAP2 POP PUSH1 0x20 DUP4 ADD CALLDATALOAD PUSH1 0x1 PUSH1 0x1 PUSH1 0x40 SHL SUB DUP2 GT ISZERO PUSH2 0x2FB3 JUMPI PUSH0 DUP1 REVERT JUMPDEST PUSH2 0x2FBF DUP6 DUP3 DUP7 ADD PUSH2 0x2E36 JUMP JUMPDEST SWAP2 POP POP SWAP3 POP SWAP3 SWAP1 POP JUMP JUMPDEST PUSH0 DUP1 PUSH0 DUP1 PUSH1 0x80 DUP6 DUP8 SUB SLT ISZERO PUSH2 0x2FDC JUMPI PUSH0 DUP1 REVERT JUMPDEST DUP5 CALLDATALOAD SWAP4 POP PUSH1 0x20 DUP6 ADD CALLDATALOAD PUSH2 0x2FEE DUP2 PUSH2 0x2D10 JUMP JUMPDEST SWAP4 SWAP7 SWAP4 SWAP6 POP POP POP POP PUSH1 0x40 DUP3 ADD CALLDATALOAD SWAP2 PUSH1 0x60 ADD CALLDATALOAD SWAP1 JUMP JUMPDEST PUSH0 DUP2 MLOAD DUP1 DUP5 MSTORE DUP1 PUSH1 0x20 DUP5 ADD PUSH1 0x20 DUP7 ADD MCOPY PUSH0 PUSH1 0x20 DUP3 DUP7 ADD ADD MSTORE PUSH1 0x20 PUSH1 0x1F NOT PUSH1 0x1F DUP4 ADD AND DUP6 ADD ADD SWAP2 POP POP SWAP3 SWAP2 POP POP JUMP JUMPDEST PUSH1 0x20 DUP2 MSTORE PUSH0 PUSH2 0x2076 PUSH1 0x20 DUP4 ADD DUP5 PUSH2 0x3003 JUMP JUMPDEST PUSH0 PUSH1 0x20 DUP1 DUP4 ADD DUP2 DUP5 MSTORE DUP1 DUP6 MLOAD DUP1 DUP4 MSTORE PUSH1 0x40 SWAP3 POP DUP3 DUP7 ADD SWAP2 POP DUP3 DUP2 PUSH1 0x5 SHL DUP8 ADD ADD DUP5 DUP9 ADD PUSH0 JUMPDEST DUP4 DUP2 LT ISZERO PUSH2 0x310E JUMPI DUP9 DUP4 SUB PUSH1 0x3F NOT ADD DUP6 MSTORE DUP2 MLOAD DUP1 MLOAD DUP8 DUP6 MSTORE DUP1 MLOAD DUP9 DUP7 ADD DUP2 SWAP1 MSTORE PUSH1 0x60 SWAP2 DUP11 ADD SWAP1 DUP3 DUP8 ADD SWAP1 PUSH0 JUMPDEST DUP2 DUP2 LT ISZERO PUSH2 0x30EC JUMPI DUP4 MLOAD DUP1 MLOAD PUSH1 0x1 PUSH1 0x1 PUSH1 0xA0 SHL SUB SWAP1 DUP2 AND DUP6 MSTORE DUP15 DUP3 ADD MLOAD AND DUP15 DUP6 ADD MSTORE DUP13 DUP2 ADD MLOAD DUP14 DUP6 ADD MSTORE DUP6 DUP2 ADD MLOAD DUP7 DUP6 ADD MSTORE PUSH1 0x80 DUP1 DUP3 ADD MLOAD SWAP1 DUP6 ADD MSTORE PUSH1 0xA0 SWAP1 DUP2 ADD MLOAD SWAP1 DUP5 ADD MSTORE SWAP3 DUP13 ADD SWAP3 PUSH1 0xC0 SWAP1 SWAP3 ADD SWAP2 PUSH1 0x1 ADD PUSH2 0x3094 JUMP JUMPDEST POP POP SWAP3 DUP11 ADD MLOAD ISZERO ISZERO SWAP6 DUP11 ADD SWAP6 SWAP1 SWAP6 MSTORE POP SWAP5 DUP8 ADD SWAP5 SWAP3 POP SWAP1 DUP7 ADD SWAP1 PUSH1 0x1 ADD PUSH2 0x3068 JUMP JUMPDEST POP SWAP1 SWAP9 SWAP8 POP POP POP POP POP POP POP POP JUMP JUMPDEST PUSH0 PUSH1 0x20 DUP3 DUP5 SUB SLT ISZERO PUSH2 0x312C JUMPI PUSH0 DUP1 REVERT JUMPDEST POP MLOAD SWAP2 SWAP1 POP JUMP JUMPDEST PUSH0 DUP3 PUSH1 0x1F DUP4 ADD SLT PUSH2 0x3142 JUMPI PUSH0 DUP1 REVERT JUMPDEST DUP2 MLOAD PUSH2 0x3150 PUSH2 0x2E08 DUP3 PUSH2 0x2DD5 JUMP JUMPDEST DUP2 DUP2 MSTORE DUP5 PUSH1 0x20 DUP4 DUP7 ADD ADD GT ISZERO PUSH2 0x3164 JUMPI PUSH0 DUP1 REVERT JUMPDEST DUP2 PUSH1 0x20 DUP6 ADD PUSH1 0x20 DUP4 ADD MCOPY PUSH0 SWAP2 DUP2 ADD PUSH1 0x20 ADD SWAP2 SWAP1 SWAP2 MSTORE SWAP4 SWAP3 POP POP POP JUMP JUMPDEST DUP1 MLOAD PUSH1 0x4 DUP2 LT PUSH2 0x2060 JUMPI PUSH0 DUP1 REVERT JUMPDEST DUP1 MLOAD PUSH2 0x2060 DUP2 PUSH2 0x2D10 JUMP JUMPDEST PUSH0 PUSH1 0x20 DUP3 DUP5 SUB SLT ISZERO PUSH2 0x31A9 JUMPI PUSH0 DUP1 REVERT JUMPDEST DUP2 MLOAD PUSH1 0x1 PUSH1 0x1 PUSH1 0x40 SHL SUB DUP1 DUP3 GT ISZERO PUSH2 0x31BF JUMPI PUSH0 DUP1 REVERT JUMPDEST SWAP1 DUP4 ADD SWAP1 PUSH2 0x100 DUP3 DUP7 SUB SLT ISZERO PUSH2 0x31D3 JUMPI PUSH0 DUP1 REVERT JUMPDEST PUSH2 0x31DB PUSH2 0x2D38 JUMP JUMPDEST DUP3 MLOAD DUP3 DUP2 GT ISZERO PUSH2 0x31E9 JUMPI PUSH0 DUP1 REVERT JUMPDEST PUSH2 0x31F5 DUP8 DUP3 DUP7 ADD PUSH2 0x3133 JUMP JUMPDEST DUP3 MSTORE POP PUSH1 0x20 DUP4 ADD MLOAD DUP3 DUP2 GT ISZERO PUSH2 0x3209 JUMPI PUSH0 DUP1 REVERT JUMPDEST PUSH2 0x3215 DUP8 DUP3 DUP7 ADD PUSH2 0x3133 JUMP JUMPDEST PUSH1 0x20 DUP4 ADD MSTORE POP PUSH1 0x40 DUP4 ADD MLOAD PUSH1 0x40 DUP3 ADD MSTORE PUSH1 0x60 DUP4 ADD MLOAD PUSH1 0x60 DUP3 ADD MSTORE PUSH1 0x80 DUP4 ADD MLOAD PUSH1 0x80 DUP3 ADD MSTORE PUSH2 0x3245 PUSH1 0xA0 DUP5 ADD PUSH2 0x3180 JUMP JUMPDEST PUSH1 0xA0 DUP3 ADD MSTORE PUSH1 0xC0 DUP4 ADD MLOAD DUP3 DUP2 GT ISZERO PUSH2 0x325B JUMPI PUSH0 DUP1 REVERT JUMPDEST PUSH2 0x3267 DUP8 DUP3 DUP7 ADD PUSH2 0x3133 JUMP JUMPDEST PUSH1 0xC0 DUP4 ADD MSTORE POP PUSH2 0x3279 PUSH1 0xE0 DUP5 ADD PUSH2 0x318E JUMP JUMPDEST PUSH1 0xE0 DUP3 ADD MSTORE SWAP6 SWAP5 POP POP POP POP POP JUMP JUMPDEST PUSH4 0x4E487B71 PUSH1 0xE0 SHL PUSH0 MSTORE PUSH1 0x21 PUSH1 0x4 MSTORE PUSH1 0x24 PUSH0 REVERT JUMPDEST PUSH1 0x20 DUP1 DUP3 MSTORE PUSH1 0x33 SWAP1 DUP3 ADD MSTORE PUSH32 0x4572726F723A4E4654206E6F7420796574205665726966696564206F7220616C PUSH1 0x40 DUP3 ADD MSTORE PUSH19 0x3932B0B23C9032B73A32B91026B0B935B2BA17 PUSH1 0x69 SHL PUSH1 0x60 DUP3 ADD MSTORE PUSH1 0x80 ADD SWAP1 JUMP JUMPDEST PUSH0 PUSH1 0x20 DUP3 DUP5 SUB SLT ISZERO PUSH2 0x32FE JUMPI PUSH0 DUP1 REVERT JUMPDEST DUP2 MLOAD PUSH1 0x1 PUSH1 0x1 PUSH1 0x40 SHL SUB DUP1 DUP3 GT ISZERO PUSH2 0x3314 JUMPI PUSH0 DUP1 REVERT JUMPDEST SWAP1 DUP4 ADD SWAP1 PUSH1 0xE0 DUP3 DUP7 SUB SLT ISZERO PUSH2 0x3327 JUMPI PUSH0 DUP1 REVERT JUMPDEST PUSH2 0x332F PUSH2 0x2D61 JUMP JUMPDEST DUP3 MLOAD DUP3 DUP2 GT ISZERO PUSH2 0x333D JUMPI PUSH0 DUP1 REVERT JUMPDEST PUSH2 0x3349 DUP8 DUP3 DUP7 ADD PUSH2 0x3133 JUMP JUMPDEST DUP3 MSTORE POP PUSH1 0x20 DUP4 ADD MLOAD DUP3 DUP2 GT ISZERO PUSH2 0x335D JUMPI PUSH0 DUP1 REVERT JUMPDEST PUSH2 0x3369 DUP8 DUP3 DUP7 ADD PUSH2 0x3133 JUMP JUMPDEST PUSH1 0x20 DUP4 ADD MSTORE POP PUSH1 0x40 DUP4 ADD MLOAD DUP3 DUP2 GT ISZERO PUSH2 0x3380 JUMPI PUSH0 DUP1 REVERT JUMPDEST PUSH2 0x338C DUP8 DUP3 DUP7 ADD PUSH2 0x3133 JUMP JUMPDEST PUSH1 0x40 DUP4 ADD MSTORE POP PUSH1 0x60 DUP4 ADD MLOAD PUSH1 0x60 DUP3 ADD MSTORE PUSH2 0x33A8 PUSH1 0x80 DUP5 ADD PUSH2 0x3180 JUMP JUMPDEST PUSH1 0x80 DUP3 ADD MSTORE PUSH1 0xA0 DUP4 ADD MLOAD DUP3 DUP2 GT ISZERO PUSH2 0x33BE JUMPI PUSH0 DUP1 REVERT JUMPDEST PUSH2 0x33CA DUP8 DUP3 DUP7 ADD PUSH2 0x3133 JUMP JUMPDEST PUSH1 0xA0 DUP4 ADD MSTORE POP PUSH2 0x33DC PUSH1 0xC0 DUP5 ADD PUSH2 0x318E JUMP JUMPDEST PUSH1 0xC0 DUP3 ADD MSTORE SWAP6 SWAP5 POP POP POP POP POP JUMP JUMPDEST PUSH4 0x4E487B71 PUSH1 0xE0 SHL PUSH0 MSTORE PUSH1 0x11 PUSH1 0x4 MSTORE PUSH1 0x24 PUSH0 REVERT JUMPDEST PUSH0 PUSH1 0x1 DUP3 ADD PUSH2 0x340F JUMPI PUSH2 0x340F PUSH2 0x33EA JUMP JUMPDEST POP PUSH1 0x1 ADD SWAP1 JUMP JUMPDEST DUP2 DUP2 SUB DUP2 DUP2 GT ISZERO PUSH2 0x21DB JUMPI PUSH2 0x21DB PUSH2 0x33EA JUMP JUMPDEST PUSH0 DUP2 PUSH2 0x3437 JUMPI PUSH2 0x3437 PUSH2 0x33EA JUMP JUMPDEST POP PUSH0 NOT ADD SWAP1 JUMP JUMPDEST PUSH1 0x20 DUP1 DUP3 MSTORE PUSH1 0x2B SWAP1 DUP3 ADD MSTORE PUSH32 0x4572726F723A204E65656420436F6D62696E6520694D52434E465420436F6E74 PUSH1 0x40 DUP3 ADD MSTORE PUSH11 0x3930B1BA103334B939BA17 PUSH1 0xA9 SHL PUSH1 0x60 DUP3 ADD MSTORE PUSH1 0x80 ADD SWAP1 JUMP JUMPDEST PUSH4 0x4E487B71 PUSH1 0xE0 SHL PUSH0 MSTORE PUSH1 0x32 PUSH1 0x4 MSTORE PUSH1 0x24 PUSH0 REVERT JUMPDEST PUSH4 0x4E487B71 PUSH1 0xE0 SHL PUSH0 MSTORE PUSH1 0x31 PUSH1 0x4 MSTORE PUSH1 0x24 PUSH0 REVERT JUMPDEST PUSH0 PUSH1 0x20 DUP3 DUP5 SUB SLT ISZERO PUSH2 0x34C1 JUMPI PUSH0 DUP1 REVERT JUMPDEST DUP2 MLOAD PUSH1 0x1 PUSH1 0x1 PUSH1 0x40 SHL SUB DUP1 DUP3 GT ISZERO PUSH2 0x34D7 JUMPI PUSH0 DUP1 REVERT JUMPDEST SWAP1 DUP4 ADD SWAP1 PUSH1 0x40 DUP3 DUP7 SUB SLT ISZERO PUSH2 0x34EA JUMPI PUSH0 DUP1 REVERT JUMPDEST PUSH1 0x40 MLOAD PUSH1 0x40 DUP2 ADD DUP2 DUP2 LT DUP4 DUP3 GT OR ISZERO PUSH2 0x3505 JUMPI PUSH2 0x3505 PUSH2 0x2D24 JUMP JUMPDEST PUSH1 0x40 MSTORE DUP3 MLOAD DUP3 DUP2 GT ISZERO PUSH2 0x3516 JUMPI PUSH0 DUP1 REVERT JUMPDEST PUSH2 0x3522 DUP8 DUP3 DUP7 ADD PUSH2 0x3133 JUMP JUMPDEST DUP3 MSTORE POP PUSH1 0x20 DUP4 ADD MLOAD DUP3 DUP2 GT ISZERO PUSH2 0x3536 JUMPI PUSH0 DUP1 REVERT JUMPDEST PUSH2 0x3542 DUP8 DUP3 DUP7 ADD PUSH2 0x3133 JUMP JUMPDEST PUSH1 0x20 DUP4 ADD MSTORE POP SWAP6 SWAP5 POP POP POP POP POP JUMP JUMPDEST PUSH0 PUSH1 0x20 DUP3 DUP5 SUB SLT ISZERO PUSH2 0x3561 JUMPI PUSH0 DUP1 REVERT JUMPDEST DUP2 MLOAD PUSH1 0x1 PUSH1 0x1 PUSH1 0x40 SHL SUB DUP1 DUP3 GT ISZERO PUSH2 0x3577 JUMPI PUSH0 DUP1 REVERT JUMPDEST SWAP1 DUP4 ADD SWAP1 PUSH1 0xC0 DUP3 DUP7 SUB SLT ISZERO PUSH2 0x358A JUMPI PUSH0 DUP1 REVERT JUMPDEST PUSH2 0x3592 PUSH2 0x2D83 JUMP JUMPDEST DUP3 MLOAD DUP3 DUP2 GT ISZERO PUSH2 0x35A0 JUMPI PUSH0 DUP1 REVERT JUMPDEST PUSH2 0x35AC DUP8 DUP3 DUP7 ADD PUSH2 0x3133 JUMP JUMPDEST DUP3 MSTORE POP PUSH1 0x20 DUP4 ADD MLOAD PUSH1 0x20 DUP3 ADD MSTORE PUSH1 0x40 DUP4 ADD MLOAD PUSH1 0x40 DUP3 ADD MSTORE PUSH1 0x60 DUP4 ADD MLOAD PUSH1 0x60 DUP3 ADD MSTORE PUSH1 0x80 DUP4 ADD MLOAD PUSH1 0x80 DUP3 ADD MSTORE PUSH1 0xA0 DUP4 ADD MLOAD PUSH1 0xA0 DUP3 ADD MSTORE DUP1 SWAP4 POP POP POP POP SWAP3 SWAP2 POP POP JUMP JUMPDEST PUSH1 0xC0 DUP2 MSTORE PUSH0 PUSH2 0x35FF PUSH1 0xC0 DUP4 ADD DUP10 PUSH2 0x3003 JUMP JUMPDEST PUSH1 0x20 DUP4 ADD SWAP8 SWAP1 SWAP8 MSTORE POP PUSH1 0x40 DUP2 ADD SWAP5 SWAP1 SWAP5 MSTORE PUSH1 0x60 DUP5 ADD SWAP3 SWAP1 SWAP3 MSTORE PUSH1 0x80 DUP4 ADD MSTORE ISZERO ISZERO PUSH1 0xA0 SWAP1 SWAP2 ADD MSTORE SWAP2 SWAP1 POP JUMP JUMPDEST PUSH1 0x40 DUP2 MSTORE PUSH0 PUSH2 0x363C PUSH1 0x40 DUP4 ADD DUP6 PUSH2 0x3003 JUMP JUMPDEST SWAP1 POP DUP3 ISZERO ISZERO PUSH1 0x20 DUP4 ADD MSTORE SWAP4 SWAP3 POP POP POP JUMP JUMPDEST DUP1 DUP3 MUL DUP2 ISZERO DUP3 DUP3 DIV DUP5 EQ OR PUSH2 0x21DB JUMPI PUSH2 0x21DB PUSH2 0x33EA JUMP JUMPDEST DUP1 DUP3 ADD DUP1 DUP3 GT ISZERO PUSH2 0x21DB JUMPI PUSH2 0x21DB PUSH2 0x33EA JUMP JUMPDEST PUSH0 DUP3 PUSH2 0x3691 JUMPI PUSH4 0x4E487B71 PUSH1 0xE0 SHL PUSH0 MSTORE PUSH1 0x12 PUSH1 0x4 MSTORE PUSH1 0x24 PUSH0 REVERT JUMPDEST POP DIV SWAP1 JUMP JUMPDEST PUSH0 DUP3 MLOAD DUP1 PUSH1 0x20 DUP6 ADD DUP5 MCOPY PUSH0 SWAP3 ADD SWAP2 DUP3 MSTORE POP SWAP2 SWAP1 POP JUMP INVALID CALLDATASIZE ADDMOD SWAP5 LOG1 EXTCODESIZE LOG1 LOG3 0x21 MOD PUSH8 0xC828492DB98DCA3E KECCAK256 PUSH23 0xCC3735A920A3CA505D382BBCA2646970667358221220B1 0xB2 0xC9 0xAD COINBASE 0xC6 0x24 PUSH22 0x492921E24088848BF0A72C3E4DCFA59D84B4F5805BE3 0xD GAS PUSH5 0x736F6C6343 STOP ADDMOD NOT STOP CALLER "
		},
		"gasEstimates": {
			"creation": {
				"codeDepositCost": "2816400",
				"executionCost": "infinite",
				"totalCost": "infinite"
			},
			"external": {
				"CarbonNFTContract()": "2425",
				"CarbonTokenMaxSupply()": "2384",
				"DemandList(uint256)": "13188",
				"Matching()": "infinite",
				"Payment(uint256)": "infinite",
				"Settlement()": "infinite",
				"SupplyList(uint256)": "11082",
				"UPGRADE_INTERFACE_VERSION()": "infinite",
				"VERSION()": "infinite",
				"VERSION_RELEASE_CANDIDATE()": "239",
				"addDemand(uint256,address,uint256,uint256,uint256)": "infinite",
				"addSupply(uint256,address,uint256,uint256)": "infinite",
				"getDemand(uint256)": "13588",
				"getDemandCount()": "2336",
				"getRemainMatching()": "infinite",
				"getSupply(uint256)": "11414",
				"getSupplyCount()": "2403",
				"iMRCNFTContract()": "2446",
				"iMRCRetirementAddress()": "2447",
				"initialize()": "infinite",
				"matchKeys(uint256)": "4662",
				"onERC721Received(address,address,uint256,bytes)": "infinite",
				"owner()": "2398",
				"pause()": "infinite",
				"paused()": "2392",
				"proxiableUUID()": "infinite",
				"removeKey(uint256)": "infinite",
				"renounceOwnership()": "infinite",
				"serialNumberApproved(string)": "infinite",
				"setCarbonNFTContract(address)": "26827",
				"setiMRCNFTContract(address)": "26873",
				"transferOwnership(address)": "infinite",
				"unpause()": "infinite",
				"upgradeToAndCall(address,bytes)": "infinite"
			},
			"internal": {
				"DemandSort(UD60x18)": "infinite",
				"SupplySort(UD60x18)": "infinite",
				"_authorizeUpgrade(address)": "infinite",
				"checkWhiteListed(address)": "4333",
				"createMatch(uint256,uint256,UD60x18)": "infinite",
				"resetList()": "infinite"
			}
		},
		"methodIdentifiers": {
			"CarbonNFTContract()": "7a05ee2b",
			"CarbonTokenMaxSupply()": "3722ee4d",
			"DemandList(uint256)": "294af2a0",
			"Matching()": "a28c8e03",
			"Payment(uint256)": "d73298c5",
			"Settlement()": "cda70ec5",
			"SupplyList(uint256)": "c93d979f",
			"UPGRADE_INTERFACE_VERSION()": "ad3cb1cc",
			"VERSION()": "ffa1ad74",
			"VERSION_RELEASE_CANDIDATE()": "6ca0b0d7",
			"addDemand(uint256,address,uint256,uint256,uint256)": "1742f7ca",
			"addSupply(uint256,address,uint256,uint256)": "97ed54ff",
			"getDemand(uint256)": "1ac2733c",
			"getDemandCount()": "9b58a874",
			"getRemainMatching()": "f2ce965e",
			"getSupply(uint256)": "f77ee79d",
			"getSupplyCount()": "632dad13",
			"iMRCNFTContract()": "fa31465d",
			"iMRCRetirementAddress()": "80f44675",
			"initialize()": "8129fc1c",
			"matchKeys(uint256)": "926afe40",
			"onERC721Received(address,address,uint256,bytes)": "150b7a02",
			"owner()": "8da5cb5b",
			"pause()": "8456cb59",
			"paused()": "5c975abb",
			"proxiableUUID()": "52d1902d",
			"removeKey(uint256)": "a8d20d61",
			"renounceOwnership()": "715018a6",
			"serialNumberApproved(string)": "34844b42",
			"setCarbonNFTContract(address)": "a23c7493",
			"setiMRCNFTContract(address)": "2117f8e6",
			"transferOwnership(address)": "f2fde38b",
			"unpause()": "3f4ba83a",
			"upgradeToAndCall(address,bytes)": "4f1ef286"
		}
	},
	"abi": [
		{
			"inputs": [],
			"stateMutability": "nonpayable",
			"type": "constructor"
		},
		{
			"inputs": [
				{
					"internalType": "address",
					"name": "target",
					"type": "address"
				}
			],
			"name": "AddressEmptyCode",
			"type": "error"
		},
		{
			"inputs": [
				{
					"internalType": "address",
					"name": "implementation",
					"type": "address"
				}
			],
			"name": "ERC1967InvalidImplementation",
			"type": "error"
		},
		{
			"inputs": [],
			"name": "ERC1967NonPayable",
			"type": "error"
		},
		{
			"inputs": [],
			"name": "FailedInnerCall",
			"type": "error"
		},
		{
			"inputs": [],
			"name": "InvalidInitialization",
			"type": "error"
		},
		{
			"inputs": [],
			"name": "NotInitializing",
			"type": "error"
		},
		{
			"inputs": [
				{
					"internalType": "address",
					"name": "owner",
					"type": "address"
				}
			],
			"name": "OwnableInvalidOwner",
			"type": "error"
		},
		{
			"inputs": [
				{
					"internalType": "address",
					"name": "account",
					"type": "address"
				}
			],
			"name": "OwnableUnauthorizedAccount",
			"type": "error"
		},
		{
			"inputs": [
				{
					"internalType": "uint256",
					"name": "x",
					"type": "uint256"
				},
				{
					"internalType": "uint256",
					"name": "y",
					"type": "uint256"
				}
			],
			"name": "PRBMath_MulDiv18_Overflow",
			"type": "error"
		},
		{
			"inputs": [],
			"name": "UUPSUnauthorizedCallContext",
			"type": "error"
		},
		{
			"inputs": [
				{
					"internalType": "bytes32",
					"name": "slot",
					"type": "bytes32"
				}
			],
			"name": "UUPSUnsupportedProxiableUUID",
			"type": "error"
		},
		{
			"anonymous": false,
			"inputs": [
				{
					"indexed": false,
					"internalType": "uint64",
					"name": "version",
					"type": "uint64"
				}
			],
			"name": "Initialized",
			"type": "event"
		},
		{
			"anonymous": false,
			"inputs": [
				{
					"indexed": false,
					"internalType": "address",
					"name": "sender",
					"type": "address"
				},
				{
					"indexed": false,
					"internalType": "UD60x18",
					"name": "amount",
					"type": "uint256"
				}
			],
			"name": "NewDemand",
			"type": "event"
		},
		{
			"anonymous": false,
			"inputs": [
				{
					"indexed": false,
					"internalType": "address",
					"name": "buyer",
					"type": "address"
				},
				{
					"indexed": false,
					"internalType": "address",
					"name": "seller",
					"type": "address"
				},
				{
					"indexed": false,
					"internalType": "UD60x18",
					"name": "amount",
					"type": "uint256"
				},
				{
					"indexed": false,
					"internalType": "UD60x18",
					"name": "FinalPrice",
					"type": "uint256"
				}
			],
			"name": "NewMatching",
			"type": "event"
		},
		{
			"anonymous": false,
			"inputs": [
				{
					"indexed": false,
					"internalType": "address",
					"name": "sender",
					"type": "address"
				},
				{
					"indexed": false,
					"internalType": "UD60x18",
					"name": "amount",
					"type": "uint256"
				}
			],
			"name": "NewSupply",
			"type": "event"
		},
		{
			"anonymous": false,
			"inputs": [
				{
					"indexed": true,
					"internalType": "address",
					"name": "previousOwner",
					"type": "address"
				},
				{
					"indexed": true,
					"internalType": "address",
					"name": "newOwner",
					"type": "address"
				}
			],
			"name": "OwnershipTransferred",
			"type": "event"
		},
		{
			"anonymous": false,
			"inputs": [
				{
					"indexed": false,
					"internalType": "address",
					"name": "account",
					"type": "address"
				}
			],
			"name": "Paused",
			"type": "event"
		},
		{
			"anonymous": false,
			"inputs": [
				{
					"indexed": false,
					"internalType": "address",
					"name": "sender",
					"type": "address"
				},
				{
					"indexed": false,
					"internalType": "address",
					"name": "to",
					"type": "address"
				},
				{
					"indexed": false,
					"internalType": "UD60x18",
					"name": "amount",
					"type": "uint256"
				}
			],
			"name": "PaymentReceived",
			"type": "event"
		},
		{
			"anonymous": false,
			"inputs": [
				{
					"indexed": false,
					"internalType": "address",
					"name": "account",
					"type": "address"
				}
			],
			"name": "Unpaused",
			"type": "event"
		},
		{
			"anonymous": false,
			"inputs": [
				{
					"indexed": true,
					"internalType": "address",
					"name": "implementation",
					"type": "address"
				}
			],
			"name": "Upgraded",
			"type": "event"
		},
		{
			"inputs": [],
			"name": "CarbonNFTContract",
			"outputs": [
				{
					"internalType": "address",
					"name": "",
					"type": "address"
				}
			],
			"stateMutability": "view",
			"type": "function"
		},
		{
			"inputs": [],
			"name": "CarbonTokenMaxSupply",
			"outputs": [
				{
					"internalType": "uint256",
					"name": "",
					"type": "uint256"
				}
			],
			"stateMutability": "view",
			"type": "function"
		},
		{
			"inputs": [
				{
					"internalType": "uint256",
					"name": "",
					"type": "uint256"
				}
			],
			"name": "DemandList",
			"outputs": [
				{
					"internalType": "uint256",
					"name": "NFTID",
					"type": "uint256"
				},
				{
					"internalType": "address",
					"name": "demander",
					"type": "address"
				},
				{
					"internalType": "UD60x18",
					"name": "carbonAmount",
					"type": "uint256"
				},
				{
					"internalType": "UD60x18",
					"name": "reputation",
					"type": "uint256"
				},
				{
					"internalType": "UD60x18",
					"name": "price",
					"type": "uint256"
				},
				{
					"internalType": "UD60x18",
					"name": "rank",
					"type": "uint256"
				}
			],
			"stateMutability": "view",
			"type": "function"
		},
		{
			"inputs": [],
			"name": "Matching",
			"outputs": [],
			"stateMutability": "nonpayable",
			"type": "function"
		},
		{
			"inputs": [
				{
					"internalType": "uint256",
					"name": "tokenId",
					"type": "uint256"
				}
			],
			"name": "Payment",
			"outputs": [],
			"stateMutability": "payable",
			"type": "function"
		},
		{
			"inputs": [],
			"name": "Settlement",
			"outputs": [],
			"stateMutability": "nonpayable",
			"type": "function"
		},
		{
			"inputs": [
				{
					"internalType": "uint256",
					"name": "",
					"type": "uint256"
				}
			],
			"name": "SupplyList",
			"outputs": [
				{
					"internalType": "uint256",
					"name": "NFTID",
					"type": "uint256"
				},
				{
					"internalType": "address",
					"name": "supplier",
					"type": "address"
				},
				{
					"internalType": "UD60x18",
					"name": "carbonAmount",
					"type": "uint256"
				},
				{
					"internalType": "UD60x18",
					"name": "price",
					"type": "uint256"
				},
				{
					"internalType": "UD60x18",
					"name": "rank",
					"type": "uint256"
				}
			],
			"stateMutability": "view",
			"type": "function"
		},
		{
			"inputs": [],
			"name": "UPGRADE_INTERFACE_VERSION",
			"outputs": [
				{
					"internalType": "string",
					"name": "",
					"type": "string"
				}
			],
			"stateMutability": "view",
			"type": "function"
		},
		{
			"inputs": [],
			"name": "VERSION",
			"outputs": [
				{
					"internalType": "string",
					"name": "",
					"type": "string"
				}
			],
			"stateMutability": "view",
			"type": "function"
		},
		{
			"inputs": [],
			"name": "VERSION_RELEASE_CANDIDATE",
			"outputs": [
				{
					"internalType": "uint256",
					"name": "",
					"type": "uint256"
				}
			],
			"stateMutability": "view",
			"type": "function"
		},
		{
			"inputs": [
				{
					"internalType": "uint256",
					"name": "tokenId",
					"type": "uint256"
				},
				{
					"internalType": "address",
					"name": "demander",
					"type": "address"
				},
				{
					"internalType": "UD60x18",
					"name": "carbonAmount",
					"type": "uint256"
				},
				{
					"internalType": "UD60x18",
					"name": "reputation",
					"type": "uint256"
				},
				{
					"internalType": "UD60x18",
					"name": "price",
					"type": "uint256"
				}
			],
			"name": "addDemand",
			"outputs": [],
			"stateMutability": "nonpayable",
			"type": "function"
		},
		{
			"inputs": [
				{
					"internalType": "uint256",
					"name": "tokenId",
					"type": "uint256"
				},
				{
					"internalType": "address",
					"name": "supplier",
					"type": "address"
				},
				{
					"internalType": "UD60x18",
					"name": "carbonAmount",
					"type": "uint256"
				},
				{
					"internalType": "UD60x18",
					"name": "price",
					"type": "uint256"
				}
			],
			"name": "addSupply",
			"outputs": [],
			"stateMutability": "nonpayable",
			"type": "function"
		},
		{
			"inputs": [
				{
					"internalType": "uint256",
					"name": "id",
					"type": "uint256"
				}
			],
			"name": "getDemand",
			"outputs": [
				{
					"components": [
						{
							"internalType": "uint256",
							"name": "NFTID",
							"type": "uint256"
						},
						{
							"internalType": "address",
							"name": "demander",
							"type": "address"
						},
						{
							"internalType": "UD60x18",
							"name": "carbonAmount",
							"type": "uint256"
						},
						{
							"internalType": "UD60x18",
							"name": "reputation",
							"type": "uint256"
						},
						{
							"internalType": "UD60x18",
							"name": "price",
							"type": "uint256"
						},
						{
							"internalType": "UD60x18",
							"name": "rank",
							"type": "uint256"
						}
					],
					"internalType": "struct MarketRequirementV1.DemandData",
					"name": "",
					"type": "tuple"
				}
			],
			"stateMutability": "view",
			"type": "function"
		},
		{
			"inputs": [],
			"name": "getDemandCount",
			"outputs": [
				{
					"internalType": "uint256",
					"name": "",
					"type": "uint256"
				}
			],
			"stateMutability": "view",
			"type": "function"
		},
		{
			"inputs": [],
			"name": "getRemainMatching",
			"outputs": [
				{
					"components": [
						{
							"components": [
								{
									"internalType": "address",
									"name": "demander",
									"type": "address"
								},
								{
									"internalType": "address",
									"name": "supplier",
									"type": "address"
								},
								{
									"internalType": "uint256",
									"name": "BuyerNFTID",
									"type": "uint256"
								},
								{
									"internalType": "uint256",
									"name": "SellerNFTID",
									"type": "uint256"
								},
								{
									"internalType": "UD60x18",
									"name": "tradingAmount",
									"type": "uint256"
								},
								{
									"internalType": "UD60x18",
									"name": "FinalPrice",
									"type": "uint256"
								}
							],
							"internalType": "struct Market.MatchDetail[]",
							"name": "matchDetails",
							"type": "tuple[]"
						},
						{
							"internalType": "bool",
							"name": "complete",
							"type": "bool"
						}
					],
					"internalType": "struct Market.MatchData[]",
					"name": "",
					"type": "tuple[]"
				}
			],
			"stateMutability": "view",
			"type": "function"
		},
		{
			"inputs": [
				{
					"internalType": "uint256",
					"name": "id",
					"type": "uint256"
				}
			],
			"name": "getSupply",
			"outputs": [
				{
					"components": [
						{
							"internalType": "uint256",
							"name": "NFTID",
							"type": "uint256"
						},
						{
							"internalType": "address",
							"name": "supplier",
							"type": "address"
						},
						{
							"internalType": "UD60x18",
							"name": "carbonAmount",
							"type": "uint256"
						},
						{
							"internalType": "UD60x18",
							"name": "price",
							"type": "uint256"
						},
						{
							"internalType": "UD60x18",
							"name": "rank",
							"type": "uint256"
						}
					],
					"internalType": "struct MarketRequirementV1.SupplyData",
					"name": "",
					"type": "tuple"
				}
			],
			"stateMutability": "view",
			"type": "function"
		},
		{
			"inputs": [],
			"name": "getSupplyCount",
			"outputs": [
				{
					"internalType": "uint256",
					"name": "",
					"type": "uint256"
				}
			],
			"stateMutability": "view",
			"type": "function"
		},
		{
			"inputs": [],
			"name": "iMRCNFTContract",
			"outputs": [
				{
					"internalType": "address",
					"name": "",
					"type": "address"
				}
			],
			"stateMutability": "view",
			"type": "function"
		},
		{
			"inputs": [],
			"name": "iMRCRetirementAddress",
			"outputs": [
				{
					"internalType": "address",
					"name": "",
					"type": "address"
				}
			],
			"stateMutability": "view",
			"type": "function"
		},
		{
			"inputs": [],
			"name": "initialize",
			"outputs": [],
			"stateMutability": "nonpayable",
			"type": "function"
		},
		{
			"inputs": [
				{
					"internalType": "uint256",
					"name": "",
					"type": "uint256"
				}
			],
			"name": "matchKeys",
			"outputs": [
				{
					"internalType": "uint256",
					"name": "",
					"type": "uint256"
				}
			],
			"stateMutability": "view",
			"type": "function"
		},
		{
			"inputs": [
				{
					"internalType": "address",
					"name": "",
					"type": "address"
				},
				{
					"internalType": "address",
					"name": "from",
					"type": "address"
				},
				{
					"internalType": "uint256",
					"name": "tokenId",
					"type": "uint256"
				},
				{
					"internalType": "bytes",
					"name": "data",
					"type": "bytes"
				}
			],
			"name": "onERC721Received",
			"outputs": [
				{
					"internalType": "bytes4",
					"name": "",
					"type": "bytes4"
				}
			],
			"stateMutability": "nonpayable",
			"type": "function"
		},
		{
			"inputs": [],
			"name": "owner",
			"outputs": [
				{
					"internalType": "address",
					"name": "",
					"type": "address"
				}
			],
			"stateMutability": "view",
			"type": "function"
		},
		{
			"inputs": [],
			"name": "pause",
			"outputs": [],
			"stateMutability": "nonpayable",
			"type": "function"
		},
		{
			"inputs": [],
			"name": "paused",
			"outputs": [
				{
					"internalType": "bool",
					"name": "",
					"type": "bool"
				}
			],
			"stateMutability": "view",
			"type": "function"
		},
		{
			"inputs": [],
			"name": "proxiableUUID",
			"outputs": [
				{
					"internalType": "bytes32",
					"name": "",
					"type": "bytes32"
				}
			],
			"stateMutability": "view",
			"type": "function"
		},
		{
			"inputs": [
				{
					"internalType": "uint256",
					"name": "matchKeyToRemove",
					"type": "uint256"
				}
			],
			"name": "removeKey",
			"outputs": [],
			"stateMutability": "nonpayable",
			"type": "function"
		},
		{
			"inputs": [],
			"name": "renounceOwnership",
			"outputs": [],
			"stateMutability": "nonpayable",
			"type": "function"
		},
		{
			"inputs": [
				{
					"internalType": "string",
					"name": "",
					"type": "string"
				}
			],
			"name": "serialNumberApproved",
			"outputs": [
				{
					"internalType": "bool",
					"name": "",
					"type": "bool"
				}
			],
			"stateMutability": "view",
			"type": "function"
		},
		{
			"inputs": [
				{
					"internalType": "address",
					"name": "_contract",
					"type": "address"
				}
			],
			"name": "setCarbonNFTContract",
			"outputs": [],
			"stateMutability": "nonpayable",
			"type": "function"
		},
		{
			"inputs": [
				{
					"internalType": "address",
					"name": "_contract",
					"type": "address"
				}
			],
			"name": "setiMRCNFTContract",
			"outputs": [],
			"stateMutability": "nonpayable",
			"type": "function"
		},
		{
			"inputs": [
				{
					"internalType": "address",
					"name": "newOwner",
					"type": "address"
				}
			],
			"name": "transferOwnership",
			"outputs": [],
			"stateMutability": "nonpayable",
			"type": "function"
		},
		{
			"inputs": [],
			"name": "unpause",
			"outputs": [],
			"stateMutability": "nonpayable",
			"type": "function"
		},
		{
			"inputs": [
				{
					"internalType": "address",
					"name": "newImplementation",
					"type": "address"
				},
				{
					"internalType": "bytes",
					"name": "data",
					"type": "bytes"
				}
			],
			"name": "upgradeToAndCall",
			"outputs": [],
			"stateMutability": "payable",
			"type": "function"
		}
	]
}